00                                                   1111706899000189BG CONSULTORIA EM GESTAO EMPREROSELI CRISTINA GAZERUA CLAUDIO DOS SANTOS                            JOAO ARANHA         13145650PAULINIA            SP001938744524                                                            20150111511        1               111706899000189                  *
10111706899000189000000000000000000000000000000000000BG CONSULTORIA EM GESTAO EMPRESARIAL LTDRUA CLAUDIO DOS SANTOS                            JOAO ARANHA         13145650PAULINIA            SP001938744524s8599604a0002515    2003     000000000000000000000000000000000000000000000000000000000000                000000000000000000000000000000000000000000000    *
12111706899000189000000000000000000000000000000000000000000000000000000000000000000 000000000000000000000000000000                                000000000000000            000000000000000000000000000000000000000000000000000000000000000000000000000000000000000000000000000000000000000000000000000000000000000000000000000000000000000000000000000000000000      *
30111706899000189               123926230762001201011ROSELI CRISTINA GAZETA                                                                                       01210000000000072400000000000000000    000000000000000000000000000000000000000000000000000000000000                                                                                                  *
90999999999999999999999999999999999999999999999999999                                                                                                                                                                                                                                                                                                                  *
