00                                                   1109089377000133E L P DE SOUZA ME             HELIO FERREIRA PIRESPRACA DOM PEDRO II 330                            CENTRO              87600000NOVA ESPERANCA      PR004432520077                                                            20131011511        1               109089377000133                  *
10109089377000133000000000000000000000000000000000000E L P DE SOUZA ME                       PRACA DOM PEDRO II 330                            CENTRO              87600000NOVA ESPERANCA      PR004432520077s8211300a0002515    2003     000000000000000000000000000000000000000000000000000000000000                000000000000000000000000000000000000000000000    *
12109089377000133000000000000000000000000000000000000000000000000000000000000000000 000000000000000000000000000000                                000000000000000            000000000000000000000000000000000000000000000000000000000000000000000000000000000000000000000000000000000000000000000000000000000000000000000000000000000000000000000000000000000000      *
30109089377000133               124931000100108201311HELIO FERREIRA PIRES JUNIOR                                                                                  01210000000000067800000000000000000    000000000000000000000000000000000000000000000000000000000000                                                                                                  *
90999999999999999999999999999999999999999999999999999                                                                                                                                                                                                                                                                                                                  *
