00                                                   1117839113000188NELY BACIC CAVALCANTE 27015556NELY BACIC CAVALCANTRUA CROATA 451 APTO 41                            VILA IPOJUCA        05056020SAO PAULO           SP001120931054                                                            20170411511        1               117839113000188                  *
10117839113000188000000000000000000000000000000000000NELY BACIC CAVALCANTE 27015556472       RUA CROATA 451 APTO 41                            VILA IPOJUCA        05056020SAO PAULO           SP001120931054s7319002a0002515    2003     000000000000000000000000000000000000000000000000000000000000                000000000000000000000000000000000000000000000    *
12117839113000188000000000000000000000000000000000000000000000000000000000000000000 000000000000000000000000000000                                000000000000000            000000000000000000000000000000000000000000000000000000000000000000000000000000000000000000000000000000000000000000000000000000000000000000000000000000000000000000000000000000000000      *
30117839113000188               132466738952803201311NELY BACIC CAVALCANTE                                                                                        01210000000000180000000000000000000    000000000000000000000000000000000000000000000000000000000000                                                                                                  *
90999999999999999999999999999999999999999999999999999                                                                                                                                                                                                                                                                                                                  *
