00                                                   1115530216000136CHEGUEI TRANSPORTES LTDA      JUVENIL LIRA DE LIMARUA AGUARA 83                                     INHAUMA             21051260RIO DE JANEIRO      RJ002138661179                                                            20150311511        1               115530216000136                  *
10115530216000136000000000000000000000000000000000000CHEGUEI TRANSPORTES LTDA                RUA AGUARA 83                                     INHAUMA             21051260RIO DE JANEIRO      RJ002138661179s4930202a0002612    2003     000000000000000000000000000000000000000000000000000000000000                000000000000000000000000000000000000000000000    *
12115530216000136000000000000000000000000000000000000000000000000000000000000000000 000000000000000000000000000000                                000000000000000            000000000000000000000000000000000000000000000000000000000000000000000000000000000000000000000000000000000000000000000000000000000000000000000000000000000000000000000000000000000000      *
30115530216000136               112607338952505201211JUVENIL LIRA DE LIMA                                                                                         01210000000000078800000000000000000    000000000000000000000000000000000000000000000000000000000000                                                                                                  *
30115530216000136               116483062112903201211GONCALO LIRA DE LIMA                                                                                         01210000000000078800000000000000000    000000000000000000000000000000000000000000000000000000000000                                                                                                  *
90999999999999999999999999999999999999999999999999999                                                                                                                                                                                                                                                                                                                  *
