00                                                   1116758832000101CIRCUITO STARTUP MARKETING E ETIAGO DE ASEVEDO LEARUA VISCONDE DE SANTA ISABEL 507301               VILA ISABEL         20560121RIO DE JANEIRO      RJ002133493141                                                            20140611511        1               116758832000101                  *
10116758832000101000000000000000000000000000000000000CIRCUITO STARTUP MARKETING E E          RUA VISCONDE DE SANTA ISABEL 507301               VILA ISABEL         20560121RIO DE JANEIRO      RJ002133493141s8230001a0002515    2003     000000000000000000000000000000000000000000000000000000000000                000000000000000000000000000000000000000000000    *
12116758832000101000000000000000000000000000000000000000000000000000000000000000000 000000000000000000000000000000                                000000000000000            000000000000000000000000000000000000000000000000000000000000000000000000000000000000000000000000000000000000000000000000000000000000000000000000000000000000000000000000000000000000      *
30116758832000101               133748396050110201211BARBARA PACHECO LUDWIG PEREIRA                                                                               01231000000000080000000000000000000  05000000000008800000000000000000000000000000000000000000000000                                                                                                  *
90999999999999999999999999999999999999999999999999999                                                                                                                                                                                                                                                                                                                  *
