00                                                   1110988607000185VICTORY GLORY TECNOLOGIA E SERWANDER CAMPOS DELGADR PROF TORRES HOMEM 229                           BOQUEIRAO           11025020SANTOS              SP001333490747                                                            20150711511        1               110988607000185                  *
10110988607000185000000000000000000000000000000000000VICTORY GLORY TECNOLOGIA E SERVICOS EMPRR PROF TORRES HOMEM 229                           BOQUEIRAO           11025020SANTOS              SP001333490747s7120100a0002515    2003     000000000000000000000000000000000000000000000000000000000000                000000000000000000000000000000000000000000000    *
12110988607000185000000000000000000000000000000000000000000000000000000000000000000 000000000000000000000000000000                                000000000000000            000000000000000000000000000000000000000000000000000000000000000000000000000000000000000000000000000000000000000000000000000000000000000000000000000000000000000000000000000000000000      *
30110988607000185               170466757652206200911WANDER CAMPOS DELGADO                                                                                        01210000000000008668000000000000000    000000000000000000000000000000000000000000000000000000000000                                                                                                  *
90999999999999999999999999999999999999999999999999999                                                                                                                                                                                                                                                                                                                  *
