00                                                   1109383364000172ACT FITNESS ESPORTES LTDA ME  ADALBERTO VIRGINELLIRUA DOUTOR PAULO MEIRELES 186                     LAUZANE PAULISTA    02441090SAO PAULO           SP001178873141                                                            20160911511        1               109383364000172                  *
10109383364000172000000000000000000000000000000000000ACT FITNESS ESPORTES LTDA ME            RUA DOUTOR PAULO MEIRELES 186                     LAUZANE PAULISTA    02441090SAO PAULO           SP001178873141s7721700a0002515    2003     000000000000000000000000000000000000000000000000000000000000                000000000000000000000000000000000000000000000    *
12109383364000172000000000000000000000000000000000000000000000000000000000000000000 000000000000000000000000000000                                000000000000000            000000000000000000000000000000000000000000000000000000000000000000000000000000000000000000000000000000000000000000000000000000000000000000000000000000000000000000000000000000000000      *
30109383364000172               125396611241502200811ADALBERTO VIRGINELLI                                                                                         01210000000000088000000000000000000    000000000000000000000000000000000000000000000000000000000000                                                                                                  *
90999999999999999999999999999999999999999999999999999                                                                                                                                                                                                                                                                                                                  *
