00                                                   1119826253000147RODRIGO VASQUES CRUZ 070065336RODRIGO VASQUES CRUZALAMEDA GRAJAU 218                                ALPHAVILLE INDUSTRIA06454050BARUERI             SP011985885510                                                            20170411511        1               119826253000147                  *
10119826253000147000000000000000000000000000000000000RODRIGO VASQUES CRUZ 07006533686        ALAMEDA GRAJAU 218                                ALPHAVILLE INDUSTRIA06454050BARUERI             SP011985885510s9511800a0002515    2003     000000000000000000000000000000000000000000000000000000000000                000000000000000000000000000000000000000000000    *
12119826253000147000000000000000000000000000000000000000000000000000000000000000000 000000000000000000000000000000                                000000000000000            000000000000000000000000000000000000000000000000000000000000000000000000000000000000000000000000000000000000000000000000000000000000000000000000000000000000000000000000000000000000      *
30119826253000147               134283823490603201411RODRIGO VASQUES CRUZ                                                                                         01210000000000093700000000000000000    000000000000000000000000000000000000000000000000000000000000                                                                                                  *
90999999999999999999999999999999999999999999999999999                                                                                                                                                                                                                                                                                                                  *
