00                                                   1113375921000180EXPRESS SERVICOS EM ESQUADRIASLUIZ CARLOS TOCANTINRUA TATSUO OKASHI N 182                           JARDIM FELICIDADE   05142000SAO PAULO           SP001136410949                                                            20141211511        1               113375921000180                  *
10113375921000180000000000000000000000000000000000000EXPRESS SERVICOS EM ESQUADRIAS E DECORACRUA TATSUO OKASHI N 182                           JARDIM FELICIDADE   05142000SAO PAULO           SP001136410949s4330402a0002507    2003     000000000000000000000000000000000000000000000000000000000000                000000000000000000000000000000000000000000000    *
12113375921000180000000000000000000000000000000000000000000000000000000000000000000 000000000000000000000000000000                                000000000000000            000000000000000000000000000000000000000000000000000000000000000000000000000000000000000000000000000000000000000000000000000000000000000000000000000000000000000000000000000000000000      *
30113375921000180               106173482080103201111LUIZ CARLOS TOCANTINS DO CARMO                                                                               01210000000000072400000000000000000    000000000000000000000000000000000000000000000000000000000000                                                                                                  *
90999999999999999999999999999999999999999999999999999                                                                                                                                                                                                                                                                                                                  *
