00                                                   1121966606000156EDILSON DE FREITAS ME         EDILSON DE FREITAS  RUA TERRA ROXA 57                                 SAO BRAS            82315410CURITIBA            PR004184052970                                                            20150411511        1               121966606000156                  *
10121966606000156000000000000000000000000000000000000EDILSON DE FREITAS ME                   RUA TERRA ROXA 57                                 SAO BRAS            82315410CURITIBA            PR004184052970s6821801a0002515    2003     000000000000000000000000000000000000000000000000000000000000                000000000000000000000000000000000000000000000    *
12121966606000156000000000000000000000000000000000000000000000000000000000000000000 000000000000000000000000000000                                000000000000000            000000000000000000000000000000000000000000000000000000000000000000000000000000000000000000000000000000000000000000000000000000000000000000000000000000000000000000000000000000000000      *
30121966606000156               123920685361902201511EDILSON DE FREITAS                                                                                           01210000000000078800000000000000000    000000000000000000000000000000000000000000000000000000000000                                                                                                  *
90999999999999999999999999999999999999999999999999999                                                                                                                                                                                                                                                                                                                  *
