00                                                   1112086819000100LION LOCACAO DE BRINQUEDOS LTDCRISTINA CAROPRESO  AVLASAR SEGALL188                                 IMIRIM              02543010SAO PAULO           SP001127626710                                                            20150811511        1               112086819000100                  *
10112086819000100000000000000000000000000000000000000LION LOCACAO DE BRINQUEDOS LTDA EPP     AVLASAR SEGALL188                                 IMIRIM              02543010SAO PAULO           SP001127626710s7721700a0002515    2003     000000000000000000000000000000000000000000000000000000000000                000000000000000000000000000000000000000000000    *
12112086819000100000000000000000000000000000000000000000000000000000000000000000000 000000000000000000000000000000                                000000000000000            000000000000000000000000000000000000000000000000000000000000000000000000000000000000000000000000000000000000000000000000000000000000000000000000000000000000000000000000000000000000      *
30112086819000100               168899720830104201011CRISTINA CAROPRESO                                                                                           01210000000000078800000000000000000    000000000000000000000000000000000000000000000000000000000000                                                                                                  *
90999999999999999999999999999999999999999999999999999                                                                                                                                                                                                                                                                                                                  *
