00                                                   1113664334000101BRUNO VELOSO DE SANTANA E CIA BRUNO VELOSO DE SANTRUA CONSELHEIRO DANTAS N 57 EDF PARAGUASSU SA     COMERCIO            40015070SALVADOR            BA007132525430                                                            20150911511        1               113664334000101                  *
10113664334000101000000000000000000000000000000000000BRUNO VELOSO DE SANTANA E CIA LTDA ME   RUA CONSELHEIRO DANTAS N 57 EDF PARAGUASSU SA     COMERCIO            40015070SALVADOR            BA007132525430s7119703a0002515    2003     000000000000000000000000000000000000000000000000000000000000                000000000000000000000000000000000000000000000    *
12113664334000101000000000000000000000000000000000000000000000000000000000000000000 000000000000000000000000000000                                000000000000000            000000000000000000000000000000000000000000000000000000000000000000000000000000000000000000000000000000000000000000000000000000000000000000000000000000000000000000000000000000000000      *
30113664334000101               126753660661805201111BRUNO VELOSO DE SANTANA                                                                                      01210000000000078800000000000000000    000000000000000000000000000000000000000000000000000000000000                                                                                                  *
90999999999999999999999999999999999999999999999999999                                                                                                                                                                                                                                                                                                                  *
