00                                                   1121519524000163PH AG TECNOLOGIA DA INFORMACAOPAULO ALEXANDRE VIEIRUA PIO DUTRA 181                                 ILHA DO GOVERNADOR  21911200RIO DE JANEIRO      RJ021964330922                                                            20150211511        1               121519524000163                  *
10121519524000163000000000000000000000000000000000000PH AG TECNOLOGIA DA INFORMACAO EIRELI   RUA PIO DUTRA 181                                 ILHA DO GOVERNADOR  21911200RIO DE JANEIRO      RJ021964330922s6311900a0002515    2003     000000000000000000000000000000000000000000000000000000000000                000000000000000000000000000000000000000000000    *
12121519524000163000000000000000000000000000000000000000000000000000000000000000000 000000000000000000000000000000                                000000000000000            000000000000000000000000000000000000000000000000000000000000000000000000000000000000000000000000000000000000000000000000000000000000000000000000000000000000000000000000000000000000      *
30121519524000163               125369321430101201511PAULO ALEXANDRE VIEIRA SOUTO                                                                                 01210000000000078800000000000000000    000000000000000000000000000000000000000000000000000000000000                                                                                                  *
90999999999999999999999999999999999999999999999999999                                                                                                                                                                                                                                                                                                                  *
