00                                                   1115179098000163ARTS OFICINA COMERCIO DE COMUNMARILZA MARCATTI    RUA ARMINDA DE LIMA 285                           CENTRO              07095010GUARULHOS           SP001124472551                                                            20150111511        1               115179098000163                  *
10115179098000163000000000000000000000000000000000000ARTS OFICINA COMERCIO DE COMUNICACAO VISRUA ARMINDA DE LIMA 285                           CENTRO              07095010GUARULHOS           SP001124472551s4741500a0002515    2003     000000000000000000000000000000000000000000000000000000000000                000000000000000000000000000000000000000000000    *
12115179098000163000000000000000000000000000000000000000000000000000000000000000000 000000000000000000000000000000                                000000000000000            000000000000000000000000000000000000000000000000000000000000000000000000000000000000000000000000000000000000000000000000000000000000000000000000000000000000000000000000000000000000      *
30115179098000163               108360909230101201211MARILZA MARCATTI                                                                                             01231000000000084000000000000000000    000000000000000000000000000000000000000000000000000000000000                                                                                                  *
90999999999999999999999999999999999999999999999999999                                                                                                                                                                                                                                                                                                                  *
