00                                                   1117379095000107LBX TRANSPORTES EIRELI ME     EVA DE ASSIS RIBEIRORUA ORLANDO BOAVENTURA DA COSTA 202               JARDIM ELDORADO     07500000SANTA ISABEL        SP011996373635                                                            20150911511        1               117379095000107                  *
10117379095000107000000000000000000000000000000000000LBX TRANSPORTES EIRELI ME               RUA ORLANDO BOAVENTURA DA COSTA 202               JARDIM ELDORADO     07500000SANTA ISABEL        SP011996373635s4930202a0002612    2003     000000000000000000000000000000000000000000000000000000000000                000000000000000000000000000000000000000000000    *
12117379095000107000000000000000000000000000000000000000000000000000000000000000000 000000000000000000000000000000                                000000000000000            000000000000000000000000000000000000000000000000000000000000000000000000000000000000000000000000000000000000000000000000000000000000000000000000000000000000000000000000000000000000      *
30117379095000107               119691547341007201411EVA DE ASSIS RIBEIRO DE BRITTO                                                                               01210000000000078888000000000000000    000000000000000000000000000000000000000000000000000000000000                                                                                                  *
90999999999999999999999999999999999999999999999999999                                                                                                                                                                                                                                                                                                                  *
