00                                                   1104217515000107GRAFICA BR LTDA ME            ADRIANO DE PAULA NEGRUA CAROLINA FLORENCE 1461                        VILA NOVA           13073076CAMPINAS            SP001932421778                                                            20170411511        1               104217515000107                  *
10104217515000107000000000000000000000000000000000000GRAFICA BR LTDA ME                      RUA CAROLINA FLORENCE 1461                        VILA NOVA           13073076CAMPINAS            SP001932421778s1813099a0002507    2003     000000000000000000000000000000000000000000000000000000000000                000000000000000000000000000000000000000000000    *
12104217515000107000000000000000000000000000000000000000000000000000000000000000000 000000000000000000000000000000                                000000000000000            000000000000000000000000000000000000000000000000000000000000000000000000000000000000000000000000000000000000000000000000000000000000000000000000000000000000000000000000000000000000      *
30104217515000107               122980544970712200011MARLENE VILAS BOAS                                                                                           01231000000000093700000000000000000    000000000000000000000000000000000000000000000000000000000000                                                                                                  *
30104217515000107               125027770560712200011ADRIANO DE PAULA NEGRINHO                                                                                    01210000000000093700000000000000000    000000000000000000000000000000000000000000000000000000000000                                                                                                  *
90999999999999999999999999999999999999999999999999999                                                                                                                                                                                                                                                                                                                  *
