00                                                   1115694085000122MAURICIO MOREIRA DE SOUSA     MAURICIO MOREIRA DE RUA MARIO FONGARO 80 AP33                         VILA MARLENE        09732530SAO BERNARDO DO CAMPSP011989071556                                                            20170411511        1               115694085000122                  *
10115694085000122000000000000000000000000000000000000MAURICIO MOREIRA DE SOUSA               RUA MARIO FONGARO 80 AP33                         VILA MARLENE        09732530SAO BERNARDO DO CAMPSP011989071556s8230001a0002515    2003     000000000000000000000000000000000000000000000000000000000000                000000000000000000000000000000000000000000000    *
12115694085000122000000000000000000000000000000000000000000000000000000000000000000 000000000000000000000000000000                                000000000000000            000000000000000000000000000000000000000000000000000000000000000000000000000000000000000000000000000000000000000000000000000000000000000000000000000000000000000000000000000000000000      *
30115694085000122               125537854201206201211MAURICIO MOREIRA DE SOUSA                                                                                    01210000000000187400000000000000000    000000000000000000000000000000000000000000000000000000000000                                                                                                  *
90999999999999999999999999999999999999999999999999999                                                                                                                                                                                                                                                                                                                  *
