00                                                   1109393510000140JOSE FERNANDO DE SOUSA ANDRADEJOSE FERNANDO DE SOURUA RIBEIRAO CLARO 378                            VILA OLIMPIA        04549050SAO PAULO           SP001138454770                                                            20170411511        1               109393510000140                  *
10109393510000140000000000000000000000000000000000000JOSE FERNANDO DE SOUSA ANDRADE          RUA RIBEIRAO CLARO 378                            VILA OLIMPIA        04549050SAO PAULO           SP001138454770s1821100a0002507    2003     000000000000000000000000000000000000000000000000000000000000                000000000000000000000000000000000000000000000    *
12109393510000140000000000000000000000000000000000000000000000000000000000000000000 000000000000000000000000000000                                000000000000000            000000000000000000000000000000000000000000000000000000000000000000000000000000000000000000000000000000000000000000000000000000000000000000000000000000000000000000000000000000000000      *
30109393510000140               123079556410102200811JOSE FERNANDO DE SOUSA ANDRADE                                                                               01210000000000093700000000000000000    000000000000000000000000000000000000000000000000000000000000                                                                                                  *
90999999999999999999999999999999999999999999999999999                                                                                                                                                                                                                                                                                                                  *
