00                                                   1116512979000117ALTEMIR GOMES DE CASTRO 187703ALTEMIR GOMES DE CASRUA RODRIGO RAMOS AYALA                           JD DENADAI          13181390SUMARE              SP001938327383                                                            20150111511        1               116512979000117                  *
10116512979000117000000000000000000000000000000000000ALTEMIR GOMES DE CASTRO 18770362858     RUA RODRIGO RAMOS AYALA                           JD DENADAI          13181390SUMARE              SP001938327383s5320202a0002612    2003     000000000000000000000000000000000000000000000000000000000000                000000000000000000000000000000000000000000000    *
12116512979000117000000000000000000000000000000000000000000000000000000000000000000 000000000000000000000000000000                                000000000000000            000000000000000000000000000000000000000000000000000000000000000000000000000000000000000000000000000000000000000000000000000000000000000000000000000000000000000000000000000000000000      *
30116512979000117               125983512331708201211ALTEMIR GOMES DE CASTRO                                                                                      01210000000000080000000000000000000    000000000000000000000000000000000000000000000000000000000000                                                                                                  *
90999999999999999999999999999999999999999999999999999                                                                                                                                                                                                                                                                                                                  *
