00                                                   1109193344000139ACM SERIVOS DE DIGITACAO LTDA ADRIANA CARDOSO DE MRUA BARATA RIBEIRO 450 1003                       COPACABANA          22040002RIO DE JANEIRO      RJ002139885899                                                            20140811511        1               109193344000139                  *
10109193344000139000000000000000000000000000000000000ACM SERIVOS DE DIGITACAO LTDA           RUA BARATA RIBEIRO 450 1003                       COPACABANA          22040002RIO DE JANEIRO      RJ002139885899s6399200a0002515    2003     000000000000000000000000000000000000000000000000000000000000                000000000000000000000000000000000000000000000    *
12109193344000139000000000000000000000000000000000000000000000000000000000000000000 000000000000000000000000000000                                000000000000000            000000000000000000000000000000000000000000000000000000000000000000000000000000000000000000000000000000000000000000000000000000000000000000000000000000000000000000000000000000000000      *
30109193344000139               126089435611610200711ADRIANA CARDOSO DE MENEZES                                                                                   01210000000000072400000000000000000    000000000000000000000000000000000000000000000000000000000000                                                                                                  *
90999999999999999999999999999999999999999999999999999                                                                                                                                                                                                                                                                                                                  *
