00                                                   1118806988000146ENPX CONSTRUCOES INSTALACOES EEDUARDO NAKANISHI PERUA JOSE AUGUSTO DOS SANTOS 75 APTO 134           FLORADAS DE SAO JOSE12230085SAO JOSE DOS CAMPOS SP012981016272                                                            20141111511        1               118806988000146                  *
10118806988000146000000000000000000000000000000000000ENPX CONSTRUCOES INSTALACOES E MANUTENCORUA JOSE AUGUSTO DOS SANTOS 75 APTO 134           FLORADAS DE SAO JOSE12230085SAO JOSE DOS CAMPOS SP012981016272s4120400a0002507    2003     000000000000000000000000000000000000000000000000000000000000                000000000000000000000000000000000000000000000    *
12118806988000146000000000000000000000000000000000000000000000000000000000000000000 000000000000000000000000000000                                000000000000000            000000000000000000000000000000000000000000000000000000000000000000000000000000000000000000000000000000000000000000000000000000000000000000000000000000000000000000000000000000000000      *
30118806988000146               125417059660309201311EDUARDO NAKANISHI PEREIRA                                                                                    02521000000000072400000000000000000    000000000000000000000000000000000000000000000000000000000000                                                                                                  *
90999999999999999999999999999999999999999999999999999                                                                                                                                                                                                                                                                                                                  *
