00                                                   1120627903000104LUCIANO FRANCISCO SOCIEDADE DELUCIANO FRANCISCO   AV PAULISTA N 2300 CJ 53 ANDAR PILOTIS            CERQUEIRA CESAR     01310300SAO PAULO           SP001128474961                                                            20160811511        1               120627903000104                  *
10120627903000104000000000000000000000000000000000000LUCIANO FRANCISCO SOCIEDADE DE ADVOGADOSAV PAULISTA N 2300 CJ 53 ANDAR PILOTIS            CERQUEIRA CESAR     01310300SAO PAULO           SP001128474961s6911701a100151500002100     000000000000000000000000000000000000000000000000000000000000                000000000000000000000000000000000000000000000    *
12120627903000104000000000000000000000000000000000000000000000000000000000000000000 000000000000000000000000000000                                000000000000000            000000000000000000000000000000000000000000000000000000000000000000000000000000000000000000000000000000000000000000000000000000000000000000000000000000000000000000000000000000000000      *
30120627903000104               124098937932706201411LUCIANO FRANCISCO                                                                                            01210000000000088000000000000000000    000000000000000000000000000000000000000000000000000000000000                                                                                                  *
90999999999999999999999999999999999999999999999999999                                                                                                                                                                                                                                                                                                                  *
