00                                                   1117821734000134SOLFOTOSTUDIO FOTOGRAFIA E FILALEXANDRE BENEDICTO ESTRADA MIRANDELA 70 SALA 201                     CENTRO              26520332NILOPOLIS           RJ002126976776                                                            20170411511        1               117821734000134                  *
10117821734000134000000000000000000000000000000000000SOLFOTOSTUDIO FOTOGRAFIA E FILMAGEM DIGIESTRADA MIRANDELA 70 SALA 201                     CENTRO              26520332NILOPOLIS           RJ002126976776s7420001a0002566    2003     000000000000000000000000000000000000000000000000000000000000                000000000000000000000000000000000000000000000    *
12117821734000134000000000000000000000000000000000000000000000000000000000000000000 000000000000000000000000000000                                000000000000000            000000000000000000000000000000000000000000000000000000000000000000000000000000000000000000000000000000000000000000000000000000000000000000000000000000000000000000000000000000000000      *
30117821734000134               131434445402603201311ALEXANDRE BENEDICTO DOS SANTOS                                                                               01210000000000093700000000000000000    000000000000000000000000000000000000000000000000000000000000                                                                                                  *
90999999999999999999999999999999999999999999999999999                                                                                                                                                                                                                                                                                                                  *
