00                                                   1106042673000190CUSTOMIZ IT SERVICOS DE INFORMDIMAS ALVES DOS SANTR ARTUR GOULART 81 A                              CAMPO LIMPO         05785030SAO PAULO           SP001134595744                                                            20131211511        1               106042673000190                  *
10106042673000190000000000000000000000000000000000000CUSTOMIZ IT SERVICOS DE INFORM          R ARTUR GOULART 81 A                              CAMPO LIMPO         05785030SAO PAULO           SP001134595744s6209100a0002515    2003     000000000000000000000000000000000000000000000000000000000000                000000000000000000000000000000000000000000000    *
12106042673000190000000000000000000000000000000000000000000000000000000000000000000 000000000000000000000000000000                                000000000000000            000000000000000000000000000000000000000000000000000000000000000000000000000000000000000000000000000000000000000000000000000000000000000000000000000000000000000000000000000000000000      *
30106042673000190               130297878172511200311DIMAS ALVES DOS SANTOS                                                                                       01210000000000200000000000000000000    000000000000000000000000000000000000000000000000000000000000                                                                                                  *
90999999999999999999999999999999999999999999999999999                                                                                                                                                                                                                                                                                                                  *
