00                                                   1114767157000151SHOW MAGIA PRODUCOES ARTISTICASUSI MARIA GABARRAO RUA FILIPE BANDEIRA 274                           VILA MARIA ALTA     02126020SAO PAULO           SP001138132659                                                            20131211511        1               114767157000151                  *
10114767157000151000000000000000000000000000000000000SHOW MAGIA PRODUCOES ARTISTICA          RUA FILIPE BANDEIRA 274                           VILA MARIA ALTA     02126020SAO PAULO           SP001138132659s9001999a0002566    2003     000000000000000000000000000000000000000000000000000000000000                000000000000000000000000000000000000000000000    *
12114767157000151000000000000000000000000000000000000000000000000000000000000000000 000000000000000000000000000000                                000000000000000            000000000000000000000000000000000000000000000000000000000000000000000000000000000000000000000000000000000000000000000000000000000000000000000000000000000000000000000000000000000000      *
30114767157000151               123138286560111201111SUSI MARIA GABARRAO                                                                                          01210000000000067800000000000000000    000000000000000000000000000000000000000000000000000000000000                                                                                                  *
90999999999999999999999999999999999999999999999999999                                                                                                                                                                                                                                                                                                                  *
