00                                                   1111398412000148GGV SERVICOS DE INFORMATICA LTVALDIRENE MENDONCA LRUA CAMINHO EXISTENTE 257 SALA 01                 JARDIM SANTANA      06719005COTIA               SP011989286331                                                            20150211511        1               111398412000148                  *
10111398412000148000000000000000000000000000000000000GGV SERVICOS DE INFORMATICA LT          RUA CAMINHO EXISTENTE 257 SALA 01                 JARDIM SANTANA      06719005COTIA               SP011989286331s9511800a0002515    2003     000000000000000000000000000000000000000000000000000000000000                000000000000000000000000000000000000000000000    *
12111398412000148000000000000000000000000000000000000000000000000000000000000000000 000000000000000000000000000000                                000000000000000            000000000000000000000000000000000000000000000000000000000000000000000000000000000000000000000000000000000000000000000000000000000000000000000000000000000000000000000000000000000000      *
30111398412000148               122178955502711200911AECIO SILVANO LEITE                                                                                          01210000000000220500000000000000000    000000000000000000000000000000000000000000000000000000000000                                                                                                  *
30111398412000148               123531744362711200911VALDIRENE MENDONCA LOPES                                                                                     01231000000000220500000000000000000    000000000000000000000000000000000000000000000000000000000000                                                                                                  *
90999999999999999999999999999999999999999999999999999                                                                                                                                                                                                                                                                                                                  *
