00                                                   1118371712000182L ARAKAKI PRODUCOES ME        LUCIANA ARAKAKI     RUA MINISTRO ALVARO DE SOUZA LIMA 253             JARDIM MARAJOARA    04664020SAO PAULO           SP011974255722                                                            20150711511        1               118371712000182                  *
10118371712000182000000000000000000000000000000000000L ARAKAKI PRODUCOES ME                  RUA MINISTRO ALVARO DE SOUZA LIMA 253             JARDIM MARAJOARA    04664020SAO PAULO           SP011974255722s5912002a0002566    2003     000000000000000000000000000000000000000000000000000000000000                000000000000000000000000000000000000000000000    *
12118371712000182000000000000000000000000000000000000000000000000000000000000000000 000000000000000000000000000000                                000000000000000            000000000000000000000000000000000000000000000000000000000000000000000000000000000000000000000000000000000000000000000000000000000000000000000000000000000000000000000000000000000000      *
30118371712000182               168632489812606201311LUCIANA ARAKAKI                                                                                              01210000000000078800000000000000000    000000000000000000000000000000000000000000000000000000000000                                                                                                  *
90999999999999999999999999999999999999999999999999999                                                                                                                                                                                                                                                                                                                  *
