00                                                   1118026041000112VLVELLASQUES INFORMATICA ME   VILMA LEITE VELLASQURUA LUIS HAAG FRANCA 86                           SAO JOAO CLIMACO    04241110SAO PAULO           SP001120600583                                                            20141111511        1               118026041000112                  *
10118026041000112000000000000000000000000000000000000VLVELLASQUES INFORMATICA ME             RUA LUIS HAAG FRANCA 86                           SAO JOAO CLIMACO    04241110SAO PAULO           SP001120600583s9511800a0002515    2003     000000000000000000000000000000000000000000000000000000000000                000000000000000000000000000000000000000000000    *
12118026041000112000000000000000000000000000000000000000000000000000000000000000000 000000000000000000000000000000                                000000000000000            000000000000000000000000000000000000000000000000000000000000000000000000000000000000000000000000000000000000000000000000000000000000000000000000000000000000000000000000000000000000      *
30118026041000112               106870049663004201311VILMA LEITE VELLASQUES                                                                                       02521000000000072400000000000000000    000000000000000000000000000000000000000000000000000000000000                                                                                                  *
90999999999999999999999999999999999999999999999999999                                                                                                                                                                                                                                                                                                                  *
