00                                                   1106189341000133DHOMINIUM SOLUCOES WEB LTDA   LUCIANO GARCIA DE OLPRACA DOM EMANUEL 35                              SETOR SAO JOSE      74440090GOIANIA             GO006232294992                                                            20140911511        1               106189341000133                  *
10106189341000133000000000000000000000000000000000000DHOMINIUM SOLUCOES WEB LTDA             PRACA DOM EMANUEL 35                              SETOR SAO JOSE      74440090GOIANIA             GO006232294992s9511800a0002515    2003     000000000000000000000000000000000000000000000000000000000000                000000000000000000000000000000000000000000000    *
12106189341000133000000000000000000000000000000000000000000000000000000000000000000 000000000000000000000000000000                                000000000000000            000000000000000000000000000000000000000000000000000000000000000000000000000000000000000000000000000000000000000000000000000000000000000000000000000000000000000000000000000000000000      *
30106189341000133               170510083130604200411LUCIANO GARCIA DE OLIVEIRA                                                                                   01210000000000078800000000000000000  05000000000000000000000000000000000000000000000000000000000000                                                                                                  *
90999999999999999999999999999999999999999999999999999                                                                                                                                                                                                                                                                                                                  *
