00                                                   1122161022000176TAKE CARE OF YOUR BUSINESS SERWILDERSON COTRIM BRIRUA SUGAO SUZUKI N 100 BC 06 CONJ 24B             COLONIA ZONA LESTE  08260110SAO PAULO           SP011985088457                                                            20170411511        1               122161022000176                  *
10122161022000176000000000000000000000000000000000000TAKE CARE OF YOUR BUSINESS SERVICOS DE PRUA SUGAO SUZUKI N 100 BC 06 CONJ 24B             COLONIA ZONA LESTE  08260110SAO PAULO           SP011985088457s8211300a0002515    2003     000000000000000000000000000000000000000000000000000000000000                000000000000000000000000000000000000000000000    *
12122161022000176000000000000000000000000000000000000000000000000000000000000000000 000000000000000000000000000000                                000000000000000            000000000000000000000000000000000000000000000000000000000000000000000000000000000000000000000000000000000000000000000000000000000000000000000000000000000000000000000000000000000000      *
30122161022000176               125391056983103201511WILDERSON COTRIM BRITO                                                                                       02521000000000440000000000000000000    000000000000000000000000000000000000000000000000000000000000                                                                                                  *
30122161022000176               127979752293103201511ALINE SOUZA COTRIM                                                                                           01210000000000243700000000000000000    000000000000000000000000000000000000000000000000000000000000                                                                                                  *
90999999999999999999999999999999999999999999999999999                                                                                                                                                                                                                                                                                                                  *
