00                                                   1115370453000187ALEX SANDRO FREIRE ME         ALEX SANDRO FREIRE  RUA ARCANGELO CHIELE 220                          CENTRO              95180000FARROUPILHA         RS005499522611                                                            20150111511        1               115370453000187                  *
10115370453000187000000000000000000000000000000000000ALEX SANDRO FREIRE ME                   RUA ARCANGELO CHIELE 220                          CENTRO              95180000FARROUPILHA         RS005499522611s9511800a0002515    2003     000000000000000000000000000000000000000000000000000000000000                000000000000000000000000000000000000000000000    *
12115370453000187000000000000000000000000000000000000000000000000000000000000000000 000000000000000000000000000000                                000000000000000            000000000000000000000000000000000000000000000000000000000000000000000000000000000000000000000000000000000000000000000000000000000000000000000000000000000000000000000000000000000000      *
30115370453000187               170550668221604201211ALEX SANDRO FREIRE                                                                                           01210000000000072400000000000000000    000000000000000000000000000000000000000000000000000000000000                                                                                                  *
90999999999999999999999999999999999999999999999999999                                                                                                                                                                                                                                                                                                                  *
