00                                                   1111375085000109JANILDO FRANCISCO DA SILVA ME JANILDO FRANCISCO DAR PROFESSOR SUD MENUCCI 321                       MUNHOZ JUNIOR       06250250OSASCO              SP001134380413                                                            20150811511        1               111375085000109                  *
10111375085000109000000000000000000000000000000000000JANILDO FRANCISCO DA SILVA ME           R PROFESSOR SUD MENUCCI 321                       MUNHOZ JUNIOR       06250250OSASCO              SP001134380413s6209100a0002515    2003     000000000000000000000000000000000000000000000000000000000000                000000000000000000000000000000000000000000000    *
12111375085000109000000000000000000000000000000000000000000000000000000000000000000 000000000000000000000000000000                                000000000000000            000000000000000000000000000000000000000000000000000000000000000000000000000000000000000000000000000000000000000000000000000000000000000000000000000000000000000000000000000000000000      *
30111375085000109               147673522700106201511JANILDO FRANCISCO DA SILVA                                                                                   01210000000000078800000000000000000    000000000000000000000000000000000000000000000000000000000000                                                                                                  *
90999999999999999999999999999999999999999999999999999                                                                                                                                                                                                                                                                                                                  *
