00                                                   1193171445000115LUIS ALFREDO DA SILVEIRA CHAGALUIS ALFREDO DA SILVCORONEL SEZEFREDO 500                             CENTRO              97300000SAO GABRIEL         RS005596473511                                                            20150611511        1               193171445000115                  *
10193171445000115000000000000000000000000000000000000LUIS ALFREDO DA SILVEIRA CHAGAS         CORONEL SEZEFREDO 500                             CENTRO              97300000SAO GABRIEL         RS005596473511s7111100a0002515    2003     000000000000000000000000000000000000000000000000000000000000                000000000000000000000000000000000000000000000    *
12193171445000115000000000000000000000000000000000000000000000000000000000000000000 000000000000000000000000000000                                000000000000000            000000000000000000000000000000000000000000000000000000000000000000000000000000000000000000000000000000000000000000000000000000000000000000000000000000000000000000000000000000000000      *
30193171445000115               190005654402211198911LUIS ALFREDO DA SILVEIRA CHAGAS                                                                              02141000000000100000000000000000000    000000000000000000000000000000000000000000000000000000000000                                                                                                  *
90999999999999999999999999999999999999999999999999999                                                                                                                                                                                                                                                                                                                  *
