00                                                   1108684484000147FRANCISCO BELA DEAK ME        FRANCISCO BELA DEAK RUA FRADIQUE COUTINHO 308 AP 11                   PINHEIROS           05416000SAO PAULO           SP011991512536                                                            20170411511        1               108684484000147                  *
10108684484000147000000000000000000000000000000000000FRANCISCO BELA DEAK ME                  RUA FRADIQUE COUTINHO 308 AP 11                   PINHEIROS           05416000SAO PAULO           SP011991512536s7420004a0002566    2003     000000000000000000000000000000000000000000000000000000000000                000000000000000000000000000000000000000000000    *
12108684484000147000000000000000000000000000000000000000000000000000000000000000000 000000000000000000000000000000                                000000000000000            000000000000000000000000000000000000000000000000000000000000000000000000000000000000000000000000000000000000000000000000000000000000000000000000000000000000000000000000000000000000      *
30108684484000147               133931678972802200711FRANCISCO BELA DEAK                                                                                          01210000000000354000000000000000000    000000000000000000000000000000000000000000000000000000000000                                                                                                  *
90999999999999999999999999999999999999999999999999999                                                                                                                                                                                                                                                                                                                  *
