00                                                   1128429819000198SIMONETTI REPRESENTACOES EIRELMARCELO MARINO SIMONRUA MARANHAO 98                                   ESTANCIA MONAZITICA 29175151SERRA               ES002732221811                                                            20150711511        1               128429819000198                  *
10128429819000198000000000000000000000000000000000000SIMONETTI REPRESENTACOES EIRELI         RUA MARANHAO 98                                   ESTANCIA MONAZITICA 29175151SERRA               ES002732221811s4619200a0002515    2003     000000000000000000000000000000000000000000000000000000000000                000000000000000000000000000000000000000000000    *
12128429819000198000000000000000000000000000000000000000000000000000000000000000000 000000000000000000000000000000                                000000000000000            000000000000000000000000000000000000000000000000000000000000000000000000000000000000000000000000000000000000000000000000000000000000000000000000000000000000000000000000000000000000      *
30128429819000198               117093159161609198311MARCELO MARINO SIMONETTI                                                                                     03547000000000111500000000000000000  05000000000012251000000000000000000000000000000000000000000000                                                                                                  *
90999999999999999999999999999999999999999999999999999                                                                                                                                                                                                                                                                                                                  *
