00                                                   1120916596000181DANTAS E RUFINO DESENHOS TECNIHENRIQUE FERREIRA DARUA CONSELHEIRO PORTELA 665 SALA 114              ESPINHEIRO          52020035RECIFE              PE008141014186                                                            20160911511        1               120916596000181                  *
10120916596000181000000000000000000000000000000000000DANTAS E RUFINO DESENHOS TECNICOS LTDA ERUA CONSELHEIRO PORTELA 665 SALA 114              ESPINHEIRO          52020035RECIFE              PE008141014186s7119703a0002515    2003     000000000000000000000000000000000000000000000000000000000000                000000000000000000000000000000000000000000000    *
12120916596000181000000000000000000000000000000000000000000000000000000000000000000 000000000000000000000000000000                                000000000000000            000000000000000000000000000000000000000000000000000000000000000000000000000000000000000000000000000000000000000000000000000000000000000000000000000000000000000000000000000000000000      *
30120916596000181               133349904502708201411WILSON RUFINO DOS SANTOS                                                                                     01210000000000088000000000000000000    000000000000000000000000000000000000000000000000000000000000                                                                                                  *
90999999999999999999999999999999999999999999999999999                                                                                                                                                                                                                                                                                                                  *
