00                                                   1158102252000101BIT CLICK DIGITAL PHOTO LTDA MCLAUDIO MANOEL POSADR MARQUES DE SABARA 30 AP 21                      REAL PARQUE         05684020SAO PAULO           SP001134423179                                                            20170411511        1               158102252000101                  *
10158102252000101000000000000000000000000000000000000BIT CLICK DIGITAL PHOTO LTDA ME         R MARQUES DE SABARA 30 AP 21                      REAL PARQUE         05684020SAO PAULO           SP001134423179s7420001a0002566    2003     000000000000000000000000000000000000000000000000000000000000                000000000000000000000000000000000000000000000    *
12158102252000101000000000000000000000000000000000000000000000000000000000000000000 000000000000000000000000000000                                000000000000000            000000000000000000000000000000000000000000000000000000000000000000000000000000000000000000000000000000000000000000000000000000000000000000000000000000000000000000000000000000000000      *
30158102252000101               108553662381910198711CLAUDIO MANOEL POSADA                                                                                        01210000000000093700000000000000000    000000000000000000000000000000000000000000000000000000000000                                                                                                  *
90999999999999999999999999999999999999999999999999999                                                                                                                                                                                                                                                                                                                  *
