00                                                   1115551439000180SYNERGIX CONSULTORIA E PROJETOCLEBER FERREIRA GRACRUA MORAIS E SILVA 51 APTO 1210 BLOCO 1           MARACANA            20271030RIO DE JANEIRO      RJ021981881689                                                            20150511511        1               115551439000180                  *
10115551439000180000000000000000000000000000000000000SYNERGIX CONSULTORIA E PROJETOS AMBIENTARUA MORAIS E SILVA 51 APTO 1210 BLOCO 1           MARACANA            20271030RIO DE JANEIRO      RJ021981881689s7020400a0002515    2003     000000000000000000000000000000000000000000000000000000000000                000000000000000000000000000000000000000000000    *
12115551439000180000000000000000000000000000000000000000000000000000000000000000000 000000000000000000000000000000                                000000000000000            000000000000000000000000000000000000000000000000000000000000000000000000000000000000000000000000000000000000000000000000000000000000000000000000000000000000000000000000000000000000      *
30115551439000180               132089716201705201211CLEBER FERREIRA GRACA FILHO                                                                                  01210000000000078800000000000000000    000000000000000000000000000000000000000000000000000000000000                                                                                                  *
90999999999999999999999999999999999999999999999999999                                                                                                                                                                                                                                                                                                                  *
