00                                                   1122088198000140MEDIDA CORRETORA DE SEGUROS EIJOSE DE DEUS FREITASAV RIVER 247 SALA 02A                             SAO CRISTOVAO       64052010TERESINA            PI008632261627                                                            20150611511        1               122088198000140                  *
10122088198000140000000000000000000000000000000000000MEDIDA CORRETORA DE SEGUROS EIRELI      AV RIVER 247 SALA 02A                             SAO CRISTOVAO       64052010TERESINA            PI008632261627s6622300a0002515    2003     000000000000000000000000000000000000000000000000000000000000                000000000000000000000000000000000000000000000    *
12122088198000140000000000000000000000000000000000000000000000000000000000000000000 000000000000000000000000000000                                000000000000000            000000000000000000000000000000000000000000000000000000000000000000000000000000000000000000000000000000000000000000000000000000000000000000000000000000000000000000000000000000000000      *
30122088198000140               127693154811003201511JOSE DE DEUS FREITAS AGUIAR FILHO                                                                            01210000000000078800000000000000000    000000000000000000000000000000000000000000000000000000000000                                                                                                  *
90999999999999999999999999999999999999999999999999999                                                                                                                                                                                                                                                                                                                  *
