00                                                   1116765850000110LINDA MARIA RAZO              REINALDO FERNANDES DRUA DOMINGOS ALLEMAGNA 83                                             02319140SAO PAULO           SP001122810300                                                            20150811511        1               116765850000110                  *
10116765850000110000000000000000000000000000000000000LINDA MARIA RAZO                        RUA DOMINGOS ALLEMAGNA 83                                             02319140SAO PAULO           SP001122810300s7020400a0002515    2003     000000000000000000000000000000000000000000000000000000000000                000000000000000000000000000000000000000000000    *
12116765850000110000000000000000000000000000000000000000000000000000000000000000000 000000000000000000000000000000                                000000000000000            000000000000000000000000000000000000000000000000000000000000000000000000000000000000000000000000000000000000000000000000000000000000000000000000000000000000000000000000000000000000      *
30116765850000110               232656599940101201511REINALDO FERNANDES DANTAS                                                                                    01210000000000250000000000000000000    000000000000000000000000000000000000000000000000000000000000                                                                                                  *
90999999999999999999999999999999999999999999999999999                                                                                                                                                                                                                                                                                                                  *
