00                                                   1120444201000195EX2TEC PRESTACAO DE SERVICOS DPEDRO RODRIGUES FERNRUA JOSE RUFINO COSTA SD 98                       VILA ALIANCA        07063073GUARULHOS           SP011954754607                                                            20151211511        1               120444201000195                  *
10120444201000195000000000000000000000000000000000000EX2TEC PRESTACAO DE SERVICOS DE TI LTDA RUA JOSE RUFINO COSTA SD 98                       VILA ALIANCA        07063073GUARULHOS           SP011954754607s6311900a0002515    2003     000000000000000000000000000000000000000000000000000000000000                000000000000000000000000000000000000000000000    *
12120444201000195000000000000000000000000000000000000000000000000000000000000000000 000000000000000000000000000000                                000000000000000            000000000000000000000000000000000000000000000000000000000000000000000000000000000000000000000000000000000000000000000000000000000000000000000000000000000000000000000000000000000000      *
30120444201000195               168697697201306201411PEDRO RODRIGUES FERNANDES FILHO                                                                              01231000000000180774000000000000000    000000000000000000000000000000000000000000000000000000000000                                                                                                  *
90999999999999999999999999999999999999999999999999999                                                                                                                                                                                                                                                                                                                  *
