00                                                   1112339211000132THIAGO DE S F TEIXEIRA ME     THIAGO DE SOUZA FERRRUA JOAQUIM FERRER 96                             JARDIM VIVAN        02993220SAO PAULO           SP001139450829                                                            20160711511        1               112339211000132                  *
10112339211000132000000000000000000000000000000000000THIAGO DE S F TEIXEIRA ME               RUA JOAQUIM FERRER 96                             JARDIM VIVAN        02993220SAO PAULO           SP001139450829s6190699a0002507    2003     000000000000000000000000000000000000000000000000000000000000                000000000000000000000000000000000000000000000    *
12112339211000132000000000000000000000000000000000000000000000000000000000000000000 000000000000000000000000000000                                000000000000000            000000000000000000000000000000000000000000000000000000000000000000000000000000000000000000000000000000000000000000000000000000000000000000000000000000000000000000000000000000000000      *
30112339211000132               131730038950508201011THIAGO DE SOUZA FERRAZ TEIXEIRA                                                                              01236000000000300000000000000000000    000000000000000000000000000000000000000000000000000000000000                                                                                                  *
90999999999999999999999999999999999999999999999999999                                                                                                                                                                                                                                                                                                                  *
