00                                                   1104770664000190CTT CULTURAL E EDITORA LTDA   ANTONINO TRIPODI    RUA CAMBURIU 344                                  LAPA                05058020SAO PAULO           SP001138367017                                                            20140511511        1               104770664000190                  *
10104770664000190000000000000000000000000000000000000CTT CULTURAL E EDITORA LTDA             RUA CAMBURIU 344                                  LAPA                05058020SAO PAULO           SP001138367017s5821200a0002507    2003     000000000000000000000000000000000000000000000000000000000000                000000000000000000000000000000000000000000000    *
12104770664000190000000000000000000000000000000000000000000000000000000000000000000 000000000000000000000000000000                                000000000000000            000000000000000000000000000000000000000000000000000000000000000000000000000000000000000000000000000000000000000000000000000000000000000000000000000000000000000000000000000000000000      *
30104770664000190               112414824592911200111ANTONINO TRIPODI                                                                                             01210000000000072400000000000000000    000000000000000000000000000000000000000000000000000000000000                                                                                                  *
90999999999999999999999999999999999999999999999999999                                                                                                                                                                                                                                                                                                                  *
