00                                                   1115564704000164ADAO FRANCISCO DE SOUZA GRAFICADAO FRANCISCO DE SOR TREZE SN QUADRA 14 LOT 57                       JARDIM NOVO ITAGUACU13053169CAMPINAS            SP001930447169                                                            20150911511        1               115564704000164                  *
10115564704000164000000000000000000000000000000000000ADAO FRANCISCO DE SOUZA GRAFIC          R TREZE SN QUADRA 14 LOT 57                       JARDIM NOVO ITAGUACU13053169CAMPINAS            SP001930447169s8219999a0002515    2003     000000000000000000000000000000000000000000000000000000000000                000000000000000000000000000000000000000000000    *
12115564704000164000000000000000000000000000000000000000000000000000000000000000000 000000000000000000000000000000                                000000000000000            000000000000000000000000000000000000000000000000000000000000000000000000000000000000000000000000000000000000000000000000000000000000000000000000000000000000000000000000000000000000      *
30115564704000164               105285855301010201311ADAO FRANCISCO DE SOUZA                                                                                      01210000000000157600000000000000000    000000000000000000000000000000000000000000000000000000000000                                                                                                  *
90999999999999999999999999999999999999999999999999999                                                                                                                                                                                                                                                                                                                  *
