00                                                   1107150346000115F A SANTOLIN SERVICOS E APOIO FLAVIO ALVES SANTOLIRUA OLIMPIA 30                                    CAMILOPOLIS         09230500SANTO ANDRE         SP001149964472                                                            20150911511        1               107150346000115                  *
10107150346000115000000000000000000000000000000000000F A SANTOLIN SERVICOS E APOIO           RUA OLIMPIA 30                                    CAMILOPOLIS         09230500SANTO ANDRE         SP001149964472s8211300a0002515    2003     000000000000000000000000000000000000000000000000000000000000                000000000000000000000000000000000000000000000    *
12107150346000115000000000000000000000000000000000000000000000000000000000000000000 000000000000000000000000000000                                000000000000000            000000000000000000000000000000000000000000000000000000000000000000000000000000000000000000000000000000000000000000000000000000000000000000000000000000000000000000000000000000000000      *
30107150346000115               127626728152109200411FLAVIO ALVES SANTOLIM                                                                                        01210000000000100000000000000000000    000000000000000000000000000000000000000000000000000000000000                                                                                                  *
90999999999999999999999999999999999999999999999999999                                                                                                                                                                                                                                                                                                                  *
