00                                                   1114755396000191FENWAY SERVICOS COMBINADOS DE JULIANA GARCIA MELO AV NOSSA SENHORA DA PENHA 699 SL 404              SANTA LUCIA         29056250VITORIA             ES027981399392                                                            20160111511        1               114755396000191                  *
10114755396000191000000000000000000000000000000000000FENWAY SERVICOS COMBINADOS DE ESCRITORIOAV NOSSA SENHORA DA PENHA 699 SL 404              SANTA LUCIA         29056250VITORIA             ES027981399392s8211300a0002515    2003     000000000000000000000000000000000000000000000000000000000000                000000000000000000000000000000000000000000000    *
12114755396000191000000000000000000000000000000000000000000000000000000000000000000 000000000000000000000000000000                                000000000000000            000000000000000000000000000000000000000000000000000000000000000000000000000000000000000000000000000000000000000000000000000000000000000000000000000000000000000000000000000000000000      *
30114755396000191               131169042931312201111JULIANA GARCIA MELO NOBREGA ROZINDO                                                                          01231000000000100000000000000000000    000000000000000000000000000000000000000000000000000000000000                                                                                                  *
90999999999999999999999999999999999999999999999999999                                                                                                                                                                                                                                                                                                                  *
