00                                                   1115438657000102DENISE BIACSI TREINAMENTO EM DDENISE BIACSI       RUA AMARAIS 264                                   VILA CARRAO         03436060SAO PAULO           SP001127817086                                                            20170411511        1               115438657000102                  *
10115438657000102000000000000000000000000000000000000DENISE BIACSI TREINAMENTO EM D          RUA AMARAIS 264                                   VILA CARRAO         03436060SAO PAULO           SP001127817086s8599604a0002515    2003     000000000000000000000000000000000000000000000000000000000000                000000000000000000000000000000000000000000000    *
12115438657000102000000000000000000000000000000000000000000000000000000000000000000 000000000000000000000000000000                                000000000000000            000000000000000000000000000000000000000000000000000000000000000000000000000000000000000000000000000000000000000000000000000000000000000000000000000000000000000000000000000000000000      *
30115438657000102               124592767551503201211DENISE BIACSI                                                                                                01210000000000200000000000000000000    000000000000000000000000000000000000000000000000000000000000                                                                                                  *
90999999999999999999999999999999999999999999999999999                                                                                                                                                                                                                                                                                                                  *
