00                                                   1110712046000197SAMUEL CINTRA SANTOS ME       SAMUEL CINTRA SANTOSAVENIDA MARECHAL FIUZA DE CASTRO 218              BUTANTA             05596000SAO PAULO           SP001137316125                                                            20140811511        1               110712046000197                  *
10110712046000197000000000000000000000000000000000000SAMUEL CINTRA SANTOS ME                 AVENIDA MARECHAL FIUZA DE CASTRO 218              BUTANTA             05596000SAO PAULO           SP001137316125s5920100a0002566    2003     000000000000000000000000000000000000000000000000000000000000                000000000000000000000000000000000000000000000    *
12110712046000197000000000000000000000000000000000000000000000000000000000000000000 000000000000000000000000000000                                000000000000000            000000000000000000000000000000000000000000000000000000000000000000000000000000000000000000000000000000000000000000000000000000000000000000000000000000000000000000000000000000000000      *
30110712046000197               116518590482003200911SAMUEL CINTRA SANTOS                                                                                         01210000000000072400000000000000000    000000000000000000000000000000000000000000000000000000000000                                                                                                  *
90999999999999999999999999999999999999999999999999999                                                                                                                                                                                                                                                                                                                  *
