00                                                   1110966842000156LAVANDERIA POINT DEAU         CARLA GORETE DE JESUAV SANTOS DUMONT 6294                             PORTAO              42700000LAURO DE FREITAS    BA007133791994                                                            20140711511        1               110966842000156                  *
10110966842000156000000000000000000000000000000000000LAVANDERIA POINT DEAU                   AV SANTOS DUMONT 6294                             PORTAO              42700000LAURO DE FREITAS    BA007133791994s9601701a0002515    2003     000000000000000000000000000000000000000000000000000000000000                000000000000000000000000000000000000000000000    *
12110966842000156000000000000000000000000000000000000000000000000000000000000000000 000000000000000000000000000000                                000000000000000            000000000000000000000000000000000000000000000000000000000000000000000000000000000000000000000000000000000000000000000000000000000000000000000000000000000000000000000000000000000000      *
30110966842000156               267571543802506200911CARLA GORETE DE JESUS DUBUIS                                                                                 01210000000000086000000000000000000    000000000000000000000000000000000000000000000000000000000000                                                                                                  *
30110966842000156               267572321602506200911RITA DE CASSIA SALOMAO DE JESUS                                                                              01231000000000086000000000000000000    000000000000000000000000000000000000000000000000000000000000                                                                                                  *
90999999999999999999999999999999999999999999999999999                                                                                                                                                                                                                                                                                                                  *
