00                                                   1110533112000161CONTROLSOLDA CURSOS E TREINAMEEDER                AVENIDA BELO HORIZONTE 1021                                           32672805BETIM               MG003130371585                                                            20140411511        1               110533112000161                  *
10110533112000161000000000000000000000000000000000000CONTROLSOLDA CURSOS E TREINAME          AVENIDA BELO HORIZONTE 1021                                           32672805BETIM               MG003130371585s8599699a0002515    2003     000000000000000000000000000000000000000000000000000000000000                000000000000000000000000000000000000000000000    *
12110533112000161000000000000000000000000000000000000000000000000000000000000000000 000000000000000000000000000000                                000000000000000            000000000000000000000000000000000000000000000000000000000000000000000000000000000000000000000000000000000000000000000000000000000000000000000000000000000000000000000000000000000000      *
30110533112000161               127096181351212200811EDER                                                                                                         02332000000000072400000000000000000    000000000000000000000000000000000000000000000000000000000000                                                                                                  *
90999999999999999999999999999999999999999999999999999                                                                                                                                                                                                                                                                                                                  *
