00                                                   1120462411000106KAIZEN DESENVOLVIMENTO DE SOFTKEILA TERRA DE ARRUDRUA 7 DE SETEMBRO 832                             CENTRO              79002121CAMPO GRANDE        MS006784235294                                                            20160211511        1               120462411000106                  *
10120462411000106000000000000000000000000000000000000KAIZEN DESENVOLVIMENTO DE SOFTWARES     RUA 7 DE SETEMBRO 832                             CENTRO              79002121CAMPO GRANDE        MS006784235294s6201500a0002515    2003     000000000000000000000000000000000000000000000000000000000000                000000000000000000000000000000000000000000000    *
12120462411000106000000000000000000000000000000000000000000000000000000000000000000 000000000000000000000000000000                                000000000000000            000000000000000000000000000000000000000000000000000000000000000000000000000000000000000000000000000000000000000000000000000000000000000000000000000000000000000000000000000000000000      *
30120462411000106               207581352321706201411VICTOR BORGES JUSSIANI                                                                                       02124000000000300000000000000000000    000000000000000000000000000000000000000000000000000000000000                                                                                                  *
30120462411000106               209655647321706201411KEILA TERRA DE ARRUDA VASCONCELOS                                                                            01210000000000150000000000000000000    000000000000000000000000000000000000000000000000000000000000                                                                                                  *
90999999999999999999999999999999999999999999999999999                                                                                                                                                                                                                                                                                                                  *
