00                                                   1121544328000149TATIANA CV ALVES              TATIANACAMARGOALVESGR JERONIMO ALVES 239                              JD SANTO ANDRE      08390120SAO PAULO           SP011997486751                                                            20150211511        1               121544328000149                  *
10121544328000149000000000000000000000000000000000000TATIANA CV ALVES                        R JERONIMO ALVES 239                              JD SANTO ANDRE      08390120SAO PAULO           SP011997486751s6209100a0002515    2003     000000000000000000000000000000000000000000000000000000000000                000000000000000000000000000000000000000000000    *
12121544328000149000000000000000000000000000000000000000000000000000000000000000000 000000000000000000000000000000                                000000000000000            000000000000000000000000000000000000000000000000000000000000000000000000000000000000000000000000000000000000000000000000000000000000000000000000000000000000000000000000000000000000      *
30121544328000149               209037759931412201411TATIANACAMARGOALVESGMAILCOM                                                                                  01210000000000466375000000000000000    000000000000000000000000000000000000000000000000000000000000                                                                                                  *
90999999999999999999999999999999999999999999999999999                                                                                                                                                                                                                                                                                                                  *
