00                                                   1104620558000120NUCLIMED LTDA                 SANDOVAL FERRAZ DE SRUA JOAO FRANCISCO LISBOA 790 LOJA 02             VARZEA              50741100RECIFE              PE008132721400                                                            20140111511        1               104620558000120                  *
10104620558000120000000000000000000000000000000000000NUCLIMED LTDA                           RUA JOAO FRANCISCO LISBOA 790 LOJA 02             VARZEA              50741100RECIFE              PE008132721400s4773300a0002515    2003     000000000000000000000000000000000000000000000000000000000000                000000000000000000000000000000000000000000000    *
12104620558000120000000000000000000000000000000000000000000000000000000000000000000 000000000000000000000000000000                                000000000000000            000000000000000000000000000000000000000000000000000000000000000000000000000000000000000000000000000000000000000000000000000000000000000000000000000000000000000000000000000000000000      *
30104620558000120               121360475090608200111SANDOVAL FERRAZ DE SOUZA                                                                                     02143000000000300000000000000000000    000000000000000000000000000000000000000000000000000000000000                                                                                                  *
90999999999999999999999999999999999999999999999999999                                                                                                                                                                                                                                                                                                                  *
