00                                                   1122638609000123PROGRESSO RH SOLUCOES EMPRESAREVANDRO ANTONIO DIASRUA SIQUEIRA CAMPOS 970                           VILA ASSUNCAO       09020240SANTO ANDRE         SP001149943422                                                            20150811511        1               122638609000123                  *
10122638609000123000000000000000000000000000000000000PROGRESSO RH SOLUCOES EMPRESARIAIS LTDA RUA SIQUEIRA CAMPOS 970                           VILA ASSUNCAO       09020240SANTO ANDRE         SP001149943422s8599604a0002515    2003     000000000000000000000000000000000000000000000000000000000000                000000000000000000000000000000000000000000000    *
12122638609000123000000000000000000000000000000000000000000000000000000000000000000 000000000000000000000000000000                                000000000000000            000000000000000000000000000000000000000000000000000000000000000000000000000000000000000000000000000000000000000000000000000000000000000000000000000000000000000000000000000000000000      *
30122638609000123               127418518500306201511EVANDRO ANTONIO DIAS                                                                                         02521000000000078800000000000000000    000000000000000000000000000000000000000000000000000000000000                                                                                                  *
90999999999999999999999999999999999999999999999999999                                                                                                                                                                                                                                                                                                                  *
