00                                                   1119810894000103MONICA HELENA RIBEIRO ME      MONICA HELENA RIBEIRRUA ECA QUEIROZ 69                                CENTRO              35420000MARIANA             MG003188618000                                                            20130811511        1               119810894000103                  *
10119810894000103000000000000000000000000000000000000MONICA HELENA RIBEIRO ME                RUA ECA QUEIROZ 69                                CENTRO              35420000MARIANA             MG003188618000s5611203a0002515    2003     000000000000000000000000000000000000000000000000000000000000                000000000000000000000000000000000000000000000    *
12119810894000103000000000000000000000000000000000000000000000000000000000000000000 000000000000000000000000000000                                000000000000000            000000000000000000000000000000000000000000000000000000000000000000000000000000000000000000000000000000000000000000000000000000000000000000000000000000000000000000000000000000000000      *
30119810894000103               111184900660108201311MONICA HELENA RIBEIRO                                                                                        01210000000000250000000000000000000    000000000000000000000000000000000000000000000000000000000000                                                                                                  *
90999999999999999999999999999999999999999999999999999                                                                                                                                                                                                                                                                                                                  *
