00                                                   1107820181000141ALINALDO VARGAS COUTINHOME    ALINALDO VARGAS COUTAVENIDA RUI BRAGA RIBEIRO 170 LOJA 01             SANTA INES          29108041VILA VELHA          ES002730623157                                                            20160311511        1               107820181000141                  *
10107820181000141000000000000000000000000000000000000ALINALDO VARGAS COUTINHOME              AVENIDA RUI BRAGA RIBEIRO 170 LOJA 01             SANTA INES          29108041VILA VELHA          ES002730623157s9511800a0002515    2003     000000000000000000000000000000000000000000000000000000000000                000000000000000000000000000000000000000000000    *
12107820181000141000000000000000000000000000000000000000000000000000000000000000000 000000000000000000000000000000                                000000000000000            000000000000000000000000000000000000000000000000000000000000000000000000000000000000000000000000000000000000000000000000000000000000000000000000000000000000000000000000000000000000      *
30107820181000141               181947231380601200611ALINALDO VARGAS COUTINHO                                                                                     01210000000000088000000000000000000    000000000000000000000000000000000000000000000000000000000000                                                                                                  *
90999999999999999999999999999999999999999999999999999                                                                                                                                                                                                                                                                                                                  *
