00                                                   1122623796000171RENATA CELIA SILVEIRA SERRAME RENATA CELIA SILVEIRRUA EWERTON VISCO 324 SALA 504                    CAMINHO DAS ARVORES 41820022SALVADOR            BA007196119014                                                            20170411511        1               122623796000171                  *
10122623796000171000000000000000000000000000000000000RENATA CELIA SILVEIRA SERRAME           RUA EWERTON VISCO 324 SALA 504                    CAMINHO DAS ARVORES 41820022SALVADOR            BA007196119014s8650004a0002515    2003     000000000000000000000000000000000000000000000000000000000000                000000000000000000000000000000000000000000000    *
12122623796000171000000000000000000000000000000000000000000000000000000000000000000 000000000000000000000000000000                                000000000000000            000000000000000000000000000000000000000000000000000000000000000000000000000000000000000000000000000000000000000000000000000000000000000000000000000000000000000000000000000000000000      *
30122623796000171               126719113450806201511RENATA CELIA SILVEIRA SERRA                                                                                  01210000000000093700000000000000000    000000000000000000000000000000000000000000000000000000000000                                                                                                  *
30122623796000171               12848866081        13THAIS GISLEINE OLIVEIRA DE MAGALHAES                                                                         02236000000000041000000000000000000    000000000000000000000000000000000000000000000000000000000000                                                                                                  *
30122623796000171               12971595074        13ELAINE CRISTINA PINTO SAMPAIO                                                                                02236000000000253700000000000000000    000000000000000000000000000000000000000000000000000000000000                                                                                                  *
30122623796000171               14100180272        13GABRIELA VENTURA RIBEIRO                                                                                     02236000000000120500000000000000000    000000000000000000000000000000000000000000000000000000000000                                                                                                  *
30122623796000171               16746263496        13REGINA SANTOS ARBUES                                                                                         02236000000000101900000000000000000    000000000000000000000000000000000000000000000000000000000000                                                                                                  *
30122623796000171               20026457304        13CARLA LAISA MAIA DOS SANTOS                                                                                  02236000000000096500000000000000000    000000000000000000000000000000000000000000000000000000000000                                                                                                  *
30122623796000171               20304186303        13PRISCILA SOUSA LOBO                                                                                          02236000000000105800000000000000000    000000000000000000000000000000000000000000000000000000000000                                                                                                  *
90999999999999999999999999999999999999999999999999999                                                                                                                                                                                                                                                                                                                  *
