00                                                   1112259543000107CAROLINA FERREIRA BUCEK ME    CAROLINA FERREIRA BURUA MATEUS GROU 378 APT 11                        PINHEIROS           05415040SAO PAULO           SP011987638112                                                            20131011511        1               112259543000107                  *
10112259543000107000000000000000000000000000000000000CAROLINA FERREIRA BUCEK ME              RUA MATEUS GROU 378 APT 11                        PINHEIROS           05415040SAO PAULO           SP011987638112s8219999a0002515    2003     000000000000000000000000000000000000000000000000000000000000                000000000000000000000000000000000000000000000    *
12112259543000107000000000000000000000000000000000000000000000000000000000000000000 000000000000000000000000000000                                000000000000000            000000000000000000000000000000000000000000000000000000000000000000000000000000000000000000000000000000000000000000000000000000000000000000000000000000000000000000000000000000000000      *
30112259543000107               116643549690107201011CAROLINA FERREIRA BUCEK                                                                                      01231000000000067800000000000000000    000000000000000000000000000000000000000000000000000000000000                                                                                                  *
90999999999999999999999999999999999999999999999999999                                                                                                                                                                                                                                                                                                                  *
