00                                                   1110746583000158HIRBO JR ESTUDIO DE PRODUCOES SYLVIO DE JESUS FERNRUA ATROS RIBEIRO 82                              JACANA              02275180SAO PAULO           SP001122429315                                                            20170411511        1               110746583000158                  *
10110746583000158000000000000000000000000000000000000HIRBO JR ESTUDIO DE PRODUCOES ARTISTICASRUA ATROS RIBEIRO 82                              JACANA              02275180SAO PAULO           SP001122429315s7319003a0002566    2003     000000000000000000000000000000000000000000000000000000000000                000000000000000000000000000000000000000000000    *
12110746583000158000000000000000000000000000000000000000000000000000000000000000000 000000000000000000000000000000                                000000000000000            000000000000000000000000000000000000000000000000000000000000000000000000000000000000000000000000000000000000000000000000000000000000000000000000000000000000000000000000000000000000      *
30110746583000158               127838430900602200911SYLVIO DE JESUS FERNANDES JUNIOR                                                                             01210000000000093700000000000000000    000000000000000000000000000000000000000000000000000000000000                                                                                                  *
90999999999999999999999999999999999999999999999999999                                                                                                                                                                                                                                                                                                                  *
