00                                                   1117391200000115LINCOLN AMICI MENDES 353386768LINCOLN AMICI MENDESRUA GIOVANNI BATTISTA PIRELLI 1463 TORRE C APTO 9 VILA HOMERO THON    09111340SANTO ANDRE         SP011976319329                                                            20150111511        1               117391200000115                  *
10117391200000115000000000000000000000000000000000000LINCOLN AMICI MENDES 35338676842        RUA GIOVANNI BATTISTA PIRELLI 1463 TORRE C APTO 9 VILA HOMERO THON    09111340SANTO ANDRE         SP011976319329s9001906a0002515    2003     000000000000000000000000000000000000000000000000000000000000                000000000000000000000000000000000000000000000    *
12117391200000115000000000000000000000000000000000000000000000000000000000000000000 000000000000000000000000000000                                000000000000000            000000000000000000000000000000000000000000000000000000000000000000000000000000000000000000000000000000000000000000000000000000000000000000000000000000000000000000000000000000000000      *
30117391200000115               119416509901101201311LINCOLN AMICI MENDES                                                                                         01210000000000078800000000000000000    000000000000000000000000000000000000000000000000000000000000                                                                                                  *
90999999999999999999999999999999999999999999999999999                                                                                                                                                                                                                                                                                                                  *
