00                                                   1122366916000100MISLENE M DA SILVA SERVICOS DEMISLENE MARQUES DA SRUA SILVEIRA CAMPOS 159                           CAMBUCI             01541030SAO PAULO           SP011982610671                                                            20150611511        1               122366916000100                  *
10122366916000100000000000000000000000000000000000000MISLENE M DA SILVA SERVICOS DE APOIO ADMRUA SILVEIRA CAMPOS 159                           CAMBUCI             01541030SAO PAULO           SP011982610671s8211300a0002515    2003     000000000000000000000000000000000000000000000000000000000000                000000000000000000000000000000000000000000000    *
12122366916000100000000000000000000000000000000000000000000000000000000000000000000 000000000000000000000000000000                                000000000000000            000000000000000000000000000000000000000000000000000000000000000000000000000000000000000000000000000000000000000000000000000000000000000000000000000000000000000000000000000000000000      *
30122366916000100               129202697730405201511MISLENE MARQUES DA SILVA                                                                                     01210000000000078800000000000000000    000000000000000000000000000000000000000000000000000000000000                                                                                                  *
90999999999999999999999999999999999999999999999999999                                                                                                                                                                                                                                                                                                                  *
