00                                                   1118006639000140JULIEN ALBERT GODFRIED FOIRIERJULIEN ALBERT GODFRIRUA MARCUS PEREIRA 150                            VILA SUZANA         05642020SAO PAULO           SP011981254285                                                            20130711511        1               118006639000140                  *
10118006639000140000000000000000000000000000000000000JULIEN ALBERT GODFRIED FOIRIER          RUA MARCUS PEREIRA 150                            VILA SUZANA         05642020SAO PAULO           SP011981254285s6209100a0002515    2003     000000000000000000000000000000000000000000000000000000000000                000000000000000000000000000000000000000000000    *
12118006639000140000000000000000000000000000000000000000000000000000000000000000000 000000000000000000000000000000                                000000000000000            000000000000000000000000000000000000000000000000000000000000000000000000000000000000000000000000000000000000000000000000000000000000000000000000000000000000000000000000000000000000      *
30118006639000140               168962663002504201311JULIEN ALBERT GODFRIED FOIRIER                                                                               02124000000000067800000000000000000    000000000000000000000000000000000000000000000000000000000000                                                                                                  *
90999999999999999999999999999999999999999999999999999                                                                                                                                                                                                                                                                                                                  *
