00                                                   1107036216000156B2 COMUNICACAO E MARKETING LTDANA LUCIA BERNDT    AV D HELENA PEREIRA DE MORAES 415 AP 14C          MORUMBI             05707400SAO PAULO           SP011981747112                                                            20120911511        1               107036216000156                  *
10107036216000156000000000000000000000000000000000000B2 COMUNICACAO E MARKETING LTD          AV D HELENA PEREIRA DE MORAES 415 AP 14C          MORUMBI             05707400SAO PAULO           SP011981747112s5811500a0002566    2003     000000000000000000000000000000000000000000000000000000000000                000000000000000000000000000000000000000000000    *
12107036216000156000000000000000000000000000000000000000000000000000000000000000000 000000000000000000000000000000                                000000000000000            000000000000000000000000000000000000000000000000000000000000000000000000000000000000000000000000000000000000000000000000000000000000000000000000000000000000000000000000000000000000      *
30107036216000156               119722763811305200411ANA LUCIA BERNDT                                                                                             01210000000000062200000000000000000    000000000000000000000000000000000000000000000000000000000000                                                                                                  *
30107036216000156               124654189141510200711KATERINA VOLCOV                                                                                              01210000000000062200000000000000000    000000000000000000000000000000000000000000000000000000000000                                                                                                  *
30107036216000156               124857058621510200711LUCIANA CALVO DORTA                                                                                          01210000000000062200000000000000000    000000000000000000000000000000000000000000000000000000000000                                                                                                  *
90999999999999999999999999999999999999999999999999999                                                                                                                                                                                                                                                                                                                  *
