00                                                   1120324470000118BELLA TECNOLOGIA LTDA         DANILO MARQUES VITERRUA SILVA GOMES 60 APT 201                        CASCADURA           21350080RIO DE JANEIRO      RJ021994873063                                                            20150511511        1               120324470000118                  *
10120324470000118000000000000000000000000000000000000BELLA TECNOLOGIA LTDA                   RUA SILVA GOMES 60 APT 201                        CASCADURA           21350080RIO DE JANEIRO      RJ021994873063s6209100a0002515    2003     000000000000000000000000000000000000000000000000000000000000                000000000000000000000000000000000000000000000    *
12120324470000118000000000000000000000000000000000000000000000000000000000000000000 000000000000000000000000000000                                000000000000000            000000000000000000000000000000000000000000000000000000000000000000000000000000000000000000000000000000000000000000000000000000000000000000000000000000000000000000000000000000000000      *
30120324470000118               129609255662605201411DANILO MARQUES VITERBO                                                                                       01210000000000078800000000000000000    000000000000000000000000000000000000000000000000000000000000                                                                                                  *
90999999999999999999999999999999999999999999999999999                                                                                                                                                                                                                                                                                                                  *
