00                                                   1112954876000156CALISTO SANTOS INFORMATICA LTDMARCIO CALISTO DE SORUA RICARDINA VIEIRA COELHO 201                   ALTO DA RIVIEIRA    04929290SAO PAULO           SP001123593217                                                            20160911511        1               112954876000156                  *
10112954876000156000000000000000000000000000000000000CALISTO SANTOS INFORMATICA LTDA         RUA RICARDINA VIEIRA COELHO 201                   ALTO DA RIVIEIRA    04929290SAO PAULO           SP001123593217s9511800a0002515    2003     000000000000000000000000000000000000000000000000000000000000                000000000000000000000000000000000000000000000    *
12112954876000156000000000000000000000000000000000000000000000000000000000000000000 000000000000000000000000000000                                000000000000000            000000000000000000000000000000000000000000000000000000000000000000000000000000000000000000000000000000000000000000000000000000000000000000000000000000000000000000000000000000000000      *
30112954876000156               125497490670504201211MARCIO CALISTO DE SOUSA                                                                                      01210000000000090000000000000000000    000000000000000000000000000000000000000000000000000000000000                                                                                                  *
90999999999999999999999999999999999999999999999999999                                                                                                                                                                                                                                                                                                                  *
