00                                                   1121956771000127CENTRAL DA COR POSPRODUCAO AUDELIESER JAIRO MACHADRUA ARAUJO LEITAO 176 APT 301                     ENGENHO NOVO        20715130RIO DE JANEIRO      RJ021986178202                                                            20150911511        1               121956771000127                  *
10121956771000127000000000000000000000000000000000000CENTRAL DA COR POSPRODUCAO AUDIOVISUAL ERUA ARAUJO LEITAO 176 APT 301                     ENGENHO NOVO        20715130RIO DE JANEIRO      RJ021986178202s5911199a0002566    2003     000000000000000000000000000000000000000000000000000000000000                000000000000000000000000000000000000000000000    *
12121956771000127000000000000000000000000000000000000000000000000000000000000000000 000000000000000000000000000000                                000000000000000            000000000000000000000000000000000000000000000000000000000000000000000000000000000000000000000000000000000000000000000000000000000000000000000000000000000000000000000000000000000000      *
30121956771000127               130992555470101201511ELIESER JAIRO MACHADO DINIZ PEREIRA                                                                          01210000000000078800000000000000000    000000000000000000000000000000000000000000000000000000000000                                                                                                  *
90999999999999999999999999999999999999999999999999999                                                                                                                                                                                                                                                                                                                  *
