00                                                   1119992705000160SILVIA SILVA DE LIMA DECORACOESILVIA SILVA DE LIMATRAVESSA DA CONQUISTA 12                          JARDIM SAO SAVERIO  04194450SAO PAULO           SP001123315661                                                            20160911511        1               119992705000160                  *
10119992705000160000000000000000000000000000000000000SILVIA SILVA DE LIMA DECORACOES DE INTERTRAVESSA DA CONQUISTA 12                          JARDIM SAO SAVERIO  04194450SAO PAULO           SP001123315661s7410202a000156600002100     000000000000000000000000000000000000000000000000000000000000                000000000000000000000000000000000000000000000    *
12119992705000160000000000000000000000000000000000000000000000000000000000000000000 000000000000000000000000000000                                000000000000000            000000000000000000000000000000000000000000000000000000000000000000000000000000000000000000000000000000000000000000000000000000000000000000000000000000000000000000000000000000000000      *
30119992705000160               204850060940101201511SILVIA SILVA DE LIMA                                                                                         01210000000000093700000000000000000    000000000000000000000000000000000000000000000000000000000000                                                                                                  *
90999999999999999999999999999999999999999999999999999                                                                                                                                                                                                                                                                                                                  *
