00                                                   1101580422000107LEFRAN CABELEIREIROS COMERCI  ALESSANDRA RISSO SILRUA PAINEIRA 48 A                                 PARQUE DOS PINHEIROS13184560HORTOLANDIA         SP001939095313                                                            20140611511        1               101580422000107                  *
10101580422000107000000000000000000000000000000000000LEFRAN CABELEIREIROS COMERCI            RUA PAINEIRA 48 A                                 PARQUE DOS PINHEIROS13184560HORTOLANDIA         SP001939095313s9602501a0002515    2003     000000000000000000000000000000000000000000000000000000000000                000000000000000000000000000000000000000000000    *
12101580422000107000000000000000000000000000000000000000000000000000000000000000000 000000000000000000000000000000                                000000000000000            000000000000000000000000000000000000000000000000000000000000000000000000000000000000000000000000000000000000000000000000000000000000000000000000000000000000000000000000000000000000      *
30101580422000107               125066581162306200511ALESSANDRA RISSO SILVA                                                                                       01414000000000144800000000000000000    000000000000000000000000000000000000000000000000000000000000                                                                                                  *
90999999999999999999999999999999999999999999999999999                                                                                                                                                                                                                                                                                                                  *
