00                                                   1120437379000109ALBERTO LUIZ DA SILVEIRA EIRELALBERTO LUIZ DA SILVRUA MANOEL LAXE GOUVEIA 213                       AEROPORTO           28300000ITAPERUNA           RJ002238247864                                                            20150311511        1               120437379000109                  *
10120437379000109000000000000000000000000000000000000ALBERTO LUIZ DA SILVEIRA EIRELI         RUA MANOEL LAXE GOUVEIA 213                       AEROPORTO           28300000ITAPERUNA           RJ002238247864s4213800a300150700002100     000000000000000000000000000000000000000000000000000000000000                000000000000000000000000000000000000000000000    *
12120437379000109000000000000000000000000000000000000000000000000000000000000000000 000000000000000000000000000000                                000000000000000            000000000000000000000000000000000000000000000000000000000000000000000000000000000000000000000000000000000000000000000000000000000000000000000000000000000000000000000000000000000000      *
30120437379000109               111492283391106201411ALBERTO LUIZ DA SILVEIRA                                                                                     01231000000000078800000000000000000    000000000000000000000000000000000000000000000000000000000000                                                                                                  *
90999999999999999999999999999999999999999999999999999                                                                                                                                                                                                                                                                                                                  *
