00                                                   1121586123000126MANFRINI E CAPELLETTI SOCIEDADCAETANO SERGIO MANFRAV PRESIDENTE KENNEDY 1386 SALA 79                CIDADE NOVA I       13334170INDAIATUBA          SP001938755543                                                            20141211511        1               121586123000126                  *
10121586123000126000000000000000000000000000000000000MANFRINI E CAPELLETTI SOCIEDADE DE ADVOGAV PRESIDENTE KENNEDY 1386 SALA 79                CIDADE NOVA I       13334170INDAIATUBA          SP001938755543s6911701a100151500002100     000000000000000000000000000000000000000000000000000000000000                000000000000000000000000000000000000000000000    *
12121586123000126000000000000000000000000000000000000000000000000000000000000000000 000000000000000000000000000000                                000000000000000            000000000000000000000000000000000000000000000000000000000000000000000000000000000000000000000000000000000000000000000000000000000000000000000000000000000000000000000000000000000000      *
30121586123000126               119614617942511201411CAETANO SERGIO MANFRINI NETO                                                                                 02410000000000078800000000000000000    000000000000000000000000000000000000000000000000000000000000                                                                                                  *
90999999999999999999999999999999999999999999999999999                                                                                                                                                                                                                                                                                                                  *
