00                                                   1101584548000199MARIA ALVAIR KONTARSKI ME     MARIA ALVAIR KONTARSAV LAVRAS 235                                     PETROPOLIS          90460040PORTO ALEGRE        RS005130128067                                                            20140911511        1               101584548000199                  *
10101584548000199000000000000000000000000000000000000MARIA ALVAIR KONTARSKI ME               AV LAVRAS 235                                     PETROPOLIS          90460040PORTO ALEGRE        RS005130128067s9602501a0002515    2003     000000000000000000000000000000000000000000000000000000000000                000000000000000000000000000000000000000000000    *
12101584548000199000000000000000000000000000000000000000000000000000000000000000000 000000000000000000000000000000                                000000000000000            000000000000000000000000000000000000000000000000000000000000000000000000000000000000000000000000000000000000000000000000000000000000000000000000000000000000000000000000000000000000      *
30101584548000199               121520408072909199911MARIA ALVAIR KONTARSKI                                                                                       01210000000000072400000000000000000    000000000000000000000000000000000000000000000000000000000000                                                                                                  *
90999999999999999999999999999999999999999999999999999                                                                                                                                                                                                                                                                                                                  *
