00                                                   1111772788000170LUIS ALEXANDRE DE ALMEIDA COSTLUIS ALEXANDRE DE ALRUA CARAIBAS 684 AP 14                            PERDIZES            05020000SAO PAULO           SP011981111793                                                            20170411511        1               111772788000170                  *
10111772788000170000000000000000000000000000000000000LUIS ALEXANDRE DE ALMEIDA COSTA EPP     RUA CARAIBAS 684 AP 14                            PERDIZES            05020000SAO PAULO           SP011981111793s8599604a0002515    2003     000000000000000000000000000000000000000000000000000000000000                000000000000000000000000000000000000000000000    *
12111772788000170000000000000000000000000000000000000000000000000000000000000000000 000000000000000000000000000000                                000000000000000            000000000000000000000000000000000000000000000000000000000000000000000000000000000000000000000000000000000000000000000000000000000000000000000000000000000000000000000000000000000000      *
30111772788000170               128880049352203201011LUIS ALEXANDRE DE ALMEIDA COSTA                                                                              01210000000000093700000000000000000    000000000000000000000000000000000000000000000000000000000000                                                                                                  *
90999999999999999999999999999999999999999999999999999                                                                                                                                                                                                                                                                                                                  *
