00                                                   1117284273000108SHIRLLEY TASSIANA MOTA FORMIGASHIRLLEY TACIANA MOTRUA ABNER DUARTE 370                              NOVO HORIZONTE      35570000FORMIGA             MG003733221677                                                            20140511511        1               117284273000108                  *
10117284273000108000000000000000000000000000000000000SHIRLLEY TASSIANA MOTA FORMIGA          RUA ABNER DUARTE 370                              NOVO HORIZONTE      35570000FORMIGA             MG003733221677s8219999a0002515    2003     000000000000000000000000000000000000000000000000000000000000                000000000000000000000000000000000000000000000    *
12117284273000108000000000000000000000000000000000000000000000000000000000000000000 000000000000000000000000000000                                000000000000000            000000000000000000000000000000000000000000000000000000000000000000000000000000000000000000000000000000000000000000000000000000000000000000000000000000000000000000000000000000000000      *
30117284273000108               124647940171112201211SHIRLLEY TACIANA MOTA                                                                                        01210000000000072400000000000000000    000000000000000000000000000000000000000000000000000000000000                                                                                                  *
90999999999999999999999999999999999999999999999999999                                                                                                                                                                                                                                                                                                                  *
