00                                                   1122368093000144RICARDO MIGUEL DE PAULA PERES RICARDO MIGUEL DE PAEST SALTINHO QUATRO SN CAIXA POSTAL 46            BARREIRINHO         13440000SALTINHO            SP019992878843                                                            20170411511        1               122368093000144                  *
10122368093000144000000000000000000000000000000000000RICARDO MIGUEL DE PAULA PERES ME        EST SALTINHO QUATRO SN CAIXA POSTAL 46            BARREIRINHO         13440000SALTINHO            SP019992878843s7119701a0002515    2003     000000000000000000000000000000000000000000000000000000000000                000000000000000000000000000000000000000000000    *
12122368093000144000000000000000000000000000000000000000000000000000000000000000000 000000000000000000000000000000                                000000000000000            000000000000000000000000000000000000000000000000000000000000000000000000000000000000000000000000000000000000000000000000000000000000000000000000000000000000000000000000000000000000      *
30122368093000144               132219079810405201511RICARDO MIGUEL DE PAULA PERES                                                                                01210000000000093700000000000000000    000000000000000000000000000000000000000000000000000000000000                                                                                                  *
90999999999999999999999999999999999999999999999999999                                                                                                                                                                                                                                                                                                                  *
