00                                                   1111156929000120SEGEN SERVICOS EM AUTOMACAO E WAGNER ANTONIO GOMESRUA ANGELO FURLAN 517                             RESIDENCIAL FURLAN  13451197SANTA BARBARA DOESTESP001997267500                                                            20130711511        1               111156929000120                  *
10111156929000120000000000000000000000000000000000000SEGEN SERVICOS EM AUTOMACAO E           RUA ANGELO FURLAN 517                             RESIDENCIAL FURLAN  13451197SANTA BARBARA DOESTESP001997267500s3314799a0002507    2003     000000000000000000000000000000000000000000000000000000000000                000000000000000000000000000000000000000000000    *
12111156929000120000000000000000000000000000000000000000000000000000000000000000000 000000000000000000000000000000                                000000000000000            000000000000000000000000000000000000000000000000000000000000000000000000000000000000000000000000000000000000000000000000000000000000000000000000000000000000000000000000000000000000      *
30111156929000120               127484982420409200911NATALIA NASCIMENTO LADEIA GOMES                                                                              01210000000000067800000000000000000    000000000000000000000000000000000000000000000000000000000000                                                                                                  *
90999999999999999999999999999999999999999999999999999                                                                                                                                                                                                                                                                                                                  *
