00                                                   1122373283000150RONALDO OSCAR LEMOS DE OLIVEIRRONALDO OSCAR LEMOS AV IMPERATRIZ LEOPOLDINA 550 TORRE 4 APTO 44      VILA NOVA           13073035CAMPINAS            SP001933052596                                                            20170411511        1               122373283000150                  *
10122373283000150000000000000000000000000000000000000RONALDO OSCAR LEMOS DE OLIVEIRA ME      AV IMPERATRIZ LEOPOLDINA 550 TORRE 4 APTO 44      VILA NOVA           13073035CAMPINAS            SP001933052596s8599604a0002515    2003     000000000000000000000000000000000000000000000000000000000000                000000000000000000000000000000000000000000000    *
12122373283000150000000000000000000000000000000000000000000000000000000000000000000 000000000000000000000000000000                                000000000000000            000000000000000000000000000000000000000000000000000000000000000000000000000000000000000000000000000000000000000000000000000000000000000000000000000000000000000000000000000000000000      *
30122373283000150               101106102340106201511RONALDO OSCAR LEMOS DE OLIVEIRA                                                                              01210000000000093700000000000000000    000000000000000000000000000000000000000000000000000000000000                                                                                                  *
90999999999999999999999999999999999999999999999999999                                                                                                                                                                                                                                                                                                                  *
