00                                                   1117347452000147C A M DA SILVA PURIFICADORES LCAMILA ALVES MALUF DAV SAO PAULO 66 SL01                              JD SILVA            06804230EMBU DAS ARTES      SP001128483551                                                            20140511511        1               117347452000147                  *
10117347452000147000000000000000000000000000000000000C A M DA SILVA PURIFICADORES L          AV SAO PAULO 66 SL01                              JD SILVA            06804230EMBU DAS ARTES      SP001128483551s9521500a0002515    2003     000000000000000000000000000000000000000000000000000000000000                000000000000000000000000000000000000000000000    *
12117347452000147000000000000000000000000000000000000000000000000000000000000000000 000000000000000000000000000000                                000000000000000            000000000000000000000000000000000000000000000000000000000000000000000000000000000000000000000000000000000000000000000000000000000000000000000000000000000000000000000000000000000000      *
30117347452000147               203903783420101201311CAMILA ALVES MALUF DA SILVA                                                                                  01231000000000072400000000000000000    000000000000000000000000000000000000000000000000000000000000                                                                                                  *
90999999999999999999999999999999999999999999999999999                                                                                                                                                                                                                                                                                                                  *
