00                                                   1122024864000186SCERNI SERVICOS DE BELEZA LTDACANDIDO RAMOS       AVENIDA GOVERNADOR JOSE MALCHER 815 SALA 7        NAZARE              66055901BELEM               PA009132224211                                                            20151111511        1               122024864000186                  *
10122024864000186000000000000000000000000000000000000SCERNI SERVICOS DE BELEZA LTDA          AVENIDA GOVERNADOR JOSE MALCHER 815 SALA 7        NAZARE              66055901BELEM               PA009132224211s9602502a0002515    2003     000000000000000000000000000000000000000000000000000000000000                000000000000000000000000000000000000000000000    *
12122024864000186000000000000000000000000000000000000000000000000000000000000000000 000000000000000000000000000000                                000000000000000            000000000000000000000000000000000000000000000000000000000000000000000000000000000000000000000000000000000000000000000000000000000000000000000000000000000000000000000000000000000000      *
30122024864000186               108473869260202201511CANDIDO RAMOS                                                                                                01231000000000078800000000000000000    000000000000000000000000000000000000000000000000000000000000                                                                                                  *
90999999999999999999999999999999999999999999999999999                                                                                                                                                                                                                                                                                                                  *
