00                                                   1114102346000105MARIA ELISA R MANDACARU ME    MARIA ELISA ROCHA MARUA BELGICA 710 LOJA 7                            GLORIA              32340030CONTAGEM            MG003194675258                                                            20151011511        1               114102346000105                  *
10114102346000105000000000000000000000000000000000000MARIA ELISA R MANDACARU ME              RUA BELGICA 710 LOJA 7                            GLORIA              32340030CONTAGEM            MG003194675258s6209100a0002515    2003     000000000000000000000000000000000000000000000000000000000000                000000000000000000000000000000000000000000000    *
12114102346000105000000000000000000000000000000000000000000000000000000000000000000 000000000000000000000000000000                                000000000000000            000000000000000000000000000000000000000000000000000000000000000000000000000000000000000000000000000000000000000000000000000000000000000000000000000000000000000000000000000000000000      *
30114102346000105               130238261361008201111MARIA ELISA ROCHA MANDACARU                                                                                  01210000000000078800000000000000000    000000000000000000000000000000000000000000000000000000000000                                                                                                  *
90999999999999999999999999999999999999999999999999999                                                                                                                                                                                                                                                                                                                  *
