00                                                   1118562714000159ECSVM SERVICOS DE INFORMATICA ELIAS DA COSTA MOREIRUA WILSON DE ARARUJO 386 MANTIQUIRA              MANTIQUIRA          25250460DUQUE DE CAXIAS     RJ002124479644                                                            20141011511        1               118562714000159                  *
10118562714000159000000000000000000000000000000000000ECSVM SERVICOS DE INFORMATICA           RUA WILSON DE ARARUJO 386 MANTIQUIRA              MANTIQUIRA          25250460DUQUE DE CAXIAS     RJ002124479644s9511800a0002515    2003     000000000000000000000000000000000000000000000000000000000000                000000000000000000000000000000000000000000000    *
12118562714000159000000000000000000000000000000000000000000000000000000000000000000 000000000000000000000000000000                                000000000000000            000000000000000000000000000000000000000000000000000000000000000000000000000000000000000000000000000000000000000000000000000000000000000000000000000000000000000000000000000000000000      *
30118562714000159               108314483230106201411SONIMAR VIEIRA MOREIRA                                                                                       01231000000000072400000000000000000    000000000000000000000000000000000000000000000000000000000000                                                                                                  *
30118562714000159               113346926070104201411ELIAS DA COSTA MOREIRA                                                                                       01210000000000072400000000000000000    000000000000000000000000000000000000000000000000000000000000                                                                                                  *
90999999999999999999999999999999999999999999999999999                                                                                                                                                                                                                                                                                                                  *
