00                                                   1109255086000178PAOLI COMPUTACAO GRAFICA LTDA MARCELO PAOLI GRACIARUA PADRE TEIXEIRA 1980 SALA 07                   CENTRO              13560210SAO CARLOS          SP001631166090                                                            20161011511        1               109255086000178                  *
10109255086000178000000000000000000000000000000000000PAOLI COMPUTACAO GRAFICA LTDA           RUA PADRE TEIXEIRA 1980 SALA 07                   CENTRO              13560210SAO CARLOS          SP001631166090s7319099a0002566    2003     000000000000000000000000000000000000000000000000000000000000                000000000000000000000000000000000000000000000    *
12109255086000178000000000000000000000000000000000000000000000000000000000000000000 000000000000000000000000000000                                000000000000000            000000000000000000000000000000000000000000000000000000000000000000000000000000000000000000000000000000000000000000000000000000000000000000000000000000000000000000000000000000000000      *
30109255086000178               119707544480312200711MARCELO PAOLI GRACIANO                                                                                       01231000000000100000000000000000000    000000000000000000000000000000000000000000000000000000000000                                                                                                  *
90999999999999999999999999999999999999999999999999999                                                                                                                                                                                                                                                                                                                  *
