00                                                   1109461965000156JOSE VILMAR VIEIRA            JOSE VILMAR VIEIRA  JOAO NEVES DA FONTOURA201                         PARQUE AMADOR       93280190ESTEIO              RS005134731550                                                            20150511511        1               109461965000156                  *
10109461965000156000000000000000000000000000000000000JOSE VILMAR VIEIRA                      JOAO NEVES DA FONTOURA201                         PARQUE AMADOR       93280190ESTEIO              RS005134731550s2542000a0002507    2003     000000000000000000000000000000000000000000000000000000000000                000000000000000000000000000000000000000000000    *
12109461965000156000000000000000000000000000000000000000000000000000000000000000000 000000000000000000000000000000                                000000000000000            000000000000000000000000000000000000000000000000000000000000000000000000000000000000000000000000000000000000000000000000000000000000000000000000000000000000000000000000000000000000      *
30109461965000156               201185031751403200811JOSE VILMAR VIEIRA                                                                                           01210000000000250000000000000000000    000000000000000000000000000000000000000000000000000000000000                                                                                                  *
90999999999999999999999999999999999999999999999999999                                                                                                                                                                                                                                                                                                                  *
