00                                                   1104814921000149CURSO DE INGLES MAIN STREET LTJAYME SOARES JUNIOR RUA SEBASTIAO LAURENTINO DA SILVA 573             CORREGO GRANDE      88037400FLORIANOPOLIS       SC004832334001                                                            20170311511        1               104814921000149                  *
10104814921000149000000000000000000000000000000000000CURSO DE INGLES MAIN STREET LTDA ME     RUA SEBASTIAO LAURENTINO DA SILVA 573             CORREGO GRANDE      88037400FLORIANOPOLIS       SC004832334001s8593700a0002515    2003     000000000000000000000000000000000000000000000000000000000000                000000000000000000000000000000000000000000000    *
12104814921000149000000000000000000000000000000000000000000000000000000000000000000 000000000000000000000000000000                                000000000000000            000000000000000000000000000000000000000000000000000000000000000000000000000000000000000000000000000000000000000000000000000000000000000000000000000000000000000000000000000000000000      *
30104814921000149               116406724130201200211JAYME SOARES JUNIOR                                                                                          01210000000000093700000000000000000    000000000000000000000000000000000000000000000000000000000000                                                                                                  *
90999999999999999999999999999999999999999999999999999                                                                                                                                                                                                                                                                                                                  *
