00                                                   1118407956000178ANDRIELE PAMELA LIMA DA SILVA ANDRIELE PAMELA LIMARUA APOLONIA MELO 565                             JARDIM CANAA I      79833700DOURADOS            MS006796123516                                                            20150711511        1               118407956000178                  *
10118407956000178000000000000000000000000000000000000ANDRIELE PAMELA LIMA DA SILVA           RUA APOLONIA MELO 565                             JARDIM CANAA I      79833700DOURADOS            MS006796123516s9511800a0002515    2003     000000000000000000000000000000000000000000000000000000000000                000000000000000000000000000000000000000000000    *
12118407956000178000000000000000000000000000000000000000000000000000000000000000000 000000000000000000000000000000                                000000000000000            000000000000000000000000000000000000000000000000000000000000000000000000000000000000000000000000000000000000000000000000000000000000000000000000000000000000000000000000000000000000      *
30118407956000178               160301486811607201311ANDRIELE PAMELA LIMA DA SILVA                                                                                01414000000000100000000000000000000    000000000000000000000000000000000000000000000000000000000000                                                                                                  *
90999999999999999999999999999999999999999999999999999                                                                                                                                                                                                                                                                                                                  *
