00                                                   1110417962000183M V DA SILVA ME               MARCIO VALERIO DA SIAVENIDA SAO SEBASTIAO 3285                        QUILOMBO            78045000CUIABA              MT006530444500                                                            20151211511        1               110417962000183                  *
10110417962000183000000000000000000000000000000000000M V DA SILVA ME                         AVENIDA SAO SEBASTIAO 3285                        QUILOMBO            78045000CUIABA              MT006530444500s6821801a0002515    2003     000000000000000000000000000000000000000000000000000000000000                000000000000000000000000000000000000000000000    *
12110417962000183000000000000000000000000000000000000000000000000000000000000000000 000000000000000000000000000000                                000000000000000            000000000000000000000000000000000000000000000000000000000000000000000000000000000000000000000000000000000000000000000000000000000000000000000000000000000000000000000000000000000000      *
30110417962000183               127139101630805201511MARCIO VALERIO DA SILVA                                                                                      01210000000000078900000000000000000    000000000000000000000000000000000000000000000000000000000000                                                                                                  *
90999999999999999999999999999999999999999999999999999                                                                                                                                                                                                                                                                                                                  *
