00                                                   1100629574000123MOTIF TECNICA LTDA ME         RICARDO LIMA COELHO RUA COMENDADOR JOSE ALVES FERREIRA 66 TERREO      GARCIA              40100160SALVADOR            BA007188858197                                                            20160711511        1               100629574000123                  *
10100629574000123000000000000000000000000000000000000MOTIF TECNICA LTDA ME                   RUA COMENDADOR JOSE ALVES FERREIRA 66 TERREO      GARCIA              40100160SALVADOR            BA007188858197s9511800a0002515    2003     000000000000000000000000000000000000000000000000000000000000                000000000000000000000000000000000000000000000    *
12100629574000123000000000000000000000000000000000000000000000000000000000000000000 000000000000000000000000000000                                000000000000000            000000000000000000000000000000000000000000000000000000000000000000000000000000000000000000000000000000000000000000000000000000000000000000000000000000000000000000000000000000000000      *
30100629574000123               122201332321002200411RICARDO LIMA COELHO                                                                                          01210000000000400000000000000000000    000000000000000000000000000000000000000000000000000000000000                                                                                                  *
90999999999999999999999999999999999999999999999999999                                                                                                                                                                                                                                                                                                                  *
