00                                                   1108519877000103ESTEVAM LEAL MORAES DA SILVA MESTEVAM LEAL MORAES RUA MAJOR ANGELO ZANCHI 103                       PENHA               03633000SAO PAULO           SP001120911004                                                            20160711511        1               108519877000103                  *
10108519877000103000000000000000000000000000000000000ESTEVAM LEAL MORAES DA SILVA M          RUA MAJOR ANGELO ZANCHI 103                       PENHA               03633000SAO PAULO           SP001120911004s9511800a0002515    2003     000000000000000000000000000000000000000000000000000000000000                000000000000000000000000000000000000000000000    *
12108519877000103000000000000000000000000000000000000000000000000000000000000000000 000000000000000000000000000000                                000000000000000            000000000000000000000000000000000000000000000000000000000000000000000000000000000000000000000000000000000000000000000000000000000000000000000000000000000000000000000000000000000000      *
30108519877000103               128824218522711200611ESTEVAM LEAL MORAES DA SILVA                                                                                 01210000000000115000000000000000000    000000000000000000000000000000000000000000000000000000000000                                                                                                  *
90999999999999999999999999999999999999999999999999999                                                                                                                                                                                                                                                                                                                  *
