00                                                   1122100250000136EMPRESA TESTE                 JOAO MASCARENHAS    RUA DA GLORIA 22                                  BERVELY HILLS       04543120SAO PAULO           SP001138154110                                                            20170311511        1               122100250000136                  *
10122100250000136000000000000000000000000000000000000EMPRESA TESTE                           RUA DA GLORIA 22                                  BERVELY HILLS       04543120SAO PAULO           SP001138154110s6911701a0002515    2003     000000000000000000000000000000000000000000000000000000000000                000000000000000000000000000000000000000000000    *
12122100250000136000000000000000000000000000000000000000000000000000000000000000000 000000000000000000000000000000                                000000000000000            000000000000000000000000000000000000000000000000000000000000000000000000000000000000000000000000000000000000000000000000000000000000000000000000000000000000000000000000000000000000      *
30122100250000136               128603768540101200011JOAO MASCARENHAS                                                                                             01210000000000020000000000000000000    000000000000000000000000000000000000000000000000000000000000                                                                                                  *
90999999999999999999999999999999999999999999999999999                                                                                                                                                                                                                                                                                                                  *
