00                                                   1106307440000172SIVNAT SERVICOS DE INFORMATICAANDREA SIVIERO      AV DR JOAO GUIMARAES 377                          JARDIM TABOAO       05741190SAO PAULO           SP001197067624                                                            20150311511        1               106307440000172                  *
10106307440000172000000000000000000000000000000000000SIVNAT SERVICOS DE INFORMATICA          AV DR JOAO GUIMARAES 377                          JARDIM TABOAO       05741190SAO PAULO           SP001197067624s6209100a0002515    2003     000000000000000000000000000000000000000000000000000000000000                000000000000000000000000000000000000000000000    *
12106307440000172000000000000000000000000000000000000000000000000000000000000000000 000000000000000000000000000000                                000000000000000            000000000000000000000000000000000000000000000000000000000000000000000000000000000000000000000000000000000000000000000000000000000000000000000000000000000000000000000000000000000000      *
30106307440000172               105510758961706200911SANDRA MARTINS DE SOUZA                                                                                      01311000000000078800000000000000000    000000000000000000000000000000000000000000000000000000000000                                                                                                  *
30106307440000172               124256656002005200411ANDREA SIVIERO                                                                                               01311000000000080000000000000000000    000000000000000000000000000000000000000000000000000000000000                                                                                                  *
90999999999999999999999999999999999999999999999999999                                                                                                                                                                                                                                                                                                                  *
