00                                                   1118573705000163ELIANE DALAGNOL TECNOLOGIA EPPELIANE DALAGNOL     RUA AVANHANDAVA 459 APTO 514                      BELA VISTA          01306001SAO PAULO           SP011983266254                                                            20170411511        1               118573705000163                  *
10118573705000163000000000000000000000000000000000000ELIANE DALAGNOL TECNOLOGIA EPP          RUA AVANHANDAVA 459 APTO 514                      BELA VISTA          01306001SAO PAULO           SP011983266254s6209100a0002515    2003     000000000000000000000000000000000000000000000000000000000000                000000000000000000000000000000000000000000000    *
12118573705000163000000000000000000000000000000000000000000000000000000000000000000 000000000000000000000000000000                                000000000000000            000000000000000000000000000000000000000000000000000000000000000000000000000000000000000000000000000000000000000000000000000000000000000000000000000000000000000000000000000000000000      *
30118573705000163               128545458951706201311ELIANE DALAGNOL                                                                                              01210000000000093700000000000000000    000000000000000000000000000000000000000000000000000000000000                                                                                                  *
90999999999999999999999999999999999999999999999999999                                                                                                                                                                                                                                                                                                                  *
