00                                                   1105061978000187PE COMUNICACAO LTDAME         PAULO EUGENIO MACHADRUA TUIM 536 CONJ 24                              MOEMA               04514102SAO PAULO           SP001127689821                                                            20141211511        1               105061978000187                  *
10105061978000187000000000000000000000000000000000000PE COMUNICACAO LTDAME                   RUA TUIM 536 CONJ 24                              MOEMA               04514102SAO PAULO           SP001127689821s6010100a0002566    2003     000000000000000000000000000000000000000000000000000000000000                000000000000000000000000000000000000000000000    *
12105061978000187000000000000000000000000000000000000000000000000000000000000000000 000000000000000000000000000000                                000000000000000            000000000000000000000000000000000000000000000000000000000000000000000000000000000000000000000000000000000000000000000000000000000000000000000000000000000000000000000000000000000000      *
30105061978000187               123240887802604200211PAULO EUGENIO MACHADO BARBOZA                                                                                01231000000000072400000000000000000    000000000000000000000000000000000000000000000000000000000000                                                                                                  *
90999999999999999999999999999999999999999999999999999                                                                                                                                                                                                                                                                                                                  *
