00                                                   1121361283000177C G ARAUJO ASSESSORIA E REPRESCARMEM GOMES ARAUJO RUA AUGUSTO DOS ANJOS 30                          VILA CORDEIRO       04582010SAO PAULO           SP011998360899                                                            20150211511        1               121361283000177                  *
10121361283000177000000000000000000000000000000000000C G ARAUJO ASSESSORIA E REPRESENTACOES MRUA AUGUSTO DOS ANJOS 30                          VILA CORDEIRO       04582010SAO PAULO           SP011998360899s6920601a0002515    2003     000000000000000000000000000000000000000000000000000000000000                000000000000000000000000000000000000000000000    *
12121361283000177000000000000000000000000000000000000000000000000000000000000000000 000000000000000000000000000000                                000000000000000            000000000000000000000000000000000000000000000000000000000000000000000000000000000000000000000000000000000000000000000000000000000000000000000000000000000000000000000000000000000000      *
30121361283000177               125147816650711201411CARMEM GOMES ARAUJO                                                                                          01231000000000470000000000000000000    000000000000000000000000000000000000000000000000000000000000                                                                                                  *
90999999999999999999999999999999999999999999999999999                                                                                                                                                                                                                                                                                                                  *
