00                                                   1118342966000172DANUBIO OLIVEIRA DOS SANTOS DEDANUBIO OLIVEIRA DOSRUA DELMIRO GOLVEIA 904                           SALESIANOS          63050216JUAZEIRO DO NORTE CECE008835122121                                                            20140911511        1               118342966000172                  *
10118342966000172000000000000000000000000000000000000DANUBIO OLIVEIRA DOS SANTOS DE MATOS ME RUA DELMIRO GOLVEIA 904                           SALESIANOS          63050216JUAZEIRO DO NORTE CECE008835122121s9609299a0002515    2003     000000000000000000000000000000000000000000000000000000000000                000000000000000000000000000000000000000000000    *
12118342966000172000000000000000000000000000000000000000000000000000000000000000000 000000000000000000000000000000                                000000000000000            000000000000000000000000000000000000000000000000000000000000000000000000000000000000000000000000000000000000000000000000000000000000000000000000000000000000000000000000000000000000      *
30118342966000172               138255581920108201411DANUBIO OLIVEIRA DOS SANTOS DE MATOS                                                                         01210000000000108600000000000000000    000000000000000000000000000000000000000000000000000000000000                                                                                                  *
90999999999999999999999999999999999999999999999999999                                                                                                                                                                                                                                                                                                                  *
