00                                                   1107604211000182ANA FLAVIA CORDEIRO CIA LTDA MANA FLAVIA CORDEIRO RUA ANTONIA BRAGA 20                              VILA OPERARIA       35519000NOVA SERRANA        MG003788176333                                                            20160611511        1               107604211000182                  *
10107604211000182000000000000000000000000000000000000ANA FLAVIA CORDEIRO CIA LTDA ME         RUA ANTONIA BRAGA 20                              VILA OPERARIA       35519000NOVA SERRANA        MG003788176333s7319003a0002566    2003     000000000000000000000000000000000000000000000000000000000000                000000000000000000000000000000000000000000000    *
12107604211000182000000000000000000000000000000000000000000000000000000000000000000 000000000000000000000000000000                                000000000000000            000000000000000000000000000000000000000000000000000000000000000000000000000000000000000000000000000000000000000000000000000000000000000000000000000000000000000000000000000000000000      *
30107604211000182               126238641112209200511ANA FLAVIA CORDEIRO                                                                                          01231000000000088000000000000000000    000000000000000000000000000000000000000000000000000000000000                                                                                                  *
90999999999999999999999999999999999999999999999999999                                                                                                                                                                                                                                                                                                                  *
