00                                                   1118742381000140REINALDO SILVA DE LIMA TREINAMREINALDO SILVA DE LIRUA JULIO PELEGRINI NETO 165                      JD SANTA LUCIA      13060462CAMPINAS            SP019998386764                                                            20160811511        1               118742381000140                  *
10118742381000140000000000000000000000000000000000000REINALDO SILVA DE LIMA TREINAM          RUA JULIO PELEGRINI NETO 165                      JD SANTA LUCIA      13060462CAMPINAS            SP019998386764s8599603a0002515    2003     000000000000000000000000000000000000000000000000000000000000                000000000000000000000000000000000000000000000    *
12118742381000140000000000000000000000000000000000000000000000000000000000000000000 000000000000000000000000000000                                000000000000000            000000000000000000000000000000000000000000000000000000000000000000000000000000000000000000000000000000000000000000000000000000000000000000000000000000000000000000000000000000000000      *
30118742381000140               127413782252308201311REINALDO SILVA DE LIMA                                                                                       01210000000000088000000000000000000  05000000000000000000000000000000000000000000000000000000000000                                                                                                  *
90999999999999999999999999999999999999999999999999999                                                                                                                                                                                                                                                                                                                  *
