00                                                   1114081841000185SUPERBLUE SERVICOS DE FOTOGRAFALVARO ANTONIO DE AVRUA HUMBERTO DE CAMPOS 827331                     LEBLON              22430190RIO DE JANEIRO      RJ002135477756                                                            20170411511        1               114081841000185                  *
10114081841000185000000000000000000000000000000000000SUPERBLUE SERVICOS DE FOTOGRAFIA LTDA MERUA HUMBERTO DE CAMPOS 827331                     LEBLON              22430190RIO DE JANEIRO      RJ002135477756s7420001a0002566    2003     000000000000000000000000000000000000000000000000000000000000                000000000000000000000000000000000000000000000    *
12114081841000185000000000000000000000000000000000000000000000000000000000000000000 000000000000000000000000000000                                000000000000000            000000000000000000000000000000000000000000000000000000000000000000000000000000000000000000000000000000000000000000000000000000000000000000000000000000000000000000000000000000000000      *
30114081841000185               122311901940807201111ANA CRISTINA DE AVELLAR RIBEIRO                                                                              04110000000000100000000000000000000    000000000000000000000000000000000000000000000000000000000000                                                                                                  *
30114081841000185               124306343860807201111ALVARO ANTONIO DE AVELLAR RIBEIRO                                                                            02618000000000200000000000000000000    000000000000000000000000000000000000000000000000000000000000                                                                                                  *
90999999999999999999999999999999999999999999999999999                                                                                                                                                                                                                                                                                                                  *
