00                                                   1118191267000179PAULO L MORAES ELETRONICOS M  PAULO LOPES DE MORAERUA MEXICO 320 S 01                               JARDIM AMERICA      06756360TABOAO DA SERRA     SP001147017584                                                            20170411511        1               118191267000179                  *
10118191267000179000000000000000000000000000000000000PAULO L MORAES ELETRONICOS M            RUA MEXICO 320 S 01                               JARDIM AMERICA      06756360TABOAO DA SERRA     SP001147017584s9511800a0002515    2003     000000000000000000000000000000000000000000000000000000000000                000000000000000000000000000000000000000000000    *
12118191267000179000000000000000000000000000000000000000000000000000000000000000000 000000000000000000000000000000                                000000000000000            000000000000000000000000000000000000000000000000000000000000000000000000000000000000000000000000000000000000000000000000000000000000000000000000000000000000000000000000000000000000      *
30118191267000179               116299586910807196811PAULO LOPES DE MORAES                                                                                        01210000000000381801000000000000000    000000000000000000000000000000000000000000000000000000000000                                                                                                  *
90999999999999999999999999999999999999999999999999999                                                                                                                                                                                                                                                                                                                  *
