00                                                   1115692252000104DAVI LEONARDO DE PAULO EIRELI DAVI LEONARDO DE PAURUA RAUL SEIXAS 521 AP 304 BLOCO 6                CASTELO DE MANACAS  30840710BELO HORIZONTE      MG003136549902                                                            20130815011        1               115692252000104                  *
10115692252000104000000000000000000000000000000000000DAVI LEONARDO DE PAULO EIRELI           RUA RAUL SEIXAS 521 AP 304 BLOCO 6                CASTELO DE MANACAS  30840710BELO HORIZONTE      MG003136549902s4330499a0002507    2003     000000000000000000000000000000000000000000000000000000000000                000000000000000000000000000000000000000000000    *
12115692252000104000000000000000000000000000000000000000000000000000000000000000000 000000000000000000000000000000                                000000000000000            000000000000000000000000000000000000000000000000000000000000000000000000000000000000000000000000000000000000000000000000000000000000000000000000000000000000000000000000000000000000      *
20115692252000104115692252000104000000000000000000000DAVI LEONARDO DE PAULO EIRELI           RUA RAUL SEIXAS 521 AP 304 BLOCO 6                CASTELO DE MANACAS  30840710BELO HORIZONTE      MG    000000000000000000000000000000000000000000000000000000000000000000000000000000000000000000000000000000000000000000000000                                          *
30115692252000104115692252000104127686071012006201211DAVI LEONARDO DE PAULO                                                                                       01210000000000067800000000000000000    000000000000000000000000000000000000000000000000000000000000                                                                                                  *
90999999999999999999999999999999999999999999999999999                                                                                                                                                                                                                                                                                                                  *
