00                                                   1117779749000181MAURO JOSE PORTO JUNIOR 095764MAURO JOSE PORTO JUNAVENIDA AUGUSTO DE LIMA 1121                      BARRO PRETO         30190002BELO HORIZONTE      MG003133345848                                                            20150411511        1               117779749000181                  *
10117779749000181000000000000000000000000000000000000MAURO JOSE PORTO JUNIOR 095764          AVENIDA AUGUSTO DE LIMA 1121                      BARRO PRETO         30190002BELO HORIZONTE      MG003133345848s9511800a0002515    2003     000000000000000000000000000000000000000000000000000000000000                000000000000000000000000000000000000000000000    *
12117779749000181000000000000000000000000000000000000000000000000000000000000000000 000000000000000000000000000000                                000000000000000            000000000000000000000000000000000000000000000000000000000000000000000000000000000000000000000000000000000000000000000000000000000000000000000000000000000000000000000000000000000000      *
30117779749000181               129121011252003201311MAURO JOSE PORTO JUNIOR                                                                                      01210000000000078800000000000000000    000000000000000000000000000000000000000000000000000000000000                                                                                                  *
90999999999999999999999999999999999999999999999999999                                                                                                                                                                                                                                                                                                                  *
