00                                                   1121197003000137ESPORTE MAIS ASSESSORIA ESPORTMARIANNE GUIMARAES PRUA 38 QD 16 LT 24                                JARDIM BELA VISTA   74912100APARECIDA DE GOIANIAGO011956572525                                                            20160511511        1               121197003000137                  *
10121197003000137000000000000000000000000000000000000ESPORTE MAIS ASSESSORIA ESPORTIVA LTDA MRUA 38 QD 16 LT 24                                JARDIM BELA VISTA   74912100APARECIDA DE GOIANIAGO011956572525s8591100a0002515    2003     000000000000000000000000000000000000000000000000000000000000                000000000000000000000000000000000000000000000    *
12121197003000137000000000000000000000000000000000000000000000000000000000000000000 000000000000000000000000000000                                000000000000000            000000000000000000000000000000000000000000000000000000000000000000000000000000000000000000000000000000000000000000000000000000000000000000000000000000000000000000000000000000000000      *
30121197003000137               132539059330910201411MARIANNE GUIMARAES PARREIRA                                                                                  01210000000000057000000000000000000    000000000000000000000000000000000000000000000000000000000000                                                                                                  *
30121197003000137               210664584820910201411SEBASTIAO JUNIO MENEGATTE PEREIRA                                                                            01210000000000057000000000000000000  05000000000009680000000000000000000000000000000000000000000000                                                                                                  *
90999999999999999999999999999999999999999999999999999                                                                                                                                                                                                                                                                                                                  *
