00                                                   1112388841000105COMPLIANCE CONTADORES LTDAME  EDUARDO ANTONIO SILVRUA TIMBO 430                                     PINDORAMA           30880560BELO HORIZONTE      MG003193144859                                                            20170411511        1               112388841000105                  *
10112388841000105000000000000000000000000000000000000COMPLIANCE CONTADORES LTDAME            RUA TIMBO 430                                     PINDORAMA           30880560BELO HORIZONTE      MG003193144859s6920601a0002515    2003     000000000000000000000000000000000000000000000000000000000000                000000000000000000000000000000000000000000000    *
12112388841000105000000000000000000000000000000000000000000000000000000000000000000 000000000000000000000000000000                                000000000000000            000000000000000000000000000000000000000000000000000000000000000000000000000000000000000000000000000000000000000000000000000000000000000000000000000000000000000000000000000000000000      *
30112388841000105               127084841001008201011ROBERTA RAQUEL JUNQUEIRA SILVA                                                                               01233000000000093700000000000000000    000000000000000000000000000000000000000000000000000000000000                                                                                                  *
90999999999999999999999999999999999999999999999999999                                                                                                                                                                                                                                                                                                                  *
