00                                                   1117337902000110A PERICIAS DE ENGENHARIA E AVADANIEL PICCHETTI NASRUA DR OLAVO DE SIQUEIRA FERREIRA 59              INSTITUTO DE PREVIDE05530010SAO PAULO           SP011984465070                                                            20170411511        1               117337902000110                  *
10117337902000110000000000000000000000000000000000000A PERICIAS DE ENGENHARIA E AVALIACOES TERUA DR OLAVO DE SIQUEIRA FERREIRA 59              INSTITUTO DE PREVIDE05530010SAO PAULO           SP011984465070s7112000a0002507    2003     000000000000000000000000000000000000000000000000000000000000                000000000000000000000000000000000000000000000    *
12117337902000110000000000000000000000000000000000000000000000000000000000000000000 000000000000000000000000000000                                000000000000000            000000000000000000000000000000000000000000000000000000000000000000000000000000000000000000000000000000000000000000000000000000000000000000000000000000000000000000000000000000000000      *
30117337902000110               128141549332911201211DANIEL PICCHETTI NASCIMENTO                                                                                  01210000000000100000000000000000000  05000000000011000000000000000000000000000000000000000000000000                                                                                                  *
90999999999999999999999999999999999999999999999999999                                                                                                                                                                                                                                                                                                                  *
