00                                                   1112643918000138EAD ENSINAR TECNOLOGIA DA INFOANTONIO CESAR REIS BRUA CARDEAL ARCO VERDE 495                        JD SEMINARIO        79118530CAMPO GRANDE        MS006733650295                                                            20150911511        1               112643918000138                  *
10112643918000138000000000000000000000000000000000000EAD ENSINAR TECNOLOGIA DA INFORMACAO ME RUA CARDEAL ARCO VERDE 495                        JD SEMINARIO        79118530CAMPO GRANDE        MS006733650295s6319400a0002515    2003     000000000000000000000000000000000000000000000000000000000000                000000000000000000000000000000000000000000000    *
12112643918000138000000000000000000000000000000000000000000000000000000000000000000 000000000000000000000000000000                                000000000000000            000000000000000000000000000000000000000000000000000000000000000000000000000000000000000000000000000000000000000000000000000000000000000000000000000000000000000000000000000000000000      *
30112643918000138               190067884170910201011ANTONIO CESAR REIS BARROS                                                                                    01210000000000080000000000000000000    000000000000000000000000000000000000000000000000000000000000                                                                                                  *
90999999999999999999999999999999999999999999999999999                                                                                                                                                                                                                                                                                                                  *
