00                                                   1112748999000130DAVI MARIA DA SILVA CIA LTDA  DAVI MARIA DA SILVA VITORINO FREIRE 463                               MARIA REGINA        94824310ALVORADA            RS005134474545                                                            20141011511        1               112748999000130                  *
10112748999000130000000000000000000000000000000000000DAVI MARIA DA SILVA CIA LTDA            VITORINO FREIRE 463                               MARIA REGINA        94824310ALVORADA            RS005134474545s4321500a0002507    2003     000000000000000000000000000000000000000000000000000000000000                000000000000000000000000000000000000000000000    *
12112748999000130000000000000000000000000000000000000000000000000000000000000000000 000000000000000000000000000000                                000000000000000            000000000000000000000000000000000000000000000000000000000000000000000000000000000000000000000000000000000000000000000000000000000000000000000000000000000000000000000000000000000000      *
30112748999000130               115766424663001201411ELENILSE VIEIRA DA SILVA                                                                                     01231000000000072400000000000000000    000000000000000000000000000000000000000000000000000000000000                                                                                                  *
30112748999000130               125827926772510201011DAVI MARIA DA SILVA                                                                                          01210000000000150000000000000000000    000000000000000000000000000000000000000000000000000000000000                                                                                                  *
90999999999999999999999999999999999999999999999999999                                                                                                                                                                                                                                                                                                                  *
