00                                                   1117764860000102EMERSON CHAGAS ROSA ME        EMERSON CHAGA ROSA  RUA VALDEMAR DORIA 33 A                           BELENZINHO          03020050SAO PAULO           SP011987589748                                                            20140311511        1               117764860000102                  *
10117764860000102000000000000000000000000000000000000EMERSON CHAGAS ROSA ME                  RUA VALDEMAR DORIA 33 A                           BELENZINHO          03020050SAO PAULO           SP011987589748s8211300a0002515    2003     000000000000000000000000000000000000000000000000000000000000                000000000000000000000000000000000000000000000    *
12117764860000102000000000000000000000000000000000000000000000000000000000000000000 000000000000000000000000000000                                000000000000000            000000000000000000000000000000000000000000000000000000000000000000000000000000000000000000000000000000000000000000000000000000000000000000000000000000000000000000000000000000000000      *
30117764860000102               123017305590104201311EMERSON CHAGA ROSA                                                                                           01210000000000070000000000000000000    000000000000000000000000000000000000000000000000000000000000                                                                                                  *
90999999999999999999999999999999999999999999999999999                                                                                                                                                                                                                                                                                                                  *
