00                                                   1111566070000128ROBINSON CRISTIANO WEIMER MONTROBINSON CRISTIANO WAV JULIO REINOLDO HILDEBRAND                      JARDIM MALUCHE      88354260BRUSQUE             SC004730442166                                                            20141011511        1               111566070000128                  *
10111566070000128000000000000000000000000000000000000ROBINSON CRISTIANO WEIMER MONTEIRO ME   AV JULIO REINOLDO HILDEBRAND                      JARDIM MALUCHE      88354260BRUSQUE             SC004730442166s2512800a0002507    2003     000000000000000000000000000000000000000000000000000000000000                000000000000000000000000000000000000000000000    *
12111566070000128000000000000000000000000000000000000000000000000000000000000000000 000000000000000000000000000000                                000000000000000            000000000000000000000000000000000000000000000000000000000000000000000000000000000000000000000000000000000000000000000000000000000000000000000000000000000000000000000000000000000000      *
30111566070000128               165537509131802201011ROBINSON CRISTIANO WEIMER MONTEIRO                                                                           01210000000000300000000000000000000    000000000000000000000000000000000000000000000000000000000000                                                                                                  *
90999999999999999999999999999999999999999999999999999                                                                                                                                                                                                                                                                                                                  *
