00                                                   1117330977000170FERNANDO AZEVEDO DE SOUZA NUNEFERNANDO AZEVEDO DE AV HENRIQUE MOSCOSO                               CENTRO              29100021VILA VELHA          ES027999629144                                                            20160411511        1               117330977000170                  *
10117330977000170000000000000000000000000000000000000FERNANDO AZEVEDO DE SOUZA NUNES ME      AV HENRIQUE MOSCOSO                               CENTRO              29100021VILA VELHA          ES027999629144s7119703a0002515    2003     000000000000000000000000000000000000000000000000000000000000                000000000000000000000000000000000000000000000    *
12117330977000170000000000000000000000000000000000000000000000000000000000000000000 000000000000000000000000000000                                000000000000000            000000000000000000000000000000000000000000000000000000000000000000000000000000000000000000000000000000000000000000000000000000000000000000000000000000000000000000000000000000000000      *
30117330977000170               129877222910101201411FERNANDO AZEVEDO DE SOUZA NUNES                                                                              01210000000000088000000000000000000    000000000000000000000000000000000000000000000000000000000000                                                                                                  *
90999999999999999999999999999999999999999999999999999                                                                                                                                                                                                                                                                                                                  *
