00                                                   1102954898000162QUEZADA DUARTE ASSOCIADOS RE                      AVPROFESSOR FRANCISCO MORATO 2203 CJ24B1                              05513300SAO PAULO           SP055137222398                                                            20130711511        1               102954898000162                  *
10102954898000162000000000000000000000000000000000000QUEZADA DUARTE ASSOCIADOS RE            AVPROFESSOR FRANCISCO MORATO 2203 CJ24B1                              05513300SAO PAULO           SP055137222398s6311900a0002515    2003     000000000000000000000000000000000000000000000000000000000000                000000000000000000000000000000000000000000000    *
12102954898000162000000000000000000000000000000000000000000000000000000000000000000 000000000000000000000000000000                                000000000000000            000000000000000000000000000000000000000000000000000000000000000000000000000000000000000000000000000000000000000000000000000000000000000000000000000000000000000000000000000000000000      *
30102954898000162               125198208631503200511PEDRO FERNANDO QUEZADA DUARTE                                                                                01210000000000067800000000000000000    000000000000000000000000000000000000000000000000000000000000                                                                                                  *
90999999999999999999999999999999999999999999999999999                                                                                                                                                                                                                                                                                                                  *
