00                                                   1118194211000178SIMONE CRISTINA TEXEIRA DA SILSIMONE CRISTINA TEXERUA BARTOLOMEU BON                                JD DRACENA          05528200J DRACENA           SP001137514126                                                            20140111511        1               118194211000178                  *
10118194211000178000000000000000000000000000000000000SIMONE CRISTINA TEXEIRA DA SIL          RUA BARTOLOMEU BON                                JD DRACENA          05528200J DRACENA           SP001137514126s4743100a0002515    2003     000000000000000000000000000000000000000000000000000000000000                000000000000000000000000000000000000000000000    *
12118194211000178000000000000000000000000000000000000000000000000000000000000000000 000000000000000000000000000000                                000000000000000            000000000000000000000000000000000000000000000000000000000000000000000000000000000000000000000000000000000000000000000000000000000000000000000000000000000000000000000000000000000000      *
30118194211000178               166123404370201201411SIMONE CRISTINA TEXEIRA DA SILVA MACEDO                                                                      01421000000000072400000000000000000    000000000000000000000000000000000000000000000000000000000000                                                                                                  *
90999999999999999999999999999999999999999999999999999                                                                                                                                                                                                                                                                                                                  *
