00                                                   1114174412000152QUATRO ELEMENTOS GESTAO DA INFVANIA APARECIDA DE JAV PAULISTA N 726 17 ANDAR                        BELA VISTA          01310100SAO PAULO           SP001126136744                                                            20141111511        1               114174412000152                  *
10114174412000152000000000000000000000000000000000000QUATRO ELEMENTOS GESTAO DA INF          AV PAULISTA N 726 17 ANDAR                        BELA VISTA          01310100SAO PAULO           SP001126136744s8211300a0002515    2003     000000000000000000000000000000000000000000000000000000000000                000000000000000000000000000000000000000000000    *
12114174412000152000000000000000000000000000000000000000000000000000000000000000000 000000000000000000000000000000                                000000000000000            000000000000000000000000000000000000000000000000000000000000000000000000000000000000000000000000000000000000000000000000000000000000000000000000000000000000000000000000000000000000      *
30114174412000152               13184159859        13RODRIGO PRADO DE JESUS                                                                                       03171000000000100000000000000000000  05000000000000001000000000000000000000000000000000000000000000                                                                                                  *
90999999999999999999999999999999999999999999999999999                                                                                                                                                                                                                                                                                                                  *
