00                                                   1113544026000142STUDIO SCARLET CABELO ESTETICAMIGUEL FRANCISCO RAMAV IMIRIM 812                                     IMIRIM              02464000SAO PAULO           SP001121570123                                                            20150111511        1               113544026000142                  *
10113544026000142000000000000000000000000000000000000STUDIO SCARLET CABELO ESTETICA LTEA ME  AV IMIRIM 812                                     IMIRIM              02464000SAO PAULO           SP001121570123s9602501a0002515    2003     000000000000000000000000000000000000000000000000000000000000                000000000000000000000000000000000000000000000    *
12113544026000142000000000000000000000000000000000000000000000000000000000000000000 000000000000000000000000000000                                000000000000000            000000000000000000000000000000000000000000000000000000000000000000000000000000000000000000000000000000000000000000000000000000000000000000000000000000000000000000000000000000000000      *
30113544026000142               106381629442909195711MIGUEL FRANCISCO RAMOS CAZUZA                                                                                01231000000000078800000000000000000    000000000000000000000000000000000000000000000000000000000000                                                                                                  *
30113544026000142               135505968112908201111FERNANDA BRANDI CAZUZA                                                                                       01231000000000078800000000000000000    000000000000000000000000000000000000000000000000000000000000                                                                                                  *
90999999999999999999999999999999999999999999999999999                                                                                                                                                                                                                                                                                                                  *
