00                                                   1121513652000108HSM SERVICOS EMPRESARIAIS LTDAHAILTON GUELFI SOAREAV HUMBERTO DE ALENCAR CASTELO BRANCO 4169 ASS    ASSUNCAO            09850305SAO BERNARDO DO CAMPSP001123743338                                                            20170411511        1               121513652000108                  *
10121513652000108000000000000000000000000000000000000HSM SERVICOS EMPRESARIAIS LTDA ME       AV HUMBERTO DE ALENCAR CASTELO BRANCO 4169 ASS    ASSUNCAO            09850305SAO BERNARDO DO CAMPSP001123743338s8211300a0002515    2003     000000000000000000000000000000000000000000000000000000000000                000000000000000000000000000000000000000000000    *
12121513652000108000000000000000000000000000000000000000000000000000000000000000000 000000000000000000000000000000                                000000000000000            000000000000000000000000000000000000000000000000000000000000000000000000000000000000000000000000000000000000000000000000000000000000000000000000000000000000000000000000000000000000      *
30121513652000108               123240071950611201411SIMONE MACEDO SOARES                                                                                         01421000000000100000000000000000000    000000000000000000000000000000000000000000000000000000000000                                                                                                  *
30121513652000108               126323588190611201411HAILTON GUELFI SOARES DA SILVA                                                                               01421000000000100000000000000000000    000000000000000000000000000000000000000000000000000000000000                                                                                                  *
90999999999999999999999999999999999999999999999999999                                                                                                                                                                                                                                                                                                                  *
