00                                                   1114371195000190MARCO AURELIO DE CARVALHOME   MARCO AURELIO DE CARRUA SAO SEVERO 772                                VILA RE             03666000SAO PAULO           SP001128395357                                                            20160111511        1               114371195000190                  *
10114371195000190000000000000000000000000000000000000MARCO AURELIO DE CARVALHOME             RUA SAO SEVERO 772                                VILA RE             03666000SAO PAULO           SP001128395357s1352900a0002507    2003     000000000000000000000000000000000000000000000000000000000000                000000000000000000000000000000000000000000000    *
12114371195000190000000000000000000000000000000000000000000000000000000000000000000 000000000000000000000000000000                                000000000000000            000000000000000000000000000000000000000000000000000000000000000000000000000000000000000000000000000000000000000000000000000000000000000000000000000000000000000000000000000000000000      *
30114371195000190               123911796362809201111MARCO AURELIO DE CARVALHO                                                                                    01210000000000200000000000000000000    000000000000000000000000000000000000000000000000000000000000                                                                                                  *
90999999999999999999999999999999999999999999999999999                                                                                                                                                                                                                                                                                                                  *
