00                                                   1110337288000148BRUXELLAS PRODUCOES LTDA      ANDREA MARIA BRUXELLAV EPITACIO PESSOA 2330 301                       LAGOA               22411072RIO DE JANEIRO      RJ021983740568                                                            20170411511        1               110337288000148                  *
10110337288000148000000000000000000000000000000000000BRUXELLAS PRODUCOES LTDA                AV EPITACIO PESSOA 2330 301                       LAGOA               22411072RIO DE JANEIRO      RJ021983740568s5821200a0002507    2003     000000000000000000000000000000000000000000000000000000000000                000000000000000000000000000000000000000000000    *
12110337288000148000000000000000000000000000000000000000000000000000000000000000000 000000000000000000000000000000                                000000000000000            000000000000000000000000000000000000000000000000000000000000000000000000000000000000000000000000000000000000000000000000000000000000000000000000000000000000000000000000000000000000      *
30110337288000148               123224966601509200911ANDREA MARIA BRUXELLAS LUCAS RODRIGUEZ                                                                       01210000000000553131000000000000000    000000000000000000000000000000000000000000000000000000000000                                                                                                  *
90999999999999999999999999999999999999999999999999999                                                                                                                                                                                                                                                                                                                  *
