00                                                   1107241834000138BRANDAO E BICKER ADVOGADOS ASSLILIAN BRANDAO MOTTARUA LINCOLN ALBUQUERQUE 299 APTO 121              PERDIZES            05004010SAO PAULO           SP001133689462                                                            20150411511        1               107241834000138                  *
10107241834000138000000000000000000000000000000000000BRANDAO E BICKER ADVOGADOS ASSOCIADOS   RUA LINCOLN ALBUQUERQUE 299 APTO 121              PERDIZES            05004010SAO PAULO           SP001133689462s6911701a100151500002100     000000000000000000000000000000000000000000000000000000000000                000000000000000000000000000000000000000000000    *
12107241834000138000000000000000000000000000000000000000000000000000000000000000000 000000000000000000000000000000                                000000000000000            000000000000000000000000000000000000000000000000000000000000000000000000000000000000000000000000000000000000000000000000000000000000000000000000000000000000000000000000000000000000      *
30107241834000138               120097597473001200611LILIAN BRANDAO MOTTA                                                                                         01210000000000420000000000000000000    000000000000000000000000000000000000000000000000000000000000                                                                                                  *
90999999999999999999999999999999999999999999999999999                                                                                                                                                                                                                                                                                                                  *
