00                                                   1120550651000162BTS IT SOLUTIONS EIRELI ME    BRUNO TADEU DA SILVARUA ANA LUIZA DE CASTRO 22B                       SAGRADO CORACAO DE J36400000CONSELHEIRO LAFAIETEMG003137615163                                                            20140911511        1               120550651000162                  *
10120550651000162000000000000000000000000000000000000BTS IT SOLUTIONS EIRELI ME              RUA ANA LUIZA DE CASTRO 22B                       SAGRADO CORACAO DE J36400000CONSELHEIRO LAFAIETEMG003137615163s6311900a0002515    2003     000000000000000000000000000000000000000000000000000000000000                000000000000000000000000000000000000000000000    *
12120550651000162000000000000000000000000000000000000000000000000000000000000000000 000000000000000000000000000000                                000000000000000            000000000000000000000000000000000000000000000000000000000000000000000000000000000000000000000000000000000000000000000000000000000000000000000000000000000000000000000000000000000000      *
30120550651000162               161043454850307201411BRUNO TADEU DA SILVA                                                                                         01210000000000072400000000000000000    000000000000000000000000000000000000000000000000000000000000                                                                                                  *
90999999999999999999999999999999999999999999999999999                                                                                                                                                                                                                                                                                                                  *
