00                                                   1119973947000107RM DE LARA FRANCO NETO INFORMARAMON MANUEL DE LARAAV GABRIELA MISTRAL 352 APTO 42 BLOCO 01          PENHA DE FRANCA     03701000SAO PAULO           SP001135677523                                                            20141211511        1               119973947000107                  *
10119973947000107000000000000000000000000000000000000RM DE LARA FRANCO NETO INFORMATICA ME   AV GABRIELA MISTRAL 352 APTO 42 BLOCO 01          PENHA DE FRANCA     03701000SAO PAULO           SP001135677523s6209100a0002515    2003     000000000000000000000000000000000000000000000000000000000000                000000000000000000000000000000000000000000000    *
12119973947000107000000000000000000000000000000000000000000000000000000000000000000 000000000000000000000000000000                                000000000000000            000000000000000000000000000000000000000000000000000000000000000000000000000000000000000000000000000000000000000000000000000000000000000000000000000000000000000000000000000000000000      *
30119973947000107               127191349392704201411RAMON MANUEL DE LARA FRANCO NETO                                                                             01210000000000072400000000000000000    000000000000000000000000000000000000000000000000000000000000                                                                                                  *
90999999999999999999999999999999999999999999999999999                                                                                                                                                                                                                                                                                                                  *
