00                                                   1119755059000118CLOUD IO SOLUCOES EM INFORMATICLAUDIO CESAR DE PAURUA JOAO PEKNY 1339                               JARDIM ITAMARATY    08565600POA                 SP011998064962                                                            20160711511        1               119755059000118                  *
10119755059000118000000000000000000000000000000000000CLOUD IO SOLUCOES EM INFORMATICA LTDA MERUA JOAO PEKNY 1339                               JARDIM ITAMARATY    08565600POA                 SP011998064962s6209100a0002515    2003     000000000000000000000000000000000000000000000000000000000000                000000000000000000000000000000000000000000000    *
12119755059000118000000000000000000000000000000000000000000000000000000000000000000 000000000000000000000000000000                                000000000000000            000000000000000000000000000000000000000000000000000000000000000000000000000000000000000000000000000000000000000000000000000000000000000000000000000000000000000000000000000000000000      *
30119755059000118               124142371570101201411CLAUDIO CESAR DE PAULA GALVAO                                                                                01231000000000088000000000000000000    000000000000000000000000000000000000000000000000000000000000                                                                                                  *
90999999999999999999999999999999999999999999999999999                                                                                                                                                                                                                                                                                                                  *
