00                                                   1110772694000139RICARDO FAIRBANKS CACCIAGUERRARICARDO FAIRBANKS CAAV LIBERDADE 91 CONJ 43                           LIBERDADE           01503000SAO PAULO           SP001123374000                                                            20151011511        1               110772694000139                  *
10110772694000139000000000000000000000000000000000000RICARDO FAIRBANKS CACCIAGUERRA PLANEJAMEAV LIBERDADE 91 CONJ 43                           LIBERDADE           01503000SAO PAULO           SP001123374000s8211300a0002515    2003     000000000000000000000000000000000000000000000000000000000000                000000000000000000000000000000000000000000000    *
12110772694000139000000000000000000000000000000000000000000000000000000000000000000 000000000000000000000000000000                                000000000000000            000000000000000000000000000000000000000000000000000000000000000000000000000000000000000000000000000000000000000000000000000000000000000000000000000000000000000000000000000000000000      *
30110772694000139               124860328610101201511RICARDO FAIRBANKS CACCIAGUERRA                                                                               01231000000000080000000000000000000    000000000000000000000000000000000000000000000000000000000000                                                                                                  *
90999999999999999999999999999999999999999999999999999                                                                                                                                                                                                                                                                                                                  *
