00                                                   1111717294000193PHOTO ART BRASIL EDITORA LTDA MARIA HELENA ROUSSELRUA LUCIDIO LAGO 96 SALA 202                      MEIER               20780020RIO DE JANEIRO      RJ002124995831                                                            20161211511        1               111717294000193                  *
10111717294000193000000000000000000000000000000000000PHOTO ART BRASIL EDITORA LTDA ME        RUA LUCIDIO LAGO 96 SALA 202                      MEIER               20780020RIO DE JANEIRO      RJ002124995831s5819100a0002566    2003     000000000000000000000000000000000000000000000000000000000000                000000000000000000000000000000000000000000000    *
12111717294000193000000000000000000000000000000000000000000000000000000000000000000 000000000000000000000000000000                                000000000000000            000000000000000000000000000000000000000000000000000000000000000000000000000000000000000000000000000000000000000000000000000000000000000000000000000000000000000000000000000000000000      *
30111717294000193               119810481831508201111SERGIO ROUSSELET PAULINO                                                                                     01231000000000100000000000000000000    000000000000000000000000000000000000000000000000000000000000                                                                                                  *
90999999999999999999999999999999999999999999999999999                                                                                                                                                                                                                                                                                                                  *
