00                                                   1120117056000138WILLIAM SILVA ANDRADE SERVICOSWILLIAM SILVA ANDRADRUA PEDRO VICTOR 20 APTO 103A                     VILA FIRMIANO PINTO 04124130SAO PAULO           SP011991378474                                                            20160411511        1               120117056000138                  *
10120117056000138000000000000000000000000000000000000WILLIAM SILVA ANDRADE SERVICOS          RUA PEDRO VICTOR 20 APTO 103A                     VILA FIRMIANO PINTO 04124130SAO PAULO           SP011991378474s5240199a0002558    2003     000000000000000000000000000000000000000000000000000000000000                000000000000000000000000000000000000000000000    *
12120117056000138000000000000000000000000000000000000000000000000000000000000000000 000000000000000000000000000000                                000000000000000            000000000000000000000000000000000000000000000000000000000000000000000000000000000000000000000000000000000000000000000000000000000000000000000000000000000000000000000000000000000000      *
30120117056000138               206427016651104201411WILLIAM SILVA ANDRADE                                                                                        01210000000000088000000000000000000  05000000000009680000000000000000000000000000000000000000000000                                                                                                  *
90999999999999999999999999999999999999999999999999999                                                                                                                                                                                                                                                                                                                  *
