00                                                   1104270219000161RADICAIS LIVRES PRODUCOES LTDALUIZ TADEU CORREIA DAL GREGORIO BOGOSSIAN SOBRINHO 60 C 16            TAMBORE 5           06543385SANTANA DE PARNAIBA SP001141523344                                                            20170411511        1               104270219000161                  *
10104270219000161000000000000000000000000000000000000RADICAIS LIVRES PRODUCOES LTDA          AL GREGORIO BOGOSSIAN SOBRINHO 60 C 16            TAMBORE 5           06543385SANTANA DE PARNAIBA SP001141523344s5911199a0002566    2003     000000000000000000000000000000000000000000000000000000000000                000000000000000000000000000000000000000000000    *
12104270219000161000000000000000000000000000000000000000000000000000000000000000000 000000000000000000000000000000                                000000000000000            000000000000000000000000000000000000000000000000000000000000000000000000000000000000000000000000000000000000000000000000000000000000000000000000000000000000000000000000000000000000      *
30104270219000161               121255617612401200111VIVIANE RIBEIRO DA FONSECA                                                                                   01233000000000093700000000000000000    000000000000000000000000000000000000000000000000000000000000                                                                                                  *
30104270219000161               125006859280101201711MAURICIO LAFALCE TIBIRICA                                                                                    03721000000000093700000000000000000    000000000000000000000000000000000000000000000000000000000000                                                                                                  *
90999999999999999999999999999999999999999999999999999                                                                                                                                                                                                                                                                                                                  *
