00                                                   1121514063000136MASTROSHOP ONLINE LTDA ME     BRUNO LEONARDO KONTAAVENIDA LAVRAS                                    PETROPOLIS          90460040PORTO ALEGRE        RS005130128067                                                            20140111511        1               121514063000136                  *
10121514063000136000000000000000000000000000000000000MASTROSHOP ONLINE LTDA ME               AVENIDA LAVRAS                                    PETROPOLIS          90460040PORTO ALEGRE        RS005130128067s8599604a0002515    2003     000000000000000000000000000000000000000000000000000000000000                000000000000000000000000000000000000000000000    *
12121514063000136000000000000000000000000000000000000000000000000000000000000000000 000000000000000000000000000000                                000000000000000            000000000000000000000000000000000000000000000000000000000000000000000000000000000000000000000000000000000000000000000000000000000000000000000000000000000000000000000000000000000000      *
30121514063000136               128679926820112201411BRUNO LEONARDO KONTARSKI SEGER                                                                               01210000000000072400000000000000000    000000000000000000000000000000000000000000000000000000000000                                                                                                  *
90999999999999999999999999999999999999999999999999999                                                                                                                                                                                                                                                                                                                  *
