00                                                   1112109188000190CLC ARTES GRAFICAS LTDA ME    CLODOALDO LINO CORRERUA ANTONIO BORGES 131                            JARDIM CHAPADAO     13070016CAMPINAS            SP001933424216                                                            20130811511        1               112109188000190                  *
10112109188000190000000000000000000000000000000000000CLC ARTES GRAFICAS LTDA ME              RUA ANTONIO BORGES 131                            JARDIM CHAPADAO     13070016CAMPINAS            SP001933424216s1813099a0002507    2003     000000000000000000000000000000000000000000000000000000000000                000000000000000000000000000000000000000000000    *
12112109188000190000000000000000000000000000000000000000000000000000000000000000000 000000000000000000000000000000                                000000000000000            000000000000000000000000000000000000000000000000000000000000000000000000000000000000000000000000000000000000000000000000000000000000000000000000000000000000000000000000000000000000      *
30112109188000190               168575977832206201011CLODOALDO LINO CORREIA                                                                                       01231000000000145665000000000000000    000000000000000000000000000000000000000000000000000000000000                                                                                                  *
30112109188000190               168575979022206201011MARIA CONCEICAO INACIO CORREIA                                                                               01231000000000145665000000000000000    000000000000000000000000000000000000000000000000000000000000                                                                                                  *
90999999999999999999999999999999999999999999999999999                                                                                                                                                                                                                                                                                                                  *
