00                                                   1113821935000180A REDE DIGITAL COMUNICACOES LTCARLA FALCAO BUENO  RUA DR RAUL GUEDES DE MELO 546 SL 29              XANGRILA            13098624CAMPINAS            SP019984110403                                                            20150411511        1               113821935000180                  *
10113821935000180000000000000000000000000000000000000A REDE DIGITAL COMUNICACOES LTDA        RUA DR RAUL GUEDES DE MELO 546 SL 29              XANGRILA            13098624CAMPINAS            SP019984110403s7319003a0002566    2003     000000000000000000000000000000000000000000000000000000000000                000000000000000000000000000000000000000000000    *
12113821935000180000000000000000000000000000000000000000000000000000000000000000000 000000000000000000000000000000                                000000000000000            000000000000000000000000000000000000000000000000000000000000000000000000000000000000000000000000000000000000000000000000000000000000000000000000000000000000000000000000000000000000      *
30113821935000180               129055167061003201111CARLA FALCAO BUENO                                                                                           01210000000000042000000000000000000    000000000000000000000000000000000000000000000000000000000000                                                                                                  *
90999999999999999999999999999999999999999999999999999                                                                                                                                                                                                                                                                                                                  *
