00                                                   1121521274000104RM DHORTA SERVICOS CONTABEISMERENATA MARA DHORTA  RUA AFONSO TARANTO 44 SALA 12                     NOVA RIBEIRANIA     14096740RIBEIRAO PRETO      SP001633295229                                                            20150211511        1               121521274000104                  *
10121521274000104000000000000000000000000000000000000RM DHORTA SERVICOS CONTABEISME          RUA AFONSO TARANTO 44 SALA 12                     NOVA RIBEIRANIA     14096740RIBEIRAO PRETO      SP001633295229s6920601a0002515    2003     000000000000000000000000000000000000000000000000000000000000                000000000000000000000000000000000000000000000    *
12121521274000104000000000000000000000000000000000000000000000000000000000000000000 000000000000000000000000000000                                000000000000000            000000000000000000000000000000000000000000000000000000000000000000000000000000000000000000000000000000000000000000000000000000000000000000000000000000000000000000000000000000000000      *
30121521274000104               126625861780111201411RENATA MARA DHORTA                                                                                           01210000000000400000000000000000000    000000000000000000000000000000000000000000000000000000000000                                                                                                  *
90999999999999999999999999999999999999999999999999999                                                                                                                                                                                                                                                                                                                  *
