00                                                   1113561353000102CLIQUE MAGICO SOLUCOES CRIATIVWILLIAM FUENTES QUINRUA EPAMINONDAS AZEVEDO DE AGUIAR 36 SL 18        SANTA CRUZ          13520000SAO PEDRO           SP001934834349                                                            20160811511        1               113561353000102                  *
10113561353000102000000000000000000000000000000000000CLIQUE MAGICO SOLUCOES CRIATIVAS PARA INRUA EPAMINONDAS AZEVEDO DE AGUIAR 36 SL 18        SANTA CRUZ          13520000SAO PEDRO           SP001934834349s6319400a0002515    2003     000000000000000000000000000000000000000000000000000000000000                000000000000000000000000000000000000000000000    *
12113561353000102000000000000000000000000000000000000000000000000000000000000000000 000000000000000000000000000000                                000000000000000            000000000000000000000000000000000000000000000000000000000000000000000000000000000000000000000000000000000000000000000000000000000000000000000000000000000000000000000000000000000000      *
30113561353000102               126743857761307201511ALEXANDRE MARCHINI DE JESUS QUINTAL                                                                          01231000000000170000000000000000000    000000000000000000000000000000000000000000000000000000000000                                                                                                  *
30113561353000102               129596198562604201311WILLIAM FUENTES QUINTAL                                                                                      01231000000000170000000000000000000    000000000000000000000000000000000000000000000000000000000000                                                                                                  *
90999999999999999999999999999999999999999999999999999                                                                                                                                                                                                                                                                                                                  *
