00                                                   1105293843000147CVR SOLUCOES ADMINISTRATIVAS SAFONSO HENRIQUE DA CRUA REPUBLICA DO LIBANO 165                       JARDIM OSWALDO CRUZ 12216590SAO JOSE DOS CAMPOS SP012981689050                                                            20170311511        1               105293843000147                  *
10105293843000147000000000000000000000000000000000000CVR SOLUCOES ADMINISTRATIVAS SS LTDA ME RUA REPUBLICA DO LIBANO 165                       JARDIM OSWALDO CRUZ 12216590SAO JOSE DOS CAMPOS SP012981689050s8211300a0002515    2003     000000000000000000000000000000000000000000000000000000000000                000000000000000000000000000000000000000000000    *
12105293843000147000000000000000000000000000000000000000000000000000000000000000000 000000000000000000000000000000                                000000000000000            000000000000000000000000000000000000000000000000000000000000000000000000000000000000000000000000000000000000000000000000000000000000000000000000000000000000000000000000000000000000      *
30105293843000147               123142724811109200211AFONSO HENRIQUE DA CRUZ JUNIOR                                                                               01210000000000220000000000000000000    000000000000000000000000000000000000000000000000000000000000                                                                                                  *
30105293843000147               125028451671808201411RENATA CRISTIANE GAZANEO DA CRUZ                                                                             01233000000000093700000000000000000    000000000000000000000000000000000000000000000000000000000000                                                                                                  *
90999999999999999999999999999999999999999999999999999                                                                                                                                                                                                                                                                                                                  *
