00                                                   1109081288000140JSC CONSULTORIA E TREINAMENTO RAQUEL LARISSA DE PARUA DESEMBARGADOR BARCELOS 373                    NOVA SUICA          30421015BELO HORIZONTE      MG003175882217                                                            20160111511        1               109081288000140                  *
10109081288000140000000000000000000000000000000000000JSC CONSULTORIA E TREINAMENTO LTDA ME   RUA DESEMBARGADOR BARCELOS 373                    NOVA SUICA          30421015BELO HORIZONTE      MG003175882217s6204000a0002515    2003     000000000000000000000000000000000000000000000000000000000000                000000000000000000000000000000000000000000000    *
12109081288000140000000000000000000000000000000000000000000000000000000000000000000 000000000000000000000000000000                                000000000000000            000000000000000000000000000000000000000000000000000000000000000000000000000000000000000000000000000000000000000000000000000000000000000000000000000000000000000000000000000000000000      *
30109081288000140               126851540960604200911THIAGO ALVES DA CUNHA PARREIRAS                                                                              01421000000000088000000000000000000    000000000000000000000000000000000000000000000000000000000000                                                                                                  *
90999999999999999999999999999999999999999999999999999                                                                                                                                                                                                                                                                                                                  *
