00                                                   1119719904000108VAGNER TRINDADE OLIVEIRA ME   VAGNER TRINDADE OLIVACESSO E 127                                      RESTINGA NOVA       91792366PORTO ALEGRE        RS005192334696                                                            20150811511        1               119719904000108                  *
10119719904000108000000000000000000000000000000000000VAGNER TRINDADE OLIVEIRA ME             ACESSO E 127                                      RESTINGA NOVA       91792366PORTO ALEGRE        RS005192334696s4789099a0002515    2003     000000000000000000000000000000000000000000000000000000000000                000000000000000000000000000000000000000000000    *
12119719904000108000000000000000000000000000000000000000000000000000000000000000000 000000000000000000000000000000                                000000000000000            000000000000000000000000000000000000000000000000000000000000000000000000000000000000000000000000000000000000000000000000000000000000000000000000000000000000000000000000000000000000      *
30119719904000108               128779276891006201411VAGNER TRINDADE OLIVEIRA                                                                                     01210000000000078800000000000000000    000000000000000000000000000000000000000000000000000000000000                                                                                                  *
90999999999999999999999999999999999999999999999999999                                                                                                                                                                                                                                                                                                                  *
