00                                                   1103302380000107ABBEY EDITORACAO LTDA ME      VANDERLEI ORTIGOZA JRUA DOS HIBISCOS 375                              JD ESTANCIA BRASIL  12949020ATIBAIA             SP001144116190                                                            20150311511        1               103302380000107                  *
10103302380000107000000000000000000000000000000000000ABBEY EDITORACAO LTDA ME                RUA DOS HIBISCOS 375                              JD ESTANCIA BRASIL  12949020ATIBAIA             SP001144116190s8299799a0002515    2003     000000000000000000000000000000000000000000000000000000000000                000000000000000000000000000000000000000000000    *
12103302380000107000000000000000000000000000000000000000000000000000000000000000000 000000000000000000000000000000                                000000000000000            000000000000000000000000000000000000000000000000000000000000000000000000000000000000000000000000000000000000000000000000000000000000000000000000000000000000000000000000000000000000      *
30103302380000107               119787602772607199911VANDERLEI ORTIGOZA JUNIOR                                                                                    02614000000000150000000000000000000    000000000000000000000000000000000000000000000000000000000000                                                                                                  *
90999999999999999999999999999999999999999999999999999                                                                                                                                                                                                                                                                                                                  *
