00                                                   1119774609000146MIZAN LOURENCO DA SILVA ME    MIZAN LOURENCO DA SIRUA BREJO DA MADRE DE DEUS 180 BL B 203           JANGA               53437040PAULISTA            PE008134232598                                                            20160111511        1               119774609000146                  *
10119774609000146000000000000000000000000000000000000MIZAN LOURENCO DA SILVA ME              RUA BREJO DA MADRE DE DEUS 180 BL B 203           JANGA               53437040PAULISTA            PE008134232598s8291100a0002515    2003     000000000000000000000000000000000000000000000000000000000000                000000000000000000000000000000000000000000000    *
12119774609000146000000000000000000000000000000000000000000000000000000000000000000 000000000000000000000000000000                                000000000000000            000000000000000000000000000000000000000000000000000000000000000000000000000000000000000000000000000000000000000000000000000000000000000000000000000000000000000000000000000000000000      *
30119774609000146               164462911920203201411MIZAN LOURENCO DA SILVA                                                                                      01210000000000080000000000000000000    000000000000000000000000000000000000000000000000000000000000                                                                                                  *
90999999999999999999999999999999999999999999999999999                                                                                                                                                                                                                                                                                                                  *
