00                                                   1110429905000135EXODUS SERVICOS TECNOLOGICOS LFABIO MENDES SOARES AV GOV JOSE MALCHER 168 SL 110                    NAZARE              66035065BELEM               PA009140404243                                                            11511        1               110429905000135                  *
10110429905000135000000000000000000000000000000000000EXODUS SERVICOS TECNOLOGICOS L          AV GOV JOSE MALCHER 168 SL 110                    NAZARE              66035065BELEM               PA009140404243s6201500a0002515    2003     000000000000000000000000000000000000000000000000000000000000                000000000000000000000000000000000000000000000    *
12110429905000135000000000000000000000000000000000000000000000000000000000000000000 000000000000000000000000000000                                000000000000000            000000000000000000000000000000000000000000000000000000000000000000000000000000000000000000000000000000000000000000000000000000000000000000000000000000000000000000000000000000000000      *
90999999999999999999999999999999999999999999999999999                                                                                                                                                                                                                                                                                                                  *
