00                                                   1122149102000106PAULO SERGIO ROGACHESKI CORRETPAULO SERGIO ROGACHERUA VAHIA DE ABREU 72 C1                          BOQUEIRAO           11050120SANTOS              SP013981350863                                                            20170411511        1               122149102000106                  *
10122149102000106000000000000000000000000000000000000PAULO SERGIO ROGACHESKI CORRETORA DE SEGRUA VAHIA DE ABREU 72 C1                          BOQUEIRAO           11050120SANTOS              SP013981350863s6622300a0002515    2003     000000000000000000000000000000000000000000000000000000000000                000000000000000000000000000000000000000000000    *
12122149102000106000000000000000000000000000000000000000000000000000000000000000000 000000000000000000000000000000                                000000000000000            000000000000000000000000000000000000000000000000000000000000000000000000000000000000000000000000000000000000000000000000000000000000000000000000000000000000000000000000000000000000      *
30122149102000106               123453554352703201511PAULO SERGIO ROGACHESKI                                                                                      01210000000000110000000000000000000    000000000000000000000000000000000000000000000000000000000000                                                                                                  *
90999999999999999999999999999999999999999999999999999                                                                                                                                                                                                                                                                                                                  *
