00                                                   1111505017000117RITA DE CASSIA MIRANDA MENEZESRITA DE CASSIA MIRANRUA ARTUR DE AZEVEDO 1790 AP72                    PINHEIROS           05404004SAO PAULO           SP001130315758                                                            20150111511        1               111505017000117                  *
10111505017000117000000000000000000000000000000000000RITA DE CASSIA MIRANDA MENEZES          RUA ARTUR DE AZEVEDO 1790 AP72                    PINHEIROS           05404004SAO PAULO           SP001130315758s9001902a0002566    2003     000000000000000000000000000000000000000000000000000000000000                000000000000000000000000000000000000000000000    *
12111505017000117000000000000000000000000000000000000000000000000000000000000000000 000000000000000000000000000000                                000000000000000            000000000000000000000000000000000000000000000000000000000000000000000000000000000000000000000000000000000000000000000000000000000000000000000000000000000000000000000000000000000000      *
30111505017000117               125102221221501201011RITA DE CASSIA MIRANDA MENEZES                                                                               02621000000000078800000000000000000    000000000000000000000000000000000000000000000000000000000000                                                                                                  *
90999999999999999999999999999999999999999999999999999                                                                                                                                                                                                                                                                                                                  *
