00                                                   1122673888000166RPT ENGENHARIA E CONSULTORIA ERENATA PETTA THEODORRUA MAVIAEL PRUDENTE DE SOUZA N 70 PARTE          VILA MARIANA        04020010SAO PAULO           SP011989555074                                                            11511        1               122673888000166                  *
10122673888000166000000000000000000000000000000000000RPT ENGENHARIA E CONSULTORIA EIRELI     RUA MAVIAEL PRUDENTE DE SOUZA N 70 PARTE          VILA MARIANA        04020010SAO PAULO           SP011989555074s7112000a0002507    2003     000000000000000000000000000000000000000000000000000000000000                000000000000000000000000000000000000000000000    *
12122673888000166000000000000000000000000000000000000000000000000000000000000000000 000000000000000000000000000000                                000000000000000            000000000000000000000000000000000000000000000000000000000000000000000000000000000000000000000000000000000000000000000000000000000000000000000000000000000000000000000000000000000000      *
90999999999999999999999999999999999999999999999999999                                                                                                                                                                                                                                                                                                                  *
