00                                                   1111645271000110GILMARQUES DOMINGOS           GILMARQUES DOMINGOS RUA VIEIRA DE ALMEIDA 1116 CASA 1                 JARDIM              21931383RIO DE JANEIRO      RJ002133663788                                                            20140711511        1               111645271000110                  *
10111645271000110000000000000000000000000000000000000GILMARQUES DOMINGOS                     RUA VIEIRA DE ALMEIDA 1116 CASA 1                 JARDIM              21931383RIO DE JANEIRO      RJ002133663788s8211300a0002515    2003     000000000000000000000000000000000000000000000000000000000000                000000000000000000000000000000000000000000000    *
12111645271000110000000000000000000000000000000000000000000000000000000000000000000 000000000000000000000000000000                                000000000000000            000000000000000000000000000000000000000000000000000000000000000000000000000000000000000000000000000000000000000000000000000000000000000000000000000000000000000000000000000000000000      *
30111645271000110               126181675640101201011GILMARQUES DOMINGOS DE OLIVEIRA                                                                              01210000000000230000000000000000000    000000000000000000000000000000000000000000000000000000000000                                                                                                  *
90999999999999999999999999999999999999999999999999999                                                                                                                                                                                                                                                                                                                  *
