00                                                   1113863435000101PAC PORTO MANUTENCAO DE MAQUINPAULO AUGUSTO CAPETTRUA DINAMARCA 30822                               JARDIM EUROPA       18045400SOROCABA            SP001534183575                                                            20170411511        1               113863435000101                  *
10113863435000101000000000000000000000000000000000000PAC PORTO MANUTENCAO DE MAQUIN          RUA DINAMARCA 30822                               JARDIM EUROPA       18045400SOROCABA            SP001534183575s3314718a0002507    2003     000000000000000000000000000000000000000000000000000000000000                000000000000000000000000000000000000000000000    *
12113863435000101000000000000000000000000000000000000000000000000000000000000000000 000000000000000000000000000000                                000000000000000            000000000000000000000000000000000000000000000000000000000000000000000000000000000000000000000000000000000000000000000000000000000000000000000000000000000000000000000000000000000000      *
30113863435000101               170003635580104201111PAULO AUGUSTO CAPETTI RODRIGUES PORTO                                                                        01231000000000093700000000000000000    000000000000000000000000000000000000000000000000000000000000                                                                                                  *
90999999999999999999999999999999999999999999999999999                                                                                                                                                                                                                                                                                                                  *
