00                                                   1110957886000110DANUBIO OLIVEIRA DOS SANTOS DEDANUBIO OLIVEIRA DOSRUA PADRE CICERO                                  SALESIANO           63020000JUAZEIRO DO NORTE   CE008835122121                                                            20150111511        1               110957886000110                  *
10110957886000110000000000000000000000000000000000000DANUBIO OLIVEIRA DOS SANTOS DE MATOS ME RUA PADRE CICERO                                  SALESIANO           63020000JUAZEIRO DO NORTE   CE008835122121s4781400a0002515    2003     000000000000000000000000000000000000000000000000000000000000                000000000000000000000000000000000000000000000    *
12110957886000110000000000000000000000000000000000000000000000000000000000000000000 000000000000000000000000000000                                000000000000000            000000000000000000000000000000000000000000000000000000000000000000000000000000000000000000000000000000000000000000000000000000000000000000000000000000000000000000000000000000000000      *
30110957886000110               122255447880108201411DANUBIO OLIVEIRA DOS SANTOS DE MATOS                                                                         01210000000000078800000000000000000    000000000000000000000000000000000000000000000000000000000000                                                                                                  *
90999999999999999999999999999999999999999999999999999                                                                                                                                                                                                                                                                                                                  *
