00                                                   1119853818000185CENTRO EDUCACIONAL CANDIDO    MARCELO CANDIDO FERERUA AIMORE N 08                                   ITANHAGA            22753033RIO DE JANEIRO      RJ002141089513                                                            20150711511        1               119853818000185                  *
10119853818000185000000000000000000000000000000000000CENTRO EDUCACIONAL CANDIDO              RUA AIMORE N 08                                   ITANHAGA            22753033RIO DE JANEIRO      RJ002141089513s8511200a0002566    2003     000000000000000000000000000000000000000000000000000000000000                000000000000000000000000000000000000000000000    *
12119853818000185000000000000000000000000000000000000000000000000000000000000000000 000000000000000000000000000000                                000000000000000            000000000000000000000000000000000000000000000000000000000000000000000000000000000000000000000000000000000000000000000000000000000000000000000000000000000000000000000000000000000000      *
30119853818000185               125378411760208197211MARCELO CANDIDO FEREIRA                                                                                      01231000000000110000000000000000000    000000000000000000000000000000000000000000000000000000000000                                                                                                  *
30119853818000185               168835564440110201411MARCIA CANDIDO FERREIRA                                                                                      01231000000000110000000000000000000    000000000000000000000000000000000000000000000000000000000000                                                                                                  *
90999999999999999999999999999999999999999999999999999                                                                                                                                                                                                                                                                                                                  *
