00                                                   1118969132000191VICENTE E NICIOLI LTDA        EMERSON SOLIDARIO DERUA GINO BALESTRO 209                             NOVA SANTA CRUZ     13806230MOGIMIRIM           SP001935493252                                                            20170311511        1               118969132000191                  *
10118969132000191000000000000000000000000000000000000VICENTE E NICIOLI LTDA                  RUA GINO BALESTRO 209                             NOVA SANTA CRUZ     13806230MOGIMIRIM           SP001935493252s8599604a0002515    2003     000000000000000000000000000000000000000000000000000000000000                000000000000000000000000000000000000000000000    *
12118969132000191000000000000000000000000000000000000000000000000000000000000000000 000000000000000000000000000000                                000000000000000            000000000000000000000000000000000000000000000000000000000000000000000000000000000000000000000000000000000000000000000000000000000000000000000000000000000000000000000000000000000000      *
30118969132000191               125412651410110201311EMERSON SOLIDARIO DE SOUZA NICIOLI                                                                           01210000000000093700000000000000000    000000000000000000000000000000000000000000000000000000000000                                                                                                  *
90999999999999999999999999999999999999999999999999999                                                                                                                                                                                                                                                                                                                  *
