00                                                   1109422663000179GET TECH SOLUCOES EM INFORMATIMARCELO DE BARROS   RUA DEP ESTEFANO MIKILITA 125 SL 1008             PORTAO              81170430CURITIBA            PR004198716954                                                            20140811511        1               109422663000179                  *
10109422663000179000000000000000000000000000000000000GET TECH SOLUCOES EM INFORMATI          RUA DEP ESTEFANO MIKILITA 125 SL 1008             PORTAO              81170430CURITIBA            PR004198716954s4751200a0002515    2003     000000000000000000000000000000000000000000000000000000000000                000000000000000000000000000000000000000000000    *
12109422663000179000000000000000000000000000000000000000000000000000000000000000000 000000000000000000000000000000                                000000000000000            000000000000000000000000000000000000000000000000000000000000000000000000000000000000000000000000000000000000000000000000000000000000000000000000000000000000000000000000000000000000      *
30109422663000179               125895755312801200811MARCELO DE BARROS                                                                                            01210000000000200000000000000000000    000000000000000000000000000000000000000000000000000000000000                                                                                                  *
90999999999999999999999999999999999999999999999999999                                                                                                                                                                                                                                                                                                                  *
