00                                                   1101982887000123LCA CONSULTORES SS LTDA       GERALDO LINO DE CAMPESTRADA DE SERVIDAO PT4721                        VITALINOS           06950000JUQUITIBA           SP001137430346                                                            20170411511        1               101982887000123                  *
10101982887000123000000000000000000000000000000000000LCA CONSULTORES SS LTDA                 ESTRADA DE SERVIDAO PT4721                        VITALINOS           06950000JUQUITIBA           SP001137430346s3314709a0002507    2003     000000000000000000000000000000000000000000000000000000000000                000000000000000000000000000000000000000000000    *
12101982887000123000000000000000000000000000000000000000000000000000000000000000000 000000000000000000000000000000                                000000000000000            000000000000000000000000000000000000000000000000000000000000000000000000000000000000000000000000000000000000000000000000000000000000000000000000000000000000000000000000000000000000      *
30101982887000123               130071608542504199711DENISE LINO DE CAMPOS                                                                                        01210000000000100000000000000000000    000000000000000000000000000000000000000000000000000000000000                                                                                                  *
90999999999999999999999999999999999999999999999999999                                                                                                                                                                                                                                                                                                                  *
