00                                                   1100417927000121JOSE EURIPEDES FERREIRA BASTOSJOSE EURIPEDES FERREAVENIDA DA AMIZADE                                PQ DA AMIZADE       13177406SUMARE              SP001938831928                                                            20150511511        1               100417927000121                  *
10100417927000121000000000000000000000000000000000000JOSE EURIPEDES FERREIRA BASTOS ME       AVENIDA DA AMIZADE                                PQ DA AMIZADE       13177406SUMARE              SP001938831928s8299707a0002515    2003     000000000000000000000000000000000000000000000000000000000000                000000000000000000000000000000000000000000000    *
12100417927000121000000000000000000000000000000000000000000000000000000000000000000 000000000000000000000000000000                                000000000000000            000000000000000000000000000000000000000000000000000000000000000000000000000000000000000000000000000000000000000000000000000000000000000000000000000000000000000000000000000000000000      *
30100417927000121               107791210551905200611JOSE EURIPEDES FERREIRA BASTOS                                                                               01210000000000210000000000000000000    000000000000000000000000000000000000000000000000000000000000                                                                                                  *
90999999999999999999999999999999999999999999999999999                                                                                                                                                                                                                                                                                                                  *
