00                                                   1143734908000131JOAO SOUZA ME                 JOAO                RUA DOS SOUZAS                                    VILA                53672000SAO PAULO           SP001111232132                                                            20150111511        1               143734908000131                  *
10143734908000131000000000000000000000000000000000000JOAO SOUZA ME                           RUA DOS SOUZAS                                    VILA                53672000SAO PAULO           SP001111232132s6201500a0002515    2003     000000000000000000000000000000000000000000000000000000000000                000000000000000000000000000000000000000000000    *
12143734908000131000000000000000000000000000000000000000000000000000000000000000000 000000000000000000000000000000                                000000000000000            000000000000000000000000000000000000000000000000000000000000000000000000000000000000000000000000000000000000000000000000000000000000000000000000000000000000000000000000000000000000      *
30143734908000131               111111111110101201111JOAO                                                                                                         01210000000000078800000000000000000    000000000000000000000000000000000000000000000000000000000000                                                                                                  *
90999999999999999999999999999999999999999999999999999                                                                                                                                                                                                                                                                                                                  *
