00                                                   1108311525000150JJ RIBEIRO CONSULTORES LTDA   DANIEL RIBEIRO DOS SRUA PEDRO BORTOLUZZI 240                          JOAO BATISTA TONIAL 89820000XANXERE             SC004933538301                                                            20170511511        1               108311525000150                  *
10108311525000150000000000000000000000000000000000000JJ RIBEIRO CONSULTORES LTDA             RUA PEDRO BORTOLUZZI 240                          JOAO BATISTA TONIAL 89820000XANXERE             SC004933538301s8599604a0002515    2003     000000000000000000000000000000000000000000000000000000000000                000000000000000000000000000000000000000000000    *
12108311525000150000000000000000000000000000000000000000000000000000000000000000000 000000000000000000000000000000                                000000000000000            000000000000000000000000000000000000000000000000000000000000000000000000000000000000000000000000000000000000000000000000000000000000000000000000000000000000000000000000000000000000      *
30108311525000150               124838630291909200611DANIEL RIBEIRO DOS SANTOS                                                                                    01210000000000093700000000000000000    000000000000000000000000000000000000000000000000000000000000                                                                                                  *
30108311525000150               134442147221006200611LEONICE GLOWKA DOS SANTOS                                                                                    01210000000000093700000000000000000    000000000000000000000000000000000000000000000000000000000000                                                                                                  *
90999999999999999999999999999999999999999999999999999                                                                                                                                                                                                                                                                                                                  *
