00                                                   1121553725000187OLIVEIRA ADVOGADOS            ANSELMO BARBOSA OLIVRUA CONSTR JOAO ALVES 34                          13 DE JULHO         49020345ARACAJU             SE007932140028                                                            20150511511        1               121553725000187                  *
10121553725000187000000000000000000000000000000000000OLIVEIRA ADVOGADOS                      RUA CONSTR JOAO ALVES 34                          13 DE JULHO         49020345ARACAJU             SE007932140028s6911701a100151500002100     000000000000000000000000000000000000000000000000000000000000                000000000000000000000000000000000000000000000    *
12121553725000187000000000000000000000000000000000000000000000000000000000000000000 000000000000000000000000000000                                000000000000000            000000000000000000000000000000000000000000000000000000000000000000000000000000000000000000000000000000000000000000000000000000000000000000000000000000000000000000000000000000000000      *
30121553725000187               190033981462711201411ANSELMO BARBOSA OLIVEIRA                                                                                     01210000000000100000000000000000000    000000000000000000000000000000000000000000000000000000000000                                                                                                  *
90999999999999999999999999999999999999999999999999999                                                                                                                                                                                                                                                                                                                  *
