00                                                   1106722922000199MINER ATENDIMENTO A PLANEJAMENFABRICIO DE MOURA   RUA RENATO EGIDIO DE SOUZA ARANHA 221A APT 51B    CIDADE SAO FRANCISCO05353050SAO PAULO           SP001129352428                                                            20150811511        1               106722922000199                  *
10106722922000199000000000000000000000000000000000000MINER ATENDIMENTO A PLANEJAMENTO DE MARKRUA RENATO EGIDIO DE SOUZA ARANHA 221A APT 51B    CIDADE SAO FRANCISCO05353050SAO PAULO           SP001129352428s8211300a0002515    2003     000000000000000000000000000000000000000000000000000000000000                000000000000000000000000000000000000000000000    *
12106722922000199000000000000000000000000000000000000000000000000000000000000000000 000000000000000000000000000000                                000000000000000            000000000000000000000000000000000000000000000000000000000000000000000000000000000000000000000000000000000000000000000000000000000000000000000000000000000000000000000000000000000000      *
30106722922000199               124593248811307200411FABRICIO DE MOURA                                                                                            01210000000000078800000000000000000    000000000000000000000000000000000000000000000000000000000000                                                                                                  *
90999999999999999999999999999999999999999999999999999                                                                                                                                                                                                                                                                                                                  *
