00                                                   1104026307000112VAPNET SOFTWARES LTDA         MARIA JOSEFA DA SILVAV CASSIOPEIA 730                                 SATELITE            12500000SAO JOSE DOS CAMPOS SP001239134708                                                            20130611511        1               104026307000112                  *
10104026307000112000000000000000000000000000000000000VAPNET SOFTWARES LTDA                   AV CASSIOPEIA 730                                 SATELITE            12500000SAO JOSE DOS CAMPOS SP001239134708s9512600a0002515    2003     000000000000000000000000000000000000000000000000000000000000                000000000000000000000000000000000000000000000    *
12104026307000112000000000000000000000000000000000000000000000000000000000000000000 000000000000000000000000000000                                000000000000000            000000000000000000000000000000000000000000000000000000000000000000000000000000000000000000000000000000000000000000000000000000000000000000000000000000000000000000000000000000000000      *
30104026307000112               106686452692305200511MARIA JOSEFA DA SILVA                                                                                        01210000000000070000000000000000000    000000000000000000000000000000000000000000000000000000000000                                                                                                  *
90999999999999999999999999999999999999999999999999999                                                                                                                                                                                                                                                                                                                  *
