00                                                   1121126525000148MICHAELL LELOT ME             MICHAELL LELOT      RUA BARONESA DE ITU 477 APT 11                    SANTA CECILIA       01231001SAO PAULO           SP001135547499                                                            20150711511        1               121126525000148                  *
10121126525000148000000000000000000000000000000000000MICHAELL LELOT ME                       RUA BARONESA DE ITU 477 APT 11                    SANTA CECILIA       01231001SAO PAULO           SP001135547499s8599604a0002515    2003     000000000000000000000000000000000000000000000000000000000000                000000000000000000000000000000000000000000000    *
12121126525000148000000000000000000000000000000000000000000000000000000000000000000 000000000000000000000000000000                                000000000000000            000000000000000000000000000000000000000000000000000000000000000000000000000000000000000000000000000000000000000000000000000000000000000000000000000000000000000000000000000000000000      *
30121126525000148               122433746192909201411MICHAELL LELOT                                                                                               01210000000000466375000000000000000    000000000000000000000000000000000000000000000000000000000000                                                                                                  *
90999999999999999999999999999999999999999999999999999                                                                                                                                                                                                                                                                                                                  *
