00                                                   1109537270000100OLIVEIRA FRANCA INFORMATICA   ALEXANDRE SOLER FRANESTRADA DE ITAPECERICA 3540                       VILA PREL           05835004SAO PAULO           SP001158111151                                                            20131211511        1               109537270000100                  *
10109537270000100000000000000000000000000000000000000OLIVEIRA FRANCA INFORMATICA             ESTRADA DE ITAPECERICA 3540                       VILA PREL           05835004SAO PAULO           SP001158111151s9511800a0002515    2003     000000000000000000000000000000000000000000000000000000000000                000000000000000000000000000000000000000000000    *
12109537270000100000000000000000000000000000000000000000000000000000000000000000000 000000000000000000000000000000                                000000000000000            000000000000000000000000000000000000000000000000000000000000000000000000000000000000000000000000000000000000000000000000000000000000000000000000000000000000000000000000000000000000      *
30109537270000100               119739220661804200811ALEXANDRE SOLER FRANCA                                                                                       01233000000000067800000000000000000    000000000000000000000000000000000000000000000000000000000000                                                                                                  *
90999999999999999999999999999999999999999999999999999                                                                                                                                                                                                                                                                                                                  *
