00                                                   1112148135000188WARLEY HENRIQUE AZEVEDO SILVA WARLEY HENRIQUE AZEVAV REGULUS N55 APT 203                            JARDIM RIACHO DAS PE32241210CONTAGEM            MG003133901612                                                            20150611511        1               112148135000188                  *
10112148135000188000000000000000000000000000000000000WARLEY HENRIQUE AZEVEDO SILVA           AV REGULUS N55 APT 203                            JARDIM RIACHO DAS PE32241210CONTAGEM            MG003133901612s9511800a0002515    2003     000000000000000000000000000000000000000000000000000000000000                000000000000000000000000000000000000000000000    *
12112148135000188000000000000000000000000000000000000000000000000000000000000000000 000000000000000000000000000000                                000000000000000            000000000000000000000000000000000000000000000000000000000000000000000000000000000000000000000000000000000000000000000000000000000000000000000000000000000000000000000000000000000000      *
30112148135000188               267013985190201201411WARLEY HENRIQUE AZEVEDO SILVA                                                                                01210000000000078800000000000000000    000000000000000000000000000000000000000000000000000000000000                                                                                                  *
90999999999999999999999999999999999999999999999999999                                                                                                                                                                                                                                                                                                                  *
