00                                                   1101526812000138MARTAHLEALL COMERCIO E INDUSTRMARTA LEAL NEVES    RUA BRUNO SIMONI 92                               PINHEIROS           05424030SAO PAULO           SP001123050292                                                            20150311511        1               101526812000138                  *
10101526812000138000000000000000000000000000000000000MARTAHLEALL COMERCIO E INDUSTRIA IMPORTARUA BRUNO SIMONI 92                               PINHEIROS           05424030SAO PAULO           SP001123050292s4669999a0002515    2003     000000000000000000000000000000000000000000000000000000000000                000000000000000000000000000000000000000000000    *
12101526812000138000000000000000000000000000000000000000000000000000000000000000000 000000000000000000000000000000                                000000000000000            000000000000000000000000000000000000000000000000000000000000000000000000000000000000000000000000000000000000000000000000000000000000000000000000000000000000000000000000000000000000      *
30101526812000138               108073379242207199611MARTA LEAL NEVES                                                                                             01231000000000200000000000000000000    000000000000000000000000000000000000000000000000000000000000                                                                                                  *
90999999999999999999999999999999999999999999999999999                                                                                                                                                                                                                                                                                                                  *
