00                                                   1101704171000164ORION ASSESSORIA EMPRESARIAL LAPARECIDO JANE DA SIR NSA SRA ROSARIO                                 KM 18               06190010OSASCO              SP011999723553                                                            20150311511        1               101704171000164                  *
10101704171000164000000000000000000000000000000000000ORION ASSESSORIA EMPRESARIAL LTDA       R NSA SRA ROSARIO                                 KM 18               06190010OSASCO              SP011999723553s6209100a0002515    2003     000000000000000000000000000000000000000000000000000000000000                000000000000000000000000000000000000000000000    *
12101704171000164000000000000000000000000000000000000000000000000000000000000000000 000000000000000000000000000000                                000000000000000            000000000000000000000000000000000000000000000000000000000000000000000000000000000000000000000000000000000000000000000000000000000000000000000000000000000000000000000000000000000000      *
30101704171000164               102875449390701199711APARECIDO JANE DA SILVA                                                                                      01210000000000466375000000000000000    000000000000000000000000000000000000000000000000000000000000                                                                                                  *
90999999999999999999999999999999999999999999999999999                                                                                                                                                                                                                                                                                                                  *
