00                                                   1113040203000153UZI ARTE E DESIGN LTDA ME     MARCIA DE FREITAS   RUA SAO PAULO 41                                  JD THELMA           09853500SAO BERNARDO DO CAMPSP001134125576                                                            20131111511        1               113040203000153                  *
10113040203000153000000000000000000000000000000000000UZI ARTE E DESIGN LTDA ME               RUA SAO PAULO 41                                  JD THELMA           09853500SAO BERNARDO DO CAMPSP001134125576s7319099a0002566    2003     000000000000000000000000000000000000000000000000000000000000                000000000000000000000000000000000000000000000    *
12113040203000153000000000000000000000000000000000000000000000000000000000000000000 000000000000000000000000000000                                000000000000000            000000000000000000000000000000000000000000000000000000000000000000000000000000000000000000000000000000000000000000000000000000000000000000000000000000000000000000000000000000000000      *
30113040203000153               125966818561811201011MARCIA DE FREITAS                                                                                            01210000000000068000000000000000000    000000000000000000000000000000000000000000000000000000000000                                                                                                  *
90999999999999999999999999999999999999999999999999999                                                                                                                                                                                                                                                                                                                  *
