00                                                   1121313027000104LUIS BRAZ FORNARI JUNIOR 27594LUIS BRAZ FORNARI JURUA ABILIO SOARES 158 APT 44                      PARAISO             04005000SAO PAULO           SP011998000904                                                            20170311511        1               121313027000104                  *
10121313027000104000000000000000000000000000000000000LUIS BRAZ FORNARI JUNIOR 27594992865    RUA ABILIO SOARES 158 APT 44                      PARAISO             04005000SAO PAULO           SP011998000904s8599604a0002515    2003     000000000000000000000000000000000000000000000000000000000000                000000000000000000000000000000000000000000000    *
12121313027000104000000000000000000000000000000000000000000000000000000000000000000 000000000000000000000000000000                                000000000000000            000000000000000000000000000000000000000000000000000000000000000000000000000000000000000000000000000000000000000000000000000000000000000000000000000000000000000000000000000000000000      *
30121313027000104               126454022693010201411LUIS BRAZ FORNARI JUNIOR                                                                                     01210000000000200000000000000000000    000000000000000000000000000000000000000000000000000000000000                                                                                                  *
90999999999999999999999999999999999999999999999999999                                                                                                                                                                                                                                                                                                                  *
