00                                                   1120483587000144BIGFISH AUDIOVISUAL LTDA      ROMULO CRUZ MONTEIROAV BRASIL 1500 SALA 303                           CENTRO              88330901BALNEARIO CAMBORIU  SC004799981231                                                            20160611511        1               120483587000144                  *
10120483587000144000000000000000000000000000000000000BIGFISH AUDIOVISUAL LTDA                AV BRASIL 1500 SALA 303                           CENTRO              88330901BALNEARIO CAMBORIU  SC004799981231s7319099a0002566    2003     000000000000000000000000000000000000000000000000000000000000                000000000000000000000000000000000000000000000    *
12120483587000144000000000000000000000000000000000000000000000000000000000000000000 000000000000000000000000000000                                000000000000000            000000000000000000000000000000000000000000000000000000000000000000000000000000000000000000000000000000000000000000000000000000000000000000000000000000000000000000000000000000000000      *
30120483587000144               140934077260106201411ROMULO CRUZ MONTEIRO                                                                                         01210000000000088000000000000000000    000000000000000000000000000000000000000000000000000000000000                                                                                                  *
90999999999999999999999999999999999999999999999999999                                                                                                                                                                                                                                                                                                                  *
