00                                                   1111212721000181LUIS C SILVA SANTOS           LUIS CARLOS SILVA SAAVENIDA DOM JOAO VI                               CANHEMA             09940150DIADEMA             SP011965256041                                                            20130811511        1               111212721000181                  *
10111212721000181000000000000000000000000000000000000LUIS C SILVA SANTOS                     AVENIDA DOM JOAO VI                               CANHEMA             09940150DIADEMA             SP011965256041s9521500a0002515    2003     000000000000000000000000000000000000000000000000000000000000                000000000000000000000000000000000000000000000    *
12111212721000181000000000000000000000000000000000000000000000000000000000000000000 000000000000000000000000000000                                000000000000000            000000000000000000000000000000000000000000000000000000000000000000000000000000000000000000000000000000000000000000000000000000000000000000000000000000000000000000000000000000000000      *
30111212721000181               168770768430101201311LUIS CARLOS SILVA SANTOS                                                                                     01210000000000067800000000000000000    000000000000000000000000000000000000000000000000000000000000                                                                                                  *
90999999999999999999999999999999999999999999999999999                                                                                                                                                                                                                                                                                                                  *
