00                                                   1121070096000134MARCON CESAR GALLI SERVICOS MEMARCON CESAR GALLI  RUA MAESTRO OTTO WEY 103                          JARDIM ITATINGA     02636100SAO PAULO           SP001122319159                                                            20170311511        1               121070096000134                  *
10121070096000134000000000000000000000000000000000000MARCON CESAR GALLI SERVICOS ME          RUA MAESTRO OTTO WEY 103                          JARDIM ITATINGA     02636100SAO PAULO           SP001122319159s4321500a0002507    2003     000000000000000000000000000000000000000000000000000000000000                000000000000000000000000000000000000000000000    *
12121070096000134000000000000000000000000000000000000000000000000000000000000000000 000000000000000000000000000000                                000000000000000            000000000000000000000000000000000000000000000000000000000000000000000000000000000000000000000000000000000000000000000000000000000000000000000000000000000000000000000000000000000000      *
30121070096000134               119832864561909201411MARCON CESAR GALLI                                                                                           01210000000000093700000000000000000    000000000000000000000000000000000000000000000000000000000000                                                                                                  *
90999999999999999999999999999999999999999999999999999                                                                                                                                                                                                                                                                                                                  *
