00                                                   1112096857000136FABIO SIMIONE AZZONI ME       FABIO SIMIONE AZZONIRUA TUTOIA 202                                    VILA MARIANA        04007000SAO PAULO           SP011964242606                                                            20150311511        1               112096857000136                  *
10112096857000136000000000000000000000000000000000000FABIO SIMIONE AZZONI ME                 RUA TUTOIA 202                                    VILA MARIANA        04007000SAO PAULO           SP011964242606s1412601a0002507    2003     000000000000000000000000000000000000000000000000000000000000                000000000000000000000000000000000000000000000    *
12112096857000136000000000000000000000000000000000000000000000000000000000000000000 000000000000000000000000000000                                000000000000000            000000000000000000000000000000000000000000000000000000000000000000000000000000000000000000000000000000000000000000000000000000000000000000000000000000000000000000000000000000000000      *
30112096857000136               128904328920101201511FABIO SIMIONE AZZONI                                                                                         01210000000000090000000000000000000    000000000000000000000000000000000000000000000000000000000000                                                                                                  *
30112096857000136               16200553190        13FERNANDO SEBASTIAO DOS SANTOS                                                                                07614000000000090000000000000000000    000000000000000000000000000000000000000000000000000000000000                                                                                                  *
90999999999999999999999999999999999999999999999999999                                                                                                                                                                                                                                                                                                                  *
