00                                                   1117659774000121ETS SOLUCOES EM TELECOM E SEG EDUARDO TEIXEIRA DE R3 PAA 11932 PAL 46342 03 APTO 616 BL01 J         JACAREPAGUA         22775036RIO DE JANEIRO      RJ002135768474                                                            20160311511        1               117659774000121                  *
10117659774000121000000000000000000000000000000000000ETS SOLUCOES EM TELECOM E SEG           R3 PAA 11932 PAL 46342 03 APTO 616 BL01 J         JACAREPAGUA         22775036RIO DE JANEIRO      RJ002135768474s9512600a0002515    2003     000000000000000000000000000000000000000000000000000000000000                000000000000000000000000000000000000000000000    *
12117659774000121000000000000000000000000000000000000000000000000000000000000000000 000000000000000000000000000000                                000000000000000            000000000000000000000000000000000000000000000000000000000000000000000000000000000000000000000000000000000000000000000000000000000000000000000000000000000000000000000000000000000000      *
30117659774000121               125095841131604201311EDUARDO TEIXEIRA DE SOUSA                                                                                    01231000000000230000000000000000000    000000000000000000000000000000000000000000000000000000000000                                                                                                  *
90999999999999999999999999999999999999999999999999999                                                                                                                                                                                                                                                                                                                  *
