00                                                   1101735293000118RUNWAY MOTORS LTDA EPP        FABIO EDUARDO SCHALLRUA MURIBECA 146                                  CIDADE JARDIM       05676080SAO PAULO           SP001138199344                                                            20140911511        1               101735293000118                  *
10101735293000118000000000000000000000000000000000000RUNWAY MOTORS LTDA EPP                  RUA MURIBECA 146                                  CIDADE JARDIM       05676080SAO PAULO           SP001138199344s4530701a0002515    2003     000000000000000000000000000000000000000000000000000000000000                000000000000000000000000000000000000000000000    *
12101735293000118000000000000000000000000000000000000000000000000000000000000000000 000000000000000000000000000000                                000000000000000            000000000000000000000000000000000000000000000000000000000000000000000000000000000000000000000000000000000000000000000000000000000000000000000000000000000000000000000000000000000000      *
30101735293000118               124733877122402199711FABIO EDUARDO SCHALL                                                                                         01231000000000170000000000000000000    000000000000000000000000000000000000000000000000000000000000                                                                                                  *
90999999999999999999999999999999999999999999999999999                                                                                                                                                                                                                                                                                                                  *
