00                                                   1104711642000150STA COMERCIO E SERVICOS LTDA  SILVIO RIBEIRO DE MEAV ABEL CABRAL 577 COND SUN HAPPY APT 1001        NOVA PARNAMIRIM     59151250PARNAMIRIM          RN008491094764                                                            20170411511        1               104711642000150                  *
10104711642000150000000000000000000000000000000000000STA COMERCIO E SERVICOS LTDA            AV ABEL CABRAL 577 COND SUN HAPPY APT 1001        NOVA PARNAMIRIM     59151250PARNAMIRIM          RN008491094764s4757100a0002515    2003     000000000000000000000000000000000000000000000000000000000000                000000000000000000000000000000000000000000000    *
12104711642000150000000000000000000000000000000000000000000000000000000000000000000 000000000000000000000000000000                                000000000000000            000000000000000000000000000000000000000000000000000000000000000000000000000000000000000000000000000000000000000000000000000000000000000000000000000000000000000000000000000000000000      *
30104711642000150               119793219271610200111TANIA APARECIDA GONCALVES MEIRA DE MEDEIROS                                                                  01231000000000553131000000000000000    000000000000000000000000000000000000000000000000000000000000                                                                                                  *
90999999999999999999999999999999999999999999999999999                                                                                                                                                                                                                                                                                                                  *
