00                                                   1100472236000120PAULO IVO SILVA               PAULO IVO SILVA     RUA FREI MELCHIOR 117 AP1                         JARDIM SAO PAULO    02041060SAO PAULO           SP011970483083                                                            20170411511        1               100472236000120                  *
10100472236000120000000000000000000000000000000000000PAULO IVO SILVA                         RUA FREI MELCHIOR 117 AP1                         JARDIM SAO PAULO    02041060SAO PAULO           SP011970483083s4618499a0002515    2003     000000000000000000000000000000000000000000000000000000000000                000000000000000000000000000000000000000000000    *
12100472236000120000000000000000000000000000000000000000000000000000000000000000000 000000000000000000000000000000                                000000000000000            000000000000000000000000000000000000000000000000000000000000000000000000000000000000000000000000000000000000000000000000000000000000000000000000000000000000000000000000000000000000      *
30100472236000120               121020431600702199511PAULO IVO SILVA                                                                                              01233000000000093700000000000000000    000000000000000000000000000000000000000000000000000000000000                                                                                                  *
90999999999999999999999999999999999999999999999999999                                                                                                                                                                                                                                                                                                                  *
