00                                                   11109172600001803LEMENTAL MANUTENCAO E SOLUCOEADRIANA FREITAS DE CRUA FERREIRA CANTAO 876                           IRAJA               21235180RIO DE JANEIRO      RJ002121351433                                                            20170411511        1               110917260000180                  *
101109172600001800000000000000000000000000000000000003LEMENTAL MANUTENCAO E SOLUCOE          RUA FERREIRA CANTAO 876                           IRAJA               21235180RIO DE JANEIRO      RJ002121351433s6201500a0002515    2003     000000000000000000000000000000000000000000000000000000000000                000000000000000000000000000000000000000000000    *
12110917260000180000000000000000000000000000000000000000000000000000000000000000000 000000000000000000000000000000                                000000000000000            000000000000000000000000000000000000000000000000000000000000000000000000000000000000000000000000000000000000000000000000000000000000000000000000000000000000000000000000000000000000      *
30110917260000180               126337512472905201211ADRIANA FREITAS DE CARVALHO                                                                                  01231000000000080307000000000000000    000000000000000000000000000000000000000000000000000000000000                                                                                                  *
90999999999999999999999999999999999999999999999999999                                                                                                                                                                                                                                                                                                                  *
