00                                                   1105952834000110RAM SUPORTE EM TECNOLOGIA LTDARICARDO QUAGLIO MAGARUA IRINEU CORREIA DA SILVA 159                   JD SATELITE         04815290SAO PAULO           SP001156666174                                                            20170411511        1               105952834000110                  *
10105952834000110000000000000000000000000000000000000RAM SUPORTE EM TECNOLOGIA LTDA          RUA IRINEU CORREIA DA SILVA 159                   JD SATELITE         04815290SAO PAULO           SP001156666174s6209100a0002515    2003     000000000000000000000000000000000000000000000000000000000000                000000000000000000000000000000000000000000000    *
12105952834000110000000000000000000000000000000000000000000000000000000000000000000 000000000000000000000000000000                                000000000000000            000000000000000000000000000000000000000000000000000000000000000000000000000000000000000000000000000000000000000000000000000000000000000000000000000000000000000000000000000000000000      *
30105952834000110               108258199352010200311RICARDO QUAGLIO MAGALHAES                                                                                    01425000000000093700000000000000000    000000000000000000000000000000000000000000000000000000000000                                                                                                  *
90999999999999999999999999999999999999999999999999999                                                                                                                                                                                                                                                                                                                  *
