00                                                   1121053009000130INOVARA ENGENHARIA AVALIACOES ANTONIO VOLNEI MACHARUA OLGA KRUTZSCH 128                             ITOUPAVA NORTE      89053073BLUMENAU            SC004730662213                                                            20160511511        1               121053009000130                  *
10121053009000130000000000000000000000000000000000000INOVARA ENGENHARIA AVALIACOES E PERICIASRUA OLGA KRUTZSCH 128                             ITOUPAVA NORTE      89053073BLUMENAU            SC004730662213s6621501a0002515    2003     000000000000000000000000000000000000000000000000000000000000                000000000000000000000000000000000000000000000    *
12121053009000130000000000000000000000000000000000000000000000000000000000000000000 000000000000000000000000000000                                000000000000000            000000000000000000000000000000000000000000000000000000000000000000000000000000000000000000000000000000000000000000000000000000000000000000000000000000000000000000000000000000000000      *
30121053009000130               120638323092309201411ANTONIO VOLNEI MACHADO                                                                                       01210000000000352000000000000000000    000000000000000000000000000000000000000000000000000000000000                                                                                                  *
90999999999999999999999999999999999999999999999999999                                                                                                                                                                                                                                                                                                                  *
