00                                                   1114014776000175TESK SERVICOS DIGITAIS LTDA   FERNANDO ROSATI GAGLR SALVADOR CAPASSI 66 CJ 93                       BAETA NEVES         09760310SAO BERNARDO DO CAMPSP001142355560                                                            20170411511        1               114014776000175                  *
10114014776000175000000000000000000000000000000000000TESK SERVICOS DIGITAIS LTDA             R SALVADOR CAPASSI 66 CJ 93                       BAETA NEVES         09760310SAO BERNARDO DO CAMPSP001142355560s6311900a0002515    2003     000000000000000000000000000000000000000000000000000000000000                000000000000000000000000000000000000000000000    *
12114014776000175000000000000000000000000000000000000000000000000000000000000000000 000000000000000000000000000000                                000000000000000            000000000000000000000000000000000000000000000000000000000000000000000000000000000000000000000000000000000000000000000000000000000000000000000000000000000000000000000000000000000000      *
30114014776000175               131951466051407201111FERNANDO ROSATI GAGLIARDO                                                                                    01210000000000093700000000000000000    000000000000000000000000000000000000000000000000000000000000                                                                                                  *
90999999999999999999999999999999999999999999999999999                                                                                                                                                                                                                                                                                                                  *
