00                                                   1105020528000146SOL CONSULTORIA E SERVICOS MEDANDRE LUIZ MONTEIRO AV GOV CARLOS DE LIMA CAVALCANTI 3995 SL 27 CX    CASA CAIADA         53030260OLINDA              PE008181706620                                                            20170111511        1               105020528000146                  *
10105020528000146000000000000000000000000000000000000SOL CONSULTORIA E SERVICOS MEDICOS LTDA AV GOV CARLOS DE LIMA CAVALCANTI 3995 SL 27 CX    CASA CAIADA         53030260OLINDA              PE008181706620s6319400a0002515    2003     000000000000000000000000000000000000000000000000000000000000                000000000000000000000000000000000000000000000    *
12105020528000146000000000000000000000000000000000000000000000000000000000000000000 000000000000000000000000000000                                000000000000000            000000000000000000000000000000000000000000000000000000000000000000000000000000000000000000000000000000000000000000000000000000000000000000000000000000000000000000000000000000000000      *
30105020528000146               124854663961904200211ANDRE LUIZ MONTEIRO DOS SANTOS                                                                               01210000000000100000000000000000000    000000000000000000000000000000000000000000000000000000000000                                                                                                  *
90999999999999999999999999999999999999999999999999999                                                                                                                                                                                                                                                                                                                  *
