00                                                   1121759280000196RJ ISEA REFRIGERACAO TELECOMUNJOSE IGNACIO SALAMANRUA CANUMUM 21                                    JACANA              02277030SAO PAULO           SP001128929174                                                            20150611511        1               121759280000196                  *
10121759280000196000000000000000000000000000000000000RJ ISEA REFRIGERACAO TELECOMUNICACOES E RUA CANUMUM 21                                    JACANA              02277030SAO PAULO           SP001128929174s9521500a0002515    2003     000000000000000000000000000000000000000000000000000000000000                000000000000000000000000000000000000000000000    *
12121759280000196000000000000000000000000000000000000000000000000000000000000000000 000000000000000000000000000000                                000000000000000            000000000000000000000000000000000000000000000000000000000000000000000000000000000000000000000000000000000000000000000000000000000000000000000000000000000000000000000000000000000000      *
30121759280000196               122270749402701201511JOSE IGNACIO SALAMANCA ISEA                                                                                  01210000000000078800000000000000000    000000000000000000000000000000000000000000000000000000000000                                                                                                  *
90999999999999999999999999999999999999999999999999999                                                                                                                                                                                                                                                                                                                  *
