00                                                   1106906871000155JV TRANSPORTE E TURISMO LTDA  MARCO ANTONIO OLIVEIRUA VON IHERING 115                               BARREIRINHA         82700180CURITIBA            PR004199762692                                                            20170411511        1               106906871000155                  *
10106906871000155000000000000000000000000000000000000JV TRANSPORTE E TURISMO LTDA            RUA VON IHERING 115                               BARREIRINHA         82700180CURITIBA            PR004199762692s7711000a0002612    2003     000000000000000000000000000000000000000000000000000000000000                000000000000000000000000000000000000000000000    *
12106906871000155000000000000000000000000000000000000000000000000000000000000000000 000000000000000000000000000000                                000000000000000            000000000000000000000000000000000000000000000000000000000000000000000000000000000000000000000000000000000000000000000000000000000000000000000000000000000000000000000000000000000000      *
30106906871000155               170318854912802200511MARCO ANTONIO OLIVEIRA LOPES                                                                                 01231000000000200000000000000000000    000000000000000000000000000000000000000000000000000000000000                                                                                                  *
90999999999999999999999999999999999999999999999999999                                                                                                                                                                                                                                                                                                                  *
