00                                                   1118662739000124DORIVAL F DE OLIVEIRA ME      DORIVAL FERREIRA DE AV SOROR MARIA DA PROVIDENCIA 418                 JARDIM PACAEMBU     13218210JUNDIAI             SP011982083699                                                            20160811511        1               118662739000124                  *
10118662739000124000000000000000000000000000000000000DORIVAL F DE OLIVEIRA ME                AV SOROR MARIA DA PROVIDENCIA 418                 JARDIM PACAEMBU     13218210JUNDIAI             SP011982083699s8599604a0002515    2003     000000000000000000000000000000000000000000000000000000000000                000000000000000000000000000000000000000000000    *
12118662739000124000000000000000000000000000000000000000000000000000000000000000000 000000000000000000000000000000                                000000000000000            000000000000000000000000000000000000000000000000000000000000000000000000000000000000000000000000000000000000000000000000000000000000000000000000000000000000000000000000000000000000      *
30118662739000124               121259923470101201411DORIVAL FERREIRA DE OLIVEIRA                                                                                 01210000000000519061000000000000000    000000000000000000000000000000000000000000000000000000000000                                                                                                  *
90999999999999999999999999999999999999999999999999999                                                                                                                                                                                                                                                                                                                  *
