00                                                   1110876017000160QUAISLER LOCACAO DE BANHEIROS ALESSANDRO PREISLER RUA ALBERTO MALSCHITZKY 634                       PROGRESSO           89291186SAO BENTO DO SUL    SC004188564028                                                            20141111511        1               110876017000160                  *
10110876017000160000000000000000000000000000000000000QUAISLER LOCACAO DE BANHEIROS           RUA ALBERTO MALSCHITZKY 634                       PROGRESSO           89291186SAO BENTO DO SUL    SC004188564028s7739003a0002515    2003     000000000000000000000000000000000000000000000000000000000000                000000000000000000000000000000000000000000000    *
12110876017000160000000000000000000000000000000000000000000000000000000000000000000 000000000000000000000000000000                                000000000000000            000000000000000000000000000000000000000000000000000000000000000000000000000000000000000000000000000000000000000000000000000000000000000000000000000000000000000000000000000000000000      *
30110876017000160               126996057290405200911ALESSANDRO PREISLER                                                                                          01210000000000072400000000000000000  05000000000000001000000000000000000000000000000000000000000000                                                                                                  *
30110876017000160               129479897260405200911SIMONE DE FRANCA                                                                                             01210000000000072400000000000000000    000000000000000000000000000000000000000000000000000000000000                                                                                                  *
90999999999999999999999999999999999999999999999999999                                                                                                                                                                                                                                                                                                                  *
