00                                                   1110943339000185THIAGO NAPORANO PESCUMA INFORMTHIAGO NAPORANO DINIAV MAC ARTHUR 1587 APTO 103 BL HORTENSIA          JAGUARE             05338000SAO PAULO           SP001179943252                                                            20130911511        1               110943339000185                  *
10110943339000185000000000000000000000000000000000000THIAGO NAPORANO PESCUMA INFORM          AV MAC ARTHUR 1587 APTO 103 BL HORTENSIA          JAGUARE             05338000SAO PAULO           SP001179943252s6209100a0002515    2003     000000000000000000000000000000000000000000000000000000000000                000000000000000000000000000000000000000000000    *
12110943339000185000000000000000000000000000000000000000000000000000000000000000000 000000000000000000000000000000                                000000000000000            000000000000000000000000000000000000000000000000000000000000000000000000000000000000000000000000000000000000000000000000000000000000000000000000000000000000000000000000000000000000      *
30110943339000185               136432607752009200911THIAGO NAPORANO DINIZ PESCUMA                                                                                02521000000000067800000000000000000    000000000000000000000000000000000000000000000000000000000000                                                                                                  *
90999999999999999999999999999999999999999999999999999                                                                                                                                                                                                                                                                                                                  *
