00                                                   1111214930000164SPECIALITY SOLDAS ESPECIAIS LTSERGIO LUIZ ESPECIANRUA LUIS STOLB N 94                               JARDIM VILAS BOAS   04416060SAO PAULO           SP001156233018                                                            20170111511        1               111214930000164                  *
10111214930000164000000000000000000000000000000000000SPECIALITY SOLDAS ESPECIAIS LT          RUA LUIS STOLB N 94                               JARDIM VILAS BOAS   04416060SAO PAULO           SP001156233018s2539000a0002507    2003     000000000000000000000000000000000000000000000000000000000000                000000000000000000000000000000000000000000000    *
12111214930000164000000000000000000000000000000000000000000000000000000000000000000 000000000000000000000000000000                                000000000000000            000000000000000000000000000000000000000000000000000000000000000000000000000000000000000000000000000000000000000000000000000000000000000000000000000000000000000000000000000000000000      *
30111214930000164               124110362150209200911MARCIA SILVA BERBET ESPECIANI                                                                                01412000000000093700000000000000000    000000000000000000000000000000000000000000000000000000000000                                                                                                  *
30111214930000164               132376249330209200911SERGIO LUIZ ESPECIANI                                                                                        07243000000000093700000000000000000    000000000000000000000000000000000000000000000000000000000000                                                                                                  *
90999999999999999999999999999999999999999999999999999                                                                                                                                                                                                                                                                                                                  *
