00                                                   1111164995000142SCHMIDT FAARBAEK DESIGN E OBJEFERNANDA O SCHMIDT  AV PRESIDENTE VARGAS 590 SALA 1208                CENTRO              20017000RIO DE JANEIRO      RJ002135076627                                                            20151211511        1               111164995000142                  *
10111164995000142000000000000000000000000000000000000SCHMIDT FAARBAEK DESIGN E OBJETOS DE DECAV PRESIDENTE VARGAS 590 SALA 1208                CENTRO              20017000RIO DE JANEIRO      RJ002135076627s1822900a0002507    2003     000000000000000000000000000000000000000000000000000000000000                000000000000000000000000000000000000000000000    *
12111164995000142000000000000000000000000000000000000000000000000000000000000000000 000000000000000000000000000000                                000000000000000            000000000000000000000000000000000000000000000000000000000000000000000000000000000000000000000000000000000000000000000000000000000000000000000000000000000000000000000000000000000000      *
30111164995000142               124968922272209200911FERNANDA O SCHMIDT                                                                                           01210000000000078800000000000000000    000000000000000000000000000000000000000000000000000000000000                                                                                                  *
90999999999999999999999999999999999999999999999999999                                                                                                                                                                                                                                                                                                                  *
