00                                                   1107941684000175JPPAVAGEAU TURISMO ME         JOAO PAULO PAVAGEAU RUA CASSIA                                        BARAO GERALDO       13083290CAMPINAS            SP001933882446                                                            20170411511        1               107941684000175                  *
10107941684000175000000000000000000000000000000000000JPPAVAGEAU TURISMO ME                   RUA CASSIA                                        BARAO GERALDO       13083290CAMPINAS            SP001933882446s7911200a0002515    2003     000000000000000000000000000000000000000000000000000000000000                000000000000000000000000000000000000000000000    *
12107941684000175000000000000000000000000000000000000000000000000000000000000000000 000000000000000000000000000000                                000000000000000            000000000000000000000000000000000000000000000000000000000000000000000000000000000000000000000000000000000000000000000000000000000000000000000000000000000000000000000000000000000000      *
30107941684000175               125869212421503200611JOAO PAULO PAVAGEAU                                                                                          01210000000000093700000000000000000    000000000000000000000000000000000000000000000000000000000000                                                                                                  *
90999999999999999999999999999999999999999999999999999                                                                                                                                                                                                                                                                                                                  *
