00                                                   1112974527000104WINFO SOLUTIONS I LTDA EPP    WILSON FERNANDO DE MAVENIDA FERNANDO ARENS 787                        VILA ARENS          13218160JUNDIAI             SP001148051201                                                            20150311511        1               112974527000104                  *
10112974527000104000000000000000000000000000000000000WINFO SOLUTIONS I LTDA EPP              AVENIDA FERNANDO ARENS 787                        VILA ARENS          13218160JUNDIAI             SP001148051201s6209100a0002515    2003     000000000000000000000000000000000000000000000000000000000000                000000000000000000000000000000000000000000000    *
12112974527000104000000000000000000000000000000000000000000000000000000000000000000 000000000000000000000000000000                                000000000000000            000000000000000000000000000000000000000000000000000000000000000000000000000000000000000000000000000000000000000000000000000000000000000000000000000000000000000000000000000000000000      *
30112974527000104               108746533360112201411SELMA GUEDES DE MORAES                                                                                       01231000000000078800000000000000000    000000000000000000000000000000000000000000000000000000000000                                                                                                  *
30112974527000104               128056082690107201111WILSON FERNANDO DE MORAES PEREIRA                                                                            01210000000000150000000000000000000    000000000000000000000000000000000000000000000000000000000000                                                                                                  *
90999999999999999999999999999999999999999999999999999                                                                                                                                                                                                                                                                                                                  *
