00                                                   1111366033000176METANOIA EDITORA E COMUNICACAOMARIA LUIZA SANTOS ARUA SANTIAGO 319 102 FTE                          PENHA               21020400RIO DE JANEIRO      RJ002141065024                                                            20151111511        1               111366033000176                  *
10111366033000176000000000000000000000000000000000000METANOIA EDITORA E COMUNICACAO LTDA ME  RUA SANTIAGO 319 102 FTE                          PENHA               21020400RIO DE JANEIRO      RJ002141065024s5811500a0002566    2003     000000000000000000000000000000000000000000000000000000000000                000000000000000000000000000000000000000000000    *
12111366033000176000000000000000000000000000000000000000000000000000000000000000000 000000000000000000000000000000                                000000000000000            000000000000000000000000000000000000000000000000000000000000000000000000000000000000000000000000000000000000000000000000000000000000000000000000000000000000000000000000000000000000      *
30111366033000176               12490526628        13MARCOS LUIS OLIVEIRA DA COSTA                                                                                04221000000000084270000000000000000    000000000000000000000000000000000000000000000000000000000000                                                                                                  *
30111366033000176               16695075019        13PALOMA OHANA FERREIRA ALVES                                                                                  04221000000000084270000000000000000    000000000000000000000000000000000000000000000000000000000000                                                                                                  *
90999999999999999999999999999999999999999999999999999                                                                                                                                                                                                                                                                                                                  *
