00                                                   1103589814000100DELICADA LANCHES E REFEICOES LSOLANGE STOEW DOS SAAVMOACIR DA SILVEIRA 200                          JD ISAURA           06516050SANTANA DE PARNAIBA SP001141512157                                                            11511        1               103589814000100                  *
10103589814000100000000000000000000000000000000000000DELICADA LANCHES E REFEICOES LTDA ME    AVMOACIR DA SILVEIRA 200                          JD ISAURA           06516050SANTANA DE PARNAIBA SP001141512157s5611203a0002515    2003     000000000000000000000000000000000000000000000000000000000000                000000000000000000000000000000000000000000000    *
12103589814000100000000000000000000000000000000000000000000000000000000000000000000 000000000000000000000000000000                                000000000000000            000000000000000000000000000000000000000000000000000000000000000000000000000000000000000000000000000000000000000000000000000000000000000000000000000000000000000000000000000000000000      *
90999999999999999999999999999999999999999999999999999                                                                                                                                                                                                                                                                                                                  *
