00                                                   1121209071000179PRONTOSITE ARTE COMPUTADORIZADALEXANDRE MIGUEIS NOAV LUCIOCOSTA 3300 BLOCO 6 APTO 2301              BARRA DA TIJUCA     22630010RIO DE JANEIRO      RJ002130052068                                                            20170411511        1               121209071000179                  *
10121209071000179000000000000000000000000000000000000PRONTOSITE ARTE COMPUTADORIZADA E SERVICAV LUCIOCOSTA 3300 BLOCO 6 APTO 2301              BARRA DA TIJUCA     22630010RIO DE JANEIRO      RJ002130052068s6319400a0002515    2003     000000000000000000000000000000000000000000000000000000000000                000000000000000000000000000000000000000000000    *
12121209071000179000000000000000000000000000000000000000000000000000000000000000000 000000000000000000000000000000                                000000000000000            000000000000000000000000000000000000000000000000000000000000000000000000000000000000000000000000000000000000000000000000000000000000000000000000000000000000000000000000000000000000      *
30121209071000179               168878227501510201411ALEXANDRE MIGUEIS NOGUEIRA                                                                                   01210000000000210000000000000000000    000000000000000000000000000000000000000000000000000000000000                                                                                                  *
90999999999999999999999999999999999999999999999999999                                                                                                                                                                                                                                                                                                                  *
