00                                                   1114635565000150KATIA CRISTINA CAMACHO DE FREIKATIA CRISTINA CAMACR BARAO DE JACEGUAI 1605                          CENTRO              08780100MOGI DAS CRUZES     SP001147922768                                                            20151111511        1               114635565000150                  *
10114635565000150000000000000000000000000000000000000KATIA CRISTINA CAMACHO DE FREITAS ME    R BARAO DE JACEGUAI 1605                          CENTRO              08780100MOGI DAS CRUZES     SP001147922768s8599699a0002515    2003     000000000000000000000000000000000000000000000000000000000000                000000000000000000000000000000000000000000000    *
12114635565000150000000000000000000000000000000000000000000000000000000000000000000 000000000000000000000000000000                                000000000000000            000000000000000000000000000000000000000000000000000000000000000000000000000000000000000000000000000000000000000000000000000000000000000000000000000000000000000000000000000000000000      *
30114635565000150               125156294921811201111KATIA CRISTINA CAMACHO DE FREITAS                                                                            01210000000000400000000000000000000  05000000000032067000000000000000000000000000000000000000000000                                                                                                  *
90999999999999999999999999999999999999999999999999999                                                                                                                                                                                                                                                                                                                  *
