00                                                   1112277063000179DEISE TOTT DEBIA 36362474848  DEISE TOTT DEBIA    RUA SAO GERALDO 128                               PARQUE BANDEIRANTE  09050370SANTO ANDRE         SP011994749027                                                            20150511511        1               112277063000179                  *
10112277063000179000000000000000000000000000000000000DEISE TOTT DEBIA 36362474848            RUA SAO GERALDO 128                               PARQUE BANDEIRANTE  09050370SANTO ANDRE         SP011994749027s8593700a0002515    2003     000000000000000000000000000000000000000000000000000000000000                000000000000000000000000000000000000000000000    *
12112277063000179000000000000000000000000000000000000000000000000000000000000000000 000000000000000000000000000000                                000000000000000            000000000000000000000000000000000000000000000000000000000000000000000000000000000000000000000000000000000000000000000000000000000000000000000000000000000000000000000000000000000000      *
30112277063000179               137726677742410201011DEISE TOTT DEBIA                                                                                             02346000000000060000000000000000000    000000000000000000000000000000000000000000000000000000000000                                                                                                  *
90999999999999999999999999999999999999999999999999999                                                                                                                                                                                                                                                                                                                  *
