00                                                   1116514932000192JULIANA DE OLIVEIRA VILLAVERDEJULIANA DE OLIVEIRA RUA MANOEL PATRICIO MENEZES 156                   RIO PEQUENO         05361050SAO PAULO           SP001137143982                                                            20160311511        1               116514932000192                  *
10116514932000192000000000000000000000000000000000000JULIANA DE OLIVEIRA VILLAVERDE MARTINEZ RUA MANOEL PATRICIO MENEZES 156                   RIO PEQUENO         05361050SAO PAULO           SP001137143982s7319003a0002566    2003     000000000000000000000000000000000000000000000000000000000000                000000000000000000000000000000000000000000000    *
12116514932000192000000000000000000000000000000000000000000000000000000000000000000 000000000000000000000000000000                                000000000000000            000000000000000000000000000000000000000000000000000000000000000000000000000000000000000000000000000000000000000000000000000000000000000000000000000000000000000000000000000000000000      *
30116514932000192               125010641882205201411JULIANA DE OLIVEIRA VILLAVERDE MARTINEZ                                                                      01231000000000100000000000000000000    000000000000000000000000000000000000000000000000000000000000                                                                                                  *
90999999999999999999999999999999999999999999999999999                                                                                                                                                                                                                                                                                                                  *
