00                                                   1107438361000163MUNICIPAL 2005 PRODUCOES ARTISCAMILO SOLANO DOS SAAV RIO BRANCO 173 SALA 302                        CENTRO              20040007RIO DE JANEIRO      RJ002131163215                                                            20150511511        1               107438361000163                  *
10107438361000163000000000000000000000000000000000000MUNICIPAL 2005 PRODUCOES ARTISTICAS     AV RIO BRANCO 173 SALA 302                        CENTRO              20040007RIO DE JANEIRO      RJ002131163215s9001999a0002566    2003     000000000000000000000000000000000000000000000000000000000000                000000000000000000000000000000000000000000000    *
12107438361000163000000000000000000000000000000000000000000000000000000000000000000 000000000000000000000000000000                                000000000000000            000000000000000000000000000000000000000000000000000000000000000000000000000000000000000000000000000000000000000000000000000000000000000000000000000000000000000000000000000000000000      *
30107438361000163               122930240341505200711CAMILO SOLANO DOS SANTOS                                                                                     01231000000000110000000000000000000    000000000000000000000000000000000000000000000000000000000000                                                                                                  *
90999999999999999999999999999999999999999999999999999                                                                                                                                                                                                                                                                                                                  *
