00                                                   1115813897000140AKHI TREINAMENTO COMERCIO E SOISRAEL ARAUJO DE ALBRUA MACEDO COIMBRA 590 102                        CAMPO GRANDE        23052130RIO DE JANEIRO      RJ002139423949                                                            20150711511        1               115813897000140                  *
10115813897000140000000000000000000000000000000000000AKHI TREINAMENTO COMERCIO E SOLUCOES LOGRUA MACEDO COIMBRA 590 102                        CAMPO GRANDE        23052130RIO DE JANEIRO      RJ002139423949s8129000a0002515    2003     000000000000000000000000000000000000000000000000000000000000                000000000000000000000000000000000000000000000    *
12115813897000140000000000000000000000000000000000000000000000000000000000000000000 000000000000000000000000000000                                000000000000000            000000000000000000000000000000000000000000000000000000000000000000000000000000000000000000000000000000000000000000000000000000000000000000000000000000000000000000000000000000000000      *
30115813897000140               125247266912805201211ISRAEL ARAUJO DE ALBUQUERQUE                                                                                 01210000000000078800000000000000000    000000000000000000000000000000000000000000000000000000000000                                                                                                  *
90999999999999999999999999999999999999999999999999999                                                                                                                                                                                                                                                                                                                  *
