00                                                   1108917956000164INFOCRUZ SOLUCOES EM INFORMATIDENIVALDO LOPES CRUZRUA LUIS PEREIRA REBOUCAS 702                     JD SANTA FE         05271200SAO PAULO           SP001139112349                                                            20150311511        1               108917956000164                  *
10108917956000164000000000000000000000000000000000000INFOCRUZ SOLUCOES EM INFORMATICA LTDA   RUA LUIS PEREIRA REBOUCAS 702                     JD SANTA FE         05271200SAO PAULO           SP001139112349s6201500a0002515    2003     000000000000000000000000000000000000000000000000000000000000                000000000000000000000000000000000000000000000    *
12108917956000164000000000000000000000000000000000000000000000000000000000000000000 000000000000000000000000000000                                000000000000000            000000000000000000000000000000000000000000000000000000000000000000000000000000000000000000000000000000000000000000000000000000000000000000000000000000000000000000000000000000000000      *
30108917956000164               123974554302006200711DENIVALDO LOPES CRUZ                                                                                         01210000000000178700000000000000000    000000000000000000000000000000000000000000000000000000000000                                                                                                  *
90999999999999999999999999999999999999999999999999999                                                                                                                                                                                                                                                                                                                  *
