00                                                   1167981878000126ALPHA PEGASUS PROCESSAMENTO DESONIA MARIA CRIPPA DRUA DARDANELOS 143                                ALTO DA LAPA        05468010SAO PAULO           SP001130222549                                                            20170411511        1               167981878000126                  *
10167981878000126000000000000000000000000000000000000ALPHA PEGASUS PROCESSAMENTO DE DADOS SOCRUA DARDANELOS 143                                ALTO DA LAPA        05468010SAO PAULO           SP001130222549s6311900a0002515    2003     000000000000000000000000000000000000000000000000000000000000                000000000000000000000000000000000000000000000    *
12167981878000126000000000000000000000000000000000000000000000000000000000000000000 000000000000000000000000000000                                000000000000000            000000000000000000000000000000000000000000000000000000000000000000000000000000000000000000000000000000000000000000000000000000000000000000000000000000000000000000000000000000000000      *
30167981878000126               114227148310502199511SONIA MARIA CRIPPA DE OLIVEIRA                                                                               01231000000000093700000000000000000    000000000000000000000000000000000000000000000000000000000000                                                                                                  *
30167981878000126               117218866690502199511ISANO JOSE DE OLIVEIRA                                                                                       01231000000000093700000000000000000    000000000000000000000000000000000000000000000000000000000000                                                                                                  *
90999999999999999999999999999999999999999999999999999                                                                                                                                                                                                                                                                                                                  *
