00                                                   1108745511000144SEEL COMERCIO DE EQUIPAMENTOS JOSEMILSON FRANCISCORUA JOAQUIM GOUVEIA FRANCO552 LOJA 01             CIDADE SAO MATEUS   03961020SAO PAULO           SP001181611309                                                            20130911511        1               108745511000144                  *
10108745511000144000000000000000000000000000000000000SEEL COMERCIO DE EQUIPAMENTOS           RUA JOAQUIM GOUVEIA FRANCO552 LOJA 01             CIDADE SAO MATEUS   03961020SAO PAULO           SP001181611309s4742300a0002515    2003     000000000000000000000000000000000000000000000000000000000000                000000000000000000000000000000000000000000000    *
12108745511000144000000000000000000000000000000000000000000000000000000000000000000 000000000000000000000000000000                                000000000000000            000000000000000000000000000000000000000000000000000000000000000000000000000000000000000000000000000000000000000000000000000000000000000000000000000000000000000000000000000000000000      *
30108745511000144               120767451830703200611JOSEMILSON FRANCISCO DA SILVA                                                                                01210000000000067800000000000000000    000000000000000000000000000000000000000000000000000000000000                                                                                                  *
90999999999999999999999999999999999999999999999999999                                                                                                                                                                                                                                                                                                                  *
