00                                                   1112036111000137JOAO MATEUS BUSTAMANTE PRODUCOJOAO MATEUS BUSTAMANRUA KIYOSHI ENOMOTO 78 103                        JARDIM SAN MARINO   12235831SAO JOSE DOS CAMPOS SP012991389013                                                            20151211511        1               112036111000137                  *
10112036111000137000000000000000000000000000000000000JOAO MATEUS BUSTAMANTE PRODUCOES        RUA KIYOSHI ENOMOTO 78 103                        JARDIM SAN MARINO   12235831SAO JOSE DOS CAMPOS SP012991389013s9001902a0002566    2003     000000000000000000000000000000000000000000000000000000000000                000000000000000000000000000000000000000000000    *
12112036111000137000000000000000000000000000000000000000000000000000000000000000000 000000000000000000000000000000                                000000000000000            000000000000000000000000000000000000000000000000000000000000000000000000000000000000000000000000000000000000000000000000000000000000000000000000000000000000000000000000000000000000      *
30112036111000137               168604748670101201011JOAO MATEUS BUSTAMANTE                                                                                       01210000000000078800000000000000000    000000000000000000000000000000000000000000000000000000000000                                                                                                  *
90999999999999999999999999999999999999999999999999999                                                                                                                                                                                                                                                                                                                  *
