00                                                   1121153801000167ELASTIC TECNOLOGIA LTDA       JEFERSON LERMA TENORRUA BAHIA N 110 AP 22                             GONZAGA             11060450SANTOS              SP001334681946                                                            20150211511        1               121153801000167                  *
10121153801000167000000000000000000000000000000000000ELASTIC TECNOLOGIA LTDA                 RUA BAHIA N 110 AP 22                             GONZAGA             11060450SANTOS              SP001334681946s6209100a0002515    2003     000000000000000000000000000000000000000000000000000000000000                000000000000000000000000000000000000000000000    *
12121153801000167000000000000000000000000000000000000000000000000000000000000000000 000000000000000000000000000000                                000000000000000            000000000000000000000000000000000000000000000000000000000000000000000000000000000000000000000000000000000000000000000000000000000000000000000000000000000000000000000000000000000000      *
30121153801000167               129084369320210201411JEFERSON LERMA TENORIO                                                                                       01210000000000078800000000000000000    000000000000000000000000000000000000000000000000000000000000                                                                                                  *
30121153801000167               168864013440210201411MARIANA BRITO DO NASCIMENTO TENORIO                                                                          01231000000000078800000000000000000    000000000000000000000000000000000000000000000000000000000000                                                                                                  *
90999999999999999999999999999999999999999999999999999                                                                                                                                                                                                                                                                                                                  *
