00                                                   1114261542000122DROGARIA SCOT FARMA LTDA      IVANILSON ALMERINDO RUA JOSE CARLOS DA SILVA                          INHAUMA             22750053RIO DE JANEIRO      RJ002131163203                                                            20150511511        1               114261542000122                  *
10114261542000122000000000000000000000000000000000000DROGARIA SCOT FARMA LTDA                RUA JOSE CARLOS DA SILVA                          INHAUMA             22750053RIO DE JANEIRO      RJ002131163203s4771701a0002515    2003     000000000000000000000000000000000000000000000000000000000000                000000000000000000000000000000000000000000000    *
12114261542000122000000000000000000000000000000000000000000000000000000000000000000 000000000000000000000000000000                                000000000000000            000000000000000000000000000000000000000000000000000000000000000000000000000000000000000000000000000000000000000000000000000000000000000000000000000000000000000000000000000000000000      *
30114261542000122               128598255860109201311IVANILSON ALMERINDO MACEDO                                                                                   01231000000000110000000000000000000    000000000000000000000000000000000000000000000000000000000000                                                                                                  *
30114261542000122               206787429731909201311DIONILSON ALMERINDO MACEDO                                                                                   01231000000000110000000000000000000    000000000000000000000000000000000000000000000000000000000000                                                                                                  *
90999999999999999999999999999999999999999999999999999                                                                                                                                                                                                                                                                                                                  *
