00                                                   1106158214000177A1 SOFTHOUSE LTDA ME          FREDERICO DE SOUZA MRUA MAESTRO FELICIO TOLEDO 551 514                CENTRO              24030106NITEROI             RJ002122422514                                                            20130511511        1               106158214000177                  *
10106158214000177000000000000000000000000000000000000A1 SOFTHOUSE LTDA ME                    RUA MAESTRO FELICIO TOLEDO 551 514                CENTRO              24030106NITEROI             RJ002122422514s6209100a0002515    2003     000000000000000000000000000000000000000000000000000000000000                000000000000000000000000000000000000000000000    *
12106158214000177000000000000000000000000000000000000000000000000000000000000000000 000000000000000000000000000000                                000000000000000            000000000000000000000000000000000000000000000000000000000000000000000000000000000000000000000000000000000000000000000000000000000000000000000000000000000000000000000000000000000000      *
30106158214000177               124134414941103200411FREDERICO DE SOUZA MENDONCA                                                                                  01231000000000067800000000000000000    000000000000000000000000000000000000000000000000000000000000                                                                                                  *
90999999999999999999999999999999999999999999999999999                                                                                                                                                                                                                                                                                                                  *
