00                                                   1117135048000100ROBINSON MELGAR ME            ROBINSON MELGAR     RUA COMENDADOR NORBERTO JORGE 56 APTO 11          BROOKLIN            04602020SAO PAULO           SP001125949055                                                            20140211511        220032014       117135048000100                  *
10117135048000100000000000000000000000000000000000000ROBINSON MELGAR ME                      RUA COMENDADOR NORBERTO JORGE 56 APTO 11          BROOKLIN            04602020SAO PAULO           SP001125949055s6391700a0002566    2003     000000000000000000000000000000000000000000000000000000000000                000000000000000000000000000000000000000000000    *
12117135048000100000000000000000000000000000000000000000000000000000000000000000000 000000000000000000000000000000                                000000000000000            000000000000000000000000000000000000000000000000000000000000000000000000000000000000000000000000000000000000000000000000000000000000000000000000000000000000000000000000000000000000      *
30117135048000100               128216449321508201211ROBINSON MELGAR                                                                                              01210000000000170000000000000000000    000000000000000000000000000000000000000000000000000000000000                                                                                                  *
90999999999999999999999999999999999999999999999999999                                                                                                                                                                                                                                                                                                                  *
