00                                                   1109270179000171INFOTRACK TECNOLOGIA DA INFORMFERNANDO GOLFIERI   RUA ANGELO ESTEVES 79 1 ANDAR SALA 3              JARDIM MYRIAM MOREIR13098416CAMPINAS            SP019991704350                                                            20130311511        220092013       109270179000171                  *
10109270179000171000000000000000000000000000000000000INFOTRACK TECNOLOGIA DA INFORM          RUA ANGELO ESTEVES 79 1 ANDAR SALA 3              JARDIM MYRIAM MOREIR13098416CAMPINAS            SP019991704350s7739099a0002515    2003     000000000000000000000000000000000000000000000000000000000000                000000000000000000000000000000000000000000000    *
12109270179000171000000000000000000000000000000000000000000000000000000000000000000 000000000000000000000000000000                                000000000000000            000000000000000000000000000000000000000000000000000000000000000000000000000000000000000000000000000000000000000000000000000000000000000000000000000000000000000000000000000000000000      *
30109270179000171               119584834802711200711FERNANDO GOLFIERI                                                                                            01231000000000067800000000000000000    000000000000000000000000000000000000000000000000000000000000                                                                                                  *
90999999999999999999999999999999999999999999999999999                                                                                                                                                                                                                                                                                                                  *
