00                                                   1113718778000182MDO ARTES MARCIAIS LTDA ME    FERNANDO DUARTE MARTR DR BOZANO 330 SALA 12 A                         CENTRO              97015000SANTA MARIA         RS005591283822                                                            20150611511        1               113718778000182                  *
10113718778000182000000000000000000000000000000000000MDO ARTES MARCIAIS LTDA ME              R DR BOZANO 330 SALA 12 A                         CENTRO              97015000SANTA MARIA         RS005591283822s1359600a0002507    2003     000000000000000000000000000000000000000000000000000000000000                000000000000000000000000000000000000000000000    *
12113718778000182000000000000000000000000000000000000000000000000000000000000000000 000000000000000000000000000000                                000000000000000            000000000000000000000000000000000000000000000000000000000000000000000000000000000000000000000000000000000000000000000000000000000000000000000000000000000000000000000000000000000000      *
30113718778000182               168905871392605201111FERNANDO DUARTE MARTINS DE OLIVEIRA                                                                          01210000000000210000000000000000000    000000000000000000000000000000000000000000000000000000000000                                                                                                  *
90999999999999999999999999999999999999999999999999999                                                                                                                                                                                                                                                                                                                  *
