00                                                   1112371473000184OKAYPRINT SOLUCOES GRAFICAS LTLUCIANO BARRETO ROCHRUA DO CATETE 66802                               CATETE              22220000RIO DE JANEIRO      RJ002135024189                                                            20150211511        1               112371473000184                  *
10112371473000184000000000000000000000000000000000000OKAYPRINT SOLUCOES GRAFICAS LTDA ME     RUA DO CATETE 66802                               CATETE              22220000RIO DE JANEIRO      RJ002135024189s1821100a0002507    2003     000000000000000000000000000000000000000000000000000000000000                000000000000000000000000000000000000000000000    *
12112371473000184000000000000000000000000000000000000000000000000000000000000000000 000000000000000000000000000000                                000000000000000            000000000000000000000000000000000000000000000000000000000000000000000000000000000000000000000000000000000000000000000000000000000000000000000000000000000000000000000000000000000000      *
30112371473000184               125614998571208201011LUCIANO BARRETO ROCHA                                                                                        01210000000000078800000000000000000    000000000000000000000000000000000000000000000000000000000000                                                                                                  *
90999999999999999999999999999999999999999999999999999                                                                                                                                                                                                                                                                                                                  *
