00                                                   1117833933000162BZ SERVICOS DE APOIO EMPRESAR MARCELO JOSE ALONSO RUA CORONEL OSCAR PORTO 208191A                   PARAISO             04003000SAO PAULO           SP011989366674                                                            20140511511        1               117833933000162                  *
10117833933000162000000000000000000000000000000000000BZ SERVICOS DE APOIO EMPRESAR           RUA CORONEL OSCAR PORTO 208191A                   PARAISO             04003000SAO PAULO           SP011989366674s8211300a0002515    2003     000000000000000000000000000000000000000000000000000000000000                000000000000000000000000000000000000000000000    *
12117833933000162000000000000000000000000000000000000000000000000000000000000000000 000000000000000000000000000000                                000000000000000            000000000000000000000000000000000000000000000000000000000000000000000000000000000000000000000000000000000000000000000000000000000000000000000000000000000000000000000000000000000000      *
30117833933000162               170037470472703201311MARCELO JOSE ALONSO BEZERRA DOS SANTOS                                                                       01210000000000200000000000000000000    000000000000000000000000000000000000000000000000000000000000                                                                                                  *
90999999999999999999999999999999999999999999999999999                                                                                                                                                                                                                                                                                                                  *
