00                                                   1117282733000169ELISSANDRO AQUINO MENDES ME   ELISSANDRO AQUINO MERUA DOM QUINTINO 1445                             CRISTO REDENTOR     60310520FORTALEZA           CE008586961510                                                            20141211511        1               117282733000169                  *
10117282733000169000000000000000000000000000000000000ELISSANDRO AQUINO MENDES ME             RUA DOM QUINTINO 1445                             CRISTO REDENTOR     60310520FORTALEZA           CE008586961510s6201500a0002515    2003     000000000000000000000000000000000000000000000000000000000000                000000000000000000000000000000000000000000000    *
12117282733000169000000000000000000000000000000000000000000000000000000000000000000 000000000000000000000000000000                                000000000000000            000000000000000000000000000000000000000000000000000000000000000000000000000000000000000000000000000000000000000000000000000000000000000000000000000000000000000000000000000000000000      *
30117282733000169               128719551920112201211ELISSANDRO AQUINO MENDES                                                                                     01210000000000072400000000000000000    000000000000000000000000000000000000000000000000000000000000                                                                                                  *
90999999999999999999999999999999999999999999999999999                                                                                                                                                                                                                                                                                                                  *
