00                                                   1113972451000132CELIO ZILVES ME               CELIO ZILVES        AV WASHINGTON LUIS 1277 AP 201 D                  SANTO AMARO         04662002SAO PAULO           SP001155222151                                                            20141111511        1               113972451000132                  *
10113972451000132000000000000000000000000000000000000CELIO ZILVES ME                         AV WASHINGTON LUIS 1277 AP 201 D                  SANTO AMARO         04662002SAO PAULO           SP001155222151s8593700a0002515    2003     000000000000000000000000000000000000000000000000000000000000                000000000000000000000000000000000000000000000    *
12113972451000132000000000000000000000000000000000000000000000000000000000000000000 000000000000000000000000000000                                000000000000000            000000000000000000000000000000000000000000000000000000000000000000000000000000000000000000000000000000000000000000000000000000000000000000000000000000000000000000000000000000000000      *
30113972451000132               101039287550107201111CELIO ZILVES                                                                                                 02153000000000081000000000000000000    000000000000000000000000000000000000000000000000000000000000                                                                                                  *
90999999999999999999999999999999999999999999999999999                                                                                                                                                                                                                                                                                                                  *
