00                                                   1119932134000179ARMILIATO SILVA CURSOS PROFISSDIEGO CAMARGO ARMILIAV ADELINO MARTINS 990 SALA II                    JD TULIPAS          13212600JUNDIAI             SP001139641461                                                            20150211511        1               119932134000179                  *
10119932134000179000000000000000000000000000000000000ARMILIATO SILVA CURSOS PROFISSIONALIZANTAV ADELINO MARTINS 990 SALA II                    JD TULIPAS          13212600JUNDIAI             SP001139641461s8541400a0002574    2003     000000000000000000000000000000000000000000000000000000000000                000000000000000000000000000000000000000000000    *
12119932134000179000000000000000000000000000000000000000000000000000000000000000000 000000000000000000000000000000                                000000000000000            000000000000000000000000000000000000000000000000000000000000000000000000000000000000000000000000000000000000000000000000000000000000000000000000000000000000000000000000000000000000      *
30119932134000179               127253632512402201411MARIA TEREZINHA RAMOS SILVA                                                                                  01210000000000078800000000000000000    000000000000000000000000000000000000000000000000000000000000                                                                                                  *
90999999999999999999999999999999999999999999999999999                                                                                                                                                                                                                                                                                                                  *
