00                                                   1110317057000172METHODOS INFORMATICA LTDA     NAOGHI PEREIRA MORIMGALVAO BUENO 499                                  LIBERDADE           01506000SAO PAULO           SP011975554723                                                            20141211511        1               110317057000172                  *
10110317057000172000000000000000000000000000000000000METHODOS INFORMATICA LTDA               GALVAO BUENO 499                                  LIBERDADE           01506000SAO PAULO           SP011975554723s8599603a0002515    2003     000000000000000000000000000000000000000000000000000000000000                000000000000000000000000000000000000000000000    *
12110317057000172000000000000000000000000000000000000000000000000000000000000000000 000000000000000000000000000000                                000000000000000            000000000000000000000000000000000000000000000000000000000000000000000000000000000000000000000000000000000000000000000000000000000000000000000000000000000000000000000000000000000000      *
30110317057000172               134726679302508200811NAOGHI PEREIRA MORIMOTO                                                                                      02124000000000072400000000000000000    000000000000000000000000000000000000000000000000000000000000                                                                                                  *
30110317057000172               136315698571707201411ALDO HIROSHI OKINA ISHIDA                                                                                    02521000000000072400000000000000000    000000000000000000000000000000000000000000000000000000000000                                                                                                  *
90999999999999999999999999999999999999999999999999999                                                                                                                                                                                                                                                                                                                  *
