00                                                   1117431985000102EQUIPE DOIS PRA CA CULTURA AR KAMILA RODRIGUES    AV DEPUTADO EMILIO CARLOS 631 APTO 18 B           LIMAO               02721000SAO PAULO           SP001123391451                                                            20170311511        1               117431985000102                  *
10117431985000102000000000000000000000000000000000000EQUIPE DOIS PRA CA CULTURA AR           AV DEPUTADO EMILIO CARLOS 631 APTO 18 B           LIMAO               02721000SAO PAULO           SP001123391451s8592901a0002515    2003     000000000000000000000000000000000000000000000000000000000000                000000000000000000000000000000000000000000000    *
12117431985000102000000000000000000000000000000000000000000000000000000000000000000 000000000000000000000000000000                                000000000000000            000000000000000000000000000000000000000000000000000000000000000000000000000000000000000000000000000000000000000000000000000000000000000000000000000000000000000000000000000000000000      *
30117431985000102               190155296230110201311KAMILA RODRIGUES                                                                                             01210000000000093700000000000000000    000000000000000000000000000000000000000000000000000000000000                                                                                                  *
90999999999999999999999999999999999999999999999999999                                                                                                                                                                                                                                                                                                                  *
