00                                                   1121023859000196ASX DE MENEZES SERVICOS ADMINIADEMILTON DOS SANTOSRUA SIMONE MARTINI 285 CASA 103                   JD SANTA MARIA      03573170SAO PAULO           SP011947321193                                                            20170411511        1               121023859000196                  *
10121023859000196000000000000000000000000000000000000ASX DE MENEZES SERVICOS ADMINISTRATIVOS RUA SIMONE MARTINI 285 CASA 103                   JD SANTA MARIA      03573170SAO PAULO           SP011947321193s8219999a0002515    2003     000000000000000000000000000000000000000000000000000000000000                000000000000000000000000000000000000000000000    *
12121023859000196000000000000000000000000000000000000000000000000000000000000000000 000000000000000000000000000000                                000000000000000            000000000000000000000000000000000000000000000000000000000000000000000000000000000000000000000000000000000000000000000000000000000000000000000000000000000000000000000000000000000000      *
30121023859000196               116253960601209201411ADEMILTON DOS SANTOS DE MENEZES                                                                              01210000000000187400000000000000000    000000000000000000000000000000000000000000000000000000000000                                                                                                  *
30121023859000196               122084304941209201411ELAINE CRISTINA CARVALHEIRO DE MENEZES                                                                       01210000000000187400000000000000000    000000000000000000000000000000000000000000000000000000000000                                                                                                  *
90999999999999999999999999999999999999999999999999999                                                                                                                                                                                                                                                                                                                  *
