00                                                   1108593296000103RIKEEDON MANUTENCAO DE EQUIPAMBRUNA MORETTINI IORIAV ANGELICA 2389 74A                              CONSOLACAO          01227200SAO PAULO           SP011993769011                                                            20150611511        1               108593296000103                  *
10108593296000103000000000000000000000000000000000000RIKEEDON MANUTENCAO DE EQUIPAM          AV ANGELICA 2389 74A                              CONSOLACAO          01227200SAO PAULO           SP011993769011s6201500a0002515    2003     000000000000000000000000000000000000000000000000000000000000                000000000000000000000000000000000000000000000    *
12108593296000103000000000000000000000000000000000000000000000000000000000000000000 000000000000000000000000000000                                000000000000000            000000000000000000000000000000000000000000000000000000000000000000000000000000000000000000000000000000000000000000000000000000000000000000000000000000000000000000000000000000000000      *
30108593296000103               129550929342112200611BRUNA MORETTINI IORIO                                                                                        02521000000000078800000000000000000    000000000000000000000000000000000000000000000000000000000000                                                                                                  *
90999999999999999999999999999999999999999999999999999                                                                                                                                                                                                                                                                                                                  *
