00                                                   1119328260000119HIDERALDO L TEIXEIRA TRANSPOR HIDERALDO LUIZ TEIXERUA ANTONIO STOLF110                              JARDIM ITAPUA       13402060PIRACICABA          SP001934221219                                                            20150611511        1               119328260000119                  *
10119328260000119000000000000000000000000000000000000HIDERALDO L TEIXEIRA TRANSPOR           RUA ANTONIO STOLF110                              JARDIM ITAPUA       13402060PIRACICABA          SP001934221219s4930202a0002612    2003     000000000000000000000000000000000000000000000000000000000000                000000000000000000000000000000000000000000000    *
12119328260000119000000000000000000000000000000000000000000000000000000000000000000 000000000000000000000000000000                                000000000000000            000000000000000000000000000000000000000000000000000000000000000000000000000000000000000000000000000000000000000000000000000000000000000000000000000000000000000000000000000000000000      *
30119328260000119               123835863412811201311HIDERALDO LUIZ TEIXEIRA                                                                                      01210000000000080000000000000000000    000000000000000000000000000000000000000000000000000000000000                                                                                                  *
90999999999999999999999999999999999999999999999999999                                                                                                                                                                                                                                                                                                                  *
