00                                                   1105982318000139AVLIS AR CONDICIONADO LTDA ME AILTON JOSE DA SILVARUA MARECHAL DEODORO DA FONSECA 2287              PQ INDUSTRIAL       15025070SAO JOSE DO RIO PRETSP001733536560                                                            20160811511        1               105982318000139                  *
10105982318000139000000000000000000000000000000000000AVLIS AR CONDICIONADO LTDA ME           RUA MARECHAL DEODORO DA FONSECA 2287              PQ INDUSTRIAL       15025070SAO JOSE DO RIO PRETSP001733536560s4753900a0002515    2003     000000000000000000000000000000000000000000000000000000000000                000000000000000000000000000000000000000000000    *
12105982318000139000000000000000000000000000000000000000000000000000000000000000000 000000000000000000000000000000                                000000000000000            000000000000000000000000000000000000000000000000000000000000000000000000000000000000000000000000000000000000000000000000000000000000000000000000000000000000000000000000000000000000      *
30105982318000139               108103682740511200311AILTON JOSE DA SILVA                                                                                         01210000000000090000000000000000000    000000000000000000000000000000000000000000000000000000000000                                                                                                  *
90999999999999999999999999999999999999999999999999999                                                                                                                                                                                                                                                                                                                  *
