00                                                   1104693505000130RS TRANSFER VIAGENS LTDA ME   SANDRA REGINA MESSIAAVENIDA SAO JOAO 323                              VILA ADYANNA        12242840SAO JOSE DOS CAMPOS SP001239450931                                                            20170411511        1               104693505000130                  *
10104693505000130000000000000000000000000000000000000RS TRANSFER VIAGENS LTDA ME             AVENIDA SAO JOAO 323                              VILA ADYANNA        12242840SAO JOSE DOS CAMPOS SP001239450931s7911200a0002515    2003     000000000000000000000000000000000000000000000000000000000000                000000000000000000000000000000000000000000000    *
12104693505000130000000000000000000000000000000000000000000000000000000000000000000 000000000000000000000000000000                                000000000000000            000000000000000000000000000000000000000000000000000000000000000000000000000000000000000000000000000000000000000000000000000000000000000000000000000000000000000000000000000000000000      *
30104693505000130               111888817570111201311NELSON RODOLFO MODESTO DA FONSECA                                                                            01231000000000093700000000000000000    000000000000000000000000000000000000000000000000000000000000                                                                                                  *
90999999999999999999999999999999999999999999999999999                                                                                                                                                                                                                                                                                                                  *
