00                                                   1118345154000180J G OLIVEIRA REVESTIMENTOS ME JEFERSON G OLIVEIRA JOSE CAMPI 195                                    INDEPENDENCIA       09860090SAO BERNARDO DO CAMPSP001143307044                                                            20150311511        1               118345154000180                  *
10118345154000180000000000000000000000000000000000000J G OLIVEIRA REVESTIMENTOS ME           JOSE CAMPI 195                                    INDEPENDENCIA       09860090SAO BERNARDO DO CAMPSP001143307044s4330405a0002507    2003     000000000000000000000000000000000000000000000000000000000000                000000000000000000000000000000000000000000000    *
12118345154000180000000000000000000000000000000000000000000000000000000000000000000 000000000000000000000000000000                                000000000000000            000000000000000000000000000000000000000000000000000000000000000000000000000000000000000000000000000000000000000000000000000000000000000000000000000000000000000000000000000000000000      *
30118345154000180               267575160530106201311JEFERSON G OLIVEIRA                                                                                          01210000000000466375000000000000000    000000000000000000000000000000000000000000000000000000000000                                                                                                  *
90999999999999999999999999999999999999999999999999999                                                                                                                                                                                                                                                                                                                  *
