00                                                   1107294479000165PEDRO FERNANDO QUEZADA DUARTE PEDRO FERNANDO QUEZAAVPROFESSOR FRANCISCO MORATO 2203 CJ 24B1         BUTANTA             05513300SAO PAULO           SP001137222398                                                            20170411511        1               107294479000165                  *
10107294479000165000000000000000000000000000000000000PEDRO FERNANDO QUEZADA DUARTE           AVPROFESSOR FRANCISCO MORATO 2203 CJ 24B1         BUTANTA             05513300SAO PAULO           SP001137222398s6311900a0002515    2003     000000000000000000000000000000000000000000000000000000000000                000000000000000000000000000000000000000000000    *
12107294479000165000000000000000000000000000000000000000000000000000000000000000000 000000000000000000000000000000                                000000000000000            000000000000000000000000000000000000000000000000000000000000000000000000000000000000000000000000000000000000000000000000000000000000000000000000000000000000000000000000000000000000      *
30107294479000165               125198208631503201311PEDRO FERNANDO QUEZADA DUARTE                                                                                01210000000000093700000000000000000    000000000000000000000000000000000000000000000000000000000000                                                                                                  *
90999999999999999999999999999999999999999999999999999                                                                                                                                                                                                                                                                                                                  *
