00                                                   1118457359000158RAFAELA SPRECKELSEN CASAGRANDERAFAELA SPRECKELSEN RUA MOTA PAIS 228 AP 12ART                        VILA IPOJUCA        05054000SAO PAULO           SP011989951818                                                            20161011511        1               118457359000158                  *
10118457359000158000000000000000000000000000000000000RAFAELA SPRECKELSEN CASAGRANDE ME       RUA MOTA PAIS 228 AP 12ART                        VILA IPOJUCA        05054000SAO PAULO           SP011989951818s7410202a000156600002100     000000000000000000000000000000000000000000000000000000000000                000000000000000000000000000000000000000000000    *
12118457359000158000000000000000000000000000000000000000000000000000000000000000000 000000000000000000000000000000                                000000000000000            000000000000000000000000000000000000000000000000000000000000000000000000000000000000000000000000000000000000000000000000000000000000000000000000000000000000000000000000000000000000      *
30118457359000158               130938656960104201311RAFAELA SPRECKELSEN CASAGRANDE                                                                               07410000000000090000000000000000000    000000000000000000000000000000000000000000000000000000000000                                                                                                  *
90999999999999999999999999999999999999999999999999999                                                                                                                                                                                                                                                                                                                  *
