00                                                   1114224328000104ALEXANDRE LUIS FERREIRA ME    ALEXANDRE LUIS FERRERUA ANTONIO ROSSI 164                             JARDIM ROSSI        13486138LIMEIRA             SP001921134933                                                            20170511511        1               114224328000104                  *
10114224328000104000000000000000000000000000000000000ALEXANDRE LUIS FERREIRA ME              RUA ANTONIO ROSSI 164                             JARDIM ROSSI        13486138LIMEIRA             SP001921134933s9511800a0002515    2003     000000000000000000000000000000000000000000000000000000000000                000000000000000000000000000000000000000000000    *
12114224328000104000000000000000000000000000000000000000000000000000000000000000000 000000000000000000000000000000                                000000000000000            000000000000000000000000000000000000000000000000000000000000000000000000000000000000000000000000000000000000000000000000000000000000000000000000000000000000000000000000000000000000      *
30114224328000104               122116310710408201111ALEXANDRE LUIS FERREIRA                                                                                      01210000000000553131000000000000000    000000000000000000000000000000000000000000000000000000000000                                                                                                  *
90999999999999999999999999999999999999999999999999999                                                                                                                                                                                                                                                                                                                  *
