00                                                   1116103289000104JULIO CESAR MORENO DE BRITO MEJULIO CESAR MORENO DRUA JAIME FIGUEIREDO 2383 PARTE                   PATRONATO           24435260SAO GONCALO         RJ002138574001                                                            20151211511        1               116103289000104                  *
10116103289000104000000000000000000000000000000000000JULIO CESAR MORENO DE BRITO ME          RUA JAIME FIGUEIREDO 2383 PARTE                   PATRONATO           24435260SAO GONCALO         RJ002138574001s9602501a0002515    2003     000000000000000000000000000000000000000000000000000000000000                000000000000000000000000000000000000000000000    *
12116103289000104000000000000000000000000000000000000000000000000000000000000000000 000000000000000000000000000000                                000000000000000            000000000000000000000000000000000000000000000000000000000000000000000000000000000000000000000000000000000000000000000000000000000000000000000000000000000000000000000000000000000000      *
30116103289000104               120627711520607201211JULIO CESAR MORENO DE BRITO                                                                                  01210000000000200000000000000000000    000000000000000000000000000000000000000000000000000000000000                                                                                                  *
90999999999999999999999999999999999999999999999999999                                                                                                                                                                                                                                                                                                                  *
