00                                                   1109156172000123TKBPRO COMUNICACAO LTDAME     FABIO CIDRAO COSTA  RUA AMADOR DE BARROS JUNIOR 301                   FREGUESIA DO O      02967110SAO PAULO           SP001125335765                                                            20160311511        1               109156172000123                  *
10109156172000123000000000000000000000000000000000000TKBPRO COMUNICACAO LTDAME               RUA AMADOR DE BARROS JUNIOR 301                   FREGUESIA DO O      02967110SAO PAULO           SP001125335765s5911199a0002566    2003     000000000000000000000000000000000000000000000000000000000000                000000000000000000000000000000000000000000000    *
12109156172000123000000000000000000000000000000000000000000000000000000000000000000 000000000000000000000000000000                                000000000000000            000000000000000000000000000000000000000000000000000000000000000000000000000000000000000000000000000000000000000000000000000000000000000000000000000000000000000000000000000000000000      *
30109156172000123               128096844070106201511DAYANNE CALMINATTI COSTA                                                                                     02521000000000088000000000000000000    000000000000000000000000000000000000000000000000000000000000                                                                                                  *
90999999999999999999999999999999999999999999999999999                                                                                                                                                                                                                                                                                                                  *
