00                                                   1109042038000100MARLON ANDREI DE CARVALHO ME  MARLON ANDREI DE CARRUA JAPURA 501                                    ALTO DO IPIRANGA    14055100RIBEIRAO PRETO      SP001630232387                                                            20140511511        1               109042038000100                  *
10109042038000100000000000000000000000000000000000000MARLON ANDREI DE CARVALHO ME            RUA JAPURA 501                                    ALTO DO IPIRANGA    14055100RIBEIRAO PRETO      SP001630232387s6201500a0002515    2003     000000000000000000000000000000000000000000000000000000000000                000000000000000000000000000000000000000000000    *
12109042038000100000000000000000000000000000000000000000000000000000000000000000000 000000000000000000000000000000                                000000000000000            000000000000000000000000000000000000000000000000000000000000000000000000000000000000000000000000000000000000000000000000000000000000000000000000000000000000000000000000000000000000      *
30109042038000100               127893491600608200711MARLON ANDREI DE CARVALHO                                                                                    01210000000000072400000000000000000    000000000000000000000000000000000000000000000000000000000000                                                                                                  *
90999999999999999999999999999999999999999999999999999                                                                                                                                                                                                                                                                                                                  *
