00                                                   1119224174000166RENAN HENRIQUE SANCHES MELHADORENAN HENRIQUE SANCHR AFONSO CELSO 1043 AP 63                         VILA MARINA         04119061SAO PAULO           SP011999696113                                                            20170411511        1               119224174000166                  *
10119224174000166000000000000000000000000000000000000RENAN HENRIQUE SANCHES MELHADO INFORMATIR AFONSO CELSO 1043 AP 63                         VILA MARINA         04119061SAO PAULO           SP011999696113s9511800a0002515    2003     000000000000000000000000000000000000000000000000000000000000                000000000000000000000000000000000000000000000    *
12119224174000166000000000000000000000000000000000000000000000000000000000000000000 000000000000000000000000000000                                000000000000000            000000000000000000000000000000000000000000000000000000000000000000000000000000000000000000000000000000000000000000000000000000000000000000000000000000000000000000000000000000000000      *
30119224174000166               119867628950102201411RENAN HENRIQUE SANCHES MELHADO                                                                               02124000000000093700000000000000000    000000000000000000000000000000000000000000000000000000000000                                                                                                  *
90999999999999999999999999999999999999999999999999999                                                                                                                                                                                                                                                                                                                  *
