00                                                   1113069146000135THYSOFT TECNOLOGIA MARKETING LTHIAGO PEREIRA MACIERUA PAULO GUIMARAES 84                            JARDIM MONTE AZUL   05836310SAO PAULO           SP001137156902                                                            20141011511        1               113069146000135                  *
10113069146000135000000000000000000000000000000000000THYSOFT TECNOLOGIA MARKETING LTDA ME    RUA PAULO GUIMARAES 84                            JARDIM MONTE AZUL   05836310SAO PAULO           SP001137156902s1822999a0002507    2003     000000000000000000000000000000000000000000000000000000000000                000000000000000000000000000000000000000000000    *
12113069146000135000000000000000000000000000000000000000000000000000000000000000000 000000000000000000000000000000                                000000000000000            000000000000000000000000000000000000000000000000000000000000000000000000000000000000000000000000000000000000000000000000000000000000000000000000000000000000000000000000000000000000      *
30113069146000135               126501998162312201011THIAGO PEREIRA MACIEL                                                                                        01210000000000072400000000000000000    000000000000000000000000000000000000000000000000000000000000                                                                                                  *
90999999999999999999999999999999999999999999999999999                                                                                                                                                                                                                                                                                                                  *
