00                                                   1122233032000170ASSEVIP CORRETORA DE SEGUROS LISMAEL MARTINS DA SIRUA OURO FINO 283 AP403                           IRAJA               21371230RIO DE JANEIRO      RJ002131853227                                                            20170411511        1               122233032000170                  *
10122233032000170000000000000000000000000000000000000ASSEVIP CORRETORA DE SEGUROS LTDA ME    RUA OURO FINO 283 AP403                           IRAJA               21371230RIO DE JANEIRO      RJ002131853227s6622300a0002515    2003     000000000000000000000000000000000000000000000000000000000000                000000000000000000000000000000000000000000000    *
12122233032000170000000000000000000000000000000000000000000000000000000000000000000 000000000000000000000000000000                                000000000000000            000000000000000000000000000000000000000000000000000000000000000000000000000000000000000000000000000000000000000000000000000000000000000000000000000000000000000000000000000000000000      *
30122233032000170               108518437671004201511MARIA APARECIDA TAVARES MARTINS                                                                              01231000000000100000000000000000000    000000000000000000000000000000000000000000000000000000000000                                                                                                  *
30122233032000170               113896848351004201511ISMAEL MARTINS DA SILVA                                                                                      01210000000000120000000000000000000    000000000000000000000000000000000000000000000000000000000000                                                                                                  *
90999999999999999999999999999999999999999999999999999                                                                                                                                                                                                                                                                                                                  *
