00                                                   1121010191000142NFESISTEMAS SOFTWARES E DOCUMEMARIA NEUSA SANTIAGOR PROFESSOR ROBERVAL FROES                        ESPLANADA           12242460SAO JOSE DOS CAMPOS SP001239313262                                                            20141011511        1               121010191000142                  *
10121010191000142000000000000000000000000000000000000NFESISTEMAS SOFTWARES E DOCUMENTOS ELETRR PROFESSOR ROBERVAL FROES                        ESPLANADA           12242460SAO JOSE DOS CAMPOS SP001239313262s6202300a0002507    2003     000000000000000000000000000000000000000000000000000000000000                000000000000000000000000000000000000000000000    *
12121010191000142000000000000000000000000000000000000000000000000000000000000000000 000000000000000000000000000000                                000000000000000            000000000000000000000000000000000000000000000000000000000000000000000000000000000000000000000000000000000000000000000000000000000000000000000000000000000000000000000000000000000000      *
30121010191000142               123641611950909201411MARIA NEUSA SANTIAGO                                                                                         01210000000000080000000000000000000    000000000000000000000000000000000000000000000000000000000000                                                                                                  *
90999999999999999999999999999999999999999999999999999                                                                                                                                                                                                                                                                                                                  *
