00                                                   1107695969000173TONI JET COM VAREJISTA PECAS PANTONIO CARLOS KOBASRUA CRISTINA PISAN 18                             ITAQUERA            08253160SAO PAULO           SP001125214026                                                            20140711511        1               107695969000173                  *
10107695969000173000000000000000000000000000000000000TONI JET COM VAREJISTA PECAS P          RUA CRISTINA PISAN 18                             ITAQUERA            08253160SAO PAULO           SP001125214026s4530703a0002515    2003     000000000000000000000000000000000000000000000000000000000000                000000000000000000000000000000000000000000000    *
12107695969000173000000000000000000000000000000000000000000000000000000000000000000 000000000000000000000000000000                                000000000000000            000000000000000000000000000000000000000000000000000000000000000000000000000000000000000000000000000000000000000000000000000000000000000000000000000000000000000000000000000000000000      *
30107695969000173               122265844060808200511ANTONIO CARLOS KOBASHIGAWA                                                                                   01210000000000072400000000000000000    000000000000000000000000000000000000000000000000000000000000                                                                                                  *
90999999999999999999999999999999999999999999999999999                                                                                                                                                                                                                                                                                                                  *
