00                                                   1114008532000180VIRGILIO TEIXEIRA MACHADO ME  VIRGILIO T MACHADO  RUA BELO HORIZONTE 64 SL 104 ED BARRA MASTER      BARRA               40140380SALVADOR            BA007181869220                                                            20140211511        1               114008532000180                  *
10114008532000180000000000000000000000000000000000000VIRGILIO TEIXEIRA MACHADO ME            RUA BELO HORIZONTE 64 SL 104 ED BARRA MASTER      BARRA               40140380SALVADOR            BA007181869220s5911102a0002566    2003     000000000000000000000000000000000000000000000000000000000000                000000000000000000000000000000000000000000000    *
12114008532000180000000000000000000000000000000000000000000000000000000000000000000 000000000000000000000000000000                                000000000000000            000000000000000000000000000000000000000000000000000000000000000000000000000000000000000000000000000000000000000000000000000000000000000000000000000000000000000000000000000000000000      *
30114008532000180               119737032161407201111VIRGILIO T MACHADO                                                                                           01210000000000072400000000000000000    000000000000000000000000000000000000000000000000000000000000                                                                                                  *
90999999999999999999999999999999999999999999999999999                                                                                                                                                                                                                                                                                                                  *
