00                                                   1112958645000110VELHA MACACA MANCA SERVICOS E RUIZA DE QUEIROZ FERRUA DA PASSAGEM 83 405                            BOTAFOGO            22290030RIO DE JANEIRO      RJ002131735105                                                            20150111511        1               112958645000110                  *
10112958645000110000000000000000000000000000000000000VELHA MACACA MANCA SERVICOS E CARACTERIZRUA DA PASSAGEM 83 405                            BOTAFOGO            22290030RIO DE JANEIRO      RJ002131735105s4781400a0002515    2003     000000000000000000000000000000000000000000000000000000000000                000000000000000000000000000000000000000000000    *
12112958645000110000000000000000000000000000000000000000000000000000000000000000000 000000000000000000000000000000                                000000000000000            000000000000000000000000000000000000000000000000000000000000000000000000000000000000000000000000000000000000000000000000000000000000000000000000000000000000000000000000000000000000      *
30112958645000110               128897905430312201011RUIZA DE QUEIROZ FERREIRA                                                                                    01210000000000078800000000000000000    000000000000000000000000000000000000000000000000000000000000                                                                                                  *
30112958645000110               130763215430312201011RODRIGO SOUTO CHAVES                                                                                         02622000000000078800000000000000000    000000000000000000000000000000000000000000000000000000000000                                                                                                  *
90999999999999999999999999999999999999999999999999999                                                                                                                                                                                                                                                                                                                  *
