00                                                   1118124053000180FELIPE VIEIRA PACHECO EDUCAC  FELIPE VIEIRA PACHECRUA LUIS MAZZAROLO 200 AP 21                      VILA CLEMENTINO     04024040SAO PAULO           SP001125283480                                                            20140211511        1               118124053000180                  *
10118124053000180000000000000000000000000000000000000FELIPE VIEIRA PACHECO EDUCAC            RUA LUIS MAZZAROLO 200 AP 21                      VILA CLEMENTINO     04024040SAO PAULO           SP001125283480s8599603a0002515    2003     000000000000000000000000000000000000000000000000000000000000                000000000000000000000000000000000000000000000    *
12118124053000180000000000000000000000000000000000000000000000000000000000000000000 000000000000000000000000000000                                000000000000000            000000000000000000000000000000000000000000000000000000000000000000000000000000000000000000000000000000000000000000000000000000000000000000000000000000000000000000000000000000000000      *
30118124053000180               140819947291505201311FELIPE VIEIRA PACHECO                                                                                        01210000000000072400000000000000000  05000000000000000000000000000000000000000000000000000000000000                                                                                                  *
90999999999999999999999999999999999999999999999999999                                                                                                                                                                                                                                                                                                                  *
