00                                                   1119186569000111JOSE MACEDO NETO 04142059552  JOSE MACEDO NETO    RUA LIRIO DO CAMPO                                PARIPE              40800866SALVADOR            BA007187467328                                                            20151011511        1               119186569000111                  *
10119186569000111000000000000000000000000000000000000JOSE MACEDO NETO 04142059552            RUA LIRIO DO CAMPO                                PARIPE              40800866SALVADOR            BA007187467328s7319002a0002515    2003     000000000000000000000000000000000000000000000000000000000000                000000000000000000000000000000000000000000000    *
12119186569000111000000000000000000000000000000000000000000000000000000000000000000 000000000000000000000000000000                                000000000000000            000000000000000000000000000000000000000000000000000000000000000000000000000000000000000000000000000000000000000000000000000000000000000000000000000000000000000000000000000000000000      *
30119186569000111               129511450570311201311JOSE MACEDO NETO                                                                                             01231000000000080000000000000000000    000000000000000000000000000000000000000000000000000000000000                                                                                                  *
90999999999999999999999999999999999999999999999999999                                                                                                                                                                                                                                                                                                                  *
