00                                                   1107726825000137CARLOS AUGUSTO RONDINI INFORMACARLOS AUGUSTO RONDIRUA GUAIANASES 1003 AP 81                         CAMPOS ELISEOS      01204001SAO PAULO           SP011989732954                                                            20150111511        1               107726825000137                  *
10107726825000137000000000000000000000000000000000000CARLOS AUGUSTO RONDINI INFORMA          RUA GUAIANASES 1003 AP 81                         CAMPOS ELISEOS      01204001SAO PAULO           SP011989732954s6311900a0002515    2003     000000000000000000000000000000000000000000000000000000000000                000000000000000000000000000000000000000000000    *
12107726825000137000000000000000000000000000000000000000000000000000000000000000000 000000000000000000000000000000                                000000000000000            000000000000000000000000000000000000000000000000000000000000000000000000000000000000000000000000000000000000000000000000000000000000000000000000000000000000000000000000000000000000      *
30107726825000137               128993856921801200511CARLOS AUGUSTO RONDINI                                                                                       01210000000000078800000000000000000    000000000000000000000000000000000000000000000000000000000000                                                                                                  *
90999999999999999999999999999999999999999999999999999                                                                                                                                                                                                                                                                                                                  *
