00                                                   1115079020000177EDNA FERREIRA NASCIMENTO GOMESEDNA FERREIRA NASCIMRUA BRAS PIRES 254                                JARDIM TIETE        03943090SAO PAULO           SP000115987474                                                            20150311511        1               115079020000177                  *
10115079020000177000000000000000000000000000000000000EDNA FERREIRA NASCIMENTO GOMES SANTOS   RUA BRAS PIRES 254                                JARDIM TIETE        03943090SAO PAULO           SP000115987474s6920601a0002515    2003     000000000000000000000000000000000000000000000000000000000000                000000000000000000000000000000000000000000000    *
12115079020000177000000000000000000000000000000000000000000000000000000000000000000 000000000000000000000000000000                                000000000000000            000000000000000000000000000000000000000000000000000000000000000000000000000000000000000000000000000000000000000000000000000000000000000000000000000000000000000000000000000000000000      *
30115079020000177               125148856850103201511EDNA FERREIRA NASCIMENTO                                                                                     01210000000000470000000000000000000    000000000000000000000000000000000000000000000000000000000000                                                                                                  *
90999999999999999999999999999999999999999999999999999                                                                                                                                                                                                                                                                                                                  *
