00                                                   1112165071000123ADENILSON GREGORIO ME         ADENILSON GREGORIO  RUA MONTENEGRO 155 CENTRO                         CENTRO              99850000PAIM FILHO          RS004984275104                                                            20150711511        1               112165071000123                  *
10112165071000123000000000000000000000000000000000000ADENILSON GREGORIO ME                   RUA MONTENEGRO 155 CENTRO                         CENTRO              99850000PAIM FILHO          RS004984275104s4313400a0002507    2003     000000000000000000000000000000000000000000000000000000000000                000000000000000000000000000000000000000000000    *
12112165071000123000000000000000000000000000000000000000000000000000000000000000000 000000000000000000000000000000                                000000000000000            000000000000000000000000000000000000000000000000000000000000000000000000000000000000000000000000000000000000000000000000000000000000000000000000000000000000000000000000000000000000      *
30112165071000123               201037295203007201411ADENILSON GREGORIO                                                                                           07151000000000110000000000000000000    000000000000000000000000000000000000000000000000000000000000                                                                                                  *
90999999999999999999999999999999999999999999999999999                                                                                                                                                                                                                                                                                                                  *
