00                                                   1115918133000119LR SAUDE OCUPACIONAL LTDA     LUCIANA MELO DE LIMARUA CLAUDIO DE ALBUQUERQUE LIMA 533               SAO LUIZ            57301220ARAPIRACA           AL008296065661                                                            20170411511        1               115918133000119                  *
10115918133000119000000000000000000000000000000000000LR SAUDE OCUPACIONAL LTDA               RUA CLAUDIO DE ALBUQUERQUE LIMA 533               SAO LUIZ            57301220ARAPIRACA           AL008296065661s8650006a0002515    2003     000000000000000000000000000000000000000000000000000000000000                000000000000000000000000000000000000000000000    *
12115918133000119000000000000000000000000000000000000000000000000000000000000000000 000000000000000000000000000000                                000000000000000            000000000000000000000000000000000000000000000000000000000000000000000000000000000000000000000000000000000000000000000000000000000000000000000000000000000000000000000000000000000000      *
30115918133000119               128826140140507201211LUCIANA MELO DE LIMA                                                                                         01210000000000350000000000000000000  05000000000038500000000000000000000000000000000000000000000000                                                                                                  *
90999999999999999999999999999999999999999999999999999                                                                                                                                                                                                                                                                                                                  *
