00                                                   1105987215000161G GALI DIAS DE OLIVEIRA ME    GILSON GALI DIAS DE RUA MILTON DOTTO PENHA 38                         JD ABAETE           18081293SOROCABA            SP001533343575                                                            20170411511        1               105987215000161                  *
10105987215000161000000000000000000000000000000000000G GALI DIAS DE OLIVEIRA ME              RUA MILTON DOTTO PENHA 38                         JD ABAETE           18081293SOROCABA            SP001533343575s9511800a0002515    2003     000000000000000000000000000000000000000000000000000000000000                000000000000000000000000000000000000000000000    *
12105987215000161000000000000000000000000000000000000000000000000000000000000000000 000000000000000000000000000000                                000000000000000            000000000000000000000000000000000000000000000000000000000000000000000000000000000000000000000000000000000000000000000000000000000000000000000000000000000000000000000000000000000000      *
30105987215000161               107101684190910200311GILSON GALI DIAS DE OLIVEIRA                                                                                 01210000000000093700000000000000000    000000000000000000000000000000000000000000000000000000000000                                                                                                  *
90999999999999999999999999999999999999999999999999999                                                                                                                                                                                                                                                                                                                  *
