00                                                   1117475466000146ERICKSON ROBERTO CANDIDO ME   ERICKSON ROBERTO CANAV CARLOS BOTELHO 1260                            SANTA ROSA          13460000NOVA ODESSA         SP001935189428                                                            20150611511        1               117475466000146                  *
10117475466000146000000000000000000000000000000000000ERICKSON ROBERTO CANDIDO ME             AV CARLOS BOTELHO 1260                            SANTA ROSA          13460000NOVA ODESSA         SP001935189428s4789008a0002515    2003     000000000000000000000000000000000000000000000000000000000000                000000000000000000000000000000000000000000000    *
12117475466000146000000000000000000000000000000000000000000000000000000000000000000 000000000000000000000000000000                                000000000000000            000000000000000000000000000000000000000000000000000000000000000000000000000000000000000000000000000000000000000000000000000000000000000000000000000000000000000000000000000000000000      *
30117475466000146               128344472271701201311ERICKSON ROBERTO CANDIDO                                                                                     01210000000000078800000000000000000    000000000000000000000000000000000000000000000000000000000000                                                                                                  *
90999999999999999999999999999999999999999999999999999                                                                                                                                                                                                                                                                                                                  *
