00                                                   1114845646000184CLAUDIO ARAUJO DE OLIVEIRA 124CLAUDIO ARAUJO DE OLRUA INDIANA 230                                   CIDADE ARISTON ESTEL06395090CARAPICUIBA         SP001135229261                                                            20160111511        1               114845646000184                  *
10114845646000184000000000000000000000000000000000000CLAUDIO ARAUJO DE OLIVEIRA 12401154825  RUA INDIANA 230                                   CIDADE ARISTON ESTEL06395090CARAPICUIBA         SP001135229261s9511800a0002515    2003     000000000000000000000000000000000000000000000000000000000000                000000000000000000000000000000000000000000000    *
12114845646000184000000000000000000000000000000000000000000000000000000000000000000 000000000000000000000000000000                                000000000000000            000000000000000000000000000000000000000000000000000000000000000000000000000000000000000000000000000000000000000000000000000000000000000000000000000000000000000000000000000000000000      *
30114845646000184               122265479930801201211CLAUDIO ARAUJO DE OLIVEIRA                                                                                   01210000000000100000000000000000000    000000000000000000000000000000000000000000000000000000000000                                                                                                  *
90999999999999999999999999999999999999999999999999999                                                                                                                                                                                                                                                                                                                  *
