00                                                   1121902115000141ARVITA SERVICOS DE LIMPEZA LTDWELLES FERREIRA DE AAV ENGENHEIRO LUIZ CARLOS BERRINI 1140            CIDADE MONCOES      04571000SAO PAULO           SP011979805797                                                            20150411511        1               121902115000141                  *
10121902115000141000000000000000000000000000000000000ARVITA SERVICOS DE LIMPEZA LTDA         AV ENGENHEIRO LUIZ CARLOS BERRINI 1140            CIDADE MONCOES      04571000SAO PAULO           SP011979805797s8129000a300151500002100     000000000000000000000000000000000000000000000000000000000000                000000000000000000000000000000000000000000000    *
12121902115000141000000000000000000000000000000000000000000000000000000000000000000 000000000000000000000000000000                                000000000000000            000000000000000000000000000000000000000000000000000000000000000000000000000000000000000000000000000000000000000000000000000000000000000000000000000000000000000000000000000000000000      *
30121902115000141               12453732333        13EDSON ALVES DA SILVA                                                                                         05143000000000018000000000000000000    000000000000000000000000000000000000000000000000000000000000                                                                                                  *
90999999999999999999999999999999999999999999999999999                                                                                                                                                                                                                                                                                                                  *
