00                                                   1119368759000150FOSCARINI SOLUCOES ENERGETICASCRISTIANO VIERNO FOSRUA DO ESQUALO N 72 QD 40 LT 18                   JD ATLANTICO        74343310GOIANIA             GO006234324827                                                            20140611511        1               119368759000150                  *
10119368759000150000000000000000000000000000000000000FOSCARINI SOLUCOES ENERGETICAS          RUA DO ESQUALO N 72 QD 40 LT 18                   JD ATLANTICO        74343310GOIANIA             GO006234324827s4321500a0002507    2003     000000000000000000000000000000000000000000000000000000000000                000000000000000000000000000000000000000000000    *
12119368759000150000000000000000000000000000000000000000000000000000000000000000000 000000000000000000000000000000                                000000000000000            000000000000000000000000000000000000000000000000000000000000000000000000000000000000000000000000000000000000000000000000000000000000000000000000000000000000000000000000000000000000      *
30119368759000150               127386621200512201311CRISTIANO VIERNO FOSCARINI                                                                                   03131000000000072400000000000000000    000000000000000000000000000000000000000000000000000000000000                                                                                                  *
30119368759000150               128011131250512201311ANDREIA APARECIDA DA SILVA FOSCARINI                                                                         02521000000000072400000000000000000    000000000000000000000000000000000000000000000000000000000000                                                                                                  *
90999999999999999999999999999999999999999999999999999                                                                                                                                                                                                                                                                                                                  *
