00                                                   1110833310000140EXACTLY CONSULTING INFORMATICAADRIANA MARIA MARQUERUA CABRALIA 95                                   VILA CARRAO         03424020SAO PAULO           SP001132941890                                                            20150111511        1               110833310000140                  *
10110833310000140000000000000000000000000000000000000EXACTLY CONSULTING INFORMATICA          RUA CABRALIA 95                                   VILA CARRAO         03424020SAO PAULO           SP001132941890s6209100a0002515    2003     000000000000000000000000000000000000000000000000000000000000                000000000000000000000000000000000000000000000    *
12110833310000140000000000000000000000000000000000000000000000000000000000000000000 000000000000000000000000000000                                000000000000000            000000000000000000000000000000000000000000000000000000000000000000000000000000000000000000000000000000000000000000000000000000000000000000000000000000000000000000000000000000000000      *
30110833310000140               113882730090605200911ADRIANA MARIA MARQUES                                                                                        01210000000000078800000000000000000    000000000000000000000000000000000000000000000000000000000000                                                                                                  *
90999999999999999999999999999999999999999999999999999                                                                                                                                                                                                                                                                                                                  *
