00                                                   1121550719000176C G SANTOS PRESTACAO DE SERVICCARLOS GOMES SANTOS RUA BRAS PIRES 254                                JARDIM TIETE        03943090SAO PAULO           SP011996416008                                                            20150211511        1               121550719000176                  *
10121550719000176000000000000000000000000000000000000C G SANTOS PRESTACAO DE SERVICOS ME     RUA BRAS PIRES 254                                JARDIM TIETE        03943090SAO PAULO           SP011996416008s4330404a0002507    2003     000000000000000000000000000000000000000000000000000000000000                000000000000000000000000000000000000000000000    *
12121550719000176000000000000000000000000000000000000000000000000000000000000000000 000000000000000000000000000000                                000000000000000            000000000000000000000000000000000000000000000000000000000000000000000000000000000000000000000000000000000000000000000000000000000000000000000000000000000000000000000000000000000000      *
30121550719000176               124874945671112201411CARLOS GOMES SANTOS                                                                                          01210000000000078800000000000000000    000000000000000000000000000000000000000000000000000000000000                                                                                                  *
90999999999999999999999999999999999999999999999999999                                                                                                                                                                                                                                                                                                                  *
