00                                                   1112657016000150GW COMERCIAL IMPORTADORA E EXPGUILHERME R WARNECKERUA LUCIO CORREA DE MENDONCA                      FAZENDA             88302520ITAJAI              SC004733446080                                                            20150811511        1               112657016000150                  *
10112657016000150000000000000000000000000000000000000GW COMERCIAL IMPORTADORA E EXPORTADORA LRUA LUCIO CORREA DE MENDONCA                      FAZENDA             88302520ITAJAI              SC004733446080s4530701a0002515    2003     000000000000000000000000000000000000000000000000000000000000                000000000000000000000000000000000000000000000    *
12112657016000150000000000000000000000000000000000000000000000000000000000000000000 000000000000000000000000000000                                000000000000000            000000000000000000000000000000000000000000000000000000000000000000000000000000000000000000000000000000000000000000000000000000000000000000000000000000000000000000000000000000000000      *
30112657016000150               129875125050110201011GUILHERME R WARNECKE                                                                                         01210000000000078800000000000000000    000000000000000000000000000000000000000000000000000000000000                                                                                                  *
90999999999999999999999999999999999999999999999999999                                                                                                                                                                                                                                                                                                                  *
