00                                                   1110867290000129IEZO PASCOAL MACIEIRA         IEZO PACOAL MACIEIRARUA CERJEIRA N442 PQVIANA                         PARQUE VIANA        06449160BARUERI             SP001141945236                                                            20140511511        1               110867290000129                  *
10110867290000129000000000000000000000000000000000000IEZO PASCOAL MACIEIRA                   RUA CERJEIRA N442 PQVIANA                         PARQUE VIANA        06449160BARUERI             SP001141945236s4520003a0002507    2003     000000000000000000000000000000000000000000000000000000000000                000000000000000000000000000000000000000000000    *
12110867290000129000000000000000000000000000000000000000000000000000000000000000000 000000000000000000000000000000                                000000000000000            000000000000000000000000000000000000000000000000000000000000000000000000000000000000000000000000000000000000000000000000000000000000000000000000000000000000000000000000000000000000      *
30110867290000129               120089973342706200911IEZO PACOAL MACIEIRA                                                                                         01210000000000072400000000000000000    000000000000000000000000000000000000000000000000000000000000                                                                                                  *
90999999999999999999999999999999999999999999999999999                                                                                                                                                                                                                                                                                                                  *
