00                                                   1100182498000150TRANSLANDI TRANSPORTE RODOVIARISMAEL ORLANDI      RUA MANOEL HENRIQUES 163                          JD AUDIR            06433160BARUERI             SP011992602608                                                            20170411511        1               100182498000150                  *
10100182498000150000000000000000000000000000000000000TRANSLANDI TRANSPORTE RODOVIAR          RUA MANOEL HENRIQUES 163                          JD AUDIR            06433160BARUERI             SP011992602608s4930202a0002612    2003     000000000000000000000000000000000000000000000000000000000000                000000000000000000000000000000000000000000000    *
12100182498000150000000000000000000000000000000000000000000000000000000000000000000 000000000000000000000000000000                                000000000000000            000000000000000000000000000000000000000000000000000000000000000000000000000000000000000000000000000000000000000000000000000000000000000000000000000000000000000000000000000000000000      *
30100182498000150               106897056940109201311ISMAEL ORLANDI                                                                                               07825000000000176000000000000000000    000000000000000000000000000000000000000000000000000000000000                                                                                                  *
90999999999999999999999999999999999999999999999999999                                                                                                                                                                                                                                                                                                                  *
