00                                                   1107526987000102AMC PRODUCOES E EVENTOS LTDA  ALEXSANDRO NONATO MORUA EDISTIO PONDE                                 STIEP               41770395SALVADOR            BA007199041279                                                            20150311511        1               107526987000102                  *
10107526987000102000000000000000000000000000000000000AMC PRODUCOES E EVENTOS LTDA            RUA EDISTIO PONDE                                 STIEP               41770395SALVADOR            BA007199041279s9001902a0002566    2003     000000000000000000000000000000000000000000000000000000000000                000000000000000000000000000000000000000000000    *
12107526987000102000000000000000000000000000000000000000000000000000000000000000000 000000000000000000000000000000                                000000000000000            000000000000000000000000000000000000000000000000000000000000000000000000000000000000000000000000000000000000000000000000000000000000000000000000000000000000000000000000000000000000      *
30107526987000102               127286520920808200511ALEXSANDRO NONATO MOREIRA                                                                                    01231000000000078800000000000000000    000000000000000000000000000000000000000000000000000000000000                                                                                                  *
90999999999999999999999999999999999999999999999999999                                                                                                                                                                                                                                                                                                                  *
