00                                                   1113755353000143HOMERO DE FREITAS GUIMARAES RIHOMERO DE FREITAS GURUA GALILEIA N 362                                PARQUE SAO JOAO     32342190CONTAGEM            MG003130461165                                                            20170411511        1               113755353000143                  *
10113755353000143000000000000000000000000000000000000HOMERO DE FREITAS GUIMARAES RI          RUA GALILEIA N 362                                PARQUE SAO JOAO     32342190CONTAGEM            MG003130461165s4662100a0002515    2003     000000000000000000000000000000000000000000000000000000000000                000000000000000000000000000000000000000000000    *
12113755353000143000000000000000000000000000000000000000000000000000000000000000000 000000000000000000000000000000                                000000000000000            000000000000000000000000000000000000000000000000000000000000000000000000000000000000000000000000000000000000000000000000000000000000000000000000000000000000000000000000000000000000      *
30113755353000143               126814560980206201111HOMERO DE FREITAS GUIMARAES RIBEIRO SAMPAIO                                                                  01210000000000093700000000000000000    000000000000000000000000000000000000000000000000000000000000                                                                                                  *
90999999999999999999999999999999999999999999999999999                                                                                                                                                                                                                                                                                                                  *
