00                                                   1171585384000108INATEC REFRIGERACAO           JOSE IGNACIO SALAMANRUA CANUMUM 21                                    JACANA              02277030SAO PAULO           SP001128929174                                                            20150411511        1               171585384000108                  *
10171585384000108000000000000000000000000000000000000INATEC REFRIGERACAO                     RUA CANUMUM 21                                    JACANA              02277030SAO PAULO           SP001128929174s9521500a0002515    2003     000000000000000000000000000000000000000000000000000000000000                000000000000000000000000000000000000000000000    *
12171585384000108000000000000000000000000000000000000000000000000000000000000000000 000000000000000000000000000000                                000000000000000            000000000000000000000000000000000000000000000000000000000000000000000000000000000000000000000000000000000000000000000000000000000000000000000000000000000000000000000000000000000000      *
30171585384000108               122270749402701201511JOSE IGNACIO SALAMANCA ISEA                                                                                  03133000000000078800000000000000000    000000000000000000000000000000000000000000000000000000000000                                                                                                  *
90999999999999999999999999999999999999999999999999999                                                                                                                                                                                                                                                                                                                  *
