00                                                   1116745926000146MIRANDA INSTALACAO DE ELEVADORMILTON MOREIRA DE MIRUA 12 Q14 L2                                     NOSSA SENHORA GRACAS75470000NOVA VENEZA         GO006296183539                                                            20170311511        1               116745926000146                  *
10116745926000146000000000000000000000000000000000000MIRANDA INSTALACAO DE ELEVADOR          RUA 12 Q14 L2                                     NOSSA SENHORA GRACAS75470000NOVA VENEZA         GO006296183539s4329103a0002507    2003     000000000000000000000000000000000000000000000000000000000000                000000000000000000000000000000000000000000000    *
12116745926000146000000000000000000000000000000000000000000000000000000000000000000 000000000000000000000000000000                                000000000000000            000000000000000000000000000000000000000000000000000000000000000000000000000000000000000000000000000000000000000000000000000000000000000000000000000000000000000000000000000000000000      *
30116745926000146               100191281582308201211MILTON MOREIRA DE MIRANDA                                                                                    01231000000000093700000000000000000    000000000000000000000000000000000000000000000000000000000000                                                                                                  *
90999999999999999999999999999999999999999999999999999                                                                                                                                                                                                                                                                                                                  *
