00                                                   1109666655000178EA EVENTOS LTDA               EDUIN BARA CARDOSO  RUA RIO NEGRO 380 C 5                             BAIRRO ALTO         82820220CURITIBA            PR004188097074                                                            20150911511        1               109666655000178                  *
10109666655000178000000000000000000000000000000000000EA EVENTOS LTDA                         RUA RIO NEGRO 380 C 5                             BAIRRO ALTO         82820220CURITIBA            PR004188097074s8230001a0002515    2003     000000000000000000000000000000000000000000000000000000000000                000000000000000000000000000000000000000000000    *
12109666655000178000000000000000000000000000000000000000000000000000000000000000000 000000000000000000000000000000                                000000000000000            000000000000000000000000000000000000000000000000000000000000000000000000000000000000000000000000000000000000000000000000000000000000000000000000000000000000000000000000000000000000      *
30109666655000178               129937345300306200811ANDRESSA HELENA BAHLS PROENCA                                                                                01210000000000078800000000000000000    000000000000000000000000000000000000000000000000000000000000                                                                                                  *
90999999999999999999999999999999999999999999999999999                                                                                                                                                                                                                                                                                                                  *
