00                                                   1114474579000139VANESSA BECK SALOMONE TECNOLOGVANESSA BECK SALOMONRUA TEODORO RICARDO 25                            VILA NOVA PARADA    02883010SAO PAULO           SP011982475114                                                            20170211511        1               114474579000139                  *
10114474579000139000000000000000000000000000000000000VANESSA BECK SALOMONE TECNOLOG          RUA TEODORO RICARDO 25                            VILA NOVA PARADA    02883010SAO PAULO           SP011982475114s6209100a0002515    2003     000000000000000000000000000000000000000000000000000000000000                000000000000000000000000000000000000000000000    *
12114474579000139000000000000000000000000000000000000000000000000000000000000000000 000000000000000000000000000000                                000000000000000            000000000000000000000000000000000000000000000000000000000000000000000000000000000000000000000000000000000000000000000000000000000000000000000000000000000000000000000000000000000000      *
30114474579000139               125542505122109201111VANESSA BECK SALOMONE                                                                                        01210000000000093700000000000000000    000000000000000000000000000000000000000000000000000000000000                                                                                                  *
90999999999999999999999999999999999999999999999999999                                                                                                                                                                                                                                                                                                                  *
