00                                                   1119780591000195JRFERRI SERVICOS DE ESCR ADMINJUAREZ REIS FERRI   RUA ANA MARIA MARTINEZ 420 APTO 14A               ASSUNCAO            09811000SAO BERNARDO DO CAMPSP001143516220                                                            20150611511        1               119780591000195                  *
10119780591000195000000000000000000000000000000000000JRFERRI SERVICOS DE ESCR ADMIN          RUA ANA MARIA MARTINEZ 420 APTO 14A               ASSUNCAO            09811000SAO BERNARDO DO CAMPSP001143516220s8219999a0002515    2003     000000000000000000000000000000000000000000000000000000000000                000000000000000000000000000000000000000000000    *
12119780591000195000000000000000000000000000000000000000000000000000000000000000000 000000000000000000000000000000                                000000000000000            000000000000000000000000000000000000000000000000000000000000000000000000000000000000000000000000000000000000000000000000000000000000000000000000000000000000000000000000000000000000      *
30119780591000195               106582454700103201411JUAREZ REIS FERRI                                                                                            04121000000000100000000000000000000    000000000000000000000000000000000000000000000000000000000000                                                                                                  *
90999999999999999999999999999999999999999999999999999                                                                                                                                                                                                                                                                                                                  *
