00                                                   1117150507000124FERNANDO DAVID LEITE ME       FERNANDO DAVID LEITERUA FAZENDA MONTE ALEGRE 107                      PIRITUBA            05160060SAO PAULO           SP001155116588                                                            20170411511        1               117150507000124                  *
10117150507000124000000000000000000000000000000000000FERNANDO DAVID LEITE ME                 RUA FAZENDA MONTE ALEGRE 107                      PIRITUBA            05160060SAO PAULO           SP001155116588s8211300a0002515    2003     000000000000000000000000000000000000000000000000000000000000                000000000000000000000000000000000000000000000    *
12117150507000124000000000000000000000000000000000000000000000000000000000000000000 000000000000000000000000000000                                000000000000000            000000000000000000000000000000000000000000000000000000000000000000000000000000000000000000000000000000000000000000000000000000000000000000000000000000000000000000000000000000000000      *
30117150507000124               127830118501910201211FERNANDO DAVID LEITE                                                                                         01210000000000093700000000000000000    000000000000000000000000000000000000000000000000000000000000                                                                                                  *
90999999999999999999999999999999999999999999999999999                                                                                                                                                                                                                                                                                                                  *
