00                                                   1122163682000196CINTHIA ALINE DE C S SHIMIZU CCINTHIA ALINE DE CAMAV GIOVANI BATISTIN 105 CASA 16                   JD BORBOREMA        09660007SAO BERNARDO DO CAMPSP001141785494                                                            20170211511        1               122163682000196                  *
10122163682000196000000000000000000000000000000000000CINTHIA ALINE DE C S SHIMIZU CONSULTORIAAV GIOVANI BATISTIN 105 CASA 16                   JD BORBOREMA        09660007SAO BERNARDO DO CAMPSP001141785494s7020400a0002515    2003     000000000000000000000000000000000000000000000000000000000000                000000000000000000000000000000000000000000000    *
12122163682000196000000000000000000000000000000000000000000000000000000000000000000 000000000000000000000000000000                                000000000000000            000000000000000000000000000000000000000000000000000000000000000000000000000000000000000000000000000000000000000000000000000000000000000000000000000000000000000000000000000000000000      *
30122163682000196               126598998103103201511CINTHIA ALINE DE CAMARGO SOARES SHIMIZU                                                                      01210000000000093700000000000000000    000000000000000000000000000000000000000000000000000000000000                                                                                                  *
90999999999999999999999999999999999999999999999999999                                                                                                                                                                                                                                                                                                                  *
