00                                                   1118583524000118R DOS SANTOS DE SOUSA ME      RODRIGO DOS SANTOS DAVENIDA DOUTOR MORAES SALLES                      CENTRO              13010001CAMPINAS            SP019993212728                                                            20141011511        1               118583524000118                  *
10118583524000118000000000000000000000000000000000000R DOS SANTOS DE SOUSA ME                AVENIDA DOUTOR MORAES SALLES                      CENTRO              13010001CAMPINAS            SP019993212728s8599603a0002515    2003     000000000000000000000000000000000000000000000000000000000000                000000000000000000000000000000000000000000000    *
12118583524000118000000000000000000000000000000000000000000000000000000000000000000 000000000000000000000000000000                                000000000000000            000000000000000000000000000000000000000000000000000000000000000000000000000000000000000000000000000000000000000000000000000000000000000000000000000000000000000000000000000000000000      *
30118583524000118               201300067393007201311RODRIGO DOS SANTOS DE SOUSA                                                                                  01414000000000072400000000000000000    000000000000000000000000000000000000000000000000000000000000                                                                                                  *
90999999999999999999999999999999999999999999999999999                                                                                                                                                                                                                                                                                                                  *
