00                                                   1116731311000160FLYSTUDIO PRODUCOES CULTURAIS ANTONIO DAMASIO PESSRUA JOAQUIM MURTINHO 474 201                      SANTA TERESA        20241320RIO DE JANEIRO      RJ002134965838                                                            20170111511        1               116731311000160                  *
10116731311000160000000000000000000000000000000000000FLYSTUDIO PRODUCOES CULTURAIS           RUA JOAQUIM MURTINHO 474 201                      SANTA TERESA        20241320RIO DE JANEIRO      RJ002134965838s7739099a0002515    2003     000000000000000000000000000000000000000000000000000000000000                000000000000000000000000000000000000000000000    *
12116731311000160000000000000000000000000000000000000000000000000000000000000000000 000000000000000000000000000000                                000000000000000            000000000000000000000000000000000000000000000000000000000000000000000000000000000000000000000000000000000000000000000000000000000000000000000000000000000000000000000000000000000000      *
30116731311000160               168770072642108201211ANTONIO DAMASIO PESSOA                                                                                       01210000000000093700000000000000000    000000000000000000000000000000000000000000000000000000000000                                                                                                  *
90999999999999999999999999999999999999999999999999999                                                                                                                                                                                                                                                                                                                  *
