00                                                   1117490724000163ROSSIANO R CASARIN CIA LTDA   ROSSIANO RENATO CASAAV VENANCIO AIRES 2275                            CENTRO              98803000SANTO ANGELO        RS005581277361                                                            20150211511        1               117490724000163                  *
10117490724000163000000000000000000000000000000000000ROSSIANO R CASARIN CIA LTDA             AV VENANCIO AIRES 2275                            CENTRO              98803000SANTO ANGELO        RS005581277361s3314703a0002507    2003     000000000000000000000000000000000000000000000000000000000000                000000000000000000000000000000000000000000000    *
12117490724000163000000000000000000000000000000000000000000000000000000000000000000 000000000000000000000000000000                                000000000000000            000000000000000000000000000000000000000000000000000000000000000000000000000000000000000000000000000000000000000000000000000000000000000000000000000000000000000000000000000000000000      *
30117490724000163               170605617632301201311ROSSIANO RENATO CASARIN                                                                                      01231000000000150000000000000000000  05000000000000000000000000000000000000000000000000000000000000                                                                                                  *
90999999999999999999999999999999999999999999999999999                                                                                                                                                                                                                                                                                                                  *
