00                                                   1121511772000168MARCELO APARECIDO LOPES SERVICMARCELO APARECIDO LOALAMEDA ROCHA AZEVEDO 55                          CONDOMINIO NOVA SAO 06690150ITAPEVI             SP011998213233                                                            20170411511        1               121511772000168                  *
10121511772000168000000000000000000000000000000000000MARCELO APARECIDO LOPES SERVICOS DE INFOALAMEDA ROCHA AZEVEDO 55                          CONDOMINIO NOVA SAO 06690150ITAPEVI             SP011998213233s6209100a0002515    2003     000000000000000000000000000000000000000000000000000000000000                000000000000000000000000000000000000000000000    *
12121511772000168000000000000000000000000000000000000000000000000000000000000000000 000000000000000000000000000000                                000000000000000            000000000000000000000000000000000000000000000000000000000000000000000000000000000000000000000000000000000000000000000000000000000000000000000000000000000000000000000000000000000000      *
30121511772000168               121868407410312201411MARCELO APARECIDO LOPES                                                                                      01210000000000230000000000000000000    000000000000000000000000000000000000000000000000000000000000                                                                                                  *
90999999999999999999999999999999999999999999999999999                                                                                                                                                                                                                                                                                                                  *
