00                                                   1108744701000147ESTUDIO AIDA CASSIANO EDICAO DAIDA MARIA CASSIANO RUA CAROPA 524                                    VILA MADALENA       05447000SAO PAULO           SP001138133197                                                            20170311511        1               108744701000147                  *
10108744701000147000000000000000000000000000000000000ESTUDIO AIDA CASSIANO EDICAO D          RUA CAROPA 524                                    VILA MADALENA       05447000SAO PAULO           SP001138133197s8219999a0002515    2003     000000000000000000000000000000000000000000000000000000000000                000000000000000000000000000000000000000000000    *
12108744701000147000000000000000000000000000000000000000000000000000000000000000000 000000000000000000000000000000                                000000000000000            000000000000000000000000000000000000000000000000000000000000000000000000000000000000000000000000000000000000000000000000000000000000000000000000000000000000000000000000000000000000      *
30108744701000147               180180227342903200711AIDA MARIA CASSIANO                                                                                          01210000000000093700000000000000000    000000000000000000000000000000000000000000000000000000000000                                                                                                  *
90999999999999999999999999999999999999999999999999999                                                                                                                                                                                                                                                                                                                  *
