00                                                   1119940257000151JLABARROSOME                  JOSE LINDONJONSOM ALRUA PRECIOSA 87 QD 4Q                             JORGE TEIXEIRA      69088350MANAUS              AM092994456396                                                            20150411511        1               119940257000151                  *
10119940257000151000000000000000000000000000000000000JLABARROSOME                            RUA PRECIOSA 87 QD 4Q                             JORGE TEIXEIRA      69088350MANAUS              AM092994456396s8299707a0002515    2003     000000000000000000000000000000000000000000000000000000000000                000000000000000000000000000000000000000000000    *
12119940257000151000000000000000000000000000000000000000000000000000000000000000000 000000000000000000000000000000                                000000000000000            000000000000000000000000000000000000000000000000000000000000000000000000000000000000000000000000000000000000000000000000000000000000000000000000000000000000000000000000000000000000      *
30119940257000151               127144290271003201411JOSE LINDONJONSOM ALVES BARROSO                                                                              01210000000000200000000000000000000    000000000000000000000000000000000000000000000000000000000000                                                                                                  *
90999999999999999999999999999999999999999999999999999                                                                                                                                                                                                                                                                                                                  *
