00                                                   1116559803000110A D R BARBOSA                 ALISSON DOS REIS BARR ACRE 98                                         VISTA ALEGRE        32400000IBIRITE             MG003125593936                                                            20161211511        1               116559803000110                  *
10116559803000110000000000000000000000000000000000000A D R BARBOSA                           R ACRE 98                                         VISTA ALEGRE        32400000IBIRITE             MG003125593936s8599603a0002515    2003     000000000000000000000000000000000000000000000000000000000000                000000000000000000000000000000000000000000000    *
12116559803000110000000000000000000000000000000000000000000000000000000000000000000 000000000000000000000000000000                                000000000000000            000000000000000000000000000000000000000000000000000000000000000000000000000000000000000000000000000000000000000000000000000000000000000000000000000000000000000000000000000000000000      *
30116559803000110               129749231292307201211ALISSON DOS REIS BARBOSA                                                                                     01210000000000088000000000000000000    000000000000000000000000000000000000000000000000000000000000                                                                                                  *
90999999999999999999999999999999999999999999999999999                                                                                                                                                                                                                                                                                                                  *
