00                                                   1113839248000192NETVIAS SERVICOS DE INFORMATICVAGNER DOMINGUES DA RUA JOAQUIM SOARES 461                            FLORAMAR            31840230BELO HORIZONTE      MG003135869855                                                            20150111511        1               113839248000192                  *
10113839248000192000000000000000000000000000000000000NETVIAS SERVICOS DE INFORMATICA LTDA    RUA JOAQUIM SOARES 461                            FLORAMAR            31840230BELO HORIZONTE      MG003135869855s9511800a0002515    2003     000000000000000000000000000000000000000000000000000000000000                000000000000000000000000000000000000000000000    *
12113839248000192000000000000000000000000000000000000000000000000000000000000000000 000000000000000000000000000000                                000000000000000            000000000000000000000000000000000000000000000000000000000000000000000000000000000000000000000000000000000000000000000000000000000000000000000000000000000000000000000000000000000000      *
30113839248000192               126434101242006201111VAGNER DOMINGUES DA SILVA                                                                                    01231000000000078800000000000000000    000000000000000000000000000000000000000000000000000000000000                                                                                                  *
30113839248000192               127252161002006201111GLAUCIENE DE LOURDES VIANA DOMINGUES                                                                         01231000000000078800000000000000000    000000000000000000000000000000000000000000000000000000000000                                                                                                  *
90999999999999999999999999999999999999999999999999999                                                                                                                                                                                                                                                                                                                  *
