00                                                   1106131319000132JOSE CLAUDIO DA SILVA ENTREGASJOSE CLAUDIO DA SILVRUA CAPRICHO 584                                  VILA NIVI           02254000SAO PAULO           SP001129596804                                                            20130611511        231072013       106131319000132                  *
10106131319000132000000000000000000000000000000000000JOSE CLAUDIO DA SILVA ENTREGAS          RUA CAPRICHO 584                                  VILA NIVI           02254000SAO PAULO           SP001129596804s5320202a0002612    2003     000000000000000000000000000000000000000000000000000000000000                000000000000000000000000000000000000000000000    *
12106131319000132000000000000000000000000000000000000000000000000000000000000000000 000000000000000000000000000000                                000000000000000            000000000000000000000000000000000000000000000000000000000000000000000000000000000000000000000000000000000000000000000000000000000000000000000000000000000000000000000000000000000000      *
30106131319000132               105577388112002200411JOSE CLAUDIO DA SILVA                                                                                        01210000000000090000000000000000000    000000000000000000000000000000000000000000000000000000000000                                                                                                  *
90999999999999999999999999999999999999999999999999999                                                                                                                                                                                                                                                                                                                  *
