00                                                   111715187500019742 FOTOGRAFIA LTDA ME         JULIANO FIGUEIREDO ARUA NEPOMUCENO 288                                PRADO               30411156BELO HORIZONTE      MG003125116885                                                            20160411511        1               117151875000197                  *
1011715187500019700000000000000000000000000000000000042 FOTOGRAFIA LTDA ME                   RUA NEPOMUCENO 288                                PRADO               30411156BELO HORIZONTE      MG003125116885s7420001a0002566    2003     000000000000000000000000000000000000000000000000000000000000                000000000000000000000000000000000000000000000    *
12117151875000197000000000000000000000000000000000000000000000000000000000000000000 000000000000000000000000000000                                000000000000000            000000000000000000000000000000000000000000000000000000000000000000000000000000000000000000000000000000000000000000000000000000000000000000000000000000000000000000000000000000000000      *
30117151875000197               119894690801211201211JULIANO FIGUEIREDO ARANTES                                                                                   02521000000000088000000000000000000    000000000000000000000000000000000000000000000000000000000000                                                                                                  *
90999999999999999999999999999999999999999999999999999                                                                                                                                                                                                                                                                                                                  *
