00                                                   1119036353000170D C RECUPERA ASSESSORIA DE COBALEXANDRE DANGUI PASAV GETULIO VARGAS 1941                            CENTRO              85010280GUARAPUAVA          PR004299406777                                                            20150811511        1               119036353000170                  *
10119036353000170000000000000000000000000000000000000D C RECUPERA ASSESSORIA DE COBRANCA LTDAAV GETULIO VARGAS 1941                            CENTRO              85010280GUARAPUAVA          PR004299406777s8291100a0002515    2003     000000000000000000000000000000000000000000000000000000000000                000000000000000000000000000000000000000000000    *
12119036353000170000000000000000000000000000000000000000000000000000000000000000000 000000000000000000000000000000                                000000000000000            000000000000000000000000000000000000000000000000000000000000000000000000000000000000000000000000000000000000000000000000000000000000000000000000000000000000000000000000000000000000      *
30119036353000170               130112705370310201311ALEXANDRE DANGUI PASTRO                                                                                      01210000000000078800000000000000000    000000000000000000000000000000000000000000000000000000000000                                                                                                  *
90999999999999999999999999999999999999999999999999999                                                                                                                                                                                                                                                                                                                  *
