00                                                   1106155742000172DANIEL OLIVEIRA DE MACEDO ME  DANIEL OLIVEIRA DE MAVENIDA TIRADENTES                                ABRANTES            42840000CAMACARI            BA007136234758                                                            20150611511        1               106155742000172                  *
10106155742000172000000000000000000000000000000000000DANIEL OLIVEIRA DE MACEDO ME            AVENIDA TIRADENTES                                ABRANTES            42840000CAMACARI            BA007136234758s4723700a0002515    2003     000000000000000000000000000000000000000000000000000000000000                000000000000000000000000000000000000000000000    *
12106155742000172000000000000000000000000000000000000000000000000000000000000000000 000000000000000000000000000000                                000000000000000            000000000000000000000000000000000000000000000000000000000000000000000000000000000000000000000000000000000000000000000000000000000000000000000000000000000000000000000000000000000000      *
30106155742000172               116858709230907200411DANIEL OLIVEIRA DE MACEDO                                                                                    02521000000000150000000000000000000    000000000000000000000000000000000000000000000000000000000000                                                                                                  *
90999999999999999999999999999999999999999999999999999                                                                                                                                                                                                                                                                                                                  *
