00                                                   1109628229000140JAMES DOUGLAS LIDDELL ME      JAMES D LIDDELL     RUA BARAO DE TATUI 601 APTO 44                    SANTA CECILIA       01226031SAO PAULO           SP001397677155                                                            20150311511        1               109628229000140                  *
10109628229000140000000000000000000000000000000000000JAMES DOUGLAS LIDDELL ME                RUA BARAO DE TATUI 601 APTO 44                    SANTA CECILIA       01226031SAO PAULO           SP001397677155s6209100a0002515    2003     000000000000000000000000000000000000000000000000000000000000                000000000000000000000000000000000000000000000    *
12109628229000140000000000000000000000000000000000000000000000000000000000000000000 000000000000000000000000000000                                000000000000000            000000000000000000000000000000000000000000000000000000000000000000000000000000000000000000000000000000000000000000000000000000000000000000000000000000000000000000000000000000000000      *
30109628229000140               168686247790506200811JAMES D LIDDELL                                                                                              01231000000000078800000000000000000    000000000000000000000000000000000000000000000000000000000000                                                                                                  *
90999999999999999999999999999999999999999999999999999                                                                                                                                                                                                                                                                                                                  *
