00                                                   1110467883000106IUNES ASSESSORIA DE COMUNICACAANDRE PHILIPPE IUNESRUA DONA DELFINA 47 APTO 802                      TIJUCA              20511270RIO DE JANEIRO      RJ002125706941                                                            20161011511        1               110467883000106                  *
10110467883000106000000000000000000000000000000000000IUNES ASSESSORIA DE COMUNICACAO E PRODUCRUA DONA DELFINA 47 APTO 802                      TIJUCA              20511270RIO DE JANEIRO      RJ002125706941s9001902a0002566    2003     000000000000000000000000000000000000000000000000000000000000                000000000000000000000000000000000000000000000    *
12110467883000106000000000000000000000000000000000000000000000000000000000000000000 000000000000000000000000000000                                000000000000000            000000000000000000000000000000000000000000000000000000000000000000000000000000000000000000000000000000000000000000000000000000000000000000000000000000000000000000000000000000000000      *
30110467883000106               116601636031011200811ANDRE PHILIPPE IUNES PEREIRA PINTO                                                                           01421000000000157600000000000000000    000000000000000000000000000000000000000000000000000000000000                                                                                                  *
90999999999999999999999999999999999999999999999999999                                                                                                                                                                                                                                                                                                                  *
