00                                                   1127461668000192WILLIAN CHAVES BARROS 41222018WILLIAN CHAVES BARROESTRADA DO PORTO 2                                JARDIM MARILDA      04857135SAO PAULO           SP001134346631willian@contadoramigo.com.br                                2018021151         1               127461668000192                  *
10196533310000140000000000000000000000000000000000000CONTADOR AMIGO LTDA ME                  AV DAS NACOES UNIDAS 8501 17 ANDAR                PINHEIROS           05425070SAO PAULO           SP001134346631s6319400a0002515    2003     000000000004010000000000010186000000000000000000000000000000                000000000000000000000000000000000000000000000    *
12196533310000140000000000000000000000000000000000000000000000000000000000000000000 000000000000000000000000000000                                000000000000000            000000000000000000000000000000000000000000000000000000000000000000000000000000000000000000000000000000000000000000000000000000000000000000000000000000000000000000000000000000000000      *
30196533310000140               206421899560102201701ATANO DE FARIAS JACINTO                                                          007000600312010220172504198803171000000000218739000000000000000    000000000000000000000000000000000000000000000000000000000000                                                                                                  *
30196533310000140               207296657410101201601WILLIAN CHAVES BARROS                                                            008791400357010120162011199202521000000000212488000000000000000    000000000000000000000000000000000000000000000000000000000000                                                                                                  *
90999999999999999999999999999999999999999999999999999                                                                                                                                                                                                                                                                                                                  *
