00                                                   1105894612000199NOVACOMMERCE INTERNET SOFTWAREEDUARDO CURY MOURA  RUA OLAVO BILAC 1005                              JARDIM BELA VISTA   17060454BAURU               SP001432456705                                                            20170411511        1               105894612000199                  *
10105894612000199000000000000000000000000000000000000NOVACOMMERCE INTERNET SOFTWARE          RUA OLAVO BILAC 1005                              JARDIM BELA VISTA   17060454BAURU               SP001432456705s6319400a0002515    2003     000000000000000000000000000000000000000000000000000000000000                000000000000000000000000000000000000000000000    *
12105894612000199000000000000000000000000000000000000000000000000000000000000000000 000000000000000000000000000000                                000000000000000            000000000000000000000000000000000000000000000000000000000000000000000000000000000000000000000000000000000000000000000000000000000000000000000000000000000000000000000000000000000000      *
30105894612000199               125470264750111199711EDUARDO CURY MOURA                                                                                           02521000000000093700000000000000000    000000000000000000000000000000000000000000000000000000000000                                                                                                  *
90999999999999999999999999999999999999999999999999999                                                                                                                                                                                                                                                                                                                  *
