00                                                   1115100770000183PRIMAX SERVICOS ADMINISTRATIVORAPHAEL FERREIRA ANDRUA DA ASSEMBLEIA 10 SALA 3111                    CENTRO              20011000RIO DE JANEIRO      RJ002135941400                                                            20170411511        1               115100770000183                  *
10115100770000183000000000000000000000000000000000000PRIMAX SERVICOS ADMINISTRATIVOS EIRELI MRUA DA ASSEMBLEIA 10 SALA 3111                    CENTRO              20011000RIO DE JANEIRO      RJ002135941400s6619302a0002515    2003     000000000000000000000000000000000000000000000000000000000000                000000000000000000000000000000000000000000000    *
12115100770000183000000000000000000000000000000000000000000000000000000000000000000 000000000000000000000000000000                                000000000000000            000000000000000000000000000000000000000000000000000000000000000000000000000000000000000000000000000000000000000000000000000000000000000000000000000000000000000000000000000000000000      *
30115100770000183               129629146260103201311RAPHAEL FERREIRA ANDERSON                                                                                    01210000000000093700000000000000000    000000000000000000000000000000000000000000000000000000000000                                                                                                  *
90999999999999999999999999999999999999999999999999999                                                                                                                                                                                                                                                                                                                  *
