00100000         296533310000140002850943001417019  0296290000000178772 CONTADOR AMIGO LTDA. - ME     BANCO DO BRASIL S.A                     120032017090334000000000                                                                          
00100011R01  000 2096533310000140002850943001417019  0296290000000178772 CONTADOR AMIGO LTDA. - ME                                                                                     0000000020032017                                         
0010001300001P 010296290000000178772 28509430389020000   7  220000000000000012003201700000000000630000000 02N2003201720000000000000000000002200000000000000000000000000000000000000000000000000000000000000000000000000000003000000090000000000 
0010001300002Q 011000005992473718MARCO JOSE DA GLORIA MENDES             CAIXA POSTAL, N  525                    IBES           29108973VILA VELHA     ES                                                        000                    00000000
0010001300003R 010000000000000000000000000000000000000000000000001200320170000000000001260000000000000000000000000000000000000000000000000000000000000000000000000000000000000000000000000000000000000000000000000000000000000000000000         
0010001300004P 010296290000000178772 28509430206210000   7  220000000000000010405201700000000005880000000 02N2003201720000000000000000000002200000000000000000000000000000000000000000000000000000000000000000000000000000003000000090000000000 
0010001300005Q 012022149102000106PAULO SERGIO ROGACHESKI CORRETORA DE SEGRUA VAHIA DE ABREU 72 C.1               BOQUEIRAO      11050120SANTOS         SP                                                        000                    00000000
0010001300006R 010000000000000000000000000000000000000000000000001040520170000000000011760000000000000000000000000000000000000000000000000000000000000000000000000000000000000000000000000000000000000000000000000000000000000000000000         
0010001300007P 010296290000000178772 28509430383790000   7  220000000000000011304201700000000000630000000 02N2003201720000000000000000000002200000000000000000000000000000000000000000000000000000000000000000000000000000003000000090000000000 
0010001300008Q 012012970431000160JOAO ALFREDO DE ASSIS                   RUA ETELVINA FERREIRA DA CONCEICAO      VILA DYLZE     18112420VOTORANTIM     SP                                                        000                    00000000
0010001300009R 010000000000000000000000000000000000000000000000001130420170000000000001260000000000000000000000000000000000000000000000000000000000000000000000000000000000000000000000000000000000000000000000000000000000000000000000         
0010001300010P 010296290000000178772 28509430390230000   7  220000000000000010304201700000000000630000000 02N2003201720000000000000000000002200000000000000000000000000000000000000000000000000000000000000000000000000000003000000090000000000 
0010001300011Q 012020462411000106KAIZEN DESENVOLVIMENTO DE SOFTWARES     RUA 7 DE SETEMBRO, 832                  CENTRO         79002121CAMPO GRANDE   MS                                                        000                    00000000
0010001300012R 010000000000000000000000000000000000000000000000001030420170000000000001260000000000000000000000000000000000000000000000000000000000000000000000000000000000000000000000000000000000000000000000000000000000000000000000         
0010001300013P 010296290000000178772 28509430394570000   7  220000000000000010704201700000000000630000000 02N2003201720000000000000000000002200000000000000000000000000000000000000000000000000000000000000000000000000000003000000090000000000 
0010001300014Q 012017032612000169ROCKIN´CHAIR PORTAL E COMUNICA         RUA APENINOS, 429, CJ. 1016             ACLIMACAO      01533000SAO PAULO      SP                                                        000                    00000000
0010001300015R 010000000000000000000000000000000000000000000000001070420170000000000001260000000000000000000000000000000000000000000000000000000000000000000000000000000000000000000000000000000000000000000000000000000000000000000000         
0010001300016P 010296290000000178772 28509430396100000   7  220000000000000011004201700000000000630000000 02N2003201720000000000000000000002200000000000000000000000000000000000000000000000000000000000000000000000000000003000000090000000000 
0010001300017Q 012020427400000195DAYANE JOSELY MOREIRA MARQUES           RUA DONA JOSEFINA Q.24 LT. 1E APT.102 BCJARDIM BELA VIS74912036APARECIDA DE GOGO                                                        000                    00000000
0010001300018R 010000000000000000000000000000000000000000000000001100420170000000000001260000000000000000000000000000000000000000000000000000000000000000000000000000000000000000000000000000000000000000000000000000000000000000000000         
0010001300019P 010296290000000178772 28509430397440000   7  220000000000000011904201700000000000630000000 02N2003201720000000000000000000002200000000000000000000000000000000000000000000000000000000000000000000000000000003000000090000000000 
0010001300020Q 012022684705000108DANIEL ANTUNES PAIVA ITAPETININGA ME    RUA ANTONIO AVELINO DA COSTA, 321       VILA VENDRAMINI18213300ITAPETININGA   SP                                                        000                    00000000
0010001300021R 010000000000000000000000000000000000000000000000001190420170000000000001260000000000000000000000000000000000000000000000000000000000000000000000000000000000000000000000000000000000000000000000000000000000000000000000         
0010001300022P 010296290000000178772 28509430397630000   7  220000000000000011804201700000000000630000000 02N2003201720000000000000000000002200000000000000000000000000000000000000000000000000000000000000000000000000000003000000090000000000 
0010001300023Q 011000081701349868JULIO JOSE ARAUJO                       RUA OLIVEIRA ALVES, 400  APTO 73        IPIRANGA       04210060SAO PAULO      SP                                                        000                    00000000
0010001300024R 010000000000000000000000000000000000000000000000001180420170000000000001260000000000000000000000000000000000000000000000000000000000000000000000000000000000000000000000000000000000000000000000000000000000000000000000         
0010001300025P 010296290000000178772 28509430397640000   7  220000000000000011504201700000000000630000000 02N2003201720000000000000000000002200000000000000000000000000000000000000000000000000000000000000000000000000000003000000090000000000 
0010001300026Q 012007414585000135PAULO C MOREIRA ORGANIZACAO E           RUA SACADURA CABRAL,117/906             GAMBOA         20081261RIO DE JANEIRO RJ                                                        000                    00000000
0010001300027R 010000000000000000000000000000000000000000000000001150420170000000000001260000000000000000000000000000000000000000000000000000000000000000000000000000000000000000000000000000000000000000000000000000000000000000000000         
0010001300028P 010296290000000178772 28509430397650000   7  220000000000000011704201700000000000630000000 02N2003201720000000000000000000002200000000000000000000000000000000000000000000000000000000000000000000000000000003000000090000000000 
0010001300029Q 012016863651000145BB DESENVOLVIMENTO DE SISTEMAS EIRELI - RUA DR LAURO PIMENTEL, 433              CIDADE UNIVERSI13083250CAMPINAS       SP                                                        000                    00000000
0010001300030R 010000000000000000000000000000000000000000000000001170420170000000000001260000000000000000000000000000000000000000000000000000000000000000000000000000000000000000000000000000000000000000000000000000000000000000000000         
0010001300031P 010296290000000178772 28509430397660000   7  220000000000000011904201700000000000630000000 02N2003201720000000000000000000002200000000000000000000000000000000000000000000000000000000000000000000000000000003000000090000000000 
0010001300032Q 012002714127000106SECKLERBELL COMERCIAL LTDA              R. ROBERTO DUARTE RIBAS, 97 CJ 52       VL. LIVIEIRO   04185190SAO PAULO      SP                                                        000                    00000000
0010001300033R 010000000000000000000000000000000000000000000000001190420170000000000001260000000000000000000000000000000000000000000000000000000000000000000000000000000000000000000000000000000000000000000000000000000000000000000000         
00100015         000035                                                                                                                                                                                                                         
00199999         000001000037                                                                                                                                                                                                                   
