00100000         296533310000140002850943001417019  0296290000000178772 CONTADOR AMIGO LTDA. - ME     BANCO DO BRASIL S.A                     127032017140357000000000                                                                          
00100011R01  000 2096533310000140002850943001417019  0296290000000178772 CONTADOR AMIGO LTDA. - ME                                                                                     0000000027032017                                         
0010001300001P 010296290000000178772 28509430399890000   7  220000000000000012404201700000000000630000000 02N2703201730000000000000000000000000000000000000000000000000000000000000000000000000000000000000000000000000000003000000090000000000 
0010001300002Q 012019014613000106TALITA APARECIDA GONCALVES              RUA TOME DE SOUZA, 298                  JD CASA GRANDE 09961210DIADEMA        SP                                                        000                    00000000
0010001300003R 010000000000000000000000000000000000000000000000000000000000000000000000000000000000000000000000000000000000000000000000000000000000000000000000000000000000000000000000000000000000000000000000000000000000000000000000         
0010001300004P 010296290000000178772 28509430390910000   7  220000000000000010604201700000000000630000000 02N2703201730000000000000000000002200000000000000000000000000000000000000000000000000000000000000000000000000000003000000090000000000 
0010001300005Q 012011214930000164SPECIALITY SOLDAS ESPECIAIS LT          RUA LUIS STOLB, N° 94                  JARDIM VILAS BO04416060SAO PAULO      SP                                                        000                    00000000
0010001300006R 010000000000000000000000000000000000000000000000001060420170000000000001260000000000000000000000000000000000000000000000000000000000000000000000000000000000000000000000000000000000000000000000000000000000000000000000         
0010001300007P 010296290000000178772 28509430196760000   7  220000000000000011105201700000000005880000000 02N2703201730000000000000000000002200000000000000000000000000000000000000000000000000000000000000000000000000000003000000090000000000 
0010001300008Q 011000006012541635JULIANA OLIVEIRA                        RUA JOSE DE SANTANA 100                 CENTRO         38700052PATOS DE MINAS MG                                                        000                    00000000
0010001300009R 010000000000000000000000000000000000000000000000001110520170000000000011760000000000000000000000000000000000000000000000000000000000000000000000000000000000000000000000000000000000000000000000000000000000000000000000         
0010001300010P 010296290000000178772 28509430389440000   7  220000000000000010104201700000000003540000000 02N2703201730000000000000000000002200000000000000000000000000000000000000000000000000000000000000000000000000000003000000090000000000 
0010001300011Q 012017475466000146ERICKSON ROBERTO CANDIDO ME             AV. CARLOS BOTELHO 1260                 SANTA ROSA     13460000NOVA ODESSA    SP                                                        000                    00000000
0010001300012R 010000000000000000000000000000000000000000000000001010420170000000000007080000000000000000000000000000000000000000000000000000000000000000000000000000000000000000000000000000000000000000000000000000000000000000000000         
0010001300013P 010296290000000178772 28509430400130000   7  220000000000000012104201700000000000630000000 02N2703201730000000000000000000002200000000000000000000000000000000000000000000000000000000000000000000000000000003000000090000000000 
0010001300014Q 012026063266000177EZEQUIEL ALVES FERREIRA CORRETAGEM DE SERUA ASSIS CHATEAUBRIAND, 65 APTO 204    JD PAULISTANO  19013720PRESIDENTE PRUDSP                                                        000                    00000000
0010001300015R 010000000000000000000000000000000000000000000000001210420170000000000001260000000000000000000000000000000000000000000000000000000000000000000000000000000000000000000000000000000000000000000000000000000000000000000000         
0010001300016P 010296290000000178772 28509430400270000   7  220000000000000012604201700000000000630000000 02N2703201730000000000000000000002200000000000000000000000000000000000000000000000000000000000000000000000000000003000000090000000000 
0010001300017Q 012025080323000163KAVOKI SERVICOS DE INTERNET LTDA - ME   RUA ALEXANDRE DE GUSMAO, 785B           CONDOMINIO SAO 06706080COTIA          SP                                                        000                    00000000
0010001300018R 010000000000000000000000000000000000000000000000001260420170000000000001260000000000000000000000000000000000000000000000000000000000000000000000000000000000000000000000000000000000000000000000000000000000000000000000         
0010001300019P 010296290000000178772 28509431369050000   7  220000000000000012703201700000000000727600000 02N2703201730000000000000000000002200000000000000000000000000000000000000000000000000000000000000000000000000000003000000090000000000 
0010001300020Q 012021945105000193MARCOS DE S. LOPES                      TENENTE POLICIA CARLOS MENDES,232       JARDIM MARISA  13053214CAMPINAS       SP                                                        000                    00000000
0010001300021R 010000000000000000000000000000000000000000000000000000000000000000000000000000000000000000000000000000000000000000000000000000000000000000000000000000000000000000000000000000000000000000000000000000000000000000000000         
0010001300022P 010296290000000178772 28509432369050000   7  220000000000000012703201700000000000727600000 02N2703201730000000000000000000002200000000000000000000000000000000000000000000000000000000000000000000000000000003000000090000000000 
0010001300023Q 012021945105000193MARCOS DE S. LOPES                      TENENTE POLICIA CARLOS MENDES,232       JARDIM MARISA  13053214CAMPINAS       SP                                                        000                    00000000
0010001300024R 010000000000000000000000000000000000000000000000000000000000000000000000000000000000000000000000000000000000000000000000000000000000000000000000000000000000000000000000000000000000000000000000000000000000000000000000         
0010001300025P 010296290000000178772 28509430389010000   7  220000000000000012703201700000000000655000000 02N2703201730000000000000000000002200000000000000000000000000000000000000000000000000000000000000000000000000000003000000090000000000 
0010001300026Q 011000097857700606VANETE PIEDADE DE OLIVEIRA RIBEIRO      AV.DAS AMERICAS, 300                    CENTRO         32600082BETIM          MG                                                        000                    00000000
0010001300027R 010000000000000000000000000000000000000000000000000000000000000000000000000000000000000000000000000000000000000000000000000000000000000000000000000000000000000000000000000000000000000000000000000000000000000000000000         
00100015         000029                                                                                                                                                                                                                         
00199999         000001000031                                                                                                                                                                                                                   
