00100000         296533310000140002850943001417019  0296290000000178772 CONTADOR AMIGO LTDA. - ME     BANCO DO BRASIL S.A                     128032017090340000000000                                                                          
00100011R01  000 2096533310000140002850943001417019  0296290000000178772 CONTADOR AMIGO LTDA. - ME                                                                                     0000000028032017                                         
0010001300001P 010296290000000178772 28509430377310000   7  220000000000000012803201700000000000701200000 02N2803201720000000000000000000002200000000000000000000000000000000000000000000000000000000000000000000000000000003000000090000000000 
0010001300002Q 012021544328000149TATIANA C.V ALVES                       R: JERONIMO ALVES, 239                  JD SANTO ANDRE 08390120SAO PAULO      SP                                                        000                    00000000
0010001300003R 010000000000000000000000000000000000000000000000000000000000000000000000000000000000000000000000000000000000000000000000000000000000000000000000000000000000000000000000000000000000000000000000000000000000000000000000         
0010001300004P 010296290000000178772 28509430348260000   7  220000000000000012803201700000000007560000000 02N2803201720000000000000000000002200000000000000000000000000000000000000000000000000000000000000000000000000000003000000090000000000 
0010001300005Q 012004904390000185ASSOCIACAO PROJETO BRASILEIRO DE DANCA  RUA SANTA CLARA, 378                    JARDIM SANTA RI09941270IBIRA          SP                                                        000                    00000000
0010001300006R 010000000000000000000000000000000000000000000000001280320170000000000015120000000000000000000000000000000000000000000000000000000000000000000000000000000000000000000000000000000000000000000000000000000000000000000000         
0010001300007P 010296290000000178772 28509430398790000   7  220000000000000011604201700000000000630000000 02N2803201720000000000000000000002200000000000000000000000000000000000000000000000000000000000000000000000000000003000000090000000000 
0010001300008Q 012017249572000101ROBSON PEREIRA DOS SANTOS 98981340110   RUA MAURICIO DA SILVA, N° 312,         DOMICIANO RIBEI75784000IPAMERI        GO                                                        000                    00000000
0010001300009R 010000000000000000000000000000000000000000000000001160420170000000000001260000000000000000000000000000000000000000000000000000000000000000000000000000000000000000000000000000000000000000000000000000000000000000000000         
0010001300010P 010296290000000178772 28509430398810000   7  220000000000000012104201700000000000630000000 02N2803201720000000000000000000002200000000000000000000000000000000000000000000000000000000000000000000000000000003000000090000000000 
0010001300011Q 011000097857700606VANETE PIEDADE DE OLIVEIRA RIBEIRO      AV.DAS AMERICAS, 300                    CENTRO         32600082BETIM          MG                                                        000                    00000000
0010001300012R 010000000000000000000000000000000000000000000000001210420170000000000001260000000000000000000000000000000000000000000000000000000000000000000000000000000000000000000000000000000000000000000000000000000000000000000000         
0010001300013P 010296290000000178772 28509430400420000   7  220000000000000012204201700000000000630000000 02N2803201720000000000000000000002200000000000000000000000000000000000000000000000000000000000000000000000000000003000000090000000000 
0010001300014Q 012031356744000177TERESOPOLIS VIDEO & SOM LTDA ME         AV FELICIANO SODRE 148 LOJA B           VARZEA         25963081TERESOPOLIS    RJ                                                        000                    00000000
0010001300015R 010000000000000000000000000000000000000000000000001220420170000000000001260000000000000000000000000000000000000000000000000000000000000000000000000000000000000000000000000000000000000000000000000000000000000000000000         
0010001300016P 010296290000000178772 28509430400740000   7  220000000000000012804201700000000000630000000 02N2803201720000000000000000000002200000000000000000000000000000000000000000000000000000000000000000000000000000003000000090000000000 
0010001300017Q 012005464673000116DUCORE SISTEMAS DE IMPRESSAO LTDA-ME    RUA MARINA ESTON,0114                   JARDIM PERI    02634030SAO PAULO      SP                                                        000                    00000000
0010001300018R 010000000000000000000000000000000000000000000000001280420170000000000001260000000000000000000000000000000000000000000000000000000000000000000000000000000000000000000000000000000000000000000000000000000000000000000000         
0010001300019P 010296290000000178772 28509430400750000   7  220000000000000012504201700000000000630000000 02N2803201720000000000000000000002200000000000000000000000000000000000000000000000000000000000000000000000000000003000000090000000000 
0010001300020Q 012017839113000188NELY BACIC CAVALCANTE - ME              RUA CROATA, 451 APTO 41                 VILA IPOJUCA   05056020SAO PAULO      SP                                                        000                    00000000
0010001300021R 010000000000000000000000000000000000000000000000001250420170000000000001260000000000000000000000000000000000000000000000000000000000000000000000000000000000000000000000000000000000000000000000000000000000000000000000         
0010001300022P 010296290000000178772 28509430400760000   7  220000000000000010105201700000000000630000000 02N2803201720000000000000000000002200000000000000000000000000000000000000000000000000000000000000000000000000000003000000090000000000 
0010001300023Q 012008821474000106S.COMM TELECOMUNICACOES LTDA            RUA SOUZA FILHO,304                     VILA UNIAO     02911060SAO PAULO      SP                                                        000                    00000000
0010001300024R 010000000000000000000000000000000000000000000000001010520170000000000001260000000000000000000000000000000000000000000000000000000000000000000000000000000000000000000000000000000000000000000000000000000000000000000000         
0010001300025P 010296290000000178772 28509430400770000   7  220000000000000012804201700000000000630000000 02N2803201720000000000000000000002200000000000000000000000000000000000000000000000000000000000000000000000000000003000000090000000000 
0010001300026Q 012012431547000120ELIZANGELA A R SANTOS ME                RUA RODRIGO VIEIRA, 320                 JARDIM VILA MAR04115060SAO PAULO      SP                                                        000                    00000000
0010001300027R 010000000000000000000000000000000000000000000000001280420170000000000001260000000000000000000000000000000000000000000000000000000000000000000000000000000000000000000000000000000000000000000000000000000000000000000000         
00100015         000029                                                                                                                                                                                                                         
00199999         000001000031                                                                                                                                                                                                                   
