00100000         296533310000140002850943001417019  0296290000000178772 VAD - ESTUDIO MULTIMIDIA LTDA.BANCO DO BRASIL S.A                     130062016120658000000000                                                                          
00100011R01  000 2096533310000140002850943001417019  0296290000000178772 VAD - ESTUDIO MULTIMIDIA LTDA.                                                                                0000000030062016                                         
0010001300001P 010296290000000178772 28509430022600616   7  220000000000000012806201600000000000590000000 02N3006201620000000000000000000000000000000000000000000000000000000000000000000000000000000000000000000000000000003000000090000000000 
0010001300002Q 012096533310000140ROSSIANO RENATO CASARIN                 AV. VENANCIO AIRES 2275                 CENTRO         98803000SANTO ANGELO   RS                                                        000                    00000000
0010001300003P 010296290000000178772 28509430042490516   7  220000000000000012806201600000000000590000000 02N3006201620000000000000000000000000000000000000000000000000000000000000000000000000000000000000000000000000000003000000090000000000 
0010001300004Q 012096533310000140APAVIMEL                                RUA JULIO PESTRINO                      CHACARA DA ENSE04963095SAO PAULO      SP                                                        000                    00000000
0010001300005P 010296290000000178772 28509430060490716   7  220000000000000010207201600000000000590000000 02N3006201620000000000000000000000000000000000000000000000000000000000000000000000000000000000000000000000000000003000000090000000000 
0010001300006Q 012096533310000140ISMAEL MARTINS DA SILVA                 RUA OURO FINO, 283 AP.403               IRAJA          21371230RIO DE JANEIRO RJ                                                        000                    00000000
0010001300007P 010296290000000178772 28509430121810616   7  220000000000000013006201600000000005880000000 02N3006201620000000000000000000000000000000000000000000000000000000000000000000000000000000000000000000000000000003000000090000000000 
0010001300008Q 012096533310000140EDIVALDO CARDOSO                        ESTV  VELHA DO PILAR LOTE 02 QUDRA 10   CHACARAS RIO PE25230610DUQUE DE CAXIASRJ                                                        000                    00000000
0010001300009P 010296290000000178772 28509430036240716   7  220000000000000010207201600000000000590000000 02N3006201620000000000000000000000000000000000000000000000000000000000000000000000000000000000000000000000000000003000000090000000000 
0010001300010Q 012096533310000140ASX DE MENEZES SERVICOS ADMINISTRATIVOS RUA SIMONE MARTINI, 285                 JD. SANTA MARIA03573170SAO PAULO      SP                                                        000                    00000000
0010001300011P 010296290000000178772 28509430069950616   7  220000000000000012906201600000000000590000000 02N3006201620000000000000000000000000000000000000000000000000000000000000000000000000000000000000000000000000000003000000090000000000 
0010001300012Q 012096533310000140PATRICIA DE OLIVEIRA AQUINO             RUA PROCOPIO MANUEL PIRES, 105, APTO 602TRINDADE       88036090FLORIANOPOLIS  SC                                                        000                    00000000
0010001300013P 010296290000000178772 28509430054520716   7  220000000000000010107201600000000000590000000 02N3006201620000000000000000000000000000000000000000000000000000000000000000000000000000000000000000000000000000003000000090000000000 
0010001300014Q 012096533310000140FREDERICO BARROS DE S PORT              RUA DEPUT JOSE DA ROCHA RIBAS 111, BLC 0BARRA DA TIJUCA22630000RIO DE JANEIRO RJ                                                        000                    00000000
0010001300015P 010296290000000178772 28509430007740616   7  220000000000000013006201600000000000590000000 02N3006201620000000000000000000000000000000000000000000000000000000000000000000000000000000000000000000000000000003000000090000000000 
0010001300016Q 012096533310000140FABIANE GONZALEZ PIAZZA                 AV.NOVE DE JULHO 2919                   JD PAULISTA    01407000SAO PAULO      SP                                                        000                    00000000
0010001300017P 010296290000000178772 28509430107840616   7  220000000000000013006201600000000000590000000 02N3006201620000000000000000000000000000000000000000000000000000000000000000000000000000000000000000000000000000003000000090000000000 
0010001300018Q 012096533310000140EASY SOLUCOES LTDA                      RUA VALDEMAR BERTOLDI, 350              BETEL          13148206PAULINIA       SP                                                        000                    00000000
0010001300019P 010296290000000178772 28509430031730716   7  220000000000000010507201600000000000590000000 02N3006201620000000000000000000000000000000000000000000000000000000000000000000000000000000000000000000000000000003000000090000000000 
0010001300020Q 012096533310000140DORIVAL FERREIRA DE OLIVEIRA            AV. SOROR MARIA DA PROVIDENCIA, 418     JARDIM PACAEMBU13218210JUNDIAI        SP                                                        000                    00000000
0010001300021P 010296290000000178772 28509430071410416   7  220000000000000013006201600000000000590000000 02N3006201620000000000000000000000000000000000000000000000000000000000000000000000000000000000000000000000000000003000000090000000000 
0010001300022Q 012096533310000140FABIO DO NASCIMENTO LIMA                CHAVES                                  MUTUA          24460090SAO GONCALO    RJ                                                        000                    00000000
0010001300023P 010296290000000178772 28509430054690616   7  220000000000000013006201600000000005880000000 02N3006201620000000000000000000000000000000000000000000000000000000000000000000000000000000000000000000000000000003000000090000000000 
0010001300024Q 012096533310000140BRUNO VELOSO DE SANTANA                 RUA CONSELHEIRO DANTAS, N° 57, EDF. PARCOMERCIO       40015070SALVADOR        BA                                                        000                    00000000
0010001300025P 010296290000000178772 28509430091270716   7  220000000000000010407201600000000000590000000 02N3006201620000000000000000000000000000000000000000000000000000000000000000000000000000000000000000000000000000003000000090000000000 
0010001300026Q 012096533310000140DANIELE ASSIS                           RUA FRANCISCA GONZAGA, 136              ALTO SERENATA  35180701TIMOTEO        MG                                                        000                    00000000
0010001300027P 010296290000000178772 28509430076590616   7  220000000000000013006201600000000000590000000 02N3006201620000000000000000000000000000000000000000000000000000000000000000000000000000000000000000000000000000003000000090000000000 
0010001300028Q 012096533310000140CESAR IMOVEIS                           AV PINTO ALVEIS 422                     SOBRADINHO     33400000LAGOA SANTA    MG                                                        000                    00000000
0010001300029P 010296290000000178772 28509430119869916   7  220000000000000010107201600000000003540000000 02N3006201620000000000000000000000000000000000000000000000000000000000000000000000000000000000000000000000000000003000000090000000000 
0010001300030Q 012096533310000140RAFAEL ADILSON PETERS UESSLER           R FAUSTINO PIAZZERA,316                 SEMINAIO       89190000TAIO           SC                                                        000                    00000000
0010001300031P 010296290000000178772 28509430019950716   7  220000000000000010707201600000000000590000000 02N3006201620000000000000000000000000000000000000000000000000000000000000000000000000000000000000000000000000000003000000090000000000 
0010001300032Q 012096533310000140ICAROCF                                 SHC/SUL CR QD. 505 BLOCO A/B - BANCA DE ASA SUL        70350500BRASILIA       DF                                                        000                    00000000
0010001300033P 010296290000000178772 28509430097840616   7  220000000000000010207201600000000000590000000 02N3006201620000000000000000000000000000000000000000000000000000000000000000000000000000000000000000000000000000003000000090000000000 
0010001300034Q 012096533310000140IGOR DOS SANTOS                         AV OSCAR PONTES                         AGUA DE MENINOS40460130SALVADOR       BA                                                        000                    00000000
0010001300035P 010296290000000178772 28509430105560616   7  220000000000000010207201600000000000590000000 02N3006201620000000000000000000000000000000000000000000000000000000000000000000000000000000000000000000000000000003000000090000000000 
0010001300036Q 012096533310000140ANDERSON                                RUA ALFREDO MARQUES PEREIRA N 128       PQ FRANCESCHINI13170650SUMARE         SP                                                        000                    00000000
0010001300037P 010296290000000178772 28509430087820516   7  220000000000000010107201600000000000590000000 02N3006201620000000000000000000000000000000000000000000000000000000000000000000000000000000000000000000000000000003000000090000000000 
0010001300038Q 012096533310000140WILSON PATROCINIO DOS SANTOS SILVA      RUA MIGUEL BURNIER, 91B                 VILA APARECIDA 35400000OURO PRETO     MG                                                        000                    00000000
00100015         000040                                                                                                                                                                                                                         
00199999         000001000042                                                                                                                                                                                                                   
