00100000         296533310000140002850943001417019  0296290000000178772 CONTADOR AMIGO LTDA. - ME     BANCO DO BRASIL S.A                     104042017090458000000000                                                                          
00100011R01  000 2096533310000140002850943001417019  0296290000000178772 CONTADOR AMIGO LTDA. - ME                                                                                     0000000004042017                                         
0010001300001P 010296290000000178772 28509439014780000   7  220000000000000010404201700000000000630000000 02N0404201720000000000000000000002200000000000000000000000000000000000000000000000000000000000000000000000000000003000000090000000000 
0010001300002Q 012009541817000141EDILSON ALMEIDA RIBEIRO ME              RUA: MATIAS MARANHAO 50                 ITAIM PAULISTA 08121330SAO PAULO      SP                                                        000                    00000000
0010001300003R 010000000000000000000000000000000000000000000000000000000000000000000000000000000000000000000000000000000000000000000000000000000000000000000000000000000000000000000000000000000000000000000000000000000000000000000000         
0010001300004P 010296290000000178772 28509430403820000   7  220000000000000010404201700000000000630000000 02N0404201720000000000000000000002200000000000000000000000000000000000000000000000000000000000000000000000000000003000000090000000000 
0010001300005Q 011000028625598811ALEXANDRE DE AGUIAR TOFALO              RUA JUPIA, 42                           SANTANA        02460020SAO PAULO      SP                                                        000                    00000000
0010001300006R 010000000000000000000000000000000000000000000000001040420170000000000001260000000000000000000000000000000000000000000000000000000000000000000000000000000000000000000000000000000000000000000000000000000000000000000000         
0010001300007P 010296290000000178772 28509430395630000   7  220000000000000010904201700000000000630000000 02N0404201720000000000000000000002200000000000000000000000000000000000000000000000000000000000000000000000000000003000000090000000000 
0010001300008Q 012021978180000150MARGARETE PAROLA ME                     RUA JOSE GONCALVES GOMIDE, 780          VILA GUILHERME 02075001SAO PAULO      SP                                                        000                    00000000
0010001300009R 010000000000000000000000000000000000000000000000001090420170000000000001260000000000000000000000000000000000000000000000000000000000000000000000000000000000000000000000000000000000000000000000000000000000000000000000         
0010001300010P 010296290000000178772 28509432347950000   7  220000000000000011605201700000000003540000000 02N0404201720000000000000000000002200000000000000000000000000000000000000000000000000000000000000000000000000000003000000090000000000 
0010001300011Q 012018785406000192WM REMOCOES LTDA - ME                   RUA JOSE ALEXANDRINO DE MORAES, 95      JD PATRICIA    08584090ITAQUAQUECETUBASP                                                        000                    00000000
0010001300012R 010000000000000000000000000000000000000000000000001160520170000000000007080000000000000000000000000000000000000000000000000000000000000000000000000000000000000000000000000000000000000000000000000000000000000000000000         
0010001300013P 010296290000000178772 28509430391110000   7  220000000000000010404201700000000000630000000 02N0404201720000000000000000000002200000000000000000000000000000000000000000000000000000000000000000000000000000003000000090000000000 
0010001300014Q 011000021419896806PEDRO MATHEUS REIS                      RUA LUIS ZECA 1167                      JARDIM ALVORADA14140000CRAVINHOS      SP                                                        000                    00000000
0010001300015R 010000000000000000000000000000000000000000000000001040420170000000000001260000000000000000000000000000000000000000000000000000000000000000000000000000000000000000000000000000000000000000000000000000000000000000000000         
0010001300016P 010296290000000178772 28509430403530000   7  220000000000000010705201700000000000630000000 02N0404201720000000000000000000002200000000000000000000000000000000000000000000000000000000000000000000000000000003000000090000000000 
0010001300017Q 012022373283000150RONALDO OSCAR LEMOS DE OLIVEIRA ME      AV IMPERATRIZ LEOPOLDINA 550 TORRE 4 APTVILA NOVA      13073035CAMPINAS       SP                                                        000                    00000000
0010001300018R 010000000000000000000000000000000000000000000000001070520170000000000001260000000000000000000000000000000000000000000000000000000000000000000000000000000000000000000000000000000000000000000000000000000000000000000000         
0010001300019P 010296290000000178772 28509430403900000   7  220000000000000010105201700000000000630000000 02N0404201720000000000000000000002200000000000000000000000000000000000000000000000000000000000000000000000000000003000000090000000000 
0010001300020Q 012023613919000156ALLAN SANTOS BARBOZA ME                 AV. BRASIL, 1500 SALA 303               CENTRO         88330901BALNEARIO CAMBOSC                                                        000                    00000000
0010001300021R 010000000000000000000000000000000000000000000000001010520170000000000001260000000000000000000000000000000000000000000000000000000000000000000000000000000000000000000000000000000000000000000000000000000000000000000000         
0010001300022P 010296290000000178772 28509430403910000   7  220000000000000010205201700000000000630000000 02N0404201720000000000000000000002200000000000000000000000000000000000000000000000000000000000000000000000000000003000000090000000000 
0010001300023Q 012009436439000136AVES GERAIS ECOTURISMO E MONITORAMENTO AMG 232, KM203                           ZONA RURAL     35875000MORRO DO PILAR MG                                                        000                    00000000
0010001300024R 010000000000000000000000000000000000000000000000001020520170000000000001260000000000000000000000000000000000000000000000000000000000000000000000000000000000000000000000000000000000000000000000000000000000000000000000         
0010001300025P 010296290000000178772 28509430403920000   7  220000000000000010305201700000000000630000000 02N0404201720000000000000000000002200000000000000000000000000000000000000000000000000000000000000000000000000000003000000090000000000 
0010001300026Q 012020462411000106KAIZEN DESENVOLVIMENTO DE SOFTWARES     RUA 7 DE SETEMBRO, 832                  CENTRO         79002121CAMPO GRANDE   MS                                                        000                    00000000
0010001300027R 010000000000000000000000000000000000000000000000001030520170000000000001260000000000000000000000000000000000000000000000000000000000000000000000000000000000000000000000000000000000000000000000000000000000000000000000         
0010001300028P 010296290000000178772 28509430403930000   7  220000000000000010405201700000000000630000000 02N0404201720000000000000000000002200000000000000000000000000000000000000000000000000000000000000000000000000000003000000090000000000 
0010001300029Q 012010746583000158HIRBO JR ESTUDIO DE PRODUCOES ARTISTICASRUA ATROS RIBEIRO, 82                   JACANA         02275180SAO PAULO      SP                                                        000                    00000000
0010001300030R 010000000000000000000000000000000000000000000000001040520170000000000001260000000000000000000000000000000000000000000000000000000000000000000000000000000000000000000000000000000000000000000000000000000000000000000000         
0010001300031P 010296290000000178772 28509430403940000   7  220000000000000010205201700000000000630000000 02N0404201720000000000000000000002200000000000000000000000000000000000000000000000000000000000000000000000000000003000000090000000000 
0010001300032Q 012021511772000168MARCELO APARECIDO LOPES SERVICOS DE INFOALAMEDA ROCHA AZEVEDO, 55               CONDOMINIO NOVA06690150ITAPEVI        SP                                                        000                    00000000
0010001300033R 010000000000000000000000000000000000000000000000001020520170000000000001260000000000000000000000000000000000000000000000000000000000000000000000000000000000000000000000000000000000000000000000000000000000000000000000         
0010001300034P 010296290000000178772 28509430403950000   7  220000000000000010305201700000000000630000000 02N0404201720000000000000000000002200000000000000000000000000000000000000000000000000000000000000000000000000000003000000090000000000 
0010001300035Q 012014469236000186RONALDO PRATO LEITE DE CASTRO           RUA PARAIBA, 249                        FLORESTA       90220100PORTO ALEGRE   RS                                                        000                    00000000
0010001300036R 010000000000000000000000000000000000000000000000001030520170000000000001260000000000000000000000000000000000000000000000000000000000000000000000000000000000000000000000000000000000000000000000000000000000000000000000         
0010001300037P 010296290000000178772 28509430403960000   7  220000000000000010105201700000000000630000000 02N0404201720000000000000000000002200000000000000000000000000000000000000000000000000000000000000000000000000000003000000090000000000 
0010001300038Q 012019330012000102PIETRA PUBLICIDADE LTDA-ME              RUA ADACI SANTOS GOMES 147              BARRA          88332115BALNEARIO CAMBOSC                                                        000                    00000000
0010001300039R 010000000000000000000000000000000000000000000000001010520170000000000001260000000000000000000000000000000000000000000000000000000000000000000000000000000000000000000000000000000000000000000000000000000000000000000000         
0010001300040P 010296290000000178772 28509430403970000   7  220000000000000010705201700000000000630000000 02N0404201720000000000000000000002200000000000000000000000000000000000000000000000000000000000000000000000000000003000000090000000000 
0010001300041Q 012017032612000169ROCKIN´CHAIR PORTAL E COMUNICA         RUA APENINOS, 429, CJ. 1016             ACLIMACAO      01533000SAO PAULO      SP                                                        000                    00000000
0010001300042R 010000000000000000000000000000000000000000000000001070520170000000000001260000000000000000000000000000000000000000000000000000000000000000000000000000000000000000000000000000000000000000000000000000000000000000000000         
00100015         000044                                                                                                                                                                                                                         
00199999         000001000046                                                                                                                                                                                                                   
