00100000         296533310000140002850943001417019  0296290000000178772 CONTADOR AMIGO LTDA. - ME     BANCO DO BRASIL S.A                     124042017090444000000000                                                                          
00100011R01  000 2096533310000140002850943001417019  0296290000000178772 CONTADOR AMIGO LTDA. - ME                                                                                     0000000024042017                                         
0010001300001P 010296290000000178772 28509430400700000   7  220000000000000012604201700000000000630000000 02N2404201730000000000000000000000000000000000000000000000000000000000000000000000000000000000000000000000000000003000000090000000000 
0010001300002Q 012017477557000110DENISE ARAUJO DOS SANTOS ALVES          RUA ALCEU AMOROSO LIMA,786              CAMINHO DAS ARV41820770SALVADOR       BA                                                        000                    00000000
0010001300003R 010000000000000000000000000000000000000000000000000000000000000000000000000000000000000000000000000000000000000000000000000000000000000000000000000000000000000000000000000000000000000000000000000000000000000000000000         
0010001300004P 010296290000000178772 28509439016660000   7  220000000000000012404201700000000000490000000 02N2404201730000000000000000000002200000000000000000000000000000000000000000000000000000000000000000000000000000003000000090000000000 
0010001300005Q 0120109172600001803LEMENTAL MANUTENCAO E SOLUCOE          RUA FERREIRA CANTAO, 876                IRAJA          21235180RIO DE JANEIRO RJ                                                        000                    00000000
0010001300006R 010000000000000000000000000000000000000000000000000000000000000000000000000000000000000000000000000000000000000000000000000000000000000000000000000000000000000000000000000000000000000000000000000000000000000000000000         
0010001300007P 010296290000000178772 28509430412360000   7  220000000000000011905201700000000000630000000 02N2404201730000000000000000000002200000000000000000000000000000000000000000000000000000000000000000000000000000003000000090000000000 
0010001300008Q 012024900394000100JULIA DE ABREU PINHEIRO ASSESSORIA - ME RUA PROFESSOR DIRCEU PORTELA AZEREDO, 17CENTRO         33400000LAGOA SANTA    MG                                                        000                    00000000
0010001300009R 010000000000000000000000000000000000000000000000001190520170000000000001260000000000000000000000000000000000000000000000000000000000000000000000000000000000000000000000000000000000000000000000000000000000000000000000         
0010001300010P 010296290000000178772 28509430412260000   7  220000000000000011605201700000000000630000000 02N2404201730000000000000000000002200000000000000000000000000000000000000000000000000000000000000000000000000000003000000090000000000 
0010001300011Q 012017249572000101ROBSON PEREIRA DOS SANTOS 98981340110   RUA MAURICIO DA SILVA, N° 312,         DOMICIANO RIBEI75784000IPAMERI        GO                                                        000                    00000000
0010001300012R 010000000000000000000000000000000000000000000000001160520170000000000001260000000000000000000000000000000000000000000000000000000000000000000000000000000000000000000000000000000000000000000000000000000000000000000000         
0010001300013P 010296290000000178772 28509430410570000   7  220000000000000011305201700000000000630000000 02N2404201730000000000000000000002200000000000000000000000000000000000000000000000000000000000000000000000000000003000000090000000000 
0010001300014Q 012019630465000154DUKA PRESTACAO DE SERVICOS ADMINISTRATIVCARLOS GOMES                            PONTE SAO JOAO 13215001JUNDIAI        SP                                                        000                    00000000
0010001300015R 010000000000000000000000000000000000000000000000001130520170000000000001260000000000000000000000000000000000000000000000000000000000000000000000000000000000000000000000000000000000000000000000000000000000000000000000         
0010001300016P 010296290000000178772 28509430412370000   7  220000000000000012605201700000000000630000000 02N2404201730000000000000000000002200000000000000000000000000000000000000000000000000000000000000000000000000000003000000090000000000 
0010001300017Q 012000629574000123MOTIF TECNICA LTDA - ME                 RUA COMENDADOR JOSE ALVES FERREIRA, 66 -GARCIA         40100160SALVADOR       BA                                                        000                    00000000
0010001300018R 010000000000000000000000000000000000000000000000001260520170000000000001260000000000000000000000000000000000000000000000000000000000000000000000000000000000000000000000000000000000000000000000000000000000000000000000         
0010001300019P 010296290000000178772 28509430412380000   7  220000000000000012105201700000000000630000000 02N2404201730000000000000000000002200000000000000000000000000000000000000000000000000000000000000000000000000000003000000090000000000 
0010001300020Q 012014057242000126EQUILIBRE CURSOS E TREINAMENTOS LTDA-ME RUA ANTONIO CARLOS FABER,764            JARDIM PORTAS D13482525LIMEIRA        SP                                                        000                    00000000
0010001300021R 010000000000000000000000000000000000000000000000001210520170000000000001260000000000000000000000000000000000000000000000000000000000000000000000000000000000000000000000000000000000000000000000000000000000000000000000         
0010001300022P 010296290000000178772 28509430412390000   7  220000000000000012005201700000000000630000000 02N2404201730000000000000000000002200000000000000000000000000000000000000000000000000000000000000000000000000000003000000090000000000 
0010001300023Q 012011933128000124JACQUELINE SOUZA DE OLIVEIRA            RUA DIAS VIEIRA, 525                    VILA SONIA     05632091SAO PAULO      SP                                                        000                    00000000
0010001300024R 010000000000000000000000000000000000000000000000001200520170000000000001260000000000000000000000000000000000000000000000000000000000000000000000000000000000000000000000000000000000000000000000000000000000000000000000         
0010001300025P 010296290000000178772 28509430412400000   7  220000000000000012005201700000000000630000000 02N2404201730000000000000000000002200000000000000000000000000000000000000000000000000000000000000000000000000000003000000090000000000 
0010001300026Q 012017620038000160CONCEICAO APARECIDA DE FELICE           RUA BAMBORE, 427                        IPIRANGA       04278060SAO PAULO      SP                                                        000                    00000000
0010001300027R 010000000000000000000000000000000000000000000000001200520170000000000001260000000000000000000000000000000000000000000000000000000000000000000000000000000000000000000000000000000000000000000000000000000000000000000000         
00100015         000029                                                                                                                                                                                                                         
00199999         000001000031                                                                                                                                                                                                                   
