00100000         296533310000140002850943001417019  0296290000000178772 CONTADOR AMIGO LTDA. - ME     BANCO DO BRASIL S.A                     104052017120525000000000                                                                          
00100011R01  000 2096533310000140002850943001417019  0296290000000178772 CONTADOR AMIGO LTDA. - ME                                                                                     0000000004052017                                         
0010001300001P 010296290000000178772 28509430416690000   7  220000000000000010405201700000000000630000000 02N0405201730000000000000000000000000000000000000000000000000000000000000000000000000000000000000000000000000000003000000090000000000 
0010001300002Q 012040307902000190JUNGLE JAZZ  PRODUCOES ARTISTICAS LTDA MRUA PROFESSOR ESTELITA LINS 100/304     LARANJEIRAS    22245150RIO DE JANEIRO RJ                                                        000                    00000000
0010001300003R 010000000000000000000000000000000000000000000000000000000000000000000000000000000000000000000000000000000000000000000000000000000000000000000000000000000000000000000000000000000000000000000000000000000000000000000000         
0010001300004P 010296290000000178772 28509430404290000   7  220000000000000011005201700000000000630000000 02N0405201730000000000000000000002200000000000000000000000000000000000000000000000000000000000000000000000000000003000000090000000000 
0010001300005Q 012012460816000187ESCOLA FENIX AUSTRAL                    RUA BARAO DE COROMANDEL                 BARREIRO DE BAI30640060BELO HORIZONTE MG                                                        000                    00000000
0010001300006R 010000000000000000000000000000000000000000000000001100520170000000000001260000000000000000000000000000000000000000000000000000000000000000000000000000000000000000000000000000000000000000000000000000000000000000000000         
0010001300007P 010296290000000178772 28509430415430000   7  220000000000000012605201700000000000630000000 02N0405201730000000000000000000002200000000000000000000000000000000000000000000000000000000000000000000000000000003000000090000000000 
0010001300008Q 012020344920000134LUCK BACK COM E IMPORTACAO LTDA         RUA PROJETADA DOIS, 36                  PARQUE XEREM   25245402DUQUE DE CAXIASRJ                                                        000                    00000000
0010001300009R 010000000000000000000000000000000000000000000000001260520170000000000001260000000000000000000000000000000000000000000000000000000000000000000000000000000000000000000000000000000000000000000000000000000000000000000000         
0010001300010P 010296290000000178772 28509430415480000   7  220000000000000012405201700000000000630000000 02N0405201730000000000000000000002200000000000000000000000000000000000000000000000000000000000000000000000000000003000000090000000000 
0010001300011Q 012012759009000160JULIO CESAR MOREIRA LANGE DE BARROS SERVRUA PROFESSOR JOSE LANDULFO, 109        PARQUE SONIA   04126110SAO PAULO      SP                                                        000                    00000000
0010001300012R 010000000000000000000000000000000000000000000000001240520170000000000001260000000000000000000000000000000000000000000000000000000000000000000000000000000000000000000000000000000000000000000000000000000000000000000000         
0010001300013P 010296290000000178772 28509430415980000   7  220000000000000012705201700000000000630000000 02N0405201730000000000000000000002200000000000000000000000000000000000000000000000000000000000000000000000000000003000000090000000000 
0010001300014Q 012007241834000138BRANDAO E BICKER ADVOGADOS ASSOCIADOS   RUA LINCOLN ALBUQUERQUE, 299, APTO. 121 PERDIZES       05004010SAO PAULO      SP                                                        000                    00000000
0010001300015R 010000000000000000000000000000000000000000000000001270520170000000000001260000000000000000000000000000000000000000000000000000000000000000000000000000000000000000000000000000000000000000000000000000000000000000000000         
0010001300016P 010296290000000178772 28509430416720000   7  220000000000000012805201700000000000630000000 02N0405201730000000000000000000002200000000000000000000000000000000000000000000000000000000000000000000000000000003000000090000000000 
0010001300017Q 012005161173000105PROTEXTO & DESIGN S/C LTDA.             RUA GENERAL JARDIM, 662                 VILA BUARQUE   01223010SAO PAULO      SP                                                        000                    00000000
0010001300018R 010000000000000000000000000000000000000000000000001280520170000000000001260000000000000000000000000000000000000000000000000000000000000000000000000000000000000000000000000000000000000000000000000000000000000000000000         
0010001300019P 010296290000000178772 28509430416730000   7  220000000000000010106201700000000000630000000 02N0405201730000000000000000000002200000000000000000000000000000000000000000000000000000000000000000000000000000003000000090000000000 
0010001300020Q 012013486243000123WALTECIR LOPES - GESBRASIL              AV. PAULISTA, 726 - 17  ANDAR - CONJ. 17SAO PAULO      01310910SAO PAULO      SP                                                        000                    00000000
0010001300021R 010000000000000000000000000000000000000000000000001010620170000000000001260000000000000000000000000000000000000000000000000000000000000000000000000000000000000000000000000000000000000000000000000000000000000000000000         
0010001300022P 010296290000000178772 28509430416740000   7  220000000000000010106201700000000000630000000 02N0405201730000000000000000000002200000000000000000000000000000000000000000000000000000000000000000000000000000003000000090000000000 
0010001300023Q 012019330012000102PIETRA PUBLICIDADE LTDA-ME              RUA ADACI SANTOS GOMES 147              BARRA          88332115BALNEARIO CAMBOSC                                                        000                    00000000
0010001300024R 010000000000000000000000000000000000000000000000001010620170000000000001260000000000000000000000000000000000000000000000000000000000000000000000000000000000000000000000000000000000000000000000000000000000000000000000         
0010001300025P 010296290000000178772 28509430416750000   7  220000000000000010706201700000000000630000000 02N0405201730000000000000000000002200000000000000000000000000000000000000000000000000000000000000000000000000000003000000090000000000 
0010001300026Q 012017032612000169ROCKIN´CHAIR PORTAL E COMUNICA         RUA APENINOS, 429, CJ. 1016             ACLIMACAO      01533000SAO PAULO      SP                                                        000                    00000000
0010001300027R 010000000000000000000000000000000000000000000000001070620170000000000001260000000000000000000000000000000000000000000000000000000000000000000000000000000000000000000000000000000000000000000000000000000000000000000000         
0010001300028P 010296290000000178772 28509430416760000   7  220000000000000010306201700000000000630000000 02N0405201730000000000000000000002200000000000000000000000000000000000000000000000000000000000000000000000000000003000000090000000000 
0010001300029Q 012004693505000130RS TRANSFER VIAGENS LTDA - ME           AVENIDA SAO JOAO, 323                   VILA ADYANNA   12242840SAO JOSE DOS CASP                                                        000                    00000000
0010001300030R 010000000000000000000000000000000000000000000000001030620170000000000001260000000000000000000000000000000000000000000000000000000000000000000000000000000000000000000000000000000000000000000000000000000000000000000000         
0010001300031P 010296290000000178772 28509430416770000   7  220000000000000010306201700000000000630000000 02N0405201730000000000000000000002200000000000000000000000000000000000000000000000000000000000000000000000000000003000000090000000000 
0010001300032Q 012022623796000171RENATA CELIA SILVEIRA SERRA-ME          RUA EWERTON VISCO, 324, SALA 504        CAMINHO DAS ARV41820022SALVADOR       BA                                                        000                    00000000
0010001300033R 010000000000000000000000000000000000000000000000001030620170000000000001260000000000000000000000000000000000000000000000000000000000000000000000000000000000000000000000000000000000000000000000000000000000000000000000         
0010001300034P 010296290000000178772 28509430416780000   7  220000000000000010506201700000000000630000000 02N0405201730000000000000000000002200000000000000000000000000000000000000000000000000000000000000000000000000000003000000090000000000 
0010001300035Q 012022233032000170ASSEVIP CORRETORA DE SEGUROS LTDA ME    RUA OURO FINO, 283 AP.403               IRAJA          21371230RIO DE JANEIRO RJ                                                        000                    00000000
0010001300036R 010000000000000000000000000000000000000000000000001050620170000000000001260000000000000000000000000000000000000000000000000000000000000000000000000000000000000000000000000000000000000000000000000000000000000000000000         
0010001300037P 010296290000000178772 28509430416790000   7  220000000000000010506201700000000000630000000 02N0405201730000000000000000000002200000000000000000000000000000000000000000000000000000000000000000000000000000003000000090000000000 
0010001300038Q 012066779463000101CARLOS ALBERTO MAJOLO CAMPOS            RUA MARIA LEONI DE ANDRADE              JARDIM HELENA  17022861BAURU          SP                                                        000                    00000000
0010001300039R 010000000000000000000000000000000000000000000000001050620170000000000001260000000000000000000000000000000000000000000000000000000000000000000000000000000000000000000000000000000000000000000000000000000000000000000000         
00100015         000041                                                                                                                                                                                                                         
00199999         000001000043                                                                                                                                                                                                                   
