00100000         296533310000140002850943001417019  0296290000000178772 CONTADOR AMIGO LTDA. - ME     BANCO DO BRASIL S.A                     124052017170524000000000                                                                          
00100011R01  000 2096533310000140002850943001417019  0296290000000178772 CONTADOR AMIGO LTDA. - ME                                                                                     0000000024052017                                         
0010001300001P 010296290000000178772 28509439019390000   7  220000000000000012405201700000000000630000000 02N2405201720000000000000000000002200000000000000000000000000000000000000000000000000000000000000000000000000000003000000090000000000 
0010001300002Q 012017620038000160CONCEICAO APARECIDA DE FELICE           RUA BAMBORE, 427                        IPIRANGA       04278060SAO PAULO      SP                                                        000                    00000000
0010001300003R 010000000000000000000000000000000000000000000000000000000000000000000000000000000000000000000000000000000000000000000000000000000000000000000000000000000000000000000000000000000000000000000000000000000000000000000000         
0010001300004P 010296290000000178772 28509430417860000   7  220000000000000010606201700000000000630000000 02N2405201720000000000000000000002200000000000000000000000000000000000000000000000000000000000000000000000000000003000000090000000000 
0010001300005Q 011000091677831715INFOCYBER14 COMERCIO E SERVICOS DE INFORRUA DEZESSETE N°120                    CHAPERO        23831360RIO DE JANEIRO RJ                                                        000                    00000000
0010001300006R 010000000000000000000000000000000000000000000000001060620170000000000001260000000000000000000000000000000000000000000000000000000000000000000000000000000000000000000000000000000000000000000000000000000000000000000000         
0010001300007P 010296290000000178772 28509430413700000   7  220000000000000012605201700000000000630000000 02N2405201730000000000000000000000000000000000000000000000000000000000000000000000000000000000000000000000000000003000000090000000000 
0010001300008Q 012014763517000147AKD PRODUCOES LTDA ME                   RUA ANTONIO DOMINGUES FREITAS, 115 , AP VILA AMALIA    02615020SAO PAULO      SP                                                        000                    00000000
0010001300009R 010000000000000000000000000000000000000000000000000000000000000000000000000000000000000000000000000000000000000000000000000000000000000000000000000000000000000000000000000000000000000000000000000000000000000000000000         
0010001300010P 010296290000000178772 28509430417770000   7  220000000000000010106201700000000000630000000 02N2405201730000000000000000000002200000000000000000000000000000000000000000000000000000000000000000000000000000003000000090000000000 
0010001300011Q 012019099781000141IMOBILIARIA CAMPO LARGO                 AVENIDA PEDRO PIRES DE MELO, 793        CAMPO LARGO    18160000SALTO DE PIRAPOSP                                                        000                    00000000
0010001300012R 010000000000000000000000000000000000000000000000001010620170000000000001260000000000000000000000000000000000000000000000000000000000000000000000000000000000000000000000000000000000000000000000000000000000000000000000         
00100015         000014                                                                                                                                                                                                                         
00199999         000001000016                                                                                                                                                                                                                   
