00100000         296533310000140002850943001417019  0296290000000178772 CONTADOR AMIGO LTDA. - ME     BANCO DO BRASIL S.A                     108062017180643000000000                                                                          
00100011R01  000 2096533310000140002850943001417019  0296290000000178772 CONTADOR AMIGO LTDA. - ME                                                                                     0000000008062017                                         
0010001300001P 010296290000000178772 28509430421150000   7  220000000000000011506201700000000001890000000 02N0806201730000000000000000000000000000000000000000000000000000000000000000000000000000000000000000000000000000003000000090000000000 
0010001300002Q 012008707859000147DRL LOCACAO E TRANSPORTES LTDA-ME       AV GUSTAVO ADOLFO 2533                  VILA MEDEIROS  02209001SAO PAULO      SP                                                        000                    00000000
0010001300003R 010000000000000000000000000000000000000000000000000000000000000000000000000000000000000000000000000000000000000000000000000000000000000000000000000000000000000000000000000000000000000000000000000000000000000000000000         
0010001300004P 010296290000000178772 28509430429180000   7  220000000000000010806201700000000001260000000 02N0806201730000000000000000000000000000000000000000000000000000000000000000000000000000000000000000000000000000003000000090000000000 
0010001300005Q 012019106420000185QUALITY LEARN CONSULTORIA E TREINAMENTO RUA ABRAHAO CALUX, 123 - SALA 84        VILA MOINHO VEL04286100SAO PAULO      SP                                                        000                    00000000
0010001300006R 010000000000000000000000000000000000000000000000000000000000000000000000000000000000000000000000000000000000000000000000000000000000000000000000000000000000000000000000000000000000000000000000000000000000000000000000         
0010001300007P 010296290000000178772 28509430427630000   7  220000000000000013006201700000000000630000000 02N0806201730000000000000000000002200000000000000000000000000000000000000000000000000000000000000000000000000000003000000090000000000 
0010001300008Q 012020324470000118BELLA TECNOLOGIA LTDA                   RUA SILVA GOMES, 60 - APT 201           CASCADURA      21350080RIO DE JANEIRO RJ                                                        000                    00000000
0010001300009R 010000000000000000000000000000000000000000000000001300620170000000000001260000000000000000000000000000000000000000000000000000000000000000000000000000000000000000000000000000000000000000000000000000000000000000000000         
0010001300010P 010296290000000178772 28509430428800000   7  220000000000000010107201700000000000630000000 02N0806201730000000000000000000002200000000000000000000000000000000000000000000000000000000000000000000000000000003000000090000000000 
0010001300011Q 012019717778000144HOPF GESTAO EMPRESARIAL LTDA            SBS Q 02 - BLOCO E - SALA 206           ASA SUL        70070120BRASILIA       DF                                                        000                    00000000
0010001300012R 010000000000000000000000000000000000000000000000001010720170000000000001260000000000000000000000000000000000000000000000000000000000000000000000000000000000000000000000000000000000000000000000000000000000000000000000         
0010001300013P 010296290000000178772 28509430428850000   7  220000000000000010107201700000000000630000000 02N0806201730000000000000000000002200000000000000000000000000000000000000000000000000000000000000000000000000000003000000090000000000 
0010001300014Q 012022333444000155ASSOCIACAO PROJETO BRASILEIRO DE DANCA  RUA SANTA CLARA, 378                    JARDIM PINEIRO 09941270SAO PAULO      SP                                                        000                    00000000
0010001300015R 010000000000000000000000000000000000000000000000001010720170000000000001260000000000000000000000000000000000000000000000000000000000000000000000000000000000000000000000000000000000000000000000000000000000000000000000         
0010001300016P 010296290000000178772 28509430428940000   7  220000000000000010807201700000000000630000000 02N0806201730000000000000000000002200000000000000000000000000000000000000000000000000000000000000000000000000000003000000090000000000 
0010001300017Q 012019723102000163WILLIANS ROBSON NONAKA PEREIRA - ME     RUA VATINGA, 166                        JD. IRACEMA    05847600SAO PAULO      SP                                                        000                    00000000
0010001300018R 010000000000000000000000000000000000000000000000001080720170000000000001260000000000000000000000000000000000000000000000000000000000000000000000000000000000000000000000000000000000000000000000000000000000000000000000         
0010001300019P 010296290000000178772 28509430429260000   7  220000000000000010707201700000000000630000000 02N0806201730000000000000000000002200000000000000000000000000000000000000000000000000000000000000000000000000000003000000090000000000 
0010001300020Q 012017032612000169ROCKINÂ´CHAIR PORTAL E COMUNICA         RUA APENINOS, 429, CJ. 1016             ACLIMACAO      01533000SAO PAULO      SP                                                        000                    00000000
0010001300021R 010000000000000000000000000000000000000000000000001070720170000000000001260000000000000000000000000000000000000000000000000000000000000000000000000000000000000000000000000000000000000000000000000000000000000000000000         
0010001300022P 010296290000000178772 28509430429270000   7  220000000000000010407201700000000000630000000 02N0806201730000000000000000000002200000000000000000000000000000000000000000000000000000000000000000000000000000003000000090000000000 
0010001300023Q 012022149102000106PAULO SERGIO ROGACHESKI CORRETORA DE SEGRUA VAHIA DE ABREU 72 C.1               BOQUEIRAO      11050120SANTOS         SP                                                        000                    00000000
0010001300024R 010000000000000000000000000000000000000000000000001040720170000000000001260000000000000000000000000000000000000000000000000000000000000000000000000000000000000000000000000000000000000000000000000000000000000000000000         
0010001300025P 010296290000000178772 28509430429290000   7  220000000000000010707201700000000000630000000 02N0806201730000000000000000000002200000000000000000000000000000000000000000000000000000000000000000000000000000003000000090000000000 
0010001300026Q 012022584877000100AUDATEC TECNICAS ESTATISTICAS AUTOMOTIVAAV. CASA VERDE, 2901 - AP. 38           CASA VERDE     02519200SAO PAULO      SP                                                        000                    00000000
0010001300027R 010000000000000000000000000000000000000000000000001070720170000000000001260000000000000000000000000000000000000000000000000000000000000000000000000000000000000000000000000000000000000000000000000000000000000000000000         
0010001300028P 010296290000000178772 28509430429300000   7  220000000000000010707201700000000000630000000 02N0806201730000000000000000000002200000000000000000000000000000000000000000000000000000000000000000000000000000003000000090000000000 
0010001300029Q 012010343225000102PADOVANI SERVICOS DE INFORMATICA LTDA   RUA GIACINTO TOGNATO, 1715              BAETA NEVES    09760372SAO BERNARDO DOSP                                                        000                    00000000
0010001300030R 010000000000000000000000000000000000000000000000001070720170000000000001260000000000000000000000000000000000000000000000000000000000000000000000000000000000000000000000000000000000000000000000000000000000000000000000         
0010001300031P 010296290000000178772 28509439027200000   7  220000000000000010806201700000000003000000000 02N0806201730000000000000000000000000000000000000000000000000000000000000000000000000000000000000000000000000000003000000090000000000 
0010001300032Q 011000003442258871EDGAR SANTANA DO NASCIMENTO             RUA JOSE DA COSTA DO NASCIMENTO, 105 AP ARICANDUVA     03572340SAO PAULO      SP                                                        000                    00000000
0010001300033R 010000000000000000000000000000000000000000000000000000000000000000000000000000000000000000000000000000000000000000000000000000000000000000000000000000000000000000000000000000000000000000000000000000000000000000000000         
0010001300034P 010296290000000178772 28509430429440000   7  220000000000000010806201700000000000630000000 02N0806201730000000000000000000002200000000000000000000000000000000000000000000000000000000000000000000000000000003000000090000000000 
0010001300035Q 011000029988619898MARCIO RIBEIRO DA CRUZ                  RUA SIMAO ALVES DE ALMEIDA 148          JARDIM MODELO  05867490SAO PAULO      SP                                                        000                    00000000
0010001300036R 010000000000000000000000000000000000000000000000001080620170000000000001260000000000000000000000000000000000000000000000000000000000000000000000000000000000000000000000000000000000000000000000000000000000000000000000         
0010001300037P 010296290000000178772 28509439027220000   7  220000000000000010806201700000000000630000000 02N0806201730000000000000000000002200000000000000000000000000000000000000000000000000000000000000000000000000000003000000090000000000 
0010001300038Q 012021544328000149TATIANA C.V ALVES                       R: JERONIMO ALVES, 239                  JD SANTO ANDRE 08390120SAO PAULO      SP                                                        000                    00000000
0010001300039R 010000000000000000000000000000000000000000000000000000000000000000000000000000000000000000000000000000000000000000000000000000000000000000000000000000000000000000000000000000000000000000000000000000000000000000000000         
00100015         000041                                                                                                                                                                                                                         
00199999         000001000043                                                                                                                                                                                                                   
