00                                                   1111785363000104GUSTAVO JOSE MARTINS DOMINGUESGUSTAVO JOSE MARTINSRUA CLODOALDO FERRAREZI 120                       JARDIM NOVO CAMPOS E13060120CAMPINAS            SP001932913786                                                            20150311511        1               111785363000104                  *
10111785363000104000000000000000000000000000000000000GUSTAVO JOSE MARTINS DOMINGUES ME       RUA CLODOALDO FERRAREZI 120                       JARDIM NOVO CAMPOS E13060120CAMPINAS            SP001932913786s5829800a0002566    2003     000000000000000000000000000000000000000000000000000000000000                000000000000000000000000000000000000000000000    *
12111785363000104000000000000000000000000000000000000000000000000000000000000000000 000000000000000000000000000000                                000000000000000            000000000000000000000000000000000000000000000000000000000000000000000000000000000000000000000000000000000000000000000000000000000000000000000000000000000000000000000000000000000000      *
30111785363000104               170618353790801201011GUSTAVO JOSE MARTINS DOMINGUES                                                                               01421000000000078800000000000000000    000000000000000000000000000000000000000000000000000000000000                                                                                                  *
90999999999999999999999999999999999999999999999999999                                                                                                                                                                                                                                                                                                                  *
