00                                                   1119967234000130JJSEGURANCA ELETRONICO LTDA MERAQUELLE ALBORGHETTIRUA MANICARIA 360                                 CURICICA            22780806RIO DE JANEIRO      RJ002135701742                                                            20150911511        1               119967234000130                  *
10119967234000130000000000000000000000000000000000000JJSEGURANCA ELETRONICO LTDA ME          RUA MANICARIA 360                                 CURICICA            22780806RIO DE JANEIRO      RJ002135701742s4321500a0002507    2003     000000000000000000000000000000000000000000000000000000000000                000000000000000000000000000000000000000000000    *
12119967234000130000000000000000000000000000000000000000000000000000000000000000000 000000000000000000000000000000                                000000000000000            000000000000000000000000000000000000000000000000000000000000000000000000000000000000000000000000000000000000000000000000000000000000000000000000000000000000000000000000000000000000      *
30119967234000130               131681386050101201411RAQUELLE ALBORGHETTI DA ROCHA MARQUES                                                                        01231000000000078800000000000000000    000000000000000000000000000000000000000000000000000000000000                                                                                                  *
90999999999999999999999999999999999999999999999999999                                                                                                                                                                                                                                                                                                                  *
