00                                                   1105459801000133MASTERCLIP COMUNICACAO LTDA   INALDA CELINA MADIO RUA SILVIO BARBOSA 216 AP 21C                     CAMARGOS            07111010GUARULHOS           SP001143070935                                                            20170211511        1               105459801000133                  *
10105459801000133000000000000000000000000000000000000MASTERCLIP COMUNICACAO LTDA             RUA SILVIO BARBOSA 216 AP 21C                     CAMARGOS            07111010GUARULHOS           SP001143070935s8299799a0002515    2003     000000000000000000000000000000000000000000000000000000000000                000000000000000000000000000000000000000000000    *
12105459801000133000000000000000000000000000000000000000000000000000000000000000000 000000000000000000000000000000                                000000000000000            000000000000000000000000000000000000000000000000000000000000000000000000000000000000000000000000000000000000000000000000000000000000000000000000000000000000000000000000000000000000      *
30105459801000133               121668438501112200211INALDA CELINA MADIO                                                                                          01210000000000093700000000000000000  05000000000010307000000000000000000000000000000000000000000000                                                                                                  *
90999999999999999999999999999999999999999999999999999                                                                                                                                                                                                                                                                                                                  *
