00                                                   1104218747000171KICKHOFEL CONSULTORIA LTDA    EDUARDO BRANCO KICKHR COM JOAQUIM DIAS 157                            TRES VENDAS         96020410PELOTAS             RS005330286444                                                            20170411511        1               104218747000171                  *
10104218747000171000000000000000000000000000000000000KICKHOFEL CONSULTORIA LTDA              R COM JOAQUIM DIAS 157                            TRES VENDAS         96020410PELOTAS             RS005330286444s7420001a0002566    2003     000000000000000000000000000000000000000000000000000000000000                000000000000000000000000000000000000000000000    *
12104218747000171000000000000000000000000000000000000000000000000000000000000000000 000000000000000000000000000000                                000000000000000            000000000000000000000000000000000000000000000000000000000000000000000000000000000000000000000000000000000000000000000000000000000000000000000000000000000000000000000000000000000000      *
30104218747000171               113850033450101200211EDUARDO BRANCO KICKHOFEL                                                                                     01210000000000093700000000000000000  05000000000010307000000000000000000000000000000000000000000000                                                                                                  *
90999999999999999999999999999999999999999999999999999                                                                                                                                                                                                                                                                                                                  *
