00                                                   1118785503000185AW ALMEIDA INFORMATICA LTDA MEADRIANA DE SOUSA ALMRUA PALMEIRA DO MAR 655                           INTERLAGOS          04824090SAO PAULO           SP011996849488                                                            20140311511        1               118785503000185                  *
10118785503000185000000000000000000000000000000000000AW ALMEIDA INFORMATICA LTDA ME          RUA PALMEIRA DO MAR 655                           INTERLAGOS          04824090SAO PAULO           SP011996849488s6209100a0002515    2003     000000000000000000000000000000000000000000000000000000000000                000000000000000000000000000000000000000000000    *
12118785503000185000000000000000000000000000000000000000000000000000000000000000000 000000000000000000000000000000                                000000000000000            000000000000000000000000000000000000000000000000000000000000000000000000000000000000000000000000000000000000000000000000000000000000000000000000000000000000000000000000000000000000      *
30118785503000185               125385583030109201311ADRIANA DE SOUSA ALMEIDA                                                                                     01210000000000072400000000000000000    000000000000000000000000000000000000000000000000000000000000                                                                                                  *
90999999999999999999999999999999999999999999999999999                                                                                                                                                                                                                                                                                                                  *
