00                                                   1115107107000100ANDERSON LUIS ANDRIOLI 1394999ANDERSON LUIS ANDRIOFRADIQUE COUTINHO 1443 APTO 22                    PINHEIROS           05416011SAO PAULO           SP011982338496                                                            20150111511        1               115107107000100                  *
10115107107000100000000000000000000000000000000000000ANDERSON LUIS ANDRIOLI 13949991867 ME   FRADIQUE COUTINHO 1443 APTO 22                    PINHEIROS           05416011SAO PAULO           SP011982338496s9001902a0002566    2003     000000000000000000000000000000000000000000000000000000000000                000000000000000000000000000000000000000000000    *
12115107107000100000000000000000000000000000000000000000000000000000000000000000000 000000000000000000000000000000                                000000000000000            000000000000000000000000000000000000000000000000000000000000000000000000000000000000000000000000000000000000000000000000000000000000000000000000000000000000000000000000000000000000      *
30115107107000100               190048083561901201511ANDERSON LUIS ANDRIOLI                                                                                       02627000000000200000000000000000000    000000000000000000000000000000000000000000000000000000000000                                                                                                  *
90999999999999999999999999999999999999999999999999999                                                                                                                                                                                                                                                                                                                  *
