00                                                   1122196189000172EDSON FRANCISCO DE MEIRA 08187EDSON FRANCISCO DE MRUA JOSE FRANCELINO DOS SANTOS 68                 JARDIM SERRANO      18117135VOTORANTIM          SP001530231204                                                            20150511511        1               122196189000172                  *
10122196189000172000000000000000000000000000000000000EDSON FRANCISCO DE MEIRA 08187663871    RUA JOSE FRANCELINO DOS SANTOS 68                 JARDIM SERRANO      18117135VOTORANTIM          SP001530231204s4330403a0002507    2003     000000000000000000000000000000000000000000000000000000000000                000000000000000000000000000000000000000000000    *
12122196189000172000000000000000000000000000000000000000000000000000000000000000000 000000000000000000000000000000                                000000000000000            000000000000000000000000000000000000000000000000000000000000000000000000000000000000000000000000000000000000000000000000000000000000000000000000000000000000000000000000000000000000      *
30122196189000172               122435725771805201511EDSON FRANCISCO DE MEIRA                                                                                     01421000000000150000000000000000000    000000000000000000000000000000000000000000000000000000000000                                                                                                  *
90999999999999999999999999999999999999999999999999999                                                                                                                                                                                                                                                                                                                  *
