00                                                   1113721523000179MARIVALDO SOUZA ARAUJO REFORMAMARIVALDO SOUZA ARAURUA ANDRE FALCAO DE REZENDE                       AMERICANOPOLIS      04337100SAO PAULO           SP011972505859                                                            20150815011        1               113721523000179                  *
10113721523000179000000000000000000000000000000000000MARIVALDO SOUZA ARAUJO REFORMAS         RUA ANDRE FALCAO DE REZENDE                       AMERICANOPOLIS      04337100SAO PAULO           SP011972505859s4399103a300150700002100     000000000000000000000000000000000000000000000000000000000000                000000000000000000000000000000000000000000000    *
12113721523000179000000000000000000000000000000000000000000000000000000000000000000 000000000000000000000000000000                                000000000000000            000000000000000000000000000000000000000000000000000000000000000000000000000000000000000000000000000000000000000000000000000000000000000000000000000000000000000000000000000000000000      *
20113721523000179113721523000179000000000000000000000MARIVALDO SOUZA ARAUJO REFORMAS         RUA ANDRE FALCAO DE REZENDE                       AMERICANOPOLIS      04337100SAO PAULO           SP    000000000000000000000000000000000000000000000000000000000000000000000000000000000000000000000000000000000000000000000000                                          *
30113721523000179113721523000179160476113203005201111MARIVALDO SOUZA ARAUJO                                                                                       01210000000000078800000000000000000    000000000000000000000000000000000000000000000000000000000000                                                                                                  *
90999999999999999999999999999999999999999999999999999                                                                                                                                                                                                                                                                                                                  *
