00                                                   1118847494000100CARLOS ALBERTO DAMIANI ME     CARLOS ALBERTO DAMIARUA PROF RODOLPHO DE FREITAS 690                  VILA IMPERIO        04406000SAO PAULO           SP001155652739                                                            20131211511        1               118847494000100                  *
10118847494000100000000000000000000000000000000000000CARLOS ALBERTO DAMIANI ME               RUA PROF RODOLPHO DE FREITAS 690                  VILA IMPERIO        04406000SAO PAULO           SP001155652739s7119703a0002515    2003     000000000000000000000000000000000000000000000000000000000000                000000000000000000000000000000000000000000000    *
12118847494000100000000000000000000000000000000000000000000000000000000000000000000 000000000000000000000000000000                                000000000000000            000000000000000000000000000000000000000000000000000000000000000000000000000000000000000000000000000000000000000000000000000000000000000000000000000000000000000000000000000000000000      *
30118847494000100               108364829881811201311CARLOS ALBERTO DAMIANI                                                                                       03186000000000067800000000000000000    000000000000000000000000000000000000000000000000000000000000                                                                                                  *
90999999999999999999999999999999999999999999999999999                                                                                                                                                                                                                                                                                                                  *
