00                                                   1122387342000149LIVIA CRISTINA B MARQUES FISIOLIVIA CRISTINA BRITOSHCLN CL QD 113 BL C N 49 SL 115                  ASA NORTE           70763530BRASILIA            DF006199070670                                                            20151111511        1               122387342000149                  *
10122387342000149000000000000000000000000000000000000LIVIA CRISTINA B MARQUES FISIOTERAPIA MESHCLN CL QD 113 BL C N 49 SL 115                  ASA NORTE           70763530BRASILIA            DF006199070670s8650004a0002515    2003     000000000000000000000000000000000000000000000000000000000000                000000000000000000000000000000000000000000000    *
12122387342000149000000000000000000000000000000000000000000000000000000000000000000 000000000000000000000000000000                                000000000000000            000000000000000000000000000000000000000000000000000000000000000000000000000000000000000000000000000000000000000000000000000000000000000000000000000000000000000000000000000000000000      *
30122387342000149               119748758860505201511LIVIA CRISTINA BRITO MARQUES                                                                                 02236000000000350000000000000000000    000000000000000000000000000000000000000000000000000000000000                                                                                                  *
90999999999999999999999999999999999999999999999999999                                                                                                                                                                                                                                                                                                                  *
