00                                                   1121228970000119CASTELLOBRANCO ARQUITETURA E CJEAN CASTELLO BRANCOAVENIDA NOSSA SENHORA DE COPACABANA 103304        COPACABANA          22020002RIO DE JANEIRO      RJ002125433635                                                            20170311511        1               121228970000119                  *
10121228970000119000000000000000000000000000000000000CASTELLOBRANCO ARQUITETURA E CONSTRUCAO AVENIDA NOSSA SENHORA DE COPACABANA 103304        COPACABANA          22020002RIO DE JANEIRO      RJ002125433635s4120400a0002507    2003     000000000000000000000000000000000000000000000000000000000000                000000000000000000000000000000000000000000000    *
12121228970000119000000000000000000000000000000000000000000000000000000000000000000 000000000000000000000000000000                                000000000000000            000000000000000000000000000000000000000000000000000000000000000000000000000000000000000000000000000000000000000000000000000000000000000000000000000000000000000000000000000000000000      *
30121228970000119               129849646261410201411JEAN CASTELLO BRANCO TARDELLI                                                                                01210000000000200000000000000000000    000000000000000000000000000000000000000000000000000000000000                                                                                                  *
90999999999999999999999999999999999999999999999999999                                                                                                                                                                                                                                                                                                                  *
