00                                                   1115434529000190VANESSA SANTANA LOPES ME      VANESSA SANTANA LOPERUA CARLINA 267                                   MARAPONGA           60710420FORTALEZA           CE008530138018                                                            20150911511        1               115434529000190                  *
10115434529000190000000000000000000000000000000000000VANESSA SANTANA LOPES ME                RUA CARLINA 267                                   MARAPONGA           60710420FORTALEZA           CE008530138018s4312600a300150700002100     000000000000000000000000000000000000000000000000000000000000                000000000000000000000000000000000000000000000    *
12115434529000190000000000000000000000000000000000000000000000000000000000000000000 000000000000000000000000000000                                000000000000000            000000000000000000000000000000000000000000000000000000000000000000000000000000000000000000000000000000000000000000000000000000000000000000000000000000000000000000000000000000000000      *
30115434529000190               133294961921004201211VANESSA SANTANA LOPES                                                                                        01210000000000250000000000000000000    000000000000000000000000000000000000000000000000000000000000                                                                                                  *
90999999999999999999999999999999999999999999999999999                                                                                                                                                                                                                                                                                                                  *
