00                                                   1117200400000143BRUNO AUGUSTO DE GODOY CASADO BRUNO AUGUSTO DE GODR MUCURI 70 CONJ 22                               VILA GUARANI        04313050SAO PAULO           SP011992590656                                                            20170411511        1               117200400000143                  *
10117200400000143000000000000000000000000000000000000BRUNO AUGUSTO DE GODOY CASADO ME        R MUCURI 70 CONJ 22                               VILA GUARANI        04313050SAO PAULO           SP011992590656s6201500a0002515    2003     000000000000000000000000000000000000000000000000000000000000                000000000000000000000000000000000000000000000    *
12117200400000143000000000000000000000000000000000000000000000000000000000000000000 000000000000000000000000000000                                000000000000000            000000000000000000000000000000000000000000000000000000000000000000000000000000000000000000000000000000000000000000000000000000000000000000000000000000000000000000000000000000000000      *
30117200400000143               201633690160112201211BRUNO AUGUSTO DE GODOY CASADO                                                                                01210000000000093700000000000000000    000000000000000000000000000000000000000000000000000000000000                                                                                                  *
90999999999999999999999999999999999999999999999999999                                                                                                                                                                                                                                                                                                                  *
