00                                                   1121590980000108DICKINSON SHERIDAN PINHEIRO RODICKINSON SHERIDAN PRUA ANTONIO BOVI 80                               SERRARIA            09980530DIADEMA             SP001140543303                                                            20150811511        1               121590980000108                  *
10121590980000108000000000000000000000000000000000000DICKINSON SHERIDAN PINHEIRO ROCHA 298012RUA ANTONIO BOVI 80                               SERRARIA            09980530DIADEMA             SP001140543303s3329501a0002507    2003     000000000000000000000000000000000000000000000000000000000000                000000000000000000000000000000000000000000000    *
12121590980000108000000000000000000000000000000000000000000000000000000000000000000 000000000000000000000000000000                                000000000000000            000000000000000000000000000000000000000000000000000000000000000000000000000000000000000000000000000000000000000000000000000000000000000000000000000000000000000000000000000000000000      *
30121590980000108               132630709310101201511DICKINSON SHERIDAN PINHEIRO                                                                                  01210000000000200000000000000000000    000000000000000000000000000000000000000000000000000000000000                                                                                                  *
90999999999999999999999999999999999999999999999999999                                                                                                                                                                                                                                                                                                                  *
