00                                                   1104258673000105E L ANSCHAU ME                EDIR LUIZ ANSCHAU   RUA DOMINGOS DE MORAIS 2132 CJ 62                 VILA MARIANA        04036000SAO PAULO           SP001140631920                                                            20131211511        1               104258673000105                  *
10104258673000105000000000000000000000000000000000000E L ANSCHAU ME                          RUA DOMINGOS DE MORAIS 2132 CJ 62                 VILA MARIANA        04036000SAO PAULO           SP001140631920s6311900a0002515    2003     000000000000000000000000000000000000000000000000000000000000                000000000000000000000000000000000000000000000    *
12104258673000105000000000000000000000000000000000000000000000000000000000000000000 000000000000000000000000000000                                000000000000000            000000000000000000000000000000000000000000000000000000000000000000000000000000000000000000000000000000000000000000000000000000000000000000000000000000000000000000000000000000000000      *
30104258673000105               119592616600103200311EDIR LUIZ ANSCHAU                                                                                            01231000000000067800000000000000000    000000000000000000000000000000000000000000000000000000000000                                                                                                  *
90999999999999999999999999999999999999999999999999999                                                                                                                                                                                                                                                                                                                  *
