00                                                   1104067415000133CLAUDIO RUBENS SILVA FILHO ME CLAUDIO RUBENS SILVARUA MAESTRO CARDIM 1218 CONJ 71                   LIBERDADE           01323001SAO PAULO           SP001131512280                                                            20140111511        1               104067415000133                  *
10104067415000133000000000000000000000000000000000000CLAUDIO RUBENS SILVA FILHO ME           RUA MAESTRO CARDIM 1218 CONJ 71                   LIBERDADE           01323001SAO PAULO           SP001131512280s6201500a0002515    2003     000000000000000000000000000000000000000000000000000000000000                000000000000000000000000000000000000000000000    *
12104067415000133000000000000000000000000000000000000000000000000000000000000000000 000000000000000000000000000000                                000000000000000            000000000000000000000000000000000000000000000000000000000000000000000000000000000000000000000000000000000000000000000000000000000000000000000000000000000000000000000000000000000000      *
30104067415000133               128744338982009200111CLAUDIO RUBENS SILVA FILHO                                                                                   01210000000000072400000000000000000    000000000000000000000000000000000000000000000000000000000000                                                                                                  *
90999999999999999999999999999999999999999999999999999                                                                                                                                                                                                                                                                                                                  *
