00                                                   1104057665000192QUALITYSTAR SERVICOS DE INFORMCELIO SCARPONI STARLRUA BENEDITO SAMPAIO 180                          PQ SAO QUIRINO      13088220CAMPINAS            SP001932568840                                                            20170411511        1               104057665000192                  *
10104057665000192000000000000000000000000000000000000QUALITYSTAR SERVICOS DE INFORMATICA LTDARUA BENEDITO SAMPAIO 180                          PQ SAO QUIRINO      13088220CAMPINAS            SP001932568840s9511800a0002515    2003     000000000000000000000000000000000000000000000000000000000000                000000000000000000000000000000000000000000000    *
12104057665000192000000000000000000000000000000000000000000000000000000000000000000 000000000000000000000000000000                                000000000000000            000000000000000000000000000000000000000000000000000000000000000000000000000000000000000000000000000000000000000000000000000000000000000000000000000000000000000000000000000000000000      *
30104057665000192               120974442631409200011CELIO SCARPONI STARLING                                                                                      01210000000000093700000000000000000    000000000000000000000000000000000000000000000000000000000000                                                                                                  *
90999999999999999999999999999999999999999999999999999                                                                                                                                                                                                                                                                                                                  *
