00                                                   1114084844000172SUPER EASY VIAGENS E TURISMO LROSANA MOREIRA RIBEIAV PAULO LINCON DO VALLE PONTIN 345 SALA 2 JA     JACANA              02273010SAO PAULO           SP001122430909                                                            20170411511        1               114084844000172                  *
10114084844000172000000000000000000000000000000000000SUPER EASY VIAGENS E TURISMO LTDA       AV PAULO LINCON DO VALLE PONTIN 345 SALA 2 JA     JACANA              02273010SAO PAULO           SP001122430909s7911200a0002515    2003     000000000000000000000000000000000000000000000000000000000000                000000000000000000000000000000000000000000000    *
12114084844000172000000000000000000000000000000000000000000000000000000000000000000 000000000000000000000000000000                                000000000000000            000000000000000000000000000000000000000000000000000000000000000000000000000000000000000000000000000000000000000000000000000000000000000000000000000000000000000000000000000000000000      *
30114084844000172               113685391601407201211ROSANA MOREIRA RIBEIRO                                                                                       01210000000000200000000000000000000    000000000000000000000000000000000000000000000000000000000000                                                                                                  *
90999999999999999999999999999999999999999999999999999                                                                                                                                                                                                                                                                                                                  *
