00                                                   1113344914000111RODRIGO IKEGAYA E SILVA ASSESSRODRIGO IKEGAYA E SIRUA SALVADOR ROSA 303                             JARDIM PREVIDENCIA  04159020SAO PAULO           SP011985801147                                                            20170411511        1               113344914000111                  *
10113344914000111000000000000000000000000000000000000RODRIGO IKEGAYA E SILVA ASSESS          RUA SALVADOR ROSA 303                             JARDIM PREVIDENCIA  04159020SAO PAULO           SP011985801147s8211300a0002515    2003     000000000000000000000000000000000000000000000000000000000000                000000000000000000000000000000000000000000000    *
12113344914000111000000000000000000000000000000000000000000000000000000000000000000 000000000000000000000000000000                                000000000000000            000000000000000000000000000000000000000000000000000000000000000000000000000000000000000000000000000000000000000000000000000000000000000000000000000000000000000000000000000000000000      *
30113344914000111               133578788190102201111RODRIGO IKEGAYA E SILVA                                                                                      01210000000000093700000000000000000    000000000000000000000000000000000000000000000000000000000000                                                                                                  *
90999999999999999999999999999999999999999999999999999                                                                                                                                                                                                                                                                                                                  *
