00                                                   1115491973000148MOBISNESS ELABORACAO DE PROGRADIEGO DE FREITAS QUER GUARARAPES 228 APT 164                          BROOKLIN PAULISTA   04561000SAO PAULO           SP001124786412                                                            20140511511        1               115491973000148                  *
10115491973000148000000000000000000000000000000000000MOBISNESS ELABORACAO DE PROGRA          R GUARARAPES 228 APT 164                          BROOKLIN PAULISTA   04561000SAO PAULO           SP001124786412s6201500a0002515    2003     000000000000000000000000000000000000000000000000000000000000                000000000000000000000000000000000000000000000    *
12115491973000148000000000000000000000000000000000000000000000000000000000000000000 000000000000000000000000000000                                000000000000000            000000000000000000000000000000000000000000000000000000000000000000000000000000000000000000000000000000000000000000000000000000000000000000000000000000000000000000000000000000000000      *
30115491973000148               129317457761401201311DIEGO DE FREITAS QUEIROGA ALVES                                                                              02124000000000072400000000000000000    000000000000000000000000000000000000000000000000000000000000                                                                                                  *
30115491973000148               136574859361403201211LUCAS MICHELINI REIS DE OLIVEIRA                                                                             02124000000000072400000000000000000    000000000000000000000000000000000000000000000000000000000000                                                                                                  *
90999999999999999999999999999999999999999999999999999                                                                                                                                                                                                                                                                                                                  *
