00                                                   1115519883000118SARFRI APOIO EMPRESARIAL EM SILIGIA SARNAUSKAS    RUA DOS ALIADOS 508 APTO 02                       VILA SAO PEDRO      09210210SANTO ANDRE         SP001126775681                                                            20150411511        1               115519883000118                  *
10115519883000118000000000000000000000000000000000000SARFRI APOIO EMPRESARIAL EM SI          RUA DOS ALIADOS 508 APTO 02                       VILA SAO PEDRO      09210210SANTO ANDRE         SP001126775681s8211300a0002515    2003     000000000000000000000000000000000000000000000000000000000000                000000000000000000000000000000000000000000000    *
12115519883000118000000000000000000000000000000000000000000000000000000000000000000 000000000000000000000000000000                                000000000000000            000000000000000000000000000000000000000000000000000000000000000000000000000000000000000000000000000000000000000000000000000000000000000000000000000000000000000000000000000000000000      *
30115519883000118               133582089301209201211IGOR FRICKS MELGACO DA SILVA                                                                                 01210000000000078800000000000000000    000000000000000000000000000000000000000000000000000000000000                                                                                                  *
90999999999999999999999999999999999999999999999999999                                                                                                                                                                                                                                                                                                                  *
