00                                                   1118356666000155JOSE JOAO SILVA E SILVA       JOSE DA SILVA       RUA HUM                                           CENTRO              31110020BELO HORIZONTE      MG003135252222                                                            20140911511        1               118356666000155                  *
10118356666000155000000000000000000000000000000000000JOSE JOAO SILVA E SILVA                 RUA HUM                                           CENTRO              31110020BELO HORIZONTE      MG003135252222s6920601a0002515    2003     000000000000000000000000000000000000000000000000000000000000                000000000000000000000000000000000000000000000    *
12118356666000155000000000000000000000000000000000000000000000000000000000000000000 000000000000000000000000000000                                000000000000000            000000000000000000000000000000000000000000000000000000000000000000000000000000000000000000000000000000000000000000000000000000000000000000000000000000000000000000000000000000000000      *
30118356666000155               000000000000101201311JOSE DA SILVA                                                                                                02522000000000072400000000000000000    000000000000000000000000000000000000000000000000000000000000                                                                                                  *
90999999999999999999999999999999999999999999999999999                                                                                                                                                                                                                                                                                                                  *
