00                                                   1122687927000184D M DIAS CHAVES ME            DAYANNE MACYLLA DIASRUA MANGUARI 257 B3 AP81                          JARDIM ANDARAI      02167080SAO PAULO           SP001134672293                                                            20151111511        1               122687927000184                  *
10122687927000184000000000000000000000000000000000000D M DIAS CHAVES ME                      RUA MANGUARI 257 B3 AP81                          JARDIM ANDARAI      02167080SAO PAULO           SP001134672293s7112000a0002507    2003     000000000000000000000000000000000000000000000000000000000000                000000000000000000000000000000000000000000000    *
12122687927000184000000000000000000000000000000000000000000000000000000000000000000 000000000000000000000000000000                                000000000000000            000000000000000000000000000000000000000000000000000000000000000000000000000000000000000000000000000000000000000000000000000000000000000000000000000000000000000000000000000000000000      *
30122687927000184               207708262311906201511DAYANNE MACYLLA DIAS CHAVES                                                                                  01210000000000078800000000000000000    000000000000000000000000000000000000000000000000000000000000                                                                                                  *
90999999999999999999999999999999999999999999999999999                                                                                                                                                                                                                                                                                                                  *
