00                                                   1112627877000196ALINE QUEIROZ VIAGENS E TURISMALINE BEATRIZ DE QUEAV MUTIRAO N 1932 SALA 4B                         BUENO               74215240GOIANIA             GO006239321333                                                            20150411511        1               112627877000196                  *
10112627877000196000000000000000000000000000000000000ALINE QUEIROZ VIAGENS E TURISMO LTDA    AV MUTIRAO N 1932 SALA 4B                         BUENO               74215240GOIANIA             GO006239321333s7911200a0002515    2003     000000000000000000000000000000000000000000000000000000000000                000000000000000000000000000000000000000000000    *
12112627877000196000000000000000000000000000000000000000000000000000000000000000000 000000000000000000000000000000                                000000000000000            000000000000000000000000000000000000000000000000000000000000000000000000000000000000000000000000000000000000000000000000000000000000000000000000000000000000000000000000000000000000      *
30112627877000196               131249233150110201011ALINE BEATRIZ DE QUEIROZ                                                                                     01414000000000078800000000000000000    000000000000000000000000000000000000000000000000000000000000                                                                                                  *
90999999999999999999999999999999999999999999999999999                                                                                                                                                                                                                                                                                                                  *
