00                                                   1138583787000134HEPTA SYSTEMS LTDA ME         CARLOS ALBERTO F PERRUA CONSELHEIRO LAFAIETE 1959 LOJA 7              SAGRADA FAMILIA     31035560BELO HORIZONTE      MG003130754090                                                            20160411511        1               138583787000134                  *
10138583787000134000000000000000000000000000000000000HEPTA SYSTEMS LTDA ME                   RUA CONSELHEIRO LAFAIETE 1959 LOJA 7              SAGRADA FAMILIA     31035560BELO HORIZONTE      MG003130754090s9521500a0002515    2003     000000000000000000000000000000000000000000000000000000000000                000000000000000000000000000000000000000000000    *
12138583787000134000000000000000000000000000000000000000000000000000000000000000000 000000000000000000000000000000                                000000000000000            000000000000000000000000000000000000000000000000000000000000000000000000000000000000000000000000000000000000000000000000000000000000000000000000000000000000000000000000000000000000      *
30138583787000134               108797193510806199011CARLOS ALBERTO F PEREIRA                                                                                     01210000000000170000000000000000000    000000000000000000000000000000000000000000000000000000000000                                                                                                  *
90999999999999999999999999999999999999999999999999999                                                                                                                                                                                                                                                                                                                  *
