00                                                   1108100443000166SABER FAZER MARKETING LTDA    ELI GONCALVES FERREIRUA ANCHIETA 249 UNID 31                          VILA BOAVENTURA     13201804JUNDIAI             SP001148060660                                                            20170511511        1               108100443000166                  *
10108100443000166000000000000000000000000000000000000SABER FAZER MARKETING LTDA              RUA ANCHIETA 249 UNID 31                          VILA BOAVENTURA     13201804JUNDIAI             SP001148060660s7020400a0002515    2003     000000000000000000000000000000000000000000000000000000000000                000000000000000000000000000000000000000000000    *
12108100443000166000000000000000000000000000000000000000000000000000000000000000000 000000000000000000000000000000                                000000000000000            000000000000000000000000000000000000000000000000000000000000000000000000000000000000000000000000000000000000000000000000000000000000000000000000000000000000000000000000000000000000      *
30108100443000166               124887736560806200611ELI GONCALVES FERREIRA JUNIOR                                                                                01210000000000093700000000000000000    000000000000000000000000000000000000000000000000000000000000                                                                                                  *
90999999999999999999999999999999999999999999999999999                                                                                                                                                                                                                                                                                                                  *
