00                                                   1107679828000167VIVIANE BUSCH PROJETO E INTERIVIVIANE DE OLIVEIRA R VISCONDE DO RIO BRANCO                          CENTRO              80420210CURITIBA            PR004130767515                                                            20170311511        1               107679828000167                  *
10107679828000167000000000000000000000000000000000000VIVIANE BUSCH PROJETO E INTERIORES LTDA R VISCONDE DO RIO BRANCO                          CENTRO              80420210CURITIBA            PR004130767515s7410202a0002566    2003     000000000000000000000000000000000000000000000000000000000000                000000000000000000000000000000000000000000000    *
12107679828000167000000000000000000000000000000000000000000000000000000000000000000 000000000000000000000000000000                                000000000000000            000000000000000000000000000000000000000000000000000000000000000000000000000000000000000000000000000000000000000000000000000000000000000000000000000000000000000000000000000000000000      *
30107679828000167               126182255210510200511VIVIANE DE OLIVEIRA BUSCH BAHR                                                                               01210000000000120000000000000000000    000000000000000000000000000000000000000000000000000000000000                                                                                                  *
90999999999999999999999999999999999999999999999999999                                                                                                                                                                                                                                                                                                                  *
