00                                                   1115448604000172VIPER SERVICO DE SEGURANCA ELEODANYEL MARQUES BEZEQNN 07 CONJUNTO K LOTE 02                         CEILANDIA NORTE     72225081BRASILIA            DF006130220307                                                            20150511511        1               115448604000172                  *
10115448604000172000000000000000000000000000000000000VIPER SERVICO DE SEGURANCA ELETRONICA LTQNN 07 CONJUNTO K LOTE 02                         CEILANDIA NORTE     72225081BRASILIA            DF006130220307s4321500a0002507    2003     000000000000000000000000000000000000000000000000000000000000                000000000000000000000000000000000000000000000    *
12115448604000172000000000000000000000000000000000000000000000000000000000000000000 000000000000000000000000000000                                000000000000000            000000000000000000000000000000000000000000000000000000000000000000000000000000000000000000000000000000000000000000000000000000000000000000000000000000000000000000000000000000000000      *
30115448604000172               128975229863004201311ODANYEL MARQUES BEZERRA                                                                                      01210000000000100000000000000000000    000000000000000000000000000000000000000000000000000000000000                                                                                                  *
90999999999999999999999999999999999999999999999999999                                                                                                                                                                                                                                                                                                                  *
