00                                                   1113606609000150SIDNEI RIBEIRO DA SILVA       PAULO GERMANO       RUA LIBERIA 615                                   NACOES              88338233BALNEARIO CAMBORIU  SC004792418939                                                            20131015011        1               113606609000150                  *
10113606609000150000000000000000000000000000000000000SIDNEI RIBEIRO DA SILVA                 RUA LIBERIA 615                                   NACOES              88338233BALNEARIO CAMBORIU  SC004792418939s4321500a0002507    2003     000000000000000000000000000000000000000000000000000000000000                000000000000000000000000000000000000000000000    *
12113606609000150000000000000000000000000000000000000000000000000000000000000000000 000000000000000000000000000000                                000000000000000            000000000000000000000000000000000000000000000000000000000000000000000000000000000000000000000000000000000000000000000000000000000000000000000000000000000000000000000000000000000000      *
20113606609000150113606609000150000000000000000000000SIDNEI RIBEIRO DA SILVA                 RUA LIBERIA 615                                   NACOES              88338233BALNEARIO CAMBORIU  SC    000000000000000000000000000000000000000000000000000000000000000000000000000000000000000000000000000000000000000000000000                                          *
30113606609000150113606609000150152222222330103201311PAULO GERMANO                                                                                                01210000000000102200000000000000000    000000000000000000000000000000000000000000000000000000000000                                                                                                  *
90999999999999999999999999999999999999999999999999999                                                                                                                                                                                                                                                                                                                  *
