00                                                   1121962547000148CMS NOVAES ORCAMENTOS E DESENHCAMILA SANTOS NOVAESRUA TAMANDARE 341                                 VILA LEAO           18040360SOROCABA            SP011991854155                                                            20170411511        1               121962547000148                  *
10121962547000148000000000000000000000000000000000000CMS NOVAES ORCAMENTOS E DESENHOS TECNICORUA TAMANDARE 341                                 VILA LEAO           18040360SOROCABA            SP011991854155s8219999a0002515    2003     000000000000000000000000000000000000000000000000000000000000                000000000000000000000000000000000000000000000    *
12121962547000148000000000000000000000000000000000000000000000000000000000000000000 000000000000000000000000000000                                000000000000000            000000000000000000000000000000000000000000000000000000000000000000000000000000000000000000000000000000000000000000000000000000000000000000000000000000000000000000000000000000000000      *
30121962547000148               137642828500203201511CAMILA SANTOS NOVAES                                                                                         01210000000000213000000000000000000    000000000000000000000000000000000000000000000000000000000000                                                                                                  *
90999999999999999999999999999999999999999999999999999                                                                                                                                                                                                                                                                                                                  *
