00                                                   1112709967000126MCANT SOLUCOES EM COMUNICACAO MARCELO MIRANDA CAVAAV FRANCISCO MATARAZZO 232 AP 164                 AGUA BRANCA         05001000SAO PAULO           SP001163446833                                                            20150211511        1               112709967000126                  *
10112709967000126000000000000000000000000000000000000MCANT SOLUCOES EM COMUNICACAO E INTERNETAV FRANCISCO MATARAZZO 232 AP 164                 AGUA BRANCA         05001000SAO PAULO           SP001163446833s6209100a0002515    2003     000000000000000000000000000000000000000000000000000000000000                000000000000000000000000000000000000000000000    *
12112709967000126000000000000000000000000000000000000000000000000000000000000000000 000000000000000000000000000000                                000000000000000            000000000000000000000000000000000000000000000000000000000000000000000000000000000000000000000000000000000000000000000000000000000000000000000000000000000000000000000000000000000000      *
30112709967000126               129389861161709201211MARCELO MIRANDA CAVALCANTE                                                                                   01231000000000078800000000000000000    000000000000000000000000000000000000000000000000000000000000                                                                                                  *
90999999999999999999999999999999999999999999999999999                                                                                                                                                                                                                                                                                                                  *
