00                                                   1113307901000172KATE DE FREITAS SOUZA CUNHA 27KATE DE FREITAS SOUZRUA CAROLINA ROQUE 416 IMIRIM                     IMIRIM              02472030SAO PAULO           SP001122080393                                                            20151211511        1               113307901000172                  *
10113307901000172000000000000000000000000000000000000KATE DE FREITAS SOUZA CUNHA 27613578844 RUA CAROLINA ROQUE 416 IMIRIM                     IMIRIM              02472030SAO PAULO           SP001122080393s9511800a0002515    2003     000000000000000000000000000000000000000000000000000000000000                000000000000000000000000000000000000000000000    *
12113307901000172000000000000000000000000000000000000000000000000000000000000000000 000000000000000000000000000000                                000000000000000            000000000000000000000000000000000000000000000000000000000000000000000000000000000000000000000000000000000000000000000000000000000000000000000000000000000000000000000000000000000000      *
30113307901000172               126271378502502201111KATE DE FREITAS SOUZA CUNHA                                                                                  01210000000000078800000000000000000    000000000000000000000000000000000000000000000000000000000000                                                                                                  *
90999999999999999999999999999999999999999999999999999                                                                                                                                                                                                                                                                                                                  *
