00                                                   1114847399000155BETA STORM SOLUCOES EM TI EIREJOSE MARQUES DOS SANAVENIDA WASHINGTON LUIZ 250 SL 305                CENTRO              13600720ARARAS              SP011991723866                                                            20151011511        1               114847399000155                  *
10114847399000155000000000000000000000000000000000000BETA STORM SOLUCOES EM TI EIRELI ME     AVENIDA WASHINGTON LUIZ 250 SL 305                CENTRO              13600720ARARAS              SP011991723866s6319400a0002515    2003     000000000000000000000000000000000000000000000000000000000000                000000000000000000000000000000000000000000000    *
12114847399000155000000000000000000000000000000000000000000000000000000000000000000 000000000000000000000000000000                                000000000000000            000000000000000000000000000000000000000000000000000000000000000000000000000000000000000000000000000000000000000000000000000000000000000000000000000000000000000000000000000000000000      *
30114847399000155               122201510440901201211JOSE MARQUES DOS SANTOS                                                                                      01231000000000090000000000000000000    000000000000000000000000000000000000000000000000000000000000                                                                                                  *
90999999999999999999999999999999999999999999999999999                                                                                                                                                                                                                                                                                                                  *
