00                                                   1112036764000116DANT 23 SERVICOS ADMINISTRATIVDANIEL ANTUNES DE AZPRACA ANTONIO CALLADO 175 APT 1406                BARRA DA TIJUCA     22793084RIO DE JANEIRO      RJ021999735009                                                            20140411511        1               112036764000116                  *
10112036764000116000000000000000000000000000000000000DANT 23 SERVICOS ADMINISTRATIV          PRACA ANTONIO CALLADO 175 APT 1406                BARRA DA TIJUCA     22793084RIO DE JANEIRO      RJ021999735009s8219999a0002515    2003     000000000000000000000000000000000000000000000000000000000000                000000000000000000000000000000000000000000000    *
12112036764000116000000000000000000000000000000000000000000000000000000000000000000 000000000000000000000000000000                                000000000000000            000000000000000000000000000000000000000000000000000000000000000000000000000000000000000000000000000000000000000000000000000000000000000000000000000000000000000000000000000000000000      *
30112036764000116               124354350711805201011MARCELLE MACIEL FERNANDES DE AZEVEDO                                                                         01231000000000072400000000000000000    000000000000000000000000000000000000000000000000000000000000                                                                                                  *
30112036764000116               129159608971805201011DANIEL ANTUNES DE AZEVEDO                                                                                    01210000000000072400000000000000000    000000000000000000000000000000000000000000000000000000000000                                                                                                  *
90999999999999999999999999999999999999999999999999999                                                                                                                                                                                                                                                                                                                  *
