00                                                   1117952955000141FR WIEK SOFTWARES ME          FERNANDO RAFAEL WIEKAV CELSO GARCIA 5754 AP 14 BL 2                   TATUAPE             03064000SAO PAULO           SP011982195105                                                            20150711511        1               117952955000141                  *
10117952955000141000000000000000000000000000000000000FR WIEK SOFTWARES ME                    AV CELSO GARCIA 5754 AP 14 BL 2                   TATUAPE             03064000SAO PAULO           SP011982195105s6201500a0002515    2003     000000000000000000000000000000000000000000000000000000000000                000000000000000000000000000000000000000000000    *
12117952955000141000000000000000000000000000000000000000000000000000000000000000000 000000000000000000000000000000                                000000000000000            000000000000000000000000000000000000000000000000000000000000000000000000000000000000000000000000000000000000000000000000000000000000000000000000000000000000000000000000000000000000      *
30117952955000141               131496728551704201311FERNANDO RAFAEL WIEK                                                                                         02124000000000600000000000000000000  05000000000000000000000000000000000000000000000000000000000000                                                                                                  *
90999999999999999999999999999999999999999999999999999                                                                                                                                                                                                                                                                                                                  *
