00                                                   1110998004000164DEUZENI P FREITAS ME          KAIO MARQUESINHO    AV ANTONIO FIRMINO 520                            VILA NOVA           35290000MANTENA             MG003332412676                                                            20140911511        1               110998004000164                  *
10110998004000164000000000000000000000000000000000000DEUZENI P FREITAS ME                    AV ANTONIO FIRMINO 520                            VILA NOVA           35290000MANTENA             MG003332412676s8122200a0002515    2003     000000000000000000000000000000000000000000000000000000000000                000000000000000000000000000000000000000000000    *
12110998004000164000000000000000000000000000000000000000000000000000000000000000000 000000000000000000000000000000                                000000000000000            000000000000000000000000000000000000000000000000000000000000000000000000000000000000000000000000000000000000000000000000000000000000000000000000000000000000000000000000000000000000      *
30110998004000164               206641976840101201411KAIO MARQUESINHO                                                                                             01231000000000050000000000000000000    000000000000000000000000000000000000000000000000000000000000                                                                                                  *
30110998004000164               20664197684        13KAIO MARQUESINHO                                                                                             02523000000000500000000000000000000    000000000000000000000000000000000000000000000000000000000000                                                                                                  *
90999999999999999999999999999999999999999999999999999                                                                                                                                                                                                                                                                                                                  *
