00                                                   1112553127000117JARDIM SONORO PRODUCOES EIRE  FREDERICO FLORES DA AV CANDIDO HARTMANN 4555 CS 16                    SANTO INACIO        82015100CURITIBA            PR004188128123                                                            20150311511        1               112553127000117                  *
10112553127000117000000000000000000000000000000000000JARDIM SONORO PRODUCOES EIRE            AV CANDIDO HARTMANN 4555 CS 16                    SANTO INACIO        82015100CURITIBA            PR004188128123s9001902a0002566    2003     000000000000000000000000000000000000000000000000000000000000                000000000000000000000000000000000000000000000    *
12112553127000117000000000000000000000000000000000000000000000000000000000000000000 000000000000000000000000000000                                000000000000000            000000000000000000000000000000000000000000000000000000000000000000000000000000000000000000000000000000000000000000000000000000000000000000000000000000000000000000000000000000000000      *
30112553127000117               267482341051203201411FREDERICO FLORES DA SILVA                                                                                    01210000000000078800000000000000000    000000000000000000000000000000000000000000000000000000000000                                                                                                  *
90999999999999999999999999999999999999999999999999999                                                                                                                                                                                                                                                                                                                  *
