00                                                   1114213977000100REINALDO GUERRERO JUNIOR ME   REINALDO GUERRERO JUAV LINS DE VASCONCELOS 1455 APTO 154              CAMBUCI             01537001SAO PAULO           SP011986909191                                                            20160611511        1               114213977000100                  *
10114213977000100000000000000000000000000000000000000REINALDO GUERRERO JUNIOR ME             AV LINS DE VASCONCELOS 1455 APTO 154              CAMBUCI             01537001SAO PAULO           SP011986909191s8211300a0002515    2003     000000000000000000000000000000000000000000000000000000000000                000000000000000000000000000000000000000000000    *
12114213977000100000000000000000000000000000000000000000000000000000000000000000000 000000000000000000000000000000                                000000000000000            000000000000000000000000000000000000000000000000000000000000000000000000000000000000000000000000000000000000000000000000000000000000000000000000000000000000000000000000000000000000      *
30114213977000100               122287524701008201111REINALDO GUERRERO JUNIOR                                                                                     01210000000000518982000000000000000    000000000000000000000000000000000000000000000000000000000000                                                                                                  *
90999999999999999999999999999999999999999999999999999                                                                                                                                                                                                                                                                                                                  *
