00                                                   1121540827000168P V DANTAS EIRELI ME          PIERRE VILAR DANTAS AVENIDA MAX TEIXEIRA 2280 ANEXO A                 CIDADE NOVA         69090001MANAUS              AM092984139767                                                            20170411511        1               121540827000168                  *
10121540827000168000000000000000000000000000000000000P V DANTAS EIRELI ME                    AVENIDA MAX TEIXEIRA 2280 ANEXO A                 CIDADE NOVA         69090001MANAUS              AM092984139767s7112000a0002507    2003     000000000000000000000000000000000000000000000000000000000000                000000000000000000000000000000000000000000000    *
12121540827000168000000000000000000000000000000000000000000000000000000000000000000 000000000000000000000000000000                                000000000000000            000000000000000000000000000000000000000000000000000000000000000000000000000000000000000000000000000000000000000000000000000000000000000000000000000000000000000000000000000000000000      *
30121540827000168               128537620270912201411PIERRE VILAR DANTAS                                                                                          01210000000000093700000000000000000    000000000000000000000000000000000000000000000000000000000000                                                                                                  *
90999999999999999999999999999999999999999999999999999                                                                                                                                                                                                                                                                                                                  *
