00                                                   1114057242000126EQUILIBRE CURSOS E TREINAMENTOLUCA POGGETTI       RUA ANTONIO CARLOS FABER 764                      JARDIM PORTAL DAS RO13482525LIMEIRA             SP001930344330                                                            20170411511        1               114057242000126                  *
10114057242000126000000000000000000000000000000000000EQUILIBRE CURSOS E TREINAMENTOS LTDAME  RUA ANTONIO CARLOS FABER 764                      JARDIM PORTAL DAS RO13482525LIMEIRA             SP001930344330s8599699a0002515    2003     000000000000000000000000000000000000000000000000000000000000                000000000000000000000000000000000000000000000    *
12114057242000126000000000000000000000000000000000000000000000000000000000000000000 000000000000000000000000000000                                000000000000000            000000000000000000000000000000000000000000000000000000000000000000000000000000000000000000000000000000000000000000000000000000000000000000000000000000000000000000000000000000000000      *
30114057242000126               115773538832106201111LUCA POGGETTI                                                                                                01231000000000093700000000000000000    000000000000000000000000000000000000000000000000000000000000                                                                                                  *
90999999999999999999999999999999999999999999999999999                                                                                                                                                                                                                                                                                                                  *
