00                                                   1120585397000138ALBERTO S FERREIRA EPP        ALBERTO SANTOS FERRECALCADA DOS CRAVOS 76 SALA 213                    ALPHAVILLE EMPRESARI06453053BARUERI             SP001128635750                                                            20150911511        1               120585397000138                  *
10120585397000138000000000000000000000000000000000000ALBERTO S FERREIRA EPP                  CALCADA DOS CRAVOS 76 SALA 213                    ALPHAVILLE EMPRESARI06453053BARUERI             SP001128635750s8219999a0002515    2003     000000000000000000000000000000000000000000000000000000000000                000000000000000000000000000000000000000000000    *
12120585397000138000000000000000000000000000000000000000000000000000000000000000000 000000000000000000000000000000                                000000000000000            000000000000000000000000000000000000000000000000000000000000000000000000000000000000000000000000000000000000000000000000000000000000000000000000000000000000000000000000000000000000      *
30120585397000138               125947870612506201411ALBERTO SANTOS FERREIRA                                                                                      01210000000000200000000000000000000    000000000000000000000000000000000000000000000000000000000000                                                                                                  *
90999999999999999999999999999999999999999999999999999                                                                                                                                                                                                                                                                                                                  *
