00                                                   1112230184000165SERGIO RIBEIRO GOMES ME       SERGIO RIBEIRO GOMESAV SANATORIO 480                                  JD MODELO           02238000SAO PAULO           SP001123041511                                                            20130711511        1               112230184000165                  *
10112230184000165000000000000000000000000000000000000SERGIO RIBEIRO GOMES ME                 AV SANATORIO 480                                  JD MODELO           02238000SAO PAULO           SP001123041511s4751201a0002    2003     000000000000000000000000000000000000000000000000000000000000                000000000000000000000000000000000000000000000    *
12112230184000165000000000000000000000000000000000000000000000000000000000000000000 000000000000000000000000000000                                000000000000000            000000000000000000000000000000000000000000000000000000000000000000000000000000000000000000000000000000000000000000000000000000000000000000000000000000000000000000000000000000000000      *
30112230184000165               128457088172306201011SERGIO RIBEIRO GOMES                                                                                         01231000000000067800000000000000000    000000000000000000000000000000000000000000000000000000000000                                                                                                  *
90999999999999999999999999999999999999999999999999999                                                                                                                                                                                                                                                                                                                  *
