00                                                   1122677023000178FRAZENG PROJETOS E CONSULTORIAMAURO FRAZAO DOS SANRUA CACAO440                                      JD SAO CARLOS       06694260ITAPEVI             SP001141424377                                                            20150915011        1               122677023000178                  *
10122677023000178000000000000000000000000000000000000FRAZENG PROJETOS E CONSULTORIA          RUA CACAO440                                      JD SAO CARLOS       06694260ITAPEVI             SP001141424377s4330402a300150700002100     000000000000000000000000000000000000000000000000000000000000                000000000000000000000000000000000000000000000    *
12122677023000178000000000000000000000000000000000000000000000000000000000000000000 000000000000000000000000000000                                000000000000000            000000000000000000000000000000000000000000000000000000000000000000000000000000000000000000000000000000000000000000000000000000000000000000000000000000000000000000000000000000000000      *
20122677023000178122677023000178000000000000000000000FRAZENG PROJETOS E CONSULTORIA          RUA CACAO440                                      JD SAO CARLOS       06694260ITAPEVI             SP    000000000000000000000000000000000000000000000000000000000000000000000000000000000000000000000000000000000000000000000000                                          *
30122677023000178122677023000178128090628991806201511MAURO FRAZAO DOS SANTOS                                                                                      01210000000000078800000000000000000  05000000000008668000000000000000000000000000000000000000000000                                                                                                  *
90999999999999999999999999999999999999999999999999999                                                                                                                                                                                                                                                                                                                  *
