00                                                   1119152857000155DS TREINAMENTO EM DESENVOLVIMEDURVAL DOS SANTOS JUR TREZE DE MAIO 3320                              CENTRO              13569040SAO CARLOS          SP001633614947                                                            20141211511        1               119152857000155                  *
10119152857000155000000000000000000000000000000000000DS TREINAMENTO EM DESENVOLVIMENTO PROFISR TREZE DE MAIO 3320                              CENTRO              13569040SAO CARLOS          SP001633614947s8599604a0002515    2003     000000000000000000000000000000000000000000000000000000000000                000000000000000000000000000000000000000000000    *
12119152857000155000000000000000000000000000000000000000000000000000000000000000000 000000000000000000000000000000                                000000000000000            000000000000000000000000000000000000000000000000000000000000000000000000000000000000000000000000000000000000000000000000000000000000000000000000000000000000000000000000000000000000      *
30119152857000155               180005002002910201311DURVAL DOS SANTOS JUNIOR                                                                                     01210000000000072400000000000000000    000000000000000000000000000000000000000000000000000000000000                                                                                                  *
90999999999999999999999999999999999999999999999999999                                                                                                                                                                                                                                                                                                                  *
