00                                                   1118644292000160ANTONIO CARLOS IBANHES PAES MEANTONIO CARLOS IBANHR JOSE RABELO LEITE 400                           SANTA ROSA          78040265CUIABA              MT006184948022                                                            20170111511        1               118644292000160                  *
10118644292000160000000000000000000000000000000000000ANTONIO CARLOS IBANHES PAES ME          R JOSE RABELO LEITE 400                           SANTA ROSA          78040265CUIABA              MT006184948022s6209100a0002515    2003     000000000000000000000000000000000000000000000000000000000000                000000000000000000000000000000000000000000000    *
12118644292000160000000000000000000000000000000000000000000000000000000000000000000 000000000000000000000000000000                                000000000000000            000000000000000000000000000000000000000000000000000000000000000000000000000000000000000000000000000000000000000000000000000000000000000000000000000000000000000000000000000000000000      *
30118644292000160               129763344060112201311ANTONIO CARLOS IBANHES PAES                                                                                  01210000000000093700000000000000000    000000000000000000000000000000000000000000000000000000000000                                                                                                  *
90999999999999999999999999999999999999999999999999999                                                                                                                                                                                                                                                                                                                  *
