00                                                   1111371318000103BRASIL LOC COM P MAQ LTDA     VERA LUCIA PEREIRA TRUA SEVERINO LARA 8                               VENDA NOVA          31610260BELO HORIZONTE      MG003134572225                                                            20170411511        1               111371318000103                  *
10111371318000103000000000000000000000000000000000000BRASIL LOC COM P MAQ LTDA               RUA SEVERINO LARA 8                               VENDA NOVA          31610260BELO HORIZONTE      MG003134572225s7732202a0002515    2003     000000000000000000000000000000000000000000000000000000000000                000000000000000000000000000000000000000000000    *
12111371318000103000000000000000000000000000000000000000000000000000000000000000000 000000000000000000000000000000                                000000000000000            000000000000000000000000000000000000000000000000000000000000000000000000000000000000000000000000000000000000000000000000000000000000000000000000000000000000000000000000000000000000      *
30111371318000103               100995024770411201311VERA LUCIA PEREIRA TEIXEIRA                                                                                  01231000000000187400000000000000000    000000000000000000000000000000000000000000000000000000000000                                                                                                  *
30111371318000103               203776932050411201311HELTON FONSECA BASTOS                                                                                        01210000000000093700000000000000000    000000000000000000000000000000000000000000000000000000000000                                                                                                  *
90999999999999999999999999999999999999999999999999999                                                                                                                                                                                                                                                                                                                  *
