00                                                   1119813841000146EDUKETER TREINAMENTO E DESEN  ERIC TREVISANI      R DAS AROEIRAS                                    CH FLORA            13306654ITU                 SP001193957050                                                            20151011511        1               119813841000146                  *
10119813841000146000000000000000000000000000000000000EDUKETER TREINAMENTO E DESEN            R DAS AROEIRAS                                    CH FLORA            13306654ITU                 SP001193957050s8599604a0002515    2003     000000000000000000000000000000000000000000000000000000000000                000000000000000000000000000000000000000000000    *
12119813841000146000000000000000000000000000000000000000000000000000000000000000000 000000000000000000000000000000                                000000000000000            000000000000000000000000000000000000000000000000000000000000000000000000000000000000000000000000000000000000000000000000000000000000000000000000000000000000000000000000000000000000      *
30119813841000146               138711029370101201411ERIC TREVISANI                                                                                               01210000000000111273000000000000000    000000000000000000000000000000000000000000000000000000000000                                                                                                  *
90999999999999999999999999999999999999999999999999999                                                                                                                                                                                                                                                                                                                  *
