00                                                   1121295645000179AMAURI SILVEIRA CORREA TECNOLOAMAURI SILVEIRA CORRRUA DO ARUANA 67 AP114A                           PARQUE RESIDENCIAL A12246250SAO JOSE DOS CAMPOS SP012991247618                                                            20160411511        1               121295645000179                  *
10121295645000179000000000000000000000000000000000000AMAURI SILVEIRA CORREA TECNOLOGIA DA INFRUA DO ARUANA 67 AP114A                           PARQUE RESIDENCIAL A12246250SAO JOSE DOS CAMPOS SP012991247618s6201500a0002515    2003     000000000000000000000000000000000000000000000000000000000000                000000000000000000000000000000000000000000000    *
12121295645000179000000000000000000000000000000000000000000000000000000000000000000 000000000000000000000000000000                                000000000000000            000000000000000000000000000000000000000000000000000000000000000000000000000000000000000000000000000000000000000000000000000000000000000000000000000000000000000000000000000000000000      *
30121295645000179               170056858200610201411AMAURI SILVEIRA CORREA                                                                                       01210000000000520000000000000000000    000000000000000000000000000000000000000000000000000000000000                                                                                                  *
90999999999999999999999999999999999999999999999999999                                                                                                                                                                                                                                                                                                                  *
