00                                                   1112907308000102J F GUIMARAES CIA LTDA        JOAQUIM FERREIRA GUIRUA PRES EPITACIO PESSOA 561                      TARUMA              82530270CURITIBA            PR004133085843                                                            20140411511        1               112907308000102                  *
10112907308000102000000000000000000000000000000000000J F GUIMARAES CIA LTDA                  RUA PRES EPITACIO PESSOA 561                      TARUMA              82530270CURITIBA            PR004133085843s6209100a0002515    2003     000000000000000000000000000000000000000000000000000000000000                000000000000000000000000000000000000000000000    *
12112907308000102000000000000000000000000000000000000000000000000000000000000000000 000000000000000000000000000000                                000000000000000            000000000000000000000000000000000000000000000000000000000000000000000000000000000000000000000000000000000000000000000000000000000000000000000000000000000000000000000000000000000000      *
30112907308000102               130421125261211201011FLAVIA SAMPAIO GUIMARAES                                                                                     01231000000000072400000000000000000    000000000000000000000000000000000000000000000000000000000000                                                                                                  *
90999999999999999999999999999999999999999999999999999                                                                                                                                                                                                                                                                                                                  *
