00                                                   1110343225000102PADOVANI SERVICOS DE INFORMATICESAR PADOVANI DE SORUA GIACINTO TOGNATO 1715                         BAETA NEVES         09760372SAO BERNARDO DO CAMPSP001128972658                                                            20170411511        1               110343225000102                  *
10110343225000102000000000000000000000000000000000000PADOVANI SERVICOS DE INFORMATICA LTDA   RUA GIACINTO TOGNATO 1715                         BAETA NEVES         09760372SAO BERNARDO DO CAMPSP001128972658s6209100a0002515    2003     000000000000000000000000000000000000000000000000000000000000                000000000000000000000000000000000000000000000    *
12110343225000102000000000000000000000000000000000000000000000000000000000000000000 000000000000000000000000000000                                000000000000000            000000000000000000000000000000000000000000000000000000000000000000000000000000000000000000000000000000000000000000000000000000000000000000000000000000000000000000000000000000000000      *
30110343225000102               124091145812908200811CESAR PADOVANI DE SOUZA                                                                                      01210000000000093700000000000000000    000000000000000000000000000000000000000000000000000000000000                                                                                                  *
90999999999999999999999999999999999999999999999999999                                                                                                                                                                                                                                                                                                                  *
