00                                                   1132081994000104D QUEIROZ DESENHO E ARTE LTDA DAVID QUEIROZ DE OLIRUA PEDRO DE CARVALHO 820                         LINS DE VASCONCELOS 20725233RIO DE JANEIRO      RJ002125676881                                                            20170311511        1               132081994000104                  *
10132081994000104000000000000000000000000000000000000D QUEIROZ DESENHO E ARTE LTDA           RUA PEDRO DE CARVALHO 820                         LINS DE VASCONCELOS 20725233RIO DE JANEIRO      RJ002125676881s8299799a0002515    2003     000000000000000000000000000000000000000000000000000000000000                000000000000000000000000000000000000000000000    *
12132081994000104000000000000000000000000000000000000000000000000000000000000000000 000000000000000000000000000000                                000000000000000            000000000000000000000000000000000000000000000000000000000000000000000000000000000000000000000000000000000000000000000000000000000000000000000000000000000000000000000000000000000000      *
30132081994000104               117132381730908198811DAVID QUEIROZ DE OLIVEIRA                                                                                    01231000000000187400000000000000000    000000000000000000000000000000000000000000000000000000000000                                                                                                  *
90999999999999999999999999999999999999999999999999999                                                                                                                                                                                                                                                                                                                  *
