00                                                   1120335335000178ANDREZA S DE RENNA MIYADA ME  ANDREZA SILVA DE RENRUA VERGUEIRO 2986 APTO 61                        VILA MARIANA        04102001SAO PAULO           SP011975251646                                                            20170411511        1               120335335000178                  *
10120335335000178000000000000000000000000000000000000ANDREZA S DE RENNA MIYADA ME            RUA VERGUEIRO 2986 APTO 61                        VILA MARIANA        04102001SAO PAULO           SP011975251646s8230001a0002515    2003     000000000000000000000000000000000000000000000000000000000000                000000000000000000000000000000000000000000000    *
12120335335000178000000000000000000000000000000000000000000000000000000000000000000 000000000000000000000000000000                                000000000000000            000000000000000000000000000000000000000000000000000000000000000000000000000000000000000000000000000000000000000000000000000000000000000000000000000000000000000000000000000000000000      *
30120335335000178               168707297602805201411ANDREZA SILVA DE RENNA MIYADA                                                                                02629000000000200000000000000000000    000000000000000000000000000000000000000000000000000000000000                                                                                                  *
90999999999999999999999999999999999999999999999999999                                                                                                                                                                                                                                                                                                                  *
