00                                                   1110936014000175SENSORIOS CORRETORA DE SEGUROSJERRE DE FREITAS DINAV MERITI 2557 SALA 203                           VILA DA PENHA       21211007RIO DE JANEIRO      RJ002130261516                                                            20150811511        1               110936014000175                  *
10110936014000175000000000000000000000000000000000000SENSORIOS CORRETORA DE SEGUROS LTDA     AV MERITI 2557 SALA 203                           VILA DA PENHA       21211007RIO DE JANEIRO      RJ002130261516s6622300a0002515    2003     000000000000000000000000000000000000000000000000000000000000                000000000000000000000000000000000000000000000    *
12110936014000175000000000000000000000000000000000000000000000000000000000000000000 000000000000000000000000000000                                000000000000000            000000000000000000000000000000000000000000000000000000000000000000000000000000000000000000000000000000000000000000000000000000000000000000000000000000000000000000000000000000000000      *
30110936014000175               116516141000207200911JERRE DE FREITAS DINIZ                                                                                       03545000000000080000000000000000000  05000000000008800000000000000000000000000000000000000000000000                                                                                                  *
90999999999999999999999999999999999999999999999999999                                                                                                                                                                                                                                                                                                                  *
