00                                                   1119717778000144HOPF GESTAO EMPRESARIAL LTDA                      SBS Q 02 BLOCO E SALA 206                         ASA SUL             70070120BRASILIA            DF006193330727                                                            20160711511        1               119717778000144                  *
10119717778000144000000000000000000000000000000000000HOPF GESTAO EMPRESARIAL LTDA            SBS Q 02 BLOCO E SALA 206                         ASA SUL             70070120BRASILIA            DF006193330727s8211300a0002515    2003     000000000000000000000000000000000000000000000000000000000000                000000000000000000000000000000000000000000000    *
12119717778000144000000000000000000000000000000000000000000000000000000000000000000 000000000000000000000000000000                                000000000000000            000000000000000000000000000000000000000000000000000000000000000000000000000000000000000000000000000000000000000000000000000000000000000000000000000000000000000000000000000000000000      *
30119717778000144               124287476591302201411PAULO RICARDO SILVEIRA HOPF                                                                                  01210000000000088000000000000000000    000000000000000000000000000000000000000000000000000000000000                                                                                                  *
30119717778000144               124681568211302201411JULIANA MARQUES BONVINI HOPF                                                                                 01231000000000088000000000000000000    000000000000000000000000000000000000000000000000000000000000                                                                                                  *
90999999999999999999999999999999999999999999999999999                                                                                                                                                                                                                                                                                                                  *
