00                                                   1113620337000143WR DE MIRANDA PROCESSAMENTO   WALDISON RODRIGUES DRUA FORTUNATO FERRAZ 320 APTO 75 BL 3             VILA ANASTACIO      05093000SAO PAULO           SP011999198308                                                            20150111511        1               113620337000143                  *
10113620337000143000000000000000000000000000000000000WR DE MIRANDA PROCESSAMENTO             RUA FORTUNATO FERRAZ 320 APTO 75 BL 3             VILA ANASTACIO      05093000SAO PAULO           SP011999198308s6311900a0002515    2003     000000000000000000000000000000000000000000000000000000000000                000000000000000000000000000000000000000000000    *
12113620337000143000000000000000000000000000000000000000000000000000000000000000000 000000000000000000000000000000                                000000000000000            000000000000000000000000000000000000000000000000000000000000000000000000000000000000000000000000000000000000000000000000000000000000000000000000000000000000000000000000000000000000      *
30113620337000143               126159018520104201111WALDISON RODRIGUES DE MIRANDA                                                                                03171000000000150000000000000000000    000000000000000000000000000000000000000000000000000000000000                                                                                                  *
90999999999999999999999999999999999999999999999999999                                                                                                                                                                                                                                                                                                                  *
