00                                                   1104210784000133MY SOLUTION INFORMATICA LTDA MMARCELLO YESCA      RUA SANTA VIRGINIA 408 CJ 24                      TATUAPE             03084000SAO PAULO           SP011982718466                                                            20170411511        1               104210784000133                  *
10104210784000133000000000000000000000000000000000000MY SOLUTION INFORMATICA LTDA M          RUA SANTA VIRGINIA 408 CJ 24                      TATUAPE             03084000SAO PAULO           SP011982718466s9511800a0002515    2003     000000000000000000000000000000000000000000000000000000000000                000000000000000000000000000000000000000000000    *
12104210784000133000000000000000000000000000000000000000000000000000000000000000000 000000000000000000000000000000                                000000000000000            000000000000000000000000000000000000000000000000000000000000000000000000000000000000000000000000000000000000000000000000000000000000000000000000000000000000000000000000000000000000      *
30104210784000133               121425248872009200011MARCELLO YESCA                                                                                               01210000000000093700000000000000000    000000000000000000000000000000000000000000000000000000000000                                                                                                  *
90999999999999999999999999999999999999999999999999999                                                                                                                                                                                                                                                                                                                  *
