00                                                   1112543485000149ATORES ASSOCIADOS LTDA ME     ELISEU PARANHOS DA SRUA HUMBERTO I 17374                              VILA MARIANA        04018030SAO PAULO           SP011974496008                                                            20170411511        1               112543485000149                  *
10112543485000149000000000000000000000000000000000000ATORES ASSOCIADOS LTDA ME               RUA HUMBERTO I 17374                              VILA MARIANA        04018030SAO PAULO           SP011974496008s5912099a0002566    2003     000000000000000000000000000000000000000000000000000000000000                000000000000000000000000000000000000000000000    *
12112543485000149000000000000000000000000000000000000000000000000000000000000000000 000000000000000000000000000000                                000000000000000            000000000000000000000000000000000000000000000000000000000000000000000000000000000000000000000000000000000000000000000000000000000000000000000000000000000000000000000000000000000000      *
30112543485000149               121867780350809201011ELISEU PARANHOS DA SILVA                                                                                     01231000000000093700000000000000000    000000000000000000000000000000000000000000000000000000000000                                                                                                  *
30112543485000149               128644368940809201011JULIANA FAGUNDES                                                                                             01231000000000093700000000000000000    000000000000000000000000000000000000000000000000000000000000                                                                                                  *
90999999999999999999999999999999999999999999999999999                                                                                                                                                                                                                                                                                                                  *
