00                                                   1112759009000160JULIO CESAR MOREIRA LANGE DE BJULIO CESAR MOREIRA RUA PROFESSOR JOSE LANDULFO 109                   PARQUE SONIA        04126110SAO PAULO           SP011975532341                                                            20170411511        1               112759009000160                  *
10112759009000160000000000000000000000000000000000000JULIO CESAR MOREIRA LANGE DE BARROS SERVRUA PROFESSOR JOSE LANDULFO 109                   PARQUE SONIA        04126110SAO PAULO           SP011975532341s6209100a0002515    2003     000000000000000000000000000000000000000000000000000000000000                000000000000000000000000000000000000000000000    *
12112759009000160000000000000000000000000000000000000000000000000000000000000000000 000000000000000000000000000000                                000000000000000            000000000000000000000000000000000000000000000000000000000000000000000000000000000000000000000000000000000000000000000000000000000000000000000000000000000000000000000000000000000000      *
30112759009000160               135843868952204200911JULIO CESAR MOREIRA LANGE DE BARROS                                                                          01210000000000093700000000000000000    000000000000000000000000000000000000000000000000000000000000                                                                                                  *
90999999999999999999999999999999999999999999999999999                                                                                                                                                                                                                                                                                                                  *
