00                                                   1105161173000105PROTEXTO DESIGN SC LTDA       LIDIA ANGELA LA MARCRUA GENERAL JARDIM 662                            VILA BUARQUE        01223010SAO PAULO           SP001131593796                                                            20170411511        1               105161173000105                  *
10105161173000105000000000000000000000000000000000000PROTEXTO DESIGN SC LTDA                 RUA GENERAL JARDIM 662                            VILA BUARQUE        01223010SAO PAULO           SP001131593796s8299799a0002515    2003     000000000000000000000000000000000000000000000000000000000000                000000000000000000000000000000000000000000000    *
12105161173000105000000000000000000000000000000000000000000000000000000000000000000 000000000000000000000000000000                                000000000000000            000000000000000000000000000000000000000000000000000000000000000000000000000000000000000000000000000000000000000000000000000000000000000000000000000000000000000000000000000000000000      *
30105161173000105               122945355040507201211LEIA MARIA FONTES GUIMARAES                                                                                  02611000000000300000000000000000000    000000000000000000000000000000000000000000000000000000000000                                                                                                  *
90999999999999999999999999999999999999999999999999999                                                                                                                                                                                                                                                                                                                  *
