00                                                   1112773064000104KENNEDY EDUARDO DA SILVA ME   KENNEDY EDUARDO DA SRUA DAS CAPITANIAS 209                            JARDIM NOVE DE JULHO03952050SAO PAULO           SP011973038465                                                            20140511511        1               112773064000104                  *
10112773064000104000000000000000000000000000000000000KENNEDY EDUARDO DA SILVA ME             RUA DAS CAPITANIAS 209                            JARDIM NOVE DE JULHO03952050SAO PAULO           SP011973038465s6399200a0002515    2003     000000000000000000000000000000000000000000000000000000000000                000000000000000000000000000000000000000000000    *
12112773064000104000000000000000000000000000000000000000000000000000000000000000000 000000000000000000000000000000                                000000000000000            000000000000000000000000000000000000000000000000000000000000000000000000000000000000000000000000000000000000000000000000000000000000000000000000000000000000000000000000000000000000      *
30112773064000104               125398706372010201011KENNEDY EDUARDO DA SILVA                                                                                     02124000000000072400000000000000000    000000000000000000000000000000000000000000000000000000000000                                                                                                  *
90999999999999999999999999999999999999999999999999999                                                                                                                                                                                                                                                                                                                  *
