00                                                   1113295729000184ADRIANO MARTINS ALVES DOS SANTADRIANO MARTINS ALVERUA MESTRA MARIA ALGUSTA N45                      CENTRO              39790000AGUA BOA            MG003387079474                                                            20150311511        1               113295729000184                  *
10113295729000184000000000000000000000000000000000000ADRIANO MARTINS ALVES DOS SANTOS        RUA MESTRA MARIA ALGUSTA N45                      CENTRO              39790000AGUA BOA            MG003387079474s2542000a0002507    2003     000000000000000000000000000000000000000000000000000000000000                000000000000000000000000000000000000000000000    *
12113295729000184000000000000000000000000000000000000000000000000000000000000000000 000000000000000000000000000000                                000000000000000            000000000000000000000000000000000000000000000000000000000000000000000000000000000000000000000000000000000000000000000000000000000000000000000000000000000000000000000000000000000000      *
30113295729000184               160146496632302201111ADRIANO MARTINS ALVES DOS SANTOS                                                                             00213000000000157600000000000000000  05000000000017336000000000000000000000000000000000000000000000                                                                                                  *
90999999999999999999999999999999999999999999999999999                                                                                                                                                                                                                                                                                                                  *
