00                                                   1103726756000100A CLASS SURF SS LTDA ME       FLAVIO LUIZ BRAOJOS RUA SILVESTRE DE LIMA 05                          JARDIM HOLLYWOOD    09608020SAO BERNARDO DO CAMPSP011996693316                                                            20131111511        1               103726756000100                  *
10103726756000100000000000000000000000000000000000000A CLASS SURF SS LTDA ME                 RUA SILVESTRE DE LIMA 05                          JARDIM HOLLYWOOD    09608020SAO BERNARDO DO CAMPSP011996693316s8299799a0002515    2003     000000000000000000000000000000000000000000000000000000000000                000000000000000000000000000000000000000000000    *
12103726756000100000000000000000000000000000000000000000000000000000000000000000000 000000000000000000000000000000                                000000000000000            000000000000000000000000000000000000000000000000000000000000000000000000000000000000000000000000000000000000000000000000000000000000000000000000000000000000000000000000000000000000      *
30103726756000100               122109247252803200011FLAVIO LUIZ BRAOJOS                                                                                          03186000000000067800000000000000000    000000000000000000000000000000000000000000000000000000000000                                                                                                  *
90999999999999999999999999999999999999999999999999999                                                                                                                                                                                                                                                                                                                  *
