00                                                   1118252427000142A BREDA SERVICOS ADMINISTRATI ANTONIO BREDA       RUA JOSE MARIA GONCALVES 89 SL 1                  PARQUE ESMERALDA    05784100SAO PAULO           SP001158423011                                                            20170411511        1               118252427000142                  *
10118252427000142000000000000000000000000000000000000A BREDA SERVICOS ADMINISTRATI           RUA JOSE MARIA GONCALVES 89 SL 1                  PARQUE ESMERALDA    05784100SAO PAULO           SP001158423011s8219999a0002515    2003     000000000000000000000000000000000000000000000000000000000000                000000000000000000000000000000000000000000000    *
12118252427000142000000000000000000000000000000000000000000000000000000000000000000 000000000000000000000000000000                                000000000000000            000000000000000000000000000000000000000000000000000000000000000000000000000000000000000000000000000000000000000000000000000000000000000000000000000000000000000000000000000000000000      *
30118252427000142               104215022470506201311ANTONIO BREDA                                                                                                01210000000000093700000000000000000    000000000000000000000000000000000000000000000000000000000000                                                                                                  *
90999999999999999999999999999999999999999999999999999                                                                                                                                                                                                                                                                                                                  *
