00                                                   1119718211000192PIRES OLIVEIRA SERVICOS EM TI CLAUDIO MANOEL GOMESAV FREDERICO HEYSE 1328 APTO 21                   ALTO DE MAFRA       89300000MAFRA               SC004799694382                                                            20151111511        1               119718211000192                  *
10119718211000192000000000000000000000000000000000000PIRES OLIVEIRA SERVICOS EM TI LTDA ME   AV FREDERICO HEYSE 1328 APTO 21                   ALTO DE MAFRA       89300000MAFRA               SC004799694382s6209100a0002515    2003     000000000000000000000000000000000000000000000000000000000000                000000000000000000000000000000000000000000000    *
12119718211000192000000000000000000000000000000000000000000000000000000000000000000 000000000000000000000000000000                                000000000000000            000000000000000000000000000000000000000000000000000000000000000000000000000000000000000000000000000000000000000000000000000000000000000000000000000000000000000000000000000000000000      *
30119718211000192               123638027231302201411CLAUDIO MANOEL GOMES DE OLIVEIRA                                                                             01210000000000078800000000000000000    000000000000000000000000000000000000000000000000000000000000                                                                                                  *
90999999999999999999999999999999999999999999999999999                                                                                                                                                                                                                                                                                                                  *
