00                                                   1107431477000170MR PAULINO NEGOCIOS E SERVICOSJOSE FERREIRA PAULINR LAGOA DAS GARCAS 200 1706 PARTE                 BARRA DA TIJUCA     22793400RIO DE JANEIRO      RJ021991672957                                                            20170411511        1               107431477000170                  *
10107431477000170000000000000000000000000000000000000MR PAULINO NEGOCIOS E SERVICOS DE EDITORR LAGOA DAS GARCAS 200 1706 PARTE                 BARRA DA TIJUCA     22793400RIO DE JANEIRO      RJ021991672957s5819100a0002566    2003     000000000000000000000000000000000000000000000000000000000000                000000000000000000000000000000000000000000000    *
12107431477000170000000000000000000000000000000000000000000000000000000000000000000 000000000000000000000000000000                                000000000000000            000000000000000000000000000000000000000000000000000000000000000000000000000000000000000000000000000000000000000000000000000000000000000000000000000000000000000000000000000000000000      *
30107431477000170               119810481831508201111SERGIO ROUSSELET PAULINO                                                                                     01231000000000187400000000000000000    000000000000000000000000000000000000000000000000000000000000                                                                                                  *
90999999999999999999999999999999999999999999999999999                                                                                                                                                                                                                                                                                                                  *
