00                                                   1107931426000108LINE IN COMUNICACAO LTDA      CHRISTIANE MARTINS SRUA CARAJUA 60 CONJ33                             VILA UBERABINHA     04520020SAO PAULO           SP001150960518                                                            20140411511        1               107931426000108                  *
10107931426000108000000000000000000000000000000000000LINE IN COMUNICACAO LTDA                RUA CARAJUA 60 CONJ33                             VILA UBERABINHA     04520020SAO PAULO           SP001150960518s8230001a0002515    2003     000000000000000000000000000000000000000000000000000000000000                000000000000000000000000000000000000000000000    *
12107931426000108000000000000000000000000000000000000000000000000000000000000000000 000000000000000000000000000000                                000000000000000            000000000000000000000000000000000000000000000000000000000000000000000000000000000000000000000000000000000000000000000000000000000000000000000000000000000000000000000000000000000000      *
30107931426000108               129853578981503200611CHRISTIANE MARTINS SASSOON                                                                                   02531000000000072400000000000000000    000000000000000000000000000000000000000000000000000000000000                                                                                                  *
90999999999999999999999999999999999999999999999999999                                                                                                                                                                                                                                                                                                                  *
