00                                                   1112781815000134JOAQUIM ONOFRE ARAUJO NETO 021JOAQUIM ONOFRE ARAUJRUA PAULO RIBERIO DA LUZ 170 APTO 123             VILA GOMES          05590140SAO PAULO           SP011991024469                                                            20150111511        1               112781815000134                  *
10112781815000134000000000000000000000000000000000000JOAQUIM ONOFRE ARAUJO NETO 02181559805 MRUA PAULO RIBERIO DA LUZ 170 APTO 123             VILA GOMES          05590140SAO PAULO           SP011991024469s9001902a0002566    2003     000000000000000000000000000000000000000000000000000000000000                000000000000000000000000000000000000000000000    *
12112781815000134000000000000000000000000000000000000000000000000000000000000000000 000000000000000000000000000000                                000000000000000            000000000000000000000000000000000000000000000000000000000000000000000000000000000000000000000000000000000000000000000000000000000000000000000000000000000000000000000000000000000000      *
30112781815000134               123443723602910201011JOAQUIM ONOFRE ARAUJO NETO                                                                                   02627000000000078800000000000000000    000000000000000000000000000000000000000000000000000000000000                                                                                                  *
90999999999999999999999999999999999999999999999999999                                                                                                                                                                                                                                                                                                                  *
