00                                                   1119472185000165MULTICLIMA AR CONDICIONADO LTDRAFAEL DO CARMO SILVRODOVIA SERAFIM DERENZI N352                      SANTO ANTONIO       29026470VITORIA             ES002730327801                                                            20160211511        1               119472185000165                  *
10119472185000165000000000000000000000000000000000000MULTICLIMA AR CONDICIONADO LTDA ME      RODOVIA SERAFIM DERENZI N352                      SANTO ANTONIO       29026470VITORIA             ES002730327801s9521500a0002515    2003     000000000000000000000000000000000000000000000000000000000000                000000000000000000000000000000000000000000000    *
12119472185000165000000000000000000000000000000000000000000000000000000000000000000 000000000000000000000000000000                                000000000000000            000000000000000000000000000000000000000000000000000000000000000000000000000000000000000000000000000000000000000000000000000000000000000000000000000000000000000000000000000000000000      *
30119472185000165               130288886280601201411RAFAEL DO CARMO SILVANO                                                                                      01231000000000088000000000000000000    000000000000000000000000000000000000000000000000000000000000                                                                                                  *
30119472185000165               165299734010601201411TALITA DE QUEIROZ SILVA SILVANO                                                                              04110000000000088000000000000000000    000000000000000000000000000000000000000000000000000000000000                                                                                                  *
90999999999999999999999999999999999999999999999999999                                                                                                                                                                                                                                                                                                                  *
