00                                                   1109225248000125MCR MENDES CONSTRUCOES E REFORCLAUDINEI DIAS MENDERUA TANAGRA VIOLACEA 51                           PARADA DE TAIPAS    02990350SAO PAULO           SP001139495690                                                            20140311511        1               109225248000125                  *
10109225248000125000000000000000000000000000000000000MCR MENDES CONSTRUCOES E REFOR          RUA TANAGRA VIOLACEA 51                           PARADA DE TAIPAS    02990350SAO PAULO           SP001139495690s4330404a0002507    2003     000000000000000000000000000000000000000000000000000000000000                000000000000000000000000000000000000000000000    *
12109225248000125000000000000000000000000000000000000000000000000000000000000000000 000000000000000000000000000000                                000000000000000            000000000000000000000000000000000000000000000000000000000000000000000000000000000000000000000000000000000000000000000000000000000000000000000000000000000000000000000000000000000000      *
30109225248000125               126957039391309200711CLAUDINEI DIAS MENDES                                                                                        02521000000000072400000000000000000    000000000000000000000000000000000000000000000000000000000000                                                                                                  *
90999999999999999999999999999999999999999999999999999                                                                                                                                                                                                                                                                                                                  *
