00                                                   1122368631000109MARTINS E PASQUALINI SOCIEDADEIVO FERNANDO PEREIRAPRACA DA SE N 96 CJ 414 4 ANDAR                   CENTRO              01001001SAO PAULO           SP001131044055                                                            20150611511        1               122368631000109                  *
10122368631000109000000000000000000000000000000000000MARTINS E PASQUALINI SOCIEDADE DE ADVOGAPRACA DA SE N 96 CJ 414 4 ANDAR                   CENTRO              01001001SAO PAULO           SP001131044055s6911701a100151500002100     000000000000000000000000000000000000000000000000000000000000                000000000000000000000000000000000000000000000    *
12122368631000109000000000000000000000000000000000000000000000000000000000000000000 000000000000000000000000000000                                000000000000000            000000000000000000000000000000000000000000000000000000000000000000000000000000000000000000000000000000000000000000000000000000000000000000000000000000000000000000000000000000000000      *
30122368631000109               138641417791102201511BRUNO PASQUALINI CAZADO                                                                                      02410000000000078800000000000000000    000000000000000000000000000000000000000000000000000000000000                                                                                                  *
30122368631000109               267743533371102201511IVO FERNANDO PEREIRA MARTINS                                                                                 02410000000000078800000000000000000    000000000000000000000000000000000000000000000000000000000000                                                                                                  *
90999999999999999999999999999999999999999999999999999                                                                                                                                                                                                                                                                                                                  *
