00                                                   1108432588000164LANGUAGE WORKSHOP TRADUCAO E IMRIA EMILIA GUTTILLARUA CARDOSO DE ALMEIDA 60 SALA 103                PERDIZES            05013000SAO PAULO           SP001133689462                                                            20150611511        1               108432588000164                  *
10108432588000164000000000000000000000000000000000000LANGUAGE WORKSHOP TRADUCAO E INTERPRETACRUA CARDOSO DE ALMEIDA 60 SALA 103                PERDIZES            05013000SAO PAULO           SP001133689462s7490101a0002566    2003     000000000000000000000000000000000000000000000000000000000000                000000000000000000000000000000000000000000000    *
12108432588000164000000000000000000000000000000000000000000000000000000000000000000 000000000000000000000000000000                                000000000000000            000000000000000000000000000000000000000000000000000000000000000000000000000000000000000000000000000000000000000000000000000000000000000000000000000000000000000000000000000000000000      *
30108432588000164               126621338581610200611MRIA EMILIA GUTTILLA                                                                                         01210000000000078800000000000000000    000000000000000000000000000000000000000000000000000000000000                                                                                                  *
90999999999999999999999999999999999999999999999999999                                                                                                                                                                                                                                                                                                                  *
