00                                                   1118848557000142AL GIDRA ESPACOS PUBLICITARIOSANDRE LUIZ GIDRA    AV NOVE DE JULHO862AP54                           BELA VISTA          01312000SAO PAULO           SP001146841316                                                            20170411511        1               118848557000142                  *
10118848557000142000000000000000000000000000000000000AL GIDRA ESPACOS PUBLICITARIOS EIRELI MEAV NOVE DE JULHO862AP54                           BELA VISTA          01312000SAO PAULO           SP001146841316s7312200a0002566    2003     000000000000000000000000000000000000000000000000000000000000                000000000000000000000000000000000000000000000    *
12118848557000142000000000000000000000000000000000000000000000000000000000000000000 000000000000000000000000000000                                000000000000000            000000000000000000000000000000000000000000000000000000000000000000000000000000000000000000000000000000000000000000000000000000000000000000000000000000000000000000000000000000000000      *
30118848557000142               116520396990110201411ANDRE LUIZ GIDRA                                                                                             01210000000000210000000000000000000    000000000000000000000000000000000000000000000000000000000000                                                                                                  *
90999999999999999999999999999999999999999999999999999                                                                                                                                                                                                                                                                                                                  *
